{
	"contracts/zombies.sol": {
		"Zombies": {
			"abi": [
				{
					"inputs": [
						{
							"internalType": "string",
							"name": "_name",
							"type": "string"
						},
						{
							"internalType": "uint256",
							"name": "_age",
							"type": "uint256"
						},
						{
							"internalType": "bool",
							"name": "_converted",
							"type": "bool"
						}
					],
					"name": "addZombie",
					"outputs": [],
					"stateMutability": "nonpayable",
					"type": "function"
				},
				{
					"inputs": [
						{
							"internalType": "string",
							"name": "",
							"type": "string"
						}
					],
					"name": "findZombie",
					"outputs": [
						{
							"internalType": "bool",
							"name": "",
							"type": "bool"
						}
					],
					"stateMutability": "view",
					"type": "function"
				},
				{
					"inputs": [
						{
							"internalType": "uint256",
							"name": "",
							"type": "uint256"
						}
					],
					"name": "zoms",
					"outputs": [
						{
							"internalType": "string",
							"name": "name",
							"type": "string"
						},
						{
							"internalType": "uint256",
							"name": "age",
							"type": "uint256"
						},
						{
							"internalType": "bool",
							"name": "isConverted",
							"type": "bool"
						}
					],
					"stateMutability": "view",
					"type": "function"
				}
			],
			"devdoc": {
				"kind": "dev",
				"methods": {},
				"version": 1
			},
			"evm": {
				"assembly": "    /* \"contracts/zombies.sol\":57:690  contract Zombies {... */\n  mstore(0x40, 0x80)\n    /* \"contracts/zombies.sol\":100:102  10 */\n  0x0a\n    /* \"contracts/zombies.sol\":80:102  uint256 dnaZombie = 10 */\n  0x00\n  sstore\n    /* \"contracts/zombies.sol\":142:144  10 */\n  0x0a\n    /* \"contracts/zombies.sol\":129:138  dnaZombie */\n  sload(0x00)\n    /* \"contracts/zombies.sol\":129:144  dnaZombie ** 10 */\n  tag_1\n  swap2\n  swap1\n  tag_2\n  jump\t// in\ntag_1:\n    /* \"contracts/zombies.sol\":108:144  uint256 dnaModulos = dnaZombie ** 10 */\n  0x01\n  sstore\n    /* \"contracts/zombies.sol\":57:690  contract Zombies {... */\n  callvalue\n  dup1\n  iszero\n  tag_3\n  jumpi\n  0x00\n  dup1\n  revert\ntag_3:\n  pop\n  jump(tag_4)\n    /* \"#utility.yul\":7:187   */\ntag_5:\n    /* \"#utility.yul\":55:132   */\n  0x4e487b7100000000000000000000000000000000000000000000000000000000\n    /* \"#utility.yul\":52:53   */\n  0x00\n    /* \"#utility.yul\":45:133   */\n  mstore\n    /* \"#utility.yul\":152:156   */\n  0x11\n    /* \"#utility.yul\":149:150   */\n  0x04\n    /* \"#utility.yul\":142:157   */\n  mstore\n    /* \"#utility.yul\":176:180   */\n  0x24\n    /* \"#utility.yul\":173:174   */\n  0x00\n    /* \"#utility.yul\":166:181   */\n  revert\n    /* \"#utility.yul\":193:295   */\ntag_6:\n    /* \"#utility.yul\":235:243   */\n  0x00\n    /* \"#utility.yul\":282:287   */\n  dup2\n    /* \"#utility.yul\":279:280   */\n  0x01\n    /* \"#utility.yul\":275:288   */\n  shr\n    /* \"#utility.yul\":254:288   */\n  swap1\n  pop\n    /* \"#utility.yul\":193:295   */\n  swap2\n  swap1\n  pop\n  jump\t// out\n    /* \"#utility.yul\":301:1149   */\ntag_7:\n    /* \"#utility.yul\":362:367   */\n  0x00\n    /* \"#utility.yul\":369:373   */\n  dup1\n    /* \"#utility.yul\":393:399   */\n  dup3\n    /* \"#utility.yul\":384:399   */\n  swap2\n  pop\n    /* \"#utility.yul\":417:422   */\n  dup4\n    /* \"#utility.yul\":408:422   */\n  swap1\n  pop\n    /* \"#utility.yul\":431:1143   */\ntag_15:\n    /* \"#utility.yul\":452:453   */\n  0x01\n    /* \"#utility.yul\":442:450   */\n  dup6\n    /* \"#utility.yul\":439:454   */\n  gt\n    /* \"#utility.yul\":431:1143   */\n  iszero\n  tag_17\n  jumpi\n    /* \"#utility.yul\":547:551   */\n  dup1\n    /* \"#utility.yul\":542:545   */\n  dup7\n    /* \"#utility.yul\":538:552   */\n  div\n    /* \"#utility.yul\":532:536   */\n  dup2\n    /* \"#utility.yul\":529:553   */\n  gt\n    /* \"#utility.yul\":526:576   */\n  iszero\n  tag_18\n  jumpi\n    /* \"#utility.yul\":556:574   */\n  tag_19\n  tag_5\n  jump\t// in\ntag_19:\n    /* \"#utility.yul\":526:576   */\ntag_18:\n    /* \"#utility.yul\":606:607   */\n  0x01\n    /* \"#utility.yul\":596:604   */\n  dup6\n    /* \"#utility.yul\":592:608   */\n  and\n    /* \"#utility.yul\":589:1040   */\n  iszero\n  tag_20\n  jumpi\n    /* \"#utility.yul\":1021:1025   */\n  dup1\n    /* \"#utility.yul\":1014:1019   */\n  dup3\n    /* \"#utility.yul\":1010:1026   */\n  mul\n    /* \"#utility.yul\":1001:1026   */\n  swap2\n  pop\n    /* \"#utility.yul\":589:1040   */\ntag_20:\n    /* \"#utility.yul\":1071:1075   */\n  dup1\n    /* \"#utility.yul\":1065:1069   */\n  dup2\n    /* \"#utility.yul\":1061:1076   */\n  mul\n    /* \"#utility.yul\":1053:1076   */\n  swap1\n  pop\n    /* \"#utility.yul\":1101:1133   */\n  tag_21\n    /* \"#utility.yul\":1124:1132   */\n  dup6\n    /* \"#utility.yul\":1101:1133   */\n  tag_6\n  jump\t// in\ntag_21:\n    /* \"#utility.yul\":1089:1133   */\n  swap5\n  pop\n    /* \"#utility.yul\":431:1143   */\n  jump(tag_15)\ntag_17:\n    /* \"#utility.yul\":301:1149   */\n  swap5\n  pop\n  swap5\n  swap3\n  pop\n  pop\n  pop\n  jump\t// out\n    /* \"#utility.yul\":1155:2228   */\ntag_8:\n    /* \"#utility.yul\":1209:1214   */\n  0x00\n    /* \"#utility.yul\":1400:1408   */\n  dup3\n    /* \"#utility.yul\":1390:1430   */\n  tag_23\n  jumpi\n    /* \"#utility.yul\":1421:1422   */\n  0x01\n    /* \"#utility.yul\":1412:1422   */\n  swap1\n  pop\n    /* \"#utility.yul\":1423:1428   */\n  jump(tag_22)\n    /* \"#utility.yul\":1390:1430   */\ntag_23:\n    /* \"#utility.yul\":1449:1453   */\n  dup2\n    /* \"#utility.yul\":1439:1475   */\n  tag_24\n  jumpi\n    /* \"#utility.yul\":1466:1467   */\n  0x00\n    /* \"#utility.yul\":1457:1467   */\n  swap1\n  pop\n    /* \"#utility.yul\":1468:1473   */\n  jump(tag_22)\n    /* \"#utility.yul\":1439:1475   */\ntag_24:\n    /* \"#utility.yul\":1535:1539   */\n  dup2\n    /* \"#utility.yul\":1583:1584   */\n  0x01\n    /* \"#utility.yul\":1578:1605   */\n  dup2\n  eq\n  tag_26\n  jumpi\n    /* \"#utility.yul\":1619:1620   */\n  0x02\n    /* \"#utility.yul\":1614:1805   */\n  dup2\n  eq\n  tag_27\n  jumpi\n    /* \"#utility.yul\":1528:1805   */\n  jump(tag_25)\n    /* \"#utility.yul\":1578:1605   */\ntag_26:\n    /* \"#utility.yul\":1596:1597   */\n  0x01\n    /* \"#utility.yul\":1587:1597   */\n  swap2\n  pop\n    /* \"#utility.yul\":1598:1603   */\n  pop\n  jump(tag_22)\n    /* \"#utility.yul\":1614:1805   */\ntag_27:\n    /* \"#utility.yul\":1659:1662   */\n  0xff\n    /* \"#utility.yul\":1649:1657   */\n  dup5\n    /* \"#utility.yul\":1646:1663   */\n  gt\n    /* \"#utility.yul\":1643:1686   */\n  iszero\n  tag_28\n  jumpi\n    /* \"#utility.yul\":1666:1684   */\n  tag_29\n  tag_5\n  jump\t// in\ntag_29:\n    /* \"#utility.yul\":1643:1686   */\ntag_28:\n    /* \"#utility.yul\":1715:1723   */\n  dup4\n    /* \"#utility.yul\":1712:1713   */\n  0x02\n    /* \"#utility.yul\":1708:1724   */\n  exp\n    /* \"#utility.yul\":1699:1724   */\n  swap2\n  pop\n    /* \"#utility.yul\":1750:1753   */\n  dup5\n    /* \"#utility.yul\":1743:1748   */\n  dup3\n    /* \"#utility.yul\":1740:1754   */\n  gt\n    /* \"#utility.yul\":1737:1777   */\n  iszero\n  tag_30\n  jumpi\n    /* \"#utility.yul\":1757:1775   */\n  tag_31\n  tag_5\n  jump\t// in\ntag_31:\n    /* \"#utility.yul\":1737:1777   */\ntag_30:\n    /* \"#utility.yul\":1790:1795   */\n  pop\n  jump(tag_22)\n    /* \"#utility.yul\":1528:1805   */\ntag_25:\n  pop\n    /* \"#utility.yul\":1914:1916   */\n  0x20\n    /* \"#utility.yul\":1904:1912   */\n  dup4\n    /* \"#utility.yul\":1901:1917   */\n  lt\n    /* \"#utility.yul\":1895:1898   */\n  0x0133\n    /* \"#utility.yul\":1889:1893   */\n  dup4\n    /* \"#utility.yul\":1886:1899   */\n  lt\n    /* \"#utility.yul\":1882:1918   */\n  and\n    /* \"#utility.yul\":1864:1866   */\n  0x4e\n    /* \"#utility.yul\":1854:1862   */\n  dup5\n    /* \"#utility.yul\":1851:1867   */\n  lt\n    /* \"#utility.yul\":1846:1848   */\n  0x0b\n    /* \"#utility.yul\":1840:1844   */\n  dup5\n    /* \"#utility.yul\":1837:1849   */\n  lt\n    /* \"#utility.yul\":1833:1868   */\n  and\n    /* \"#utility.yul\":1817:1928   */\n  or\n    /* \"#utility.yul\":1814:2060   */\n  iszero\n  tag_32\n  jumpi\n    /* \"#utility.yul\":1970:1978   */\n  dup3\n    /* \"#utility.yul\":1964:1968   */\n  dup3\n    /* \"#utility.yul\":1960:1979   */\n  exp\n    /* \"#utility.yul\":1951:1979   */\n  swap1\n  pop\n    /* \"#utility.yul\":2005:2008   */\n  dup4\n    /* \"#utility.yul\":1998:2003   */\n  dup2\n    /* \"#utility.yul\":1995:2009   */\n  gt\n    /* \"#utility.yul\":1992:2032   */\n  iszero\n  tag_33\n  jumpi\n    /* \"#utility.yul\":2012:2030   */\n  tag_34\n  tag_5\n  jump\t// in\ntag_34:\n    /* \"#utility.yul\":1992:2032   */\ntag_33:\n    /* \"#utility.yul\":2045:2050   */\n  jump(tag_22)\n    /* \"#utility.yul\":1814:2060   */\ntag_32:\n    /* \"#utility.yul\":2085:2127   */\n  tag_35\n    /* \"#utility.yul\":2123:2126   */\n  dup5\n    /* \"#utility.yul\":2113:2121   */\n  dup5\n    /* \"#utility.yul\":2107:2111   */\n  dup5\n    /* \"#utility.yul\":2104:2105   */\n  0x01\n    /* \"#utility.yul\":2085:2127   */\n  tag_7\n  jump\t// in\ntag_35:\n    /* \"#utility.yul\":2070:2127   */\n  swap3\n  pop\n  swap1\n  pop\n    /* \"#utility.yul\":2159:2163   */\n  dup2\n    /* \"#utility.yul\":2154:2157   */\n  dup5\n    /* \"#utility.yul\":2150:2164   */\n  div\n    /* \"#utility.yul\":2143:2148   */\n  dup2\n    /* \"#utility.yul\":2140:2165   */\n  gt\n    /* \"#utility.yul\":2137:2188   */\n  iszero\n  tag_36\n  jumpi\n    /* \"#utility.yul\":2168:2186   */\n  tag_37\n  tag_5\n  jump\t// in\ntag_37:\n    /* \"#utility.yul\":2137:2188   */\ntag_36:\n    /* \"#utility.yul\":2217:2221   */\n  dup2\n    /* \"#utility.yul\":2210:2215   */\n  dup2\n    /* \"#utility.yul\":2206:2222   */\n  mul\n    /* \"#utility.yul\":2197:2222   */\n  swap1\n  pop\n    /* \"#utility.yul\":1155:2228   */\ntag_22:\n  swap4\n  swap3\n  pop\n  pop\n  pop\n  jump\t// out\n    /* \"#utility.yul\":2234:2311   */\ntag_9:\n    /* \"#utility.yul\":2271:2278   */\n  0x00\n    /* \"#utility.yul\":2300:2305   */\n  dup2\n    /* \"#utility.yul\":2289:2305   */\n  swap1\n  pop\n    /* \"#utility.yul\":2234:2311   */\n  swap2\n  swap1\n  pop\n  jump\t// out\n    /* \"#utility.yul\":2317:2403   */\ntag_10:\n    /* \"#utility.yul\":2352:2359   */\n  0x00\n    /* \"#utility.yul\":2392:2396   */\n  0xff\n    /* \"#utility.yul\":2385:2390   */\n  dup3\n    /* \"#utility.yul\":2381:2397   */\n  and\n    /* \"#utility.yul\":2370:2397   */\n  swap1\n  pop\n    /* \"#utility.yul\":2317:2403   */\n  swap2\n  swap1\n  pop\n  jump\t// out\n    /* \"#utility.yul\":2409:2690   */\ntag_2:\n    /* \"#utility.yul\":2467:2472   */\n  0x00\n    /* \"#utility.yul\":2491:2514   */\n  tag_41\n    /* \"#utility.yul\":2509:2513   */\n  dup3\n    /* \"#utility.yul\":2491:2514   */\n  tag_9\n  jump\t// in\ntag_41:\n    /* \"#utility.yul\":2483:2514   */\n  swap2\n  pop\n    /* \"#utility.yul\":2535:2560   */\n  tag_42\n    /* \"#utility.yul\":2551:2559   */\n  dup4\n    /* \"#utility.yul\":2535:2560   */\n  tag_10\n  jump\t// in\ntag_42:\n    /* \"#utility.yul\":2523:2560   */\n  swap3\n  pop\n    /* \"#utility.yul\":2579:2683   */\n  tag_43\n    /* \"#utility.yul\":2616:2682   */\n  0xffffffffffffffffffffffffffffffffffffffffffffffffffffffffffffffff\n    /* \"#utility.yul\":2606:2614   */\n  dup5\n    /* \"#utility.yul\":2600:2604   */\n  dup5\n    /* \"#utility.yul\":2579:2683   */\n  tag_8\n  jump\t// in\ntag_43:\n    /* \"#utility.yul\":2570:2683   */\n  swap1\n  pop\n    /* \"#utility.yul\":2409:2690   */\n  swap3\n  swap2\n  pop\n  pop\n  jump\t// out\n    /* \"contracts/zombies.sol\":57:690  contract Zombies {... */\ntag_4:\n  dataSize(sub_0)\n  dup1\n  dataOffset(sub_0)\n  0x00\n  codecopy\n  0x00\n  return\nstop\n\nsub_0: assembly {\n        /* \"contracts/zombies.sol\":57:690  contract Zombies {... */\n      mstore(0x40, 0x80)\n      callvalue\n      dup1\n      iszero\n      tag_1\n      jumpi\n      0x00\n      dup1\n      revert\n    tag_1:\n      pop\n      jumpi(tag_2, lt(calldatasize, 0x04))\n      shr(0xe0, calldataload(0x00))\n      dup1\n      0x6a6cce99\n      eq\n      tag_3\n      jumpi\n      dup1\n      0x845e3500\n      eq\n      tag_4\n      jumpi\n      dup1\n      0xa7d05b08\n      eq\n      tag_5\n      jumpi\n    tag_2:\n      0x00\n      dup1\n      revert\n        /* \"contracts/zombies.sol\":498:686  function addZombie (string memory _name, uint256 _age, bool _converted) public{... */\n    tag_3:\n      tag_6\n      0x04\n      dup1\n      calldatasize\n      sub\n      dup2\n      add\n      swap1\n      tag_7\n      swap2\n      swap1\n      tag_8\n      jump\t// in\n    tag_7:\n      tag_9\n      jump\t// in\n    tag_6:\n      stop\n        /* \"contracts/zombies.sol\":421:462  mapping(string => bool) public findZombie */\n    tag_4:\n      tag_10\n      0x04\n      dup1\n      calldatasize\n      sub\n      dup2\n      add\n      swap1\n      tag_11\n      swap2\n      swap1\n      tag_12\n      jump\t// in\n    tag_11:\n      tag_13\n      jump\t// in\n    tag_10:\n      mload(0x40)\n      tag_14\n      swap2\n      swap1\n      tag_15\n      jump\t// in\n    tag_14:\n      mload(0x40)\n      dup1\n      swap2\n      sub\n      swap1\n      return\n        /* \"contracts/zombies.sol\":468:488  Zombie[] public zoms */\n    tag_5:\n      tag_16\n      0x04\n      dup1\n      calldatasize\n      sub\n      dup2\n      add\n      swap1\n      tag_17\n      swap2\n      swap1\n      tag_18\n      jump\t// in\n    tag_17:\n      tag_19\n      jump\t// in\n    tag_16:\n      mload(0x40)\n      tag_20\n      swap4\n      swap3\n      swap2\n      swap1\n      tag_21\n      jump\t// in\n    tag_20:\n      mload(0x40)\n      dup1\n      swap2\n      sub\n      swap1\n      return\n        /* \"contracts/zombies.sol\":498:686  function addZombie (string memory _name, uint256 _age, bool _converted) public{... */\n    tag_9:\n        /* \"contracts/zombies.sol\":599:603  zoms */\n      0x03\n        /* \"contracts/zombies.sol\":609:638  Zombie(_name,_age,_converted) */\n      mload(0x40)\n      dup1\n      0x60\n      add\n      0x40\n      mstore\n      dup1\n        /* \"contracts/zombies.sol\":616:621  _name */\n      dup6\n        /* \"contracts/zombies.sol\":609:638  Zombie(_name,_age,_converted) */\n      dup2\n      mstore\n      0x20\n      add\n        /* \"contracts/zombies.sol\":622:626  _age */\n      dup5\n        /* \"contracts/zombies.sol\":609:638  Zombie(_name,_age,_converted) */\n      dup2\n      mstore\n      0x20\n      add\n        /* \"contracts/zombies.sol\":627:637  _converted */\n      dup4\n        /* \"contracts/zombies.sol\":609:638  Zombie(_name,_age,_converted) */\n      iszero\n      iszero\n      dup2\n      mstore\n      pop\n        /* \"contracts/zombies.sol\":599:639  zoms.push(Zombie(_name,_age,_converted)) */\n      swap1\n      dup1\n      0x01\n      dup2\n      sload\n      add\n      dup1\n      dup3\n      sstore\n      dup1\n      swap2\n      pop\n      pop\n      0x01\n      swap1\n      sub\n      swap1\n      0x00\n      mstore\n      keccak256(0x00, 0x20)\n      swap1\n      0x03\n      mul\n      add\n      0x00\n      swap1\n      swap2\n      swap1\n      swap2\n      swap1\n      swap2\n      pop\n      0x00\n      dup3\n      add\n      mload\n      dup2\n      0x00\n      add\n      swap1\n      dup2\n      tag_24\n      swap2\n      swap1\n      tag_25\n      jump\t// in\n    tag_24:\n      pop\n      0x20\n      dup3\n      add\n      mload\n      dup2\n      0x01\n      add\n      sstore\n      0x40\n      dup3\n      add\n      mload\n      dup2\n      0x02\n      add\n      exp(0x0100, 0x00)\n      dup2\n      sload\n      dup2\n      0xff\n      mul\n      not\n      and\n      swap1\n      dup4\n      iszero\n      iszero\n      mul\n      or\n      swap1\n      sstore\n      pop\n      pop\n      pop\n        /* \"contracts/zombies.sol\":669:679  _converted */\n      dup1\n        /* \"contracts/zombies.sol\":649:659  findZombie */\n      0x02\n        /* \"contracts/zombies.sol\":660:665  _name */\n      dup5\n        /* \"contracts/zombies.sol\":649:666  findZombie[_name] */\n      mload(0x40)\n      tag_26\n      swap2\n      swap1\n      tag_27\n      jump\t// in\n    tag_26:\n      swap1\n      dup2\n      mstore\n      0x20\n      add\n      mload(0x40)\n      dup1\n      swap2\n      sub\n      swap1\n      keccak256\n      0x00\n        /* \"contracts/zombies.sol\":649:679  findZombie[_name] = _converted */\n      0x0100\n      exp\n      dup2\n      sload\n      dup2\n      0xff\n      mul\n      not\n      and\n      swap1\n      dup4\n      iszero\n      iszero\n      mul\n      or\n      swap1\n      sstore\n      pop\n        /* \"contracts/zombies.sol\":498:686  function addZombie (string memory _name, uint256 _age, bool _converted) public{... */\n      pop\n      pop\n      pop\n      jump\t// out\n        /* \"contracts/zombies.sol\":421:462  mapping(string => bool) public findZombie */\n    tag_13:\n      0x02\n      dup2\n      dup1\n      mload\n      0x20\n      dup2\n      add\n      dup3\n      add\n      dup1\n      mload\n      dup5\n      dup3\n      mstore\n      0x20\n      dup4\n      add\n      0x20\n      dup6\n      add\n      keccak256\n      dup2\n      dup4\n      mstore\n      dup1\n      swap6\n      pop\n      pop\n      pop\n      pop\n      pop\n      pop\n      0x00\n      swap2\n      pop\n      sload\n      swap1\n      0x0100\n      exp\n      swap1\n      div\n      0xff\n      and\n      dup2\n      jump\t// out\n        /* \"contracts/zombies.sol\":468:488  Zombie[] public zoms */\n    tag_19:\n      0x03\n      dup2\n      dup2\n      sload\n      dup2\n      lt\n      tag_28\n      jumpi\n      0x00\n      dup1\n      revert\n    tag_28:\n      swap1\n      0x00\n      mstore\n      keccak256(0x00, 0x20)\n      swap1\n      0x03\n      mul\n      add\n      0x00\n      swap2\n      pop\n      swap1\n      pop\n      dup1\n      0x00\n      add\n      dup1\n      sload\n      tag_30\n      swap1\n      tag_31\n      jump\t// in\n    tag_30:\n      dup1\n      0x1f\n      add\n      0x20\n      dup1\n      swap2\n      div\n      mul\n      0x20\n      add\n      mload(0x40)\n      swap1\n      dup2\n      add\n      0x40\n      mstore\n      dup1\n      swap3\n      swap2\n      swap1\n      dup2\n      dup2\n      mstore\n      0x20\n      add\n      dup3\n      dup1\n      sload\n      tag_32\n      swap1\n      tag_31\n      jump\t// in\n    tag_32:\n      dup1\n      iszero\n      tag_33\n      jumpi\n      dup1\n      0x1f\n      lt\n      tag_34\n      jumpi\n      0x0100\n      dup1\n      dup4\n      sload\n      div\n      mul\n      dup4\n      mstore\n      swap2\n      0x20\n      add\n      swap2\n      jump(tag_33)\n    tag_34:\n      dup3\n      add\n      swap2\n      swap1\n      0x00\n      mstore\n      keccak256(0x00, 0x20)\n      swap1\n    tag_35:\n      dup2\n      sload\n      dup2\n      mstore\n      swap1\n      0x01\n      add\n      swap1\n      0x20\n      add\n      dup1\n      dup4\n      gt\n      tag_35\n      jumpi\n      dup3\n      swap1\n      sub\n      0x1f\n      and\n      dup3\n      add\n      swap2\n    tag_33:\n      pop\n      pop\n      pop\n      pop\n      pop\n      swap1\n      dup1\n      0x01\n      add\n      sload\n      swap1\n      dup1\n      0x02\n      add\n      0x00\n      swap1\n      sload\n      swap1\n      0x0100\n      exp\n      swap1\n      div\n      0xff\n      and\n      swap1\n      pop\n      dup4\n      jump\t// out\n        /* \"#utility.yul\":7:82   */\n    tag_36:\n        /* \"#utility.yul\":40:46   */\n      0x00\n        /* \"#utility.yul\":73:75   */\n      0x40\n        /* \"#utility.yul\":67:76   */\n      mload\n        /* \"#utility.yul\":57:76   */\n      swap1\n      pop\n        /* \"#utility.yul\":7:82   */\n      swap1\n      jump\t// out\n        /* \"#utility.yul\":88:205   */\n    tag_37:\n        /* \"#utility.yul\":197:198   */\n      0x00\n        /* \"#utility.yul\":194:195   */\n      dup1\n        /* \"#utility.yul\":187:199   */\n      revert\n        /* \"#utility.yul\":211:328   */\n    tag_38:\n        /* \"#utility.yul\":320:321   */\n      0x00\n        /* \"#utility.yul\":317:318   */\n      dup1\n        /* \"#utility.yul\":310:322   */\n      revert\n        /* \"#utility.yul\":334:451   */\n    tag_39:\n        /* \"#utility.yul\":443:444   */\n      0x00\n        /* \"#utility.yul\":440:441   */\n      dup1\n        /* \"#utility.yul\":433:445   */\n      revert\n        /* \"#utility.yul\":457:574   */\n    tag_40:\n        /* \"#utility.yul\":566:567   */\n      0x00\n        /* \"#utility.yul\":563:564   */\n      dup1\n        /* \"#utility.yul\":556:568   */\n      revert\n        /* \"#utility.yul\":580:682   */\n    tag_41:\n        /* \"#utility.yul\":621:627   */\n      0x00\n        /* \"#utility.yul\":672:674   */\n      0x1f\n        /* \"#utility.yul\":668:675   */\n      not\n        /* \"#utility.yul\":663:665   */\n      0x1f\n        /* \"#utility.yul\":656:661   */\n      dup4\n        /* \"#utility.yul\":652:666   */\n      add\n        /* \"#utility.yul\":648:676   */\n      and\n        /* \"#utility.yul\":638:676   */\n      swap1\n      pop\n        /* \"#utility.yul\":580:682   */\n      swap2\n      swap1\n      pop\n      jump\t// out\n        /* \"#utility.yul\":688:868   */\n    tag_42:\n        /* \"#utility.yul\":736:813   */\n      0x4e487b7100000000000000000000000000000000000000000000000000000000\n        /* \"#utility.yul\":733:734   */\n      0x00\n        /* \"#utility.yul\":726:814   */\n      mstore\n        /* \"#utility.yul\":833:837   */\n      0x41\n        /* \"#utility.yul\":830:831   */\n      0x04\n        /* \"#utility.yul\":823:838   */\n      mstore\n        /* \"#utility.yul\":857:861   */\n      0x24\n        /* \"#utility.yul\":854:855   */\n      0x00\n        /* \"#utility.yul\":847:862   */\n      revert\n        /* \"#utility.yul\":874:1155   */\n    tag_43:\n        /* \"#utility.yul\":957:984   */\n      tag_88\n        /* \"#utility.yul\":979:983   */\n      dup3\n        /* \"#utility.yul\":957:984   */\n      tag_41\n      jump\t// in\n    tag_88:\n        /* \"#utility.yul\":949:955   */\n      dup2\n        /* \"#utility.yul\":945:985   */\n      add\n        /* \"#utility.yul\":1087:1093   */\n      dup2\n        /* \"#utility.yul\":1075:1085   */\n      dup2\n        /* \"#utility.yul\":1072:1094   */\n      lt\n        /* \"#utility.yul\":1051:1069   */\n      0xffffffffffffffff\n        /* \"#utility.yul\":1039:1049   */\n      dup3\n        /* \"#utility.yul\":1036:1070   */\n      gt\n        /* \"#utility.yul\":1033:1095   */\n      or\n        /* \"#utility.yul\":1030:1118   */\n      iszero\n      tag_89\n      jumpi\n        /* \"#utility.yul\":1098:1116   */\n      tag_90\n      tag_42\n      jump\t// in\n    tag_90:\n        /* \"#utility.yul\":1030:1118   */\n    tag_89:\n        /* \"#utility.yul\":1138:1148   */\n      dup1\n        /* \"#utility.yul\":1134:1136   */\n      0x40\n        /* \"#utility.yul\":1127:1149   */\n      mstore\n        /* \"#utility.yul\":917:1155   */\n      pop\n        /* \"#utility.yul\":874:1155   */\n      pop\n      pop\n      jump\t// out\n        /* \"#utility.yul\":1161:1290   */\n    tag_44:\n        /* \"#utility.yul\":1195:1201   */\n      0x00\n        /* \"#utility.yul\":1222:1242   */\n      tag_92\n      tag_36\n      jump\t// in\n    tag_92:\n        /* \"#utility.yul\":1212:1242   */\n      swap1\n      pop\n        /* \"#utility.yul\":1251:1284   */\n      tag_93\n        /* \"#utility.yul\":1279:1283   */\n      dup3\n        /* \"#utility.yul\":1271:1277   */\n      dup3\n        /* \"#utility.yul\":1251:1284   */\n      tag_43\n      jump\t// in\n    tag_93:\n        /* \"#utility.yul\":1161:1290   */\n      swap2\n      swap1\n      pop\n      jump\t// out\n        /* \"#utility.yul\":1296:1604   */\n    tag_45:\n        /* \"#utility.yul\":1358:1362   */\n      0x00\n        /* \"#utility.yul\":1448:1466   */\n      0xffffffffffffffff\n        /* \"#utility.yul\":1440:1446   */\n      dup3\n        /* \"#utility.yul\":1437:1467   */\n      gt\n        /* \"#utility.yul\":1434:1490   */\n      iszero\n      tag_95\n      jumpi\n        /* \"#utility.yul\":1470:1488   */\n      tag_96\n      tag_42\n      jump\t// in\n    tag_96:\n        /* \"#utility.yul\":1434:1490   */\n    tag_95:\n        /* \"#utility.yul\":1508:1537   */\n      tag_97\n        /* \"#utility.yul\":1530:1536   */\n      dup3\n        /* \"#utility.yul\":1508:1537   */\n      tag_41\n      jump\t// in\n    tag_97:\n        /* \"#utility.yul\":1500:1537   */\n      swap1\n      pop\n        /* \"#utility.yul\":1592:1596   */\n      0x20\n        /* \"#utility.yul\":1586:1590   */\n      dup2\n        /* \"#utility.yul\":1582:1597   */\n      add\n        /* \"#utility.yul\":1574:1597   */\n      swap1\n      pop\n        /* \"#utility.yul\":1296:1604   */\n      swap2\n      swap1\n      pop\n      jump\t// out\n        /* \"#utility.yul\":1610:1756   */\n    tag_46:\n        /* \"#utility.yul\":1707:1713   */\n      dup3\n        /* \"#utility.yul\":1702:1705   */\n      dup2\n        /* \"#utility.yul\":1697:1700   */\n      dup4\n        /* \"#utility.yul\":1684:1714   */\n      calldatacopy\n        /* \"#utility.yul\":1748:1749   */\n      0x00\n        /* \"#utility.yul\":1739:1745   */\n      dup4\n        /* \"#utility.yul\":1734:1737   */\n      dup4\n        /* \"#utility.yul\":1730:1746   */\n      add\n        /* \"#utility.yul\":1723:1750   */\n      mstore\n        /* \"#utility.yul\":1610:1756   */\n      pop\n      pop\n      pop\n      jump\t// out\n        /* \"#utility.yul\":1762:2187   */\n    tag_47:\n        /* \"#utility.yul\":1840:1845   */\n      0x00\n        /* \"#utility.yul\":1865:1931   */\n      tag_100\n        /* \"#utility.yul\":1881:1930   */\n      tag_101\n        /* \"#utility.yul\":1923:1929   */\n      dup5\n        /* \"#utility.yul\":1881:1930   */\n      tag_45\n      jump\t// in\n    tag_101:\n        /* \"#utility.yul\":1865:1931   */\n      tag_44\n      jump\t// in\n    tag_100:\n        /* \"#utility.yul\":1856:1931   */\n      swap1\n      pop\n        /* \"#utility.yul\":1954:1960   */\n      dup3\n        /* \"#utility.yul\":1947:1952   */\n      dup2\n        /* \"#utility.yul\":1940:1961   */\n      mstore\n        /* \"#utility.yul\":1992:1996   */\n      0x20\n        /* \"#utility.yul\":1985:1990   */\n      dup2\n        /* \"#utility.yul\":1981:1997   */\n      add\n        /* \"#utility.yul\":2030:2033   */\n      dup5\n        /* \"#utility.yul\":2021:2027   */\n      dup5\n        /* \"#utility.yul\":2016:2019   */\n      dup5\n        /* \"#utility.yul\":2012:2028   */\n      add\n        /* \"#utility.yul\":2009:2034   */\n      gt\n        /* \"#utility.yul\":2006:2118   */\n      iszero\n      tag_102\n      jumpi\n        /* \"#utility.yul\":2037:2116   */\n      tag_103\n      tag_40\n      jump\t// in\n    tag_103:\n        /* \"#utility.yul\":2006:2118   */\n    tag_102:\n        /* \"#utility.yul\":2127:2181   */\n      tag_104\n        /* \"#utility.yul\":2174:2180   */\n      dup5\n        /* \"#utility.yul\":2169:2172   */\n      dup3\n        /* \"#utility.yul\":2164:2167   */\n      dup6\n        /* \"#utility.yul\":2127:2181   */\n      tag_46\n      jump\t// in\n    tag_104:\n        /* \"#utility.yul\":1846:2187   */\n      pop\n        /* \"#utility.yul\":1762:2187   */\n      swap4\n      swap3\n      pop\n      pop\n      pop\n      jump\t// out\n        /* \"#utility.yul\":2207:2547   */\n    tag_48:\n        /* \"#utility.yul\":2263:2268   */\n      0x00\n        /* \"#utility.yul\":2312:2315   */\n      dup3\n        /* \"#utility.yul\":2305:2309   */\n      0x1f\n        /* \"#utility.yul\":2297:2303   */\n      dup4\n        /* \"#utility.yul\":2293:2310   */\n      add\n        /* \"#utility.yul\":2289:2316   */\n      slt\n        /* \"#utility.yul\":2279:2401   */\n      tag_106\n      jumpi\n        /* \"#utility.yul\":2320:2399   */\n      tag_107\n      tag_39\n      jump\t// in\n    tag_107:\n        /* \"#utility.yul\":2279:2401   */\n    tag_106:\n        /* \"#utility.yul\":2437:2443   */\n      dup2\n        /* \"#utility.yul\":2424:2444   */\n      calldataload\n        /* \"#utility.yul\":2462:2541   */\n      tag_108\n        /* \"#utility.yul\":2537:2540   */\n      dup5\n        /* \"#utility.yul\":2529:2535   */\n      dup3\n        /* \"#utility.yul\":2522:2526   */\n      0x20\n        /* \"#utility.yul\":2514:2520   */\n      dup7\n        /* \"#utility.yul\":2510:2527   */\n      add\n        /* \"#utility.yul\":2462:2541   */\n      tag_47\n      jump\t// in\n    tag_108:\n        /* \"#utility.yul\":2453:2541   */\n      swap2\n      pop\n        /* \"#utility.yul\":2269:2547   */\n      pop\n        /* \"#utility.yul\":2207:2547   */\n      swap3\n      swap2\n      pop\n      pop\n      jump\t// out\n        /* \"#utility.yul\":2553:2630   */\n    tag_49:\n        /* \"#utility.yul\":2590:2597   */\n      0x00\n        /* \"#utility.yul\":2619:2624   */\n      dup2\n        /* \"#utility.yul\":2608:2624   */\n      swap1\n      pop\n        /* \"#utility.yul\":2553:2630   */\n      swap2\n      swap1\n      pop\n      jump\t// out\n        /* \"#utility.yul\":2636:2758   */\n    tag_50:\n        /* \"#utility.yul\":2709:2733   */\n      tag_111\n        /* \"#utility.yul\":2727:2732   */\n      dup2\n        /* \"#utility.yul\":2709:2733   */\n      tag_49\n      jump\t// in\n    tag_111:\n        /* \"#utility.yul\":2702:2707   */\n      dup2\n        /* \"#utility.yul\":2699:2734   */\n      eq\n        /* \"#utility.yul\":2689:2752   */\n      tag_112\n      jumpi\n        /* \"#utility.yul\":2748:2749   */\n      0x00\n        /* \"#utility.yul\":2745:2746   */\n      dup1\n        /* \"#utility.yul\":2738:2750   */\n      revert\n        /* \"#utility.yul\":2689:2752   */\n    tag_112:\n        /* \"#utility.yul\":2636:2758   */\n      pop\n      jump\t// out\n        /* \"#utility.yul\":2764:2903   */\n    tag_51:\n        /* \"#utility.yul\":2810:2815   */\n      0x00\n        /* \"#utility.yul\":2848:2854   */\n      dup2\n        /* \"#utility.yul\":2835:2855   */\n      calldataload\n        /* \"#utility.yul\":2826:2855   */\n      swap1\n      pop\n        /* \"#utility.yul\":2864:2897   */\n      tag_114\n        /* \"#utility.yul\":2891:2896   */\n      dup2\n        /* \"#utility.yul\":2864:2897   */\n      tag_50\n      jump\t// in\n    tag_114:\n        /* \"#utility.yul\":2764:2903   */\n      swap3\n      swap2\n      pop\n      pop\n      jump\t// out\n        /* \"#utility.yul\":2909:2999   */\n    tag_52:\n        /* \"#utility.yul\":2943:2950   */\n      0x00\n        /* \"#utility.yul\":2986:2991   */\n      dup2\n        /* \"#utility.yul\":2979:2992   */\n      iszero\n        /* \"#utility.yul\":2972:2993   */\n      iszero\n        /* \"#utility.yul\":2961:2993   */\n      swap1\n      pop\n        /* \"#utility.yul\":2909:2999   */\n      swap2\n      swap1\n      pop\n      jump\t// out\n        /* \"#utility.yul\":3005:3121   */\n    tag_53:\n        /* \"#utility.yul\":3075:3096   */\n      tag_117\n        /* \"#utility.yul\":3090:3095   */\n      dup2\n        /* \"#utility.yul\":3075:3096   */\n      tag_52\n      jump\t// in\n    tag_117:\n        /* \"#utility.yul\":3068:3073   */\n      dup2\n        /* \"#utility.yul\":3065:3097   */\n      eq\n        /* \"#utility.yul\":3055:3115   */\n      tag_118\n      jumpi\n        /* \"#utility.yul\":3111:3112   */\n      0x00\n        /* \"#utility.yul\":3108:3109   */\n      dup1\n        /* \"#utility.yul\":3101:3113   */\n      revert\n        /* \"#utility.yul\":3055:3115   */\n    tag_118:\n        /* \"#utility.yul\":3005:3121   */\n      pop\n      jump\t// out\n        /* \"#utility.yul\":3127:3260   */\n    tag_54:\n        /* \"#utility.yul\":3170:3175   */\n      0x00\n        /* \"#utility.yul\":3208:3214   */\n      dup2\n        /* \"#utility.yul\":3195:3215   */\n      calldataload\n        /* \"#utility.yul\":3186:3215   */\n      swap1\n      pop\n        /* \"#utility.yul\":3224:3254   */\n      tag_120\n        /* \"#utility.yul\":3248:3253   */\n      dup2\n        /* \"#utility.yul\":3224:3254   */\n      tag_53\n      jump\t// in\n    tag_120:\n        /* \"#utility.yul\":3127:3260   */\n      swap3\n      swap2\n      pop\n      pop\n      jump\t// out\n        /* \"#utility.yul\":3266:4059   */\n    tag_8:\n        /* \"#utility.yul\":3350:3356   */\n      0x00\n        /* \"#utility.yul\":3358:3364   */\n      dup1\n        /* \"#utility.yul\":3366:3372   */\n      0x00\n        /* \"#utility.yul\":3415:3417   */\n      0x60\n        /* \"#utility.yul\":3403:3412   */\n      dup5\n        /* \"#utility.yul\":3394:3401   */\n      dup7\n        /* \"#utility.yul\":3390:3413   */\n      sub\n        /* \"#utility.yul\":3386:3418   */\n      slt\n        /* \"#utility.yul\":3383:3502   */\n      iszero\n      tag_122\n      jumpi\n        /* \"#utility.yul\":3421:3500   */\n      tag_123\n      tag_37\n      jump\t// in\n    tag_123:\n        /* \"#utility.yul\":3383:3502   */\n    tag_122:\n        /* \"#utility.yul\":3569:3570   */\n      0x00\n        /* \"#utility.yul\":3558:3567   */\n      dup5\n        /* \"#utility.yul\":3554:3571   */\n      add\n        /* \"#utility.yul\":3541:3572   */\n      calldataload\n        /* \"#utility.yul\":3599:3617   */\n      0xffffffffffffffff\n        /* \"#utility.yul\":3591:3597   */\n      dup2\n        /* \"#utility.yul\":3588:3618   */\n      gt\n        /* \"#utility.yul\":3585:3702   */\n      iszero\n      tag_124\n      jumpi\n        /* \"#utility.yul\":3621:3700   */\n      tag_125\n      tag_38\n      jump\t// in\n    tag_125:\n        /* \"#utility.yul\":3585:3702   */\n    tag_124:\n        /* \"#utility.yul\":3726:3789   */\n      tag_126\n        /* \"#utility.yul\":3781:3788   */\n      dup7\n        /* \"#utility.yul\":3772:3778   */\n      dup3\n        /* \"#utility.yul\":3761:3770   */\n      dup8\n        /* \"#utility.yul\":3757:3779   */\n      add\n        /* \"#utility.yul\":3726:3789   */\n      tag_48\n      jump\t// in\n    tag_126:\n        /* \"#utility.yul\":3716:3789   */\n      swap4\n      pop\n        /* \"#utility.yul\":3512:3799   */\n      pop\n        /* \"#utility.yul\":3838:3840   */\n      0x20\n        /* \"#utility.yul\":3864:3917   */\n      tag_127\n        /* \"#utility.yul\":3909:3916   */\n      dup7\n        /* \"#utility.yul\":3900:3906   */\n      dup3\n        /* \"#utility.yul\":3889:3898   */\n      dup8\n        /* \"#utility.yul\":3885:3907   */\n      add\n        /* \"#utility.yul\":3864:3917   */\n      tag_51\n      jump\t// in\n    tag_127:\n        /* \"#utility.yul\":3854:3917   */\n      swap3\n      pop\n        /* \"#utility.yul\":3809:3927   */\n      pop\n        /* \"#utility.yul\":3966:3968   */\n      0x40\n        /* \"#utility.yul\":3992:4042   */\n      tag_128\n        /* \"#utility.yul\":4034:4041   */\n      dup7\n        /* \"#utility.yul\":4025:4031   */\n      dup3\n        /* \"#utility.yul\":4014:4023   */\n      dup8\n        /* \"#utility.yul\":4010:4032   */\n      add\n        /* \"#utility.yul\":3992:4042   */\n      tag_54\n      jump\t// in\n    tag_128:\n        /* \"#utility.yul\":3982:4042   */\n      swap2\n      pop\n        /* \"#utility.yul\":3937:4052   */\n      pop\n        /* \"#utility.yul\":3266:4059   */\n      swap3\n      pop\n      swap3\n      pop\n      swap3\n      jump\t// out\n        /* \"#utility.yul\":4065:4574   */\n    tag_12:\n        /* \"#utility.yul\":4134:4140   */\n      0x00\n        /* \"#utility.yul\":4183:4185   */\n      0x20\n        /* \"#utility.yul\":4171:4180   */\n      dup3\n        /* \"#utility.yul\":4162:4169   */\n      dup5\n        /* \"#utility.yul\":4158:4181   */\n      sub\n        /* \"#utility.yul\":4154:4186   */\n      slt\n        /* \"#utility.yul\":4151:4270   */\n      iszero\n      tag_130\n      jumpi\n        /* \"#utility.yul\":4189:4268   */\n      tag_131\n      tag_37\n      jump\t// in\n    tag_131:\n        /* \"#utility.yul\":4151:4270   */\n    tag_130:\n        /* \"#utility.yul\":4337:4338   */\n      0x00\n        /* \"#utility.yul\":4326:4335   */\n      dup3\n        /* \"#utility.yul\":4322:4339   */\n      add\n        /* \"#utility.yul\":4309:4340   */\n      calldataload\n        /* \"#utility.yul\":4367:4385   */\n      0xffffffffffffffff\n        /* \"#utility.yul\":4359:4365   */\n      dup2\n        /* \"#utility.yul\":4356:4386   */\n      gt\n        /* \"#utility.yul\":4353:4470   */\n      iszero\n      tag_132\n      jumpi\n        /* \"#utility.yul\":4389:4468   */\n      tag_133\n      tag_38\n      jump\t// in\n    tag_133:\n        /* \"#utility.yul\":4353:4470   */\n    tag_132:\n        /* \"#utility.yul\":4494:4557   */\n      tag_134\n        /* \"#utility.yul\":4549:4556   */\n      dup5\n        /* \"#utility.yul\":4540:4546   */\n      dup3\n        /* \"#utility.yul\":4529:4538   */\n      dup6\n        /* \"#utility.yul\":4525:4547   */\n      add\n        /* \"#utility.yul\":4494:4557   */\n      tag_48\n      jump\t// in\n    tag_134:\n        /* \"#utility.yul\":4484:4557   */\n      swap2\n      pop\n        /* \"#utility.yul\":4280:4567   */\n      pop\n        /* \"#utility.yul\":4065:4574   */\n      swap3\n      swap2\n      pop\n      pop\n      jump\t// out\n        /* \"#utility.yul\":4580:4689   */\n    tag_55:\n        /* \"#utility.yul\":4661:4682   */\n      tag_136\n        /* \"#utility.yul\":4676:4681   */\n      dup2\n        /* \"#utility.yul\":4661:4682   */\n      tag_52\n      jump\t// in\n    tag_136:\n        /* \"#utility.yul\":4656:4659   */\n      dup3\n        /* \"#utility.yul\":4649:4683   */\n      mstore\n        /* \"#utility.yul\":4580:4689   */\n      pop\n      pop\n      jump\t// out\n        /* \"#utility.yul\":4695:4905   */\n    tag_15:\n        /* \"#utility.yul\":4782:4786   */\n      0x00\n        /* \"#utility.yul\":4820:4822   */\n      0x20\n        /* \"#utility.yul\":4809:4818   */\n      dup3\n        /* \"#utility.yul\":4805:4823   */\n      add\n        /* \"#utility.yul\":4797:4823   */\n      swap1\n      pop\n        /* \"#utility.yul\":4833:4898   */\n      tag_138\n        /* \"#utility.yul\":4895:4896   */\n      0x00\n        /* \"#utility.yul\":4884:4893   */\n      dup4\n        /* \"#utility.yul\":4880:4897   */\n      add\n        /* \"#utility.yul\":4871:4877   */\n      dup5\n        /* \"#utility.yul\":4833:4898   */\n      tag_55\n      jump\t// in\n    tag_138:\n        /* \"#utility.yul\":4695:4905   */\n      swap3\n      swap2\n      pop\n      pop\n      jump\t// out\n        /* \"#utility.yul\":4911:5240   */\n    tag_18:\n        /* \"#utility.yul\":4970:4976   */\n      0x00\n        /* \"#utility.yul\":5019:5021   */\n      0x20\n        /* \"#utility.yul\":5007:5016   */\n      dup3\n        /* \"#utility.yul\":4998:5005   */\n      dup5\n        /* \"#utility.yul\":4994:5017   */\n      sub\n        /* \"#utility.yul\":4990:5022   */\n      slt\n        /* \"#utility.yul\":4987:5106   */\n      iszero\n      tag_140\n      jumpi\n        /* \"#utility.yul\":5025:5104   */\n      tag_141\n      tag_37\n      jump\t// in\n    tag_141:\n        /* \"#utility.yul\":4987:5106   */\n    tag_140:\n        /* \"#utility.yul\":5145:5146   */\n      0x00\n        /* \"#utility.yul\":5170:5223   */\n      tag_142\n        /* \"#utility.yul\":5215:5222   */\n      dup5\n        /* \"#utility.yul\":5206:5212   */\n      dup3\n        /* \"#utility.yul\":5195:5204   */\n      dup6\n        /* \"#utility.yul\":5191:5213   */\n      add\n        /* \"#utility.yul\":5170:5223   */\n      tag_51\n      jump\t// in\n    tag_142:\n        /* \"#utility.yul\":5160:5223   */\n      swap2\n      pop\n        /* \"#utility.yul\":5116:5233   */\n      pop\n        /* \"#utility.yul\":4911:5240   */\n      swap3\n      swap2\n      pop\n      pop\n      jump\t// out\n        /* \"#utility.yul\":5246:5345   */\n    tag_56:\n        /* \"#utility.yul\":5298:5304   */\n      0x00\n        /* \"#utility.yul\":5332:5337   */\n      dup2\n        /* \"#utility.yul\":5326:5338   */\n      mload\n        /* \"#utility.yul\":5316:5338   */\n      swap1\n      pop\n        /* \"#utility.yul\":5246:5345   */\n      swap2\n      swap1\n      pop\n      jump\t// out\n        /* \"#utility.yul\":5351:5520   */\n    tag_57:\n        /* \"#utility.yul\":5435:5446   */\n      0x00\n        /* \"#utility.yul\":5469:5475   */\n      dup3\n        /* \"#utility.yul\":5464:5467   */\n      dup3\n        /* \"#utility.yul\":5457:5476   */\n      mstore\n        /* \"#utility.yul\":5509:5513   */\n      0x20\n        /* \"#utility.yul\":5504:5507   */\n      dup3\n        /* \"#utility.yul\":5500:5514   */\n      add\n        /* \"#utility.yul\":5485:5514   */\n      swap1\n      pop\n        /* \"#utility.yul\":5351:5520   */\n      swap3\n      swap2\n      pop\n      pop\n      jump\t// out\n        /* \"#utility.yul\":5526:5772   */\n    tag_58:\n        /* \"#utility.yul\":5607:5608   */\n      0x00\n        /* \"#utility.yul\":5617:5730   */\n    tag_146:\n        /* \"#utility.yul\":5631:5637   */\n      dup4\n        /* \"#utility.yul\":5628:5629   */\n      dup2\n        /* \"#utility.yul\":5625:5638   */\n      lt\n        /* \"#utility.yul\":5617:5730   */\n      iszero\n      tag_148\n      jumpi\n        /* \"#utility.yul\":5716:5717   */\n      dup1\n        /* \"#utility.yul\":5711:5714   */\n      dup3\n        /* \"#utility.yul\":5707:5718   */\n      add\n        /* \"#utility.yul\":5701:5719   */\n      mload\n        /* \"#utility.yul\":5697:5698   */\n      dup2\n        /* \"#utility.yul\":5692:5695   */\n      dup5\n        /* \"#utility.yul\":5688:5699   */\n      add\n        /* \"#utility.yul\":5681:5720   */\n      mstore\n        /* \"#utility.yul\":5653:5655   */\n      0x20\n        /* \"#utility.yul\":5650:5651   */\n      dup2\n        /* \"#utility.yul\":5646:5656   */\n      add\n        /* \"#utility.yul\":5641:5656   */\n      swap1\n      pop\n        /* \"#utility.yul\":5617:5730   */\n      jump(tag_146)\n    tag_148:\n        /* \"#utility.yul\":5764:5765   */\n      0x00\n        /* \"#utility.yul\":5755:5761   */\n      dup5\n        /* \"#utility.yul\":5750:5753   */\n      dup5\n        /* \"#utility.yul\":5746:5762   */\n      add\n        /* \"#utility.yul\":5739:5766   */\n      mstore\n        /* \"#utility.yul\":5588:5772   */\n      pop\n        /* \"#utility.yul\":5526:5772   */\n      pop\n      pop\n      pop\n      jump\t// out\n        /* \"#utility.yul\":5778:6155   */\n    tag_59:\n        /* \"#utility.yul\":5866:5869   */\n      0x00\n        /* \"#utility.yul\":5894:5933   */\n      tag_150\n        /* \"#utility.yul\":5927:5932   */\n      dup3\n        /* \"#utility.yul\":5894:5933   */\n      tag_56\n      jump\t// in\n    tag_150:\n        /* \"#utility.yul\":5949:6020   */\n      tag_151\n        /* \"#utility.yul\":6013:6019   */\n      dup2\n        /* \"#utility.yul\":6008:6011   */\n      dup6\n        /* \"#utility.yul\":5949:6020   */\n      tag_57\n      jump\t// in\n    tag_151:\n        /* \"#utility.yul\":5942:6020   */\n      swap4\n      pop\n        /* \"#utility.yul\":6029:6094   */\n      tag_152\n        /* \"#utility.yul\":6087:6093   */\n      dup2\n        /* \"#utility.yul\":6082:6085   */\n      dup6\n        /* \"#utility.yul\":6075:6079   */\n      0x20\n        /* \"#utility.yul\":6068:6073   */\n      dup7\n        /* \"#utility.yul\":6064:6080   */\n      add\n        /* \"#utility.yul\":6029:6094   */\n      tag_58\n      jump\t// in\n    tag_152:\n        /* \"#utility.yul\":6119:6148   */\n      tag_153\n        /* \"#utility.yul\":6141:6147   */\n      dup2\n        /* \"#utility.yul\":6119:6148   */\n      tag_41\n      jump\t// in\n    tag_153:\n        /* \"#utility.yul\":6114:6117   */\n      dup5\n        /* \"#utility.yul\":6110:6149   */\n      add\n        /* \"#utility.yul\":6103:6149   */\n      swap2\n      pop\n        /* \"#utility.yul\":5870:6155   */\n      pop\n        /* \"#utility.yul\":5778:6155   */\n      swap3\n      swap2\n      pop\n      pop\n      jump\t// out\n        /* \"#utility.yul\":6161:6279   */\n    tag_60:\n        /* \"#utility.yul\":6248:6272   */\n      tag_155\n        /* \"#utility.yul\":6266:6271   */\n      dup2\n        /* \"#utility.yul\":6248:6272   */\n      tag_49\n      jump\t// in\n    tag_155:\n        /* \"#utility.yul\":6243:6246   */\n      dup3\n        /* \"#utility.yul\":6236:6273   */\n      mstore\n        /* \"#utility.yul\":6161:6279   */\n      pop\n      pop\n      jump\t// out\n        /* \"#utility.yul\":6285:6806   */\n    tag_21:\n        /* \"#utility.yul\":6448:6452   */\n      0x00\n        /* \"#utility.yul\":6486:6488   */\n      0x60\n        /* \"#utility.yul\":6475:6484   */\n      dup3\n        /* \"#utility.yul\":6471:6489   */\n      add\n        /* \"#utility.yul\":6463:6489   */\n      swap1\n      pop\n        /* \"#utility.yul\":6535:6544   */\n      dup2\n        /* \"#utility.yul\":6529:6533   */\n      dup2\n        /* \"#utility.yul\":6525:6545   */\n      sub\n        /* \"#utility.yul\":6521:6522   */\n      0x00\n        /* \"#utility.yul\":6510:6519   */\n      dup4\n        /* \"#utility.yul\":6506:6523   */\n      add\n        /* \"#utility.yul\":6499:6546   */\n      mstore\n        /* \"#utility.yul\":6563:6641   */\n      tag_157\n        /* \"#utility.yul\":6636:6640   */\n      dup2\n        /* \"#utility.yul\":6627:6633   */\n      dup7\n        /* \"#utility.yul\":6563:6641   */\n      tag_59\n      jump\t// in\n    tag_157:\n        /* \"#utility.yul\":6555:6641   */\n      swap1\n      pop\n        /* \"#utility.yul\":6651:6723   */\n      tag_158\n        /* \"#utility.yul\":6719:6721   */\n      0x20\n        /* \"#utility.yul\":6708:6717   */\n      dup4\n        /* \"#utility.yul\":6704:6722   */\n      add\n        /* \"#utility.yul\":6695:6701   */\n      dup6\n        /* \"#utility.yul\":6651:6723   */\n      tag_60\n      jump\t// in\n    tag_158:\n        /* \"#utility.yul\":6733:6799   */\n      tag_159\n        /* \"#utility.yul\":6795:6797   */\n      0x40\n        /* \"#utility.yul\":6784:6793   */\n      dup4\n        /* \"#utility.yul\":6780:6798   */\n      add\n        /* \"#utility.yul\":6771:6777   */\n      dup5\n        /* \"#utility.yul\":6733:6799   */\n      tag_55\n      jump\t// in\n    tag_159:\n        /* \"#utility.yul\":6285:6806   */\n      swap5\n      swap4\n      pop\n      pop\n      pop\n      pop\n      jump\t// out\n        /* \"#utility.yul\":6812:6992   */\n    tag_61:\n        /* \"#utility.yul\":6860:6937   */\n      0x4e487b7100000000000000000000000000000000000000000000000000000000\n        /* \"#utility.yul\":6857:6858   */\n      0x00\n        /* \"#utility.yul\":6850:6938   */\n      mstore\n        /* \"#utility.yul\":6957:6961   */\n      0x22\n        /* \"#utility.yul\":6954:6955   */\n      0x04\n        /* \"#utility.yul\":6947:6962   */\n      mstore\n        /* \"#utility.yul\":6981:6985   */\n      0x24\n        /* \"#utility.yul\":6978:6979   */\n      0x00\n        /* \"#utility.yul\":6971:6986   */\n      revert\n        /* \"#utility.yul\":6998:7318   */\n    tag_31:\n        /* \"#utility.yul\":7042:7048   */\n      0x00\n        /* \"#utility.yul\":7079:7080   */\n      0x02\n        /* \"#utility.yul\":7073:7077   */\n      dup3\n        /* \"#utility.yul\":7069:7081   */\n      div\n        /* \"#utility.yul\":7059:7081   */\n      swap1\n      pop\n        /* \"#utility.yul\":7126:7127   */\n      0x01\n        /* \"#utility.yul\":7120:7124   */\n      dup3\n        /* \"#utility.yul\":7116:7128   */\n      and\n        /* \"#utility.yul\":7147:7165   */\n      dup1\n        /* \"#utility.yul\":7137:7218   */\n      tag_162\n      jumpi\n        /* \"#utility.yul\":7203:7207   */\n      0x7f\n        /* \"#utility.yul\":7195:7201   */\n      dup3\n        /* \"#utility.yul\":7191:7208   */\n      and\n        /* \"#utility.yul\":7181:7208   */\n      swap2\n      pop\n        /* \"#utility.yul\":7137:7218   */\n    tag_162:\n        /* \"#utility.yul\":7265:7267   */\n      0x20\n        /* \"#utility.yul\":7257:7263   */\n      dup3\n        /* \"#utility.yul\":7254:7268   */\n      lt\n        /* \"#utility.yul\":7234:7252   */\n      dup2\n        /* \"#utility.yul\":7231:7269   */\n      sub\n        /* \"#utility.yul\":7228:7312   */\n      tag_163\n      jumpi\n        /* \"#utility.yul\":7284:7302   */\n      tag_164\n      tag_61\n      jump\t// in\n    tag_164:\n        /* \"#utility.yul\":7228:7312   */\n    tag_163:\n        /* \"#utility.yul\":7049:7318   */\n      pop\n        /* \"#utility.yul\":6998:7318   */\n      swap2\n      swap1\n      pop\n      jump\t// out\n        /* \"#utility.yul\":7324:7465   */\n    tag_62:\n        /* \"#utility.yul\":7373:7377   */\n      0x00\n        /* \"#utility.yul\":7396:7399   */\n      dup2\n        /* \"#utility.yul\":7388:7399   */\n      swap1\n      pop\n        /* \"#utility.yul\":7419:7422   */\n      dup2\n        /* \"#utility.yul\":7416:7417   */\n      0x00\n        /* \"#utility.yul\":7409:7423   */\n      mstore\n        /* \"#utility.yul\":7453:7457   */\n      0x20\n        /* \"#utility.yul\":7450:7451   */\n      0x00\n        /* \"#utility.yul\":7440:7458   */\n      keccak256\n        /* \"#utility.yul\":7432:7458   */\n      swap1\n      pop\n        /* \"#utility.yul\":7324:7465   */\n      swap2\n      swap1\n      pop\n      jump\t// out\n        /* \"#utility.yul\":7471:7564   */\n    tag_63:\n        /* \"#utility.yul\":7508:7514   */\n      0x00\n        /* \"#utility.yul\":7555:7557   */\n      0x20\n        /* \"#utility.yul\":7550:7552   */\n      0x1f\n        /* \"#utility.yul\":7543:7548   */\n      dup4\n        /* \"#utility.yul\":7539:7553   */\n      add\n        /* \"#utility.yul\":7535:7558   */\n      div\n        /* \"#utility.yul\":7525:7558   */\n      swap1\n      pop\n        /* \"#utility.yul\":7471:7564   */\n      swap2\n      swap1\n      pop\n      jump\t// out\n        /* \"#utility.yul\":7570:7677   */\n    tag_64:\n        /* \"#utility.yul\":7614:7622   */\n      0x00\n        /* \"#utility.yul\":7664:7669   */\n      dup3\n        /* \"#utility.yul\":7658:7662   */\n      dup3\n        /* \"#utility.yul\":7654:7670   */\n      shl\n        /* \"#utility.yul\":7633:7670   */\n      swap1\n      pop\n        /* \"#utility.yul\":7570:7677   */\n      swap3\n      swap2\n      pop\n      pop\n      jump\t// out\n        /* \"#utility.yul\":7683:8076   */\n    tag_65:\n        /* \"#utility.yul\":7752:7758   */\n      0x00\n        /* \"#utility.yul\":7802:7803   */\n      0x08\n        /* \"#utility.yul\":7790:7800   */\n      dup4\n        /* \"#utility.yul\":7786:7804   */\n      mul\n        /* \"#utility.yul\":7825:7922   */\n      tag_169\n        /* \"#utility.yul\":7855:7921   */\n      0xffffffffffffffffffffffffffffffffffffffffffffffffffffffffffffffff\n        /* \"#utility.yul\":7844:7853   */\n      dup3\n        /* \"#utility.yul\":7825:7922   */\n      tag_64\n      jump\t// in\n    tag_169:\n        /* \"#utility.yul\":7943:7982   */\n      tag_170\n        /* \"#utility.yul\":7973:7981   */\n      dup7\n        /* \"#utility.yul\":7962:7971   */\n      dup4\n        /* \"#utility.yul\":7943:7982   */\n      tag_64\n      jump\t// in\n    tag_170:\n        /* \"#utility.yul\":7931:7982   */\n      swap6\n      pop\n        /* \"#utility.yul\":8015:8019   */\n      dup1\n        /* \"#utility.yul\":8011:8020   */\n      not\n        /* \"#utility.yul\":8004:8009   */\n      dup5\n        /* \"#utility.yul\":8000:8021   */\n      and\n        /* \"#utility.yul\":7991:8021   */\n      swap4\n      pop\n        /* \"#utility.yul\":8064:8068   */\n      dup1\n        /* \"#utility.yul\":8054:8062   */\n      dup7\n        /* \"#utility.yul\":8050:8069   */\n      and\n        /* \"#utility.yul\":8043:8048   */\n      dup5\n        /* \"#utility.yul\":8040:8070   */\n      or\n        /* \"#utility.yul\":8030:8070   */\n      swap3\n      pop\n        /* \"#utility.yul\":7759:8076   */\n      pop\n      pop\n        /* \"#utility.yul\":7683:8076   */\n      swap4\n      swap3\n      pop\n      pop\n      pop\n      jump\t// out\n        /* \"#utility.yul\":8082:8142   */\n    tag_66:\n        /* \"#utility.yul\":8110:8113   */\n      0x00\n        /* \"#utility.yul\":8131:8136   */\n      dup2\n        /* \"#utility.yul\":8124:8136   */\n      swap1\n      pop\n        /* \"#utility.yul\":8082:8142   */\n      swap2\n      swap1\n      pop\n      jump\t// out\n        /* \"#utility.yul\":8148:8290   */\n    tag_67:\n        /* \"#utility.yul\":8198:8207   */\n      0x00\n        /* \"#utility.yul\":8231:8284   */\n      tag_173\n        /* \"#utility.yul\":8249:8283   */\n      tag_174\n        /* \"#utility.yul\":8258:8282   */\n      tag_175\n        /* \"#utility.yul\":8276:8281   */\n      dup5\n        /* \"#utility.yul\":8258:8282   */\n      tag_49\n      jump\t// in\n    tag_175:\n        /* \"#utility.yul\":8249:8283   */\n      tag_66\n      jump\t// in\n    tag_174:\n        /* \"#utility.yul\":8231:8284   */\n      tag_49\n      jump\t// in\n    tag_173:\n        /* \"#utility.yul\":8218:8284   */\n      swap1\n      pop\n        /* \"#utility.yul\":8148:8290   */\n      swap2\n      swap1\n      pop\n      jump\t// out\n        /* \"#utility.yul\":8296:8371   */\n    tag_68:\n        /* \"#utility.yul\":8339:8342   */\n      0x00\n        /* \"#utility.yul\":8360:8365   */\n      dup2\n        /* \"#utility.yul\":8353:8365   */\n      swap1\n      pop\n        /* \"#utility.yul\":8296:8371   */\n      swap2\n      swap1\n      pop\n      jump\t// out\n        /* \"#utility.yul\":8377:8646   */\n    tag_69:\n        /* \"#utility.yul\":8487:8526   */\n      tag_178\n        /* \"#utility.yul\":8518:8525   */\n      dup4\n        /* \"#utility.yul\":8487:8526   */\n      tag_67\n      jump\t// in\n    tag_178:\n        /* \"#utility.yul\":8548:8639   */\n      tag_179\n        /* \"#utility.yul\":8597:8638   */\n      tag_180\n        /* \"#utility.yul\":8621:8637   */\n      dup3\n        /* \"#utility.yul\":8597:8638   */\n      tag_68\n      jump\t// in\n    tag_180:\n        /* \"#utility.yul\":8589:8595   */\n      dup5\n        /* \"#utility.yul\":8582:8586   */\n      dup5\n        /* \"#utility.yul\":8576:8587   */\n      sload\n        /* \"#utility.yul\":8548:8639   */\n      tag_65\n      jump\t// in\n    tag_179:\n        /* \"#utility.yul\":8542:8546   */\n      dup3\n        /* \"#utility.yul\":8535:8640   */\n      sstore\n        /* \"#utility.yul\":8453:8646   */\n      pop\n        /* \"#utility.yul\":8377:8646   */\n      pop\n      pop\n      pop\n      jump\t// out\n        /* \"#utility.yul\":8652:8725   */\n    tag_70:\n        /* \"#utility.yul\":8697:8700   */\n      0x00\n        /* \"#utility.yul\":8652:8725   */\n      swap1\n      jump\t// out\n        /* \"#utility.yul\":8731:8920   */\n    tag_71:\n        /* \"#utility.yul\":8808:8840   */\n      tag_183\n      tag_70\n      jump\t// in\n    tag_183:\n        /* \"#utility.yul\":8849:8914   */\n      tag_184\n        /* \"#utility.yul\":8907:8913   */\n      dup2\n        /* \"#utility.yul\":8899:8905   */\n      dup5\n        /* \"#utility.yul\":8893:8897   */\n      dup5\n        /* \"#utility.yul\":8849:8914   */\n      tag_69\n      jump\t// in\n    tag_184:\n        /* \"#utility.yul\":8784:8920   */\n      pop\n        /* \"#utility.yul\":8731:8920   */\n      pop\n      pop\n      jump\t// out\n        /* \"#utility.yul\":8926:9112   */\n    tag_72:\n        /* \"#utility.yul\":8986:9106   */\n    tag_186:\n        /* \"#utility.yul\":9003:9006   */\n      dup2\n        /* \"#utility.yul\":8996:9001   */\n      dup2\n        /* \"#utility.yul\":8993:9007   */\n      lt\n        /* \"#utility.yul\":8986:9106   */\n      iszero\n      tag_188\n      jumpi\n        /* \"#utility.yul\":9057:9096   */\n      tag_189\n        /* \"#utility.yul\":9094:9095   */\n      0x00\n        /* \"#utility.yul\":9087:9092   */\n      dup3\n        /* \"#utility.yul\":9057:9096   */\n      tag_71\n      jump\t// in\n    tag_189:\n        /* \"#utility.yul\":9030:9031   */\n      0x01\n        /* \"#utility.yul\":9023:9028   */\n      dup2\n        /* \"#utility.yul\":9019:9032   */\n      add\n        /* \"#utility.yul\":9010:9032   */\n      swap1\n      pop\n        /* \"#utility.yul\":8986:9106   */\n      jump(tag_186)\n    tag_188:\n        /* \"#utility.yul\":8926:9112   */\n      pop\n      pop\n      jump\t// out\n        /* \"#utility.yul\":9118:9661   */\n    tag_73:\n        /* \"#utility.yul\":9219:9221   */\n      0x1f\n        /* \"#utility.yul\":9214:9217   */\n      dup3\n        /* \"#utility.yul\":9211:9222   */\n      gt\n        /* \"#utility.yul\":9208:9654   */\n      iszero\n      tag_191\n      jumpi\n        /* \"#utility.yul\":9253:9291   */\n      tag_192\n        /* \"#utility.yul\":9285:9290   */\n      dup2\n        /* \"#utility.yul\":9253:9291   */\n      tag_62\n      jump\t// in\n    tag_192:\n        /* \"#utility.yul\":9337:9366   */\n      tag_193\n        /* \"#utility.yul\":9355:9365   */\n      dup5\n        /* \"#utility.yul\":9337:9366   */\n      tag_63\n      jump\t// in\n    tag_193:\n        /* \"#utility.yul\":9327:9335   */\n      dup2\n        /* \"#utility.yul\":9323:9367   */\n      add\n        /* \"#utility.yul\":9520:9522   */\n      0x20\n        /* \"#utility.yul\":9508:9518   */\n      dup6\n        /* \"#utility.yul\":9505:9523   */\n      lt\n        /* \"#utility.yul\":9502:9551   */\n      iszero\n      tag_194\n      jumpi\n        /* \"#utility.yul\":9541:9549   */\n      dup2\n        /* \"#utility.yul\":9526:9549   */\n      swap1\n      pop\n        /* \"#utility.yul\":9502:9551   */\n    tag_194:\n        /* \"#utility.yul\":9564:9644   */\n      tag_195\n        /* \"#utility.yul\":9620:9642   */\n      tag_196\n        /* \"#utility.yul\":9638:9641   */\n      dup6\n        /* \"#utility.yul\":9620:9642   */\n      tag_63\n      jump\t// in\n    tag_196:\n        /* \"#utility.yul\":9610:9618   */\n      dup4\n        /* \"#utility.yul\":9606:9643   */\n      add\n        /* \"#utility.yul\":9593:9604   */\n      dup3\n        /* \"#utility.yul\":9564:9644   */\n      tag_72\n      jump\t// in\n    tag_195:\n        /* \"#utility.yul\":9223:9654   */\n      pop\n      pop\n        /* \"#utility.yul\":9208:9654   */\n    tag_191:\n        /* \"#utility.yul\":9118:9661   */\n      pop\n      pop\n      pop\n      jump\t// out\n        /* \"#utility.yul\":9667:9784   */\n    tag_74:\n        /* \"#utility.yul\":9721:9729   */\n      0x00\n        /* \"#utility.yul\":9771:9776   */\n      dup3\n        /* \"#utility.yul\":9765:9769   */\n      dup3\n        /* \"#utility.yul\":9761:9777   */\n      shr\n        /* \"#utility.yul\":9740:9777   */\n      swap1\n      pop\n        /* \"#utility.yul\":9667:9784   */\n      swap3\n      swap2\n      pop\n      pop\n      jump\t// out\n        /* \"#utility.yul\":9790:9959   */\n    tag_75:\n        /* \"#utility.yul\":9834:9840   */\n      0x00\n        /* \"#utility.yul\":9867:9918   */\n      tag_199\n        /* \"#utility.yul\":9915:9916   */\n      0x00\n        /* \"#utility.yul\":9911:9917   */\n      not\n        /* \"#utility.yul\":9903:9908   */\n      dup5\n        /* \"#utility.yul\":9900:9901   */\n      0x08\n        /* \"#utility.yul\":9896:9909   */\n      mul\n        /* \"#utility.yul\":9867:9918   */\n      tag_74\n      jump\t// in\n    tag_199:\n        /* \"#utility.yul\":9863:9919   */\n      not\n        /* \"#utility.yul\":9948:9952   */\n      dup1\n        /* \"#utility.yul\":9942:9946   */\n      dup4\n        /* \"#utility.yul\":9938:9953   */\n      and\n        /* \"#utility.yul\":9928:9953   */\n      swap2\n      pop\n        /* \"#utility.yul\":9841:9959   */\n      pop\n        /* \"#utility.yul\":9790:9959   */\n      swap3\n      swap2\n      pop\n      pop\n      jump\t// out\n        /* \"#utility.yul\":9964:10259   */\n    tag_76:\n        /* \"#utility.yul\":10040:10044   */\n      0x00\n        /* \"#utility.yul\":10186:10215   */\n      tag_201\n        /* \"#utility.yul\":10211:10214   */\n      dup4\n        /* \"#utility.yul\":10205:10209   */\n      dup4\n        /* \"#utility.yul\":10186:10215   */\n      tag_75\n      jump\t// in\n    tag_201:\n        /* \"#utility.yul\":10178:10215   */\n      swap2\n      pop\n        /* \"#utility.yul\":10248:10251   */\n      dup3\n        /* \"#utility.yul\":10245:10246   */\n      0x02\n        /* \"#utility.yul\":10241:10252   */\n      mul\n        /* \"#utility.yul\":10235:10239   */\n      dup3\n        /* \"#utility.yul\":10232:10253   */\n      or\n        /* \"#utility.yul\":10224:10253   */\n      swap1\n      pop\n        /* \"#utility.yul\":9964:10259   */\n      swap3\n      swap2\n      pop\n      pop\n      jump\t// out\n        /* \"#utility.yul\":10264:11659   */\n    tag_25:\n        /* \"#utility.yul\":10381:10418   */\n      tag_203\n        /* \"#utility.yul\":10414:10417   */\n      dup3\n        /* \"#utility.yul\":10381:10418   */\n      tag_56\n      jump\t// in\n    tag_203:\n        /* \"#utility.yul\":10483:10501   */\n      0xffffffffffffffff\n        /* \"#utility.yul\":10475:10481   */\n      dup2\n        /* \"#utility.yul\":10472:10502   */\n      gt\n        /* \"#utility.yul\":10469:10525   */\n      iszero\n      tag_204\n      jumpi\n        /* \"#utility.yul\":10505:10523   */\n      tag_205\n      tag_42\n      jump\t// in\n    tag_205:\n        /* \"#utility.yul\":10469:10525   */\n    tag_204:\n        /* \"#utility.yul\":10549:10587   */\n      tag_206\n        /* \"#utility.yul\":10581:10585   */\n      dup3\n        /* \"#utility.yul\":10575:10586   */\n      sload\n        /* \"#utility.yul\":10549:10587   */\n      tag_31\n      jump\t// in\n    tag_206:\n        /* \"#utility.yul\":10634:10701   */\n      tag_207\n        /* \"#utility.yul\":10694:10700   */\n      dup3\n        /* \"#utility.yul\":10686:10692   */\n      dup3\n        /* \"#utility.yul\":10680:10684   */\n      dup6\n        /* \"#utility.yul\":10634:10701   */\n      tag_73\n      jump\t// in\n    tag_207:\n        /* \"#utility.yul\":10728:10729   */\n      0x00\n        /* \"#utility.yul\":10752:10756   */\n      0x20\n        /* \"#utility.yul\":10739:10756   */\n      swap1\n      pop\n        /* \"#utility.yul\":10784:10786   */\n      0x1f\n        /* \"#utility.yul\":10776:10782   */\n      dup4\n        /* \"#utility.yul\":10773:10787   */\n      gt\n        /* \"#utility.yul\":10801:10802   */\n      0x01\n        /* \"#utility.yul\":10796:11414   */\n      dup2\n      eq\n      tag_209\n      jumpi\n        /* \"#utility.yul\":11458:11459   */\n      0x00\n        /* \"#utility.yul\":11475:11481   */\n      dup5\n        /* \"#utility.yul\":11472:11549   */\n      iszero\n      tag_210\n      jumpi\n        /* \"#utility.yul\":11524:11533   */\n      dup3\n        /* \"#utility.yul\":11519:11522   */\n      dup8\n        /* \"#utility.yul\":11515:11534   */\n      add\n        /* \"#utility.yul\":11509:11535   */\n      mload\n        /* \"#utility.yul\":11500:11535   */\n      swap1\n      pop\n        /* \"#utility.yul\":11472:11549   */\n    tag_210:\n        /* \"#utility.yul\":11575:11642   */\n      tag_211\n        /* \"#utility.yul\":11635:11641   */\n      dup6\n        /* \"#utility.yul\":11628:11633   */\n      dup3\n        /* \"#utility.yul\":11575:11642   */\n      tag_76\n      jump\t// in\n    tag_211:\n        /* \"#utility.yul\":11569:11573   */\n      dup7\n        /* \"#utility.yul\":11562:11643   */\n      sstore\n        /* \"#utility.yul\":11431:11653   */\n      pop\n        /* \"#utility.yul\":10766:11653   */\n      jump(tag_208)\n        /* \"#utility.yul\":10796:11414   */\n    tag_209:\n        /* \"#utility.yul\":10848:10852   */\n      0x1f\n        /* \"#utility.yul\":10844:10853   */\n      not\n        /* \"#utility.yul\":10836:10842   */\n      dup5\n        /* \"#utility.yul\":10832:10854   */\n      and\n        /* \"#utility.yul\":10882:10919   */\n      tag_212\n        /* \"#utility.yul\":10914:10918   */\n      dup7\n        /* \"#utility.yul\":10882:10919   */\n      tag_62\n      jump\t// in\n    tag_212:\n        /* \"#utility.yul\":10941:10942   */\n      0x00\n        /* \"#utility.yul\":10955:11163   */\n    tag_213:\n        /* \"#utility.yul\":10969:10976   */\n      dup3\n        /* \"#utility.yul\":10966:10967   */\n      dup2\n        /* \"#utility.yul\":10963:10977   */\n      lt\n        /* \"#utility.yul\":10955:11163   */\n      iszero\n      tag_215\n      jumpi\n        /* \"#utility.yul\":11048:11057   */\n      dup5\n        /* \"#utility.yul\":11043:11046   */\n      dup10\n        /* \"#utility.yul\":11039:11058   */\n      add\n        /* \"#utility.yul\":11033:11059   */\n      mload\n        /* \"#utility.yul\":11025:11031   */\n      dup3\n        /* \"#utility.yul\":11018:11060   */\n      sstore\n        /* \"#utility.yul\":11099:11100   */\n      0x01\n        /* \"#utility.yul\":11091:11097   */\n      dup3\n        /* \"#utility.yul\":11087:11101   */\n      add\n        /* \"#utility.yul\":11077:11101   */\n      swap2\n      pop\n        /* \"#utility.yul\":11146:11148   */\n      0x20\n        /* \"#utility.yul\":11135:11144   */\n      dup6\n        /* \"#utility.yul\":11131:11149   */\n      add\n        /* \"#utility.yul\":11118:11149   */\n      swap5\n      pop\n        /* \"#utility.yul\":10992:10996   */\n      0x20\n        /* \"#utility.yul\":10989:10990   */\n      dup2\n        /* \"#utility.yul\":10985:10997   */\n      add\n        /* \"#utility.yul\":10980:10997   */\n      swap1\n      pop\n        /* \"#utility.yul\":10955:11163   */\n      jump(tag_213)\n    tag_215:\n        /* \"#utility.yul\":11191:11197   */\n      dup7\n        /* \"#utility.yul\":11182:11189   */\n      dup4\n        /* \"#utility.yul\":11179:11198   */\n      lt\n        /* \"#utility.yul\":11176:11355   */\n      iszero\n      tag_216\n      jumpi\n        /* \"#utility.yul\":11249:11258   */\n      dup5\n        /* \"#utility.yul\":11244:11247   */\n      dup10\n        /* \"#utility.yul\":11240:11259   */\n      add\n        /* \"#utility.yul\":11234:11260   */\n      mload\n        /* \"#utility.yul\":11292:11340   */\n      tag_217\n        /* \"#utility.yul\":11334:11338   */\n      0x1f\n        /* \"#utility.yul\":11326:11332   */\n      dup10\n        /* \"#utility.yul\":11322:11339   */\n      and\n        /* \"#utility.yul\":11311:11320   */\n      dup3\n        /* \"#utility.yul\":11292:11340   */\n      tag_75\n      jump\t// in\n    tag_217:\n        /* \"#utility.yul\":11284:11290   */\n      dup4\n        /* \"#utility.yul\":11277:11341   */\n      sstore\n        /* \"#utility.yul\":11199:11355   */\n      pop\n        /* \"#utility.yul\":11176:11355   */\n    tag_216:\n        /* \"#utility.yul\":11401:11402   */\n      0x01\n        /* \"#utility.yul\":11397:11398   */\n      0x02\n        /* \"#utility.yul\":11389:11395   */\n      dup9\n        /* \"#utility.yul\":11385:11399   */\n      mul\n        /* \"#utility.yul\":11381:11403   */\n      add\n        /* \"#utility.yul\":11375:11379   */\n      dup9\n        /* \"#utility.yul\":11368:11404   */\n      sstore\n        /* \"#utility.yul\":10803:11414   */\n      pop\n      pop\n      pop\n        /* \"#utility.yul\":10766:11653   */\n    tag_208:\n      pop\n        /* \"#utility.yul\":10356:11659   */\n      pop\n      pop\n      pop\n        /* \"#utility.yul\":10264:11659   */\n      pop\n      pop\n      jump\t// out\n        /* \"#utility.yul\":11665:11813   */\n    tag_77:\n        /* \"#utility.yul\":11767:11778   */\n      0x00\n        /* \"#utility.yul\":11804:11807   */\n      dup2\n        /* \"#utility.yul\":11789:11807   */\n      swap1\n      pop\n        /* \"#utility.yul\":11665:11813   */\n      swap3\n      swap2\n      pop\n      pop\n      jump\t// out\n        /* \"#utility.yul\":11819:12209   */\n    tag_78:\n        /* \"#utility.yul\":11925:11928   */\n      0x00\n        /* \"#utility.yul\":11953:11992   */\n      tag_220\n        /* \"#utility.yul\":11986:11991   */\n      dup3\n        /* \"#utility.yul\":11953:11992   */\n      tag_56\n      jump\t// in\n    tag_220:\n        /* \"#utility.yul\":12008:12097   */\n      tag_221\n        /* \"#utility.yul\":12090:12096   */\n      dup2\n        /* \"#utility.yul\":12085:12088   */\n      dup6\n        /* \"#utility.yul\":12008:12097   */\n      tag_77\n      jump\t// in\n    tag_221:\n        /* \"#utility.yul\":12001:12097   */\n      swap4\n      pop\n        /* \"#utility.yul\":12106:12171   */\n      tag_222\n        /* \"#utility.yul\":12164:12170   */\n      dup2\n        /* \"#utility.yul\":12159:12162   */\n      dup6\n        /* \"#utility.yul\":12152:12156   */\n      0x20\n        /* \"#utility.yul\":12145:12150   */\n      dup7\n        /* \"#utility.yul\":12141:12157   */\n      add\n        /* \"#utility.yul\":12106:12171   */\n      tag_58\n      jump\t// in\n    tag_222:\n        /* \"#utility.yul\":12196:12202   */\n      dup1\n        /* \"#utility.yul\":12191:12194   */\n      dup5\n        /* \"#utility.yul\":12187:12203   */\n      add\n        /* \"#utility.yul\":12180:12203   */\n      swap2\n      pop\n        /* \"#utility.yul\":11929:12209   */\n      pop\n        /* \"#utility.yul\":11819:12209   */\n      swap3\n      swap2\n      pop\n      pop\n      jump\t// out\n        /* \"#utility.yul\":12215:12490   */\n    tag_27:\n        /* \"#utility.yul\":12347:12350   */\n      0x00\n        /* \"#utility.yul\":12369:12464   */\n      tag_224\n        /* \"#utility.yul\":12460:12463   */\n      dup3\n        /* \"#utility.yul\":12451:12457   */\n      dup5\n        /* \"#utility.yul\":12369:12464   */\n      tag_78\n      jump\t// in\n    tag_224:\n        /* \"#utility.yul\":12362:12464   */\n      swap2\n      pop\n        /* \"#utility.yul\":12481:12484   */\n      dup2\n        /* \"#utility.yul\":12474:12484   */\n      swap1\n      pop\n        /* \"#utility.yul\":12215:12490   */\n      swap3\n      swap2\n      pop\n      pop\n      jump\t// out\n\n    auxdata: 0xa2646970667358221220767a203e0d6da98b094505c3a433810f56507a8e0e0a65dede6c169d3e9ebe6964736f6c63430008120033\n}\n",
				"bytecode": {
					"linkReferences": {},
					"object": "6080604052600a600055600a6000546200001a9190620001cb565b6001553480156200002a57600080fd5b506200021c565b7f4e487b7100000000000000000000000000000000000000000000000000000000600052601160045260246000fd5b60008160011c9050919050565b6000808291508390505b6001851115620000bf5780860481111562000097576200009662000031565b5b6001851615620000a75780820291505b8081029050620000b78562000060565b945062000077565b94509492505050565b600082620000da5760019050620001ad565b81620000ea5760009050620001ad565b81600181146200010357600281146200010e5762000144565b6001915050620001ad565b60ff84111562000123576200012262000031565b5b8360020a9150848211156200013d576200013c62000031565b5b50620001ad565b5060208310610133831016604e8410600b84101617156200017e5782820a90508381111562000178576200017762000031565b5b620001ad565b6200018d84848460016200006d565b92509050818404811115620001a757620001a662000031565b5b81810290505b9392505050565b6000819050919050565b600060ff82169050919050565b6000620001d882620001b4565b9150620001e583620001be565b9250620002147fffffffffffffffffffffffffffffffffffffffffffffffffffffffffffffffff8484620000c8565b905092915050565b610998806200022c6000396000f3fe608060405234801561001057600080fd5b50600436106100415760003560e01c80636a6cce9914610046578063845e350014610062578063a7d05b0814610092575b600080fd5b610060600480360381019061005b9190610456565b6100c4565b005b61007c600480360381019061007791906104c5565b610189565b604051610089919061051d565b60405180910390f35b6100ac60048036038101906100a79190610538565b6101bf565b6040516100bb939291906105f3565b60405180910390f35b6003604051806060016040528085815260200184815260200183151581525090806001815401808255809150506001900390600052602060002090600302016000909190919091506000820151816000019081610121919061083d565b506020820151816001015560408201518160020160006101000a81548160ff02191690831515021790555050508060028460405161015f919061094b565b908152602001604051809103902060006101000a81548160ff021916908315150217905550505050565b6002818051602081018201805184825260208301602085012081835280955050505050506000915054906101000a900460ff1681565b600381815481106101cf57600080fd5b90600052602060002090600302016000915090508060000180546101f290610660565b80601f016020809104026020016040519081016040528092919081815260200182805461021e90610660565b801561026b5780601f106102405761010080835404028352916020019161026b565b820191906000526020600020905b81548152906001019060200180831161024e57829003601f168201915b5050505050908060010154908060020160009054906101000a900460ff16905083565b6000604051905090565b600080fd5b600080fd5b600080fd5b600080fd5b6000601f19601f8301169050919050565b7f4e487b7100000000000000000000000000000000000000000000000000000000600052604160045260246000fd5b6102f5826102ac565b810181811067ffffffffffffffff82111715610314576103136102bd565b5b80604052505050565b600061032761028e565b905061033382826102ec565b919050565b600067ffffffffffffffff821115610353576103526102bd565b5b61035c826102ac565b9050602081019050919050565b82818337600083830152505050565b600061038b61038684610338565b61031d565b9050828152602081018484840111156103a7576103a66102a7565b5b6103b2848285610369565b509392505050565b600082601f8301126103cf576103ce6102a2565b5b81356103df848260208601610378565b91505092915050565b6000819050919050565b6103fb816103e8565b811461040657600080fd5b50565b600081359050610418816103f2565b92915050565b60008115159050919050565b6104338161041e565b811461043e57600080fd5b50565b6000813590506104508161042a565b92915050565b60008060006060848603121561046f5761046e610298565b5b600084013567ffffffffffffffff81111561048d5761048c61029d565b5b610499868287016103ba565b93505060206104aa86828701610409565b92505060406104bb86828701610441565b9150509250925092565b6000602082840312156104db576104da610298565b5b600082013567ffffffffffffffff8111156104f9576104f861029d565b5b610505848285016103ba565b91505092915050565b6105178161041e565b82525050565b6000602082019050610532600083018461050e565b92915050565b60006020828403121561054e5761054d610298565b5b600061055c84828501610409565b91505092915050565b600081519050919050565b600082825260208201905092915050565b60005b8381101561059f578082015181840152602081019050610584565b60008484015250505050565b60006105b682610565565b6105c08185610570565b93506105d0818560208601610581565b6105d9816102ac565b840191505092915050565b6105ed816103e8565b82525050565b6000606082019050818103600083015261060d81866105ab565b905061061c60208301856105e4565b610629604083018461050e565b949350505050565b7f4e487b7100000000000000000000000000000000000000000000000000000000600052602260045260246000fd5b6000600282049050600182168061067857607f821691505b60208210810361068b5761068a610631565b5b50919050565b60008190508160005260206000209050919050565b60006020601f8301049050919050565b600082821b905092915050565b6000600883026106f37fffffffffffffffffffffffffffffffffffffffffffffffffffffffffffffffff826106b6565b6106fd86836106b6565b95508019841693508086168417925050509392505050565b6000819050919050565b600061073a610735610730846103e8565b610715565b6103e8565b9050919050565b6000819050919050565b6107548361071f565b61076861076082610741565b8484546106c3565b825550505050565b600090565b61077d610770565b61078881848461074b565b505050565b5b818110156107ac576107a1600082610775565b60018101905061078e565b5050565b601f8211156107f1576107c281610691565b6107cb846106a6565b810160208510156107da578190505b6107ee6107e6856106a6565b83018261078d565b50505b505050565b600082821c905092915050565b6000610814600019846008026107f6565b1980831691505092915050565b600061082d8383610803565b9150826002028217905092915050565b61084682610565565b67ffffffffffffffff81111561085f5761085e6102bd565b5b6108698254610660565b6108748282856107b0565b600060209050601f8311600181146108a75760008415610895578287015190505b61089f8582610821565b865550610907565b601f1984166108b586610691565b60005b828110156108dd578489015182556001820191506020850194506020810190506108b8565b868310156108fa57848901516108f6601f891682610803565b8355505b6001600288020188555050505b505050505050565b600081905092915050565b600061092582610565565b61092f818561090f565b935061093f818560208601610581565b80840191505092915050565b6000610957828461091a565b91508190509291505056fea2646970667358221220767a203e0d6da98b094505c3a433810f56507a8e0e0a65dede6c169d3e9ebe6964736f6c63430008120033",
					"opcodes": "PUSH1 0x80 PUSH1 0x40 MSTORE PUSH1 0xA PUSH1 0x0 SSTORE PUSH1 0xA PUSH1 0x0 SLOAD PUSH3 0x1A SWAP2 SWAP1 PUSH3 0x1CB JUMP JUMPDEST PUSH1 0x1 SSTORE CALLVALUE DUP1 ISZERO PUSH3 0x2A JUMPI PUSH1 0x0 DUP1 REVERT JUMPDEST POP PUSH3 0x21C JUMP JUMPDEST PUSH32 0x4E487B7100000000000000000000000000000000000000000000000000000000 PUSH1 0x0 MSTORE PUSH1 0x11 PUSH1 0x4 MSTORE PUSH1 0x24 PUSH1 0x0 REVERT JUMPDEST PUSH1 0x0 DUP2 PUSH1 0x1 SHR SWAP1 POP SWAP2 SWAP1 POP JUMP JUMPDEST PUSH1 0x0 DUP1 DUP3 SWAP2 POP DUP4 SWAP1 POP JUMPDEST PUSH1 0x1 DUP6 GT ISZERO PUSH3 0xBF JUMPI DUP1 DUP7 DIV DUP2 GT ISZERO PUSH3 0x97 JUMPI PUSH3 0x96 PUSH3 0x31 JUMP JUMPDEST JUMPDEST PUSH1 0x1 DUP6 AND ISZERO PUSH3 0xA7 JUMPI DUP1 DUP3 MUL SWAP2 POP JUMPDEST DUP1 DUP2 MUL SWAP1 POP PUSH3 0xB7 DUP6 PUSH3 0x60 JUMP JUMPDEST SWAP5 POP PUSH3 0x77 JUMP JUMPDEST SWAP5 POP SWAP5 SWAP3 POP POP POP JUMP JUMPDEST PUSH1 0x0 DUP3 PUSH3 0xDA JUMPI PUSH1 0x1 SWAP1 POP PUSH3 0x1AD JUMP JUMPDEST DUP2 PUSH3 0xEA JUMPI PUSH1 0x0 SWAP1 POP PUSH3 0x1AD JUMP JUMPDEST DUP2 PUSH1 0x1 DUP2 EQ PUSH3 0x103 JUMPI PUSH1 0x2 DUP2 EQ PUSH3 0x10E JUMPI PUSH3 0x144 JUMP JUMPDEST PUSH1 0x1 SWAP2 POP POP PUSH3 0x1AD JUMP JUMPDEST PUSH1 0xFF DUP5 GT ISZERO PUSH3 0x123 JUMPI PUSH3 0x122 PUSH3 0x31 JUMP JUMPDEST JUMPDEST DUP4 PUSH1 0x2 EXP SWAP2 POP DUP5 DUP3 GT ISZERO PUSH3 0x13D JUMPI PUSH3 0x13C PUSH3 0x31 JUMP JUMPDEST JUMPDEST POP PUSH3 0x1AD JUMP JUMPDEST POP PUSH1 0x20 DUP4 LT PUSH2 0x133 DUP4 LT AND PUSH1 0x4E DUP5 LT PUSH1 0xB DUP5 LT AND OR ISZERO PUSH3 0x17E JUMPI DUP3 DUP3 EXP SWAP1 POP DUP4 DUP2 GT ISZERO PUSH3 0x178 JUMPI PUSH3 0x177 PUSH3 0x31 JUMP JUMPDEST JUMPDEST PUSH3 0x1AD JUMP JUMPDEST PUSH3 0x18D DUP5 DUP5 DUP5 PUSH1 0x1 PUSH3 0x6D JUMP JUMPDEST SWAP3 POP SWAP1 POP DUP2 DUP5 DIV DUP2 GT ISZERO PUSH3 0x1A7 JUMPI PUSH3 0x1A6 PUSH3 0x31 JUMP JUMPDEST JUMPDEST DUP2 DUP2 MUL SWAP1 POP JUMPDEST SWAP4 SWAP3 POP POP POP JUMP JUMPDEST PUSH1 0x0 DUP2 SWAP1 POP SWAP2 SWAP1 POP JUMP JUMPDEST PUSH1 0x0 PUSH1 0xFF DUP3 AND SWAP1 POP SWAP2 SWAP1 POP JUMP JUMPDEST PUSH1 0x0 PUSH3 0x1D8 DUP3 PUSH3 0x1B4 JUMP JUMPDEST SWAP2 POP PUSH3 0x1E5 DUP4 PUSH3 0x1BE JUMP JUMPDEST SWAP3 POP PUSH3 0x214 PUSH32 0xFFFFFFFFFFFFFFFFFFFFFFFFFFFFFFFFFFFFFFFFFFFFFFFFFFFFFFFFFFFFFFFF DUP5 DUP5 PUSH3 0xC8 JUMP JUMPDEST SWAP1 POP SWAP3 SWAP2 POP POP JUMP JUMPDEST PUSH2 0x998 DUP1 PUSH3 0x22C PUSH1 0x0 CODECOPY PUSH1 0x0 RETURN INVALID PUSH1 0x80 PUSH1 0x40 MSTORE CALLVALUE DUP1 ISZERO PUSH2 0x10 JUMPI PUSH1 0x0 DUP1 REVERT JUMPDEST POP PUSH1 0x4 CALLDATASIZE LT PUSH2 0x41 JUMPI PUSH1 0x0 CALLDATALOAD PUSH1 0xE0 SHR DUP1 PUSH4 0x6A6CCE99 EQ PUSH2 0x46 JUMPI DUP1 PUSH4 0x845E3500 EQ PUSH2 0x62 JUMPI DUP1 PUSH4 0xA7D05B08 EQ PUSH2 0x92 JUMPI JUMPDEST PUSH1 0x0 DUP1 REVERT JUMPDEST PUSH2 0x60 PUSH1 0x4 DUP1 CALLDATASIZE SUB DUP2 ADD SWAP1 PUSH2 0x5B SWAP2 SWAP1 PUSH2 0x456 JUMP JUMPDEST PUSH2 0xC4 JUMP JUMPDEST STOP JUMPDEST PUSH2 0x7C PUSH1 0x4 DUP1 CALLDATASIZE SUB DUP2 ADD SWAP1 PUSH2 0x77 SWAP2 SWAP1 PUSH2 0x4C5 JUMP JUMPDEST PUSH2 0x189 JUMP JUMPDEST PUSH1 0x40 MLOAD PUSH2 0x89 SWAP2 SWAP1 PUSH2 0x51D JUMP JUMPDEST PUSH1 0x40 MLOAD DUP1 SWAP2 SUB SWAP1 RETURN JUMPDEST PUSH2 0xAC PUSH1 0x4 DUP1 CALLDATASIZE SUB DUP2 ADD SWAP1 PUSH2 0xA7 SWAP2 SWAP1 PUSH2 0x538 JUMP JUMPDEST PUSH2 0x1BF JUMP JUMPDEST PUSH1 0x40 MLOAD PUSH2 0xBB SWAP4 SWAP3 SWAP2 SWAP1 PUSH2 0x5F3 JUMP JUMPDEST PUSH1 0x40 MLOAD DUP1 SWAP2 SUB SWAP1 RETURN JUMPDEST PUSH1 0x3 PUSH1 0x40 MLOAD DUP1 PUSH1 0x60 ADD PUSH1 0x40 MSTORE DUP1 DUP6 DUP2 MSTORE PUSH1 0x20 ADD DUP5 DUP2 MSTORE PUSH1 0x20 ADD DUP4 ISZERO ISZERO DUP2 MSTORE POP SWAP1 DUP1 PUSH1 0x1 DUP2 SLOAD ADD DUP1 DUP3 SSTORE DUP1 SWAP2 POP POP PUSH1 0x1 SWAP1 SUB SWAP1 PUSH1 0x0 MSTORE PUSH1 0x20 PUSH1 0x0 KECCAK256 SWAP1 PUSH1 0x3 MUL ADD PUSH1 0x0 SWAP1 SWAP2 SWAP1 SWAP2 SWAP1 SWAP2 POP PUSH1 0x0 DUP3 ADD MLOAD DUP2 PUSH1 0x0 ADD SWAP1 DUP2 PUSH2 0x121 SWAP2 SWAP1 PUSH2 0x83D JUMP JUMPDEST POP PUSH1 0x20 DUP3 ADD MLOAD DUP2 PUSH1 0x1 ADD SSTORE PUSH1 0x40 DUP3 ADD MLOAD DUP2 PUSH1 0x2 ADD PUSH1 0x0 PUSH2 0x100 EXP DUP2 SLOAD DUP2 PUSH1 0xFF MUL NOT AND SWAP1 DUP4 ISZERO ISZERO MUL OR SWAP1 SSTORE POP POP POP DUP1 PUSH1 0x2 DUP5 PUSH1 0x40 MLOAD PUSH2 0x15F SWAP2 SWAP1 PUSH2 0x94B JUMP JUMPDEST SWAP1 DUP2 MSTORE PUSH1 0x20 ADD PUSH1 0x40 MLOAD DUP1 SWAP2 SUB SWAP1 KECCAK256 PUSH1 0x0 PUSH2 0x100 EXP DUP2 SLOAD DUP2 PUSH1 0xFF MUL NOT AND SWAP1 DUP4 ISZERO ISZERO MUL OR SWAP1 SSTORE POP POP POP POP JUMP JUMPDEST PUSH1 0x2 DUP2 DUP1 MLOAD PUSH1 0x20 DUP2 ADD DUP3 ADD DUP1 MLOAD DUP5 DUP3 MSTORE PUSH1 0x20 DUP4 ADD PUSH1 0x20 DUP6 ADD KECCAK256 DUP2 DUP4 MSTORE DUP1 SWAP6 POP POP POP POP POP POP PUSH1 0x0 SWAP2 POP SLOAD SWAP1 PUSH2 0x100 EXP SWAP1 DIV PUSH1 0xFF AND DUP2 JUMP JUMPDEST PUSH1 0x3 DUP2 DUP2 SLOAD DUP2 LT PUSH2 0x1CF JUMPI PUSH1 0x0 DUP1 REVERT JUMPDEST SWAP1 PUSH1 0x0 MSTORE PUSH1 0x20 PUSH1 0x0 KECCAK256 SWAP1 PUSH1 0x3 MUL ADD PUSH1 0x0 SWAP2 POP SWAP1 POP DUP1 PUSH1 0x0 ADD DUP1 SLOAD PUSH2 0x1F2 SWAP1 PUSH2 0x660 JUMP JUMPDEST DUP1 PUSH1 0x1F ADD PUSH1 0x20 DUP1 SWAP2 DIV MUL PUSH1 0x20 ADD PUSH1 0x40 MLOAD SWAP1 DUP2 ADD PUSH1 0x40 MSTORE DUP1 SWAP3 SWAP2 SWAP1 DUP2 DUP2 MSTORE PUSH1 0x20 ADD DUP3 DUP1 SLOAD PUSH2 0x21E SWAP1 PUSH2 0x660 JUMP JUMPDEST DUP1 ISZERO PUSH2 0x26B JUMPI DUP1 PUSH1 0x1F LT PUSH2 0x240 JUMPI PUSH2 0x100 DUP1 DUP4 SLOAD DIV MUL DUP4 MSTORE SWAP2 PUSH1 0x20 ADD SWAP2 PUSH2 0x26B JUMP JUMPDEST DUP3 ADD SWAP2 SWAP1 PUSH1 0x0 MSTORE PUSH1 0x20 PUSH1 0x0 KECCAK256 SWAP1 JUMPDEST DUP2 SLOAD DUP2 MSTORE SWAP1 PUSH1 0x1 ADD SWAP1 PUSH1 0x20 ADD DUP1 DUP4 GT PUSH2 0x24E JUMPI DUP3 SWAP1 SUB PUSH1 0x1F AND DUP3 ADD SWAP2 JUMPDEST POP POP POP POP POP SWAP1 DUP1 PUSH1 0x1 ADD SLOAD SWAP1 DUP1 PUSH1 0x2 ADD PUSH1 0x0 SWAP1 SLOAD SWAP1 PUSH2 0x100 EXP SWAP1 DIV PUSH1 0xFF AND SWAP1 POP DUP4 JUMP JUMPDEST PUSH1 0x0 PUSH1 0x40 MLOAD SWAP1 POP SWAP1 JUMP JUMPDEST PUSH1 0x0 DUP1 REVERT JUMPDEST PUSH1 0x0 DUP1 REVERT JUMPDEST PUSH1 0x0 DUP1 REVERT JUMPDEST PUSH1 0x0 DUP1 REVERT JUMPDEST PUSH1 0x0 PUSH1 0x1F NOT PUSH1 0x1F DUP4 ADD AND SWAP1 POP SWAP2 SWAP1 POP JUMP JUMPDEST PUSH32 0x4E487B7100000000000000000000000000000000000000000000000000000000 PUSH1 0x0 MSTORE PUSH1 0x41 PUSH1 0x4 MSTORE PUSH1 0x24 PUSH1 0x0 REVERT JUMPDEST PUSH2 0x2F5 DUP3 PUSH2 0x2AC JUMP JUMPDEST DUP2 ADD DUP2 DUP2 LT PUSH8 0xFFFFFFFFFFFFFFFF DUP3 GT OR ISZERO PUSH2 0x314 JUMPI PUSH2 0x313 PUSH2 0x2BD JUMP JUMPDEST JUMPDEST DUP1 PUSH1 0x40 MSTORE POP POP POP JUMP JUMPDEST PUSH1 0x0 PUSH2 0x327 PUSH2 0x28E JUMP JUMPDEST SWAP1 POP PUSH2 0x333 DUP3 DUP3 PUSH2 0x2EC JUMP JUMPDEST SWAP2 SWAP1 POP JUMP JUMPDEST PUSH1 0x0 PUSH8 0xFFFFFFFFFFFFFFFF DUP3 GT ISZERO PUSH2 0x353 JUMPI PUSH2 0x352 PUSH2 0x2BD JUMP JUMPDEST JUMPDEST PUSH2 0x35C DUP3 PUSH2 0x2AC JUMP JUMPDEST SWAP1 POP PUSH1 0x20 DUP2 ADD SWAP1 POP SWAP2 SWAP1 POP JUMP JUMPDEST DUP3 DUP2 DUP4 CALLDATACOPY PUSH1 0x0 DUP4 DUP4 ADD MSTORE POP POP POP JUMP JUMPDEST PUSH1 0x0 PUSH2 0x38B PUSH2 0x386 DUP5 PUSH2 0x338 JUMP JUMPDEST PUSH2 0x31D JUMP JUMPDEST SWAP1 POP DUP3 DUP2 MSTORE PUSH1 0x20 DUP2 ADD DUP5 DUP5 DUP5 ADD GT ISZERO PUSH2 0x3A7 JUMPI PUSH2 0x3A6 PUSH2 0x2A7 JUMP JUMPDEST JUMPDEST PUSH2 0x3B2 DUP5 DUP3 DUP6 PUSH2 0x369 JUMP JUMPDEST POP SWAP4 SWAP3 POP POP POP JUMP JUMPDEST PUSH1 0x0 DUP3 PUSH1 0x1F DUP4 ADD SLT PUSH2 0x3CF JUMPI PUSH2 0x3CE PUSH2 0x2A2 JUMP JUMPDEST JUMPDEST DUP2 CALLDATALOAD PUSH2 0x3DF DUP5 DUP3 PUSH1 0x20 DUP7 ADD PUSH2 0x378 JUMP JUMPDEST SWAP2 POP POP SWAP3 SWAP2 POP POP JUMP JUMPDEST PUSH1 0x0 DUP2 SWAP1 POP SWAP2 SWAP1 POP JUMP JUMPDEST PUSH2 0x3FB DUP2 PUSH2 0x3E8 JUMP JUMPDEST DUP2 EQ PUSH2 0x406 JUMPI PUSH1 0x0 DUP1 REVERT JUMPDEST POP JUMP JUMPDEST PUSH1 0x0 DUP2 CALLDATALOAD SWAP1 POP PUSH2 0x418 DUP2 PUSH2 0x3F2 JUMP JUMPDEST SWAP3 SWAP2 POP POP JUMP JUMPDEST PUSH1 0x0 DUP2 ISZERO ISZERO SWAP1 POP SWAP2 SWAP1 POP JUMP JUMPDEST PUSH2 0x433 DUP2 PUSH2 0x41E JUMP JUMPDEST DUP2 EQ PUSH2 0x43E JUMPI PUSH1 0x0 DUP1 REVERT JUMPDEST POP JUMP JUMPDEST PUSH1 0x0 DUP2 CALLDATALOAD SWAP1 POP PUSH2 0x450 DUP2 PUSH2 0x42A JUMP JUMPDEST SWAP3 SWAP2 POP POP JUMP JUMPDEST PUSH1 0x0 DUP1 PUSH1 0x0 PUSH1 0x60 DUP5 DUP7 SUB SLT ISZERO PUSH2 0x46F JUMPI PUSH2 0x46E PUSH2 0x298 JUMP JUMPDEST JUMPDEST PUSH1 0x0 DUP5 ADD CALLDATALOAD PUSH8 0xFFFFFFFFFFFFFFFF DUP2 GT ISZERO PUSH2 0x48D JUMPI PUSH2 0x48C PUSH2 0x29D JUMP JUMPDEST JUMPDEST PUSH2 0x499 DUP7 DUP3 DUP8 ADD PUSH2 0x3BA JUMP JUMPDEST SWAP4 POP POP PUSH1 0x20 PUSH2 0x4AA DUP7 DUP3 DUP8 ADD PUSH2 0x409 JUMP JUMPDEST SWAP3 POP POP PUSH1 0x40 PUSH2 0x4BB DUP7 DUP3 DUP8 ADD PUSH2 0x441 JUMP JUMPDEST SWAP2 POP POP SWAP3 POP SWAP3 POP SWAP3 JUMP JUMPDEST PUSH1 0x0 PUSH1 0x20 DUP3 DUP5 SUB SLT ISZERO PUSH2 0x4DB JUMPI PUSH2 0x4DA PUSH2 0x298 JUMP JUMPDEST JUMPDEST PUSH1 0x0 DUP3 ADD CALLDATALOAD PUSH8 0xFFFFFFFFFFFFFFFF DUP2 GT ISZERO PUSH2 0x4F9 JUMPI PUSH2 0x4F8 PUSH2 0x29D JUMP JUMPDEST JUMPDEST PUSH2 0x505 DUP5 DUP3 DUP6 ADD PUSH2 0x3BA JUMP JUMPDEST SWAP2 POP POP SWAP3 SWAP2 POP POP JUMP JUMPDEST PUSH2 0x517 DUP2 PUSH2 0x41E JUMP JUMPDEST DUP3 MSTORE POP POP JUMP JUMPDEST PUSH1 0x0 PUSH1 0x20 DUP3 ADD SWAP1 POP PUSH2 0x532 PUSH1 0x0 DUP4 ADD DUP5 PUSH2 0x50E JUMP JUMPDEST SWAP3 SWAP2 POP POP JUMP JUMPDEST PUSH1 0x0 PUSH1 0x20 DUP3 DUP5 SUB SLT ISZERO PUSH2 0x54E JUMPI PUSH2 0x54D PUSH2 0x298 JUMP JUMPDEST JUMPDEST PUSH1 0x0 PUSH2 0x55C DUP5 DUP3 DUP6 ADD PUSH2 0x409 JUMP JUMPDEST SWAP2 POP POP SWAP3 SWAP2 POP POP JUMP JUMPDEST PUSH1 0x0 DUP2 MLOAD SWAP1 POP SWAP2 SWAP1 POP JUMP JUMPDEST PUSH1 0x0 DUP3 DUP3 MSTORE PUSH1 0x20 DUP3 ADD SWAP1 POP SWAP3 SWAP2 POP POP JUMP JUMPDEST PUSH1 0x0 JUMPDEST DUP4 DUP2 LT ISZERO PUSH2 0x59F JUMPI DUP1 DUP3 ADD MLOAD DUP2 DUP5 ADD MSTORE PUSH1 0x20 DUP2 ADD SWAP1 POP PUSH2 0x584 JUMP JUMPDEST PUSH1 0x0 DUP5 DUP5 ADD MSTORE POP POP POP POP JUMP JUMPDEST PUSH1 0x0 PUSH2 0x5B6 DUP3 PUSH2 0x565 JUMP JUMPDEST PUSH2 0x5C0 DUP2 DUP6 PUSH2 0x570 JUMP JUMPDEST SWAP4 POP PUSH2 0x5D0 DUP2 DUP6 PUSH1 0x20 DUP7 ADD PUSH2 0x581 JUMP JUMPDEST PUSH2 0x5D9 DUP2 PUSH2 0x2AC JUMP JUMPDEST DUP5 ADD SWAP2 POP POP SWAP3 SWAP2 POP POP JUMP JUMPDEST PUSH2 0x5ED DUP2 PUSH2 0x3E8 JUMP JUMPDEST DUP3 MSTORE POP POP JUMP JUMPDEST PUSH1 0x0 PUSH1 0x60 DUP3 ADD SWAP1 POP DUP2 DUP2 SUB PUSH1 0x0 DUP4 ADD MSTORE PUSH2 0x60D DUP2 DUP7 PUSH2 0x5AB JUMP JUMPDEST SWAP1 POP PUSH2 0x61C PUSH1 0x20 DUP4 ADD DUP6 PUSH2 0x5E4 JUMP JUMPDEST PUSH2 0x629 PUSH1 0x40 DUP4 ADD DUP5 PUSH2 0x50E JUMP JUMPDEST SWAP5 SWAP4 POP POP POP POP JUMP JUMPDEST PUSH32 0x4E487B7100000000000000000000000000000000000000000000000000000000 PUSH1 0x0 MSTORE PUSH1 0x22 PUSH1 0x4 MSTORE PUSH1 0x24 PUSH1 0x0 REVERT JUMPDEST PUSH1 0x0 PUSH1 0x2 DUP3 DIV SWAP1 POP PUSH1 0x1 DUP3 AND DUP1 PUSH2 0x678 JUMPI PUSH1 0x7F DUP3 AND SWAP2 POP JUMPDEST PUSH1 0x20 DUP3 LT DUP2 SUB PUSH2 0x68B JUMPI PUSH2 0x68A PUSH2 0x631 JUMP JUMPDEST JUMPDEST POP SWAP2 SWAP1 POP JUMP JUMPDEST PUSH1 0x0 DUP2 SWAP1 POP DUP2 PUSH1 0x0 MSTORE PUSH1 0x20 PUSH1 0x0 KECCAK256 SWAP1 POP SWAP2 SWAP1 POP JUMP JUMPDEST PUSH1 0x0 PUSH1 0x20 PUSH1 0x1F DUP4 ADD DIV SWAP1 POP SWAP2 SWAP1 POP JUMP JUMPDEST PUSH1 0x0 DUP3 DUP3 SHL SWAP1 POP SWAP3 SWAP2 POP POP JUMP JUMPDEST PUSH1 0x0 PUSH1 0x8 DUP4 MUL PUSH2 0x6F3 PUSH32 0xFFFFFFFFFFFFFFFFFFFFFFFFFFFFFFFFFFFFFFFFFFFFFFFFFFFFFFFFFFFFFFFF DUP3 PUSH2 0x6B6 JUMP JUMPDEST PUSH2 0x6FD DUP7 DUP4 PUSH2 0x6B6 JUMP JUMPDEST SWAP6 POP DUP1 NOT DUP5 AND SWAP4 POP DUP1 DUP7 AND DUP5 OR SWAP3 POP POP POP SWAP4 SWAP3 POP POP POP JUMP JUMPDEST PUSH1 0x0 DUP2 SWAP1 POP SWAP2 SWAP1 POP JUMP JUMPDEST PUSH1 0x0 PUSH2 0x73A PUSH2 0x735 PUSH2 0x730 DUP5 PUSH2 0x3E8 JUMP JUMPDEST PUSH2 0x715 JUMP JUMPDEST PUSH2 0x3E8 JUMP JUMPDEST SWAP1 POP SWAP2 SWAP1 POP JUMP JUMPDEST PUSH1 0x0 DUP2 SWAP1 POP SWAP2 SWAP1 POP JUMP JUMPDEST PUSH2 0x754 DUP4 PUSH2 0x71F JUMP JUMPDEST PUSH2 0x768 PUSH2 0x760 DUP3 PUSH2 0x741 JUMP JUMPDEST DUP5 DUP5 SLOAD PUSH2 0x6C3 JUMP JUMPDEST DUP3 SSTORE POP POP POP POP JUMP JUMPDEST PUSH1 0x0 SWAP1 JUMP JUMPDEST PUSH2 0x77D PUSH2 0x770 JUMP JUMPDEST PUSH2 0x788 DUP2 DUP5 DUP5 PUSH2 0x74B JUMP JUMPDEST POP POP POP JUMP JUMPDEST JUMPDEST DUP2 DUP2 LT ISZERO PUSH2 0x7AC JUMPI PUSH2 0x7A1 PUSH1 0x0 DUP3 PUSH2 0x775 JUMP JUMPDEST PUSH1 0x1 DUP2 ADD SWAP1 POP PUSH2 0x78E JUMP JUMPDEST POP POP JUMP JUMPDEST PUSH1 0x1F DUP3 GT ISZERO PUSH2 0x7F1 JUMPI PUSH2 0x7C2 DUP2 PUSH2 0x691 JUMP JUMPDEST PUSH2 0x7CB DUP5 PUSH2 0x6A6 JUMP JUMPDEST DUP2 ADD PUSH1 0x20 DUP6 LT ISZERO PUSH2 0x7DA JUMPI DUP2 SWAP1 POP JUMPDEST PUSH2 0x7EE PUSH2 0x7E6 DUP6 PUSH2 0x6A6 JUMP JUMPDEST DUP4 ADD DUP3 PUSH2 0x78D JUMP JUMPDEST POP POP JUMPDEST POP POP POP JUMP JUMPDEST PUSH1 0x0 DUP3 DUP3 SHR SWAP1 POP SWAP3 SWAP2 POP POP JUMP JUMPDEST PUSH1 0x0 PUSH2 0x814 PUSH1 0x0 NOT DUP5 PUSH1 0x8 MUL PUSH2 0x7F6 JUMP JUMPDEST NOT DUP1 DUP4 AND SWAP2 POP POP SWAP3 SWAP2 POP POP JUMP JUMPDEST PUSH1 0x0 PUSH2 0x82D DUP4 DUP4 PUSH2 0x803 JUMP JUMPDEST SWAP2 POP DUP3 PUSH1 0x2 MUL DUP3 OR SWAP1 POP SWAP3 SWAP2 POP POP JUMP JUMPDEST PUSH2 0x846 DUP3 PUSH2 0x565 JUMP JUMPDEST PUSH8 0xFFFFFFFFFFFFFFFF DUP2 GT ISZERO PUSH2 0x85F JUMPI PUSH2 0x85E PUSH2 0x2BD JUMP JUMPDEST JUMPDEST PUSH2 0x869 DUP3 SLOAD PUSH2 0x660 JUMP JUMPDEST PUSH2 0x874 DUP3 DUP3 DUP6 PUSH2 0x7B0 JUMP JUMPDEST PUSH1 0x0 PUSH1 0x20 SWAP1 POP PUSH1 0x1F DUP4 GT PUSH1 0x1 DUP2 EQ PUSH2 0x8A7 JUMPI PUSH1 0x0 DUP5 ISZERO PUSH2 0x895 JUMPI DUP3 DUP8 ADD MLOAD SWAP1 POP JUMPDEST PUSH2 0x89F DUP6 DUP3 PUSH2 0x821 JUMP JUMPDEST DUP7 SSTORE POP PUSH2 0x907 JUMP JUMPDEST PUSH1 0x1F NOT DUP5 AND PUSH2 0x8B5 DUP7 PUSH2 0x691 JUMP JUMPDEST PUSH1 0x0 JUMPDEST DUP3 DUP2 LT ISZERO PUSH2 0x8DD JUMPI DUP5 DUP10 ADD MLOAD DUP3 SSTORE PUSH1 0x1 DUP3 ADD SWAP2 POP PUSH1 0x20 DUP6 ADD SWAP5 POP PUSH1 0x20 DUP2 ADD SWAP1 POP PUSH2 0x8B8 JUMP JUMPDEST DUP7 DUP4 LT ISZERO PUSH2 0x8FA JUMPI DUP5 DUP10 ADD MLOAD PUSH2 0x8F6 PUSH1 0x1F DUP10 AND DUP3 PUSH2 0x803 JUMP JUMPDEST DUP4 SSTORE POP JUMPDEST PUSH1 0x1 PUSH1 0x2 DUP9 MUL ADD DUP9 SSTORE POP POP POP JUMPDEST POP POP POP POP POP POP JUMP JUMPDEST PUSH1 0x0 DUP2 SWAP1 POP SWAP3 SWAP2 POP POP JUMP JUMPDEST PUSH1 0x0 PUSH2 0x925 DUP3 PUSH2 0x565 JUMP JUMPDEST PUSH2 0x92F DUP2 DUP6 PUSH2 0x90F JUMP JUMPDEST SWAP4 POP PUSH2 0x93F DUP2 DUP6 PUSH1 0x20 DUP7 ADD PUSH2 0x581 JUMP JUMPDEST DUP1 DUP5 ADD SWAP2 POP POP SWAP3 SWAP2 POP POP JUMP JUMPDEST PUSH1 0x0 PUSH2 0x957 DUP3 DUP5 PUSH2 0x91A JUMP JUMPDEST SWAP2 POP DUP2 SWAP1 POP SWAP3 SWAP2 POP POP JUMP INVALID LOG2 PUSH5 0x6970667358 0x22 SLT KECCAK256 PUSH23 0x7A203E0D6DA98B094505C3A433810F56507A8E0E0A65DE 0xDE PUSH13 0x169D3E9EBE6964736F6C634300 ADDMOD SLT STOP CALLER "
				},
				"gasEstimates": {
					"creation": {
						"codeDepositCost": "491200",
						"executionCost": "47320",
						"totalCost": "538520"
					},
					"external": {
						"addZombie(string,uint256,bool)": "infinite",
						"findZombie(string)": "infinite",
						"zoms(uint256)": "infinite"
					}
				},
				"methodIdentifiers": {
					"addZombie(string,uint256,bool)": "6a6cce99",
					"findZombie(string)": "845e3500",
					"zoms(uint256)": "a7d05b08"
				}
			},
			"storageLayout": {
				"storage": [
					{
						"astId": 10,
						"contract": "contracts/zombies.sol:Zombies",
						"label": "dnaZombie",
						"offset": 0,
						"slot": "0",
						"type": "t_uint256"
					},
					{
						"astId": 15,
						"contract": "contracts/zombies.sol:Zombies",
						"label": "dnaModulos",
						"offset": 0,
						"slot": "1",
						"type": "t_uint256"
					},
					{
						"astId": 26,
						"contract": "contracts/zombies.sol:Zombies",
						"label": "findZombie",
						"offset": 0,
						"slot": "2",
						"type": "t_mapping(t_string_memory_ptr,t_bool)"
					},
					{
						"astId": 30,
						"contract": "contracts/zombies.sol:Zombies",
						"label": "zoms",
						"offset": 0,
						"slot": "3",
						"type": "t_array(t_struct(Zombie)22_storage)dyn_storage"
					}
				],
				"types": {
					"t_array(t_struct(Zombie)22_storage)dyn_storage": {
						"base": "t_struct(Zombie)22_storage",
						"encoding": "dynamic_array",
						"label": "struct Zombies.Zombie[]",
						"numberOfBytes": "32"
					},
					"t_bool": {
						"encoding": "inplace",
						"label": "bool",
						"numberOfBytes": "1"
					},
					"t_mapping(t_string_memory_ptr,t_bool)": {
						"encoding": "mapping",
						"key": "t_string_memory_ptr",
						"label": "mapping(string => bool)",
						"numberOfBytes": "32",
						"value": "t_bool"
					},
					"t_string_memory_ptr": {
						"encoding": "bytes",
						"label": "string",
						"numberOfBytes": "32"
					},
					"t_string_storage": {
						"encoding": "bytes",
						"label": "string",
						"numberOfBytes": "32"
					},
					"t_struct(Zombie)22_storage": {
						"encoding": "inplace",
						"label": "struct Zombies.Zombie",
						"members": [
							{
								"astId": 17,
								"contract": "contracts/zombies.sol:Zombies",
								"label": "name",
								"offset": 0,
								"slot": "0",
								"type": "t_string_storage"
							},
							{
								"astId": 19,
								"contract": "contracts/zombies.sol:Zombies",
								"label": "age",
								"offset": 0,
								"slot": "1",
								"type": "t_uint256"
							},
							{
								"astId": 21,
								"contract": "contracts/zombies.sol:Zombies",
								"label": "isConverted",
								"offset": 0,
								"slot": "2",
								"type": "t_bool"
							}
						],
						"numberOfBytes": "96"
					},
					"t_uint256": {
						"encoding": "inplace",
						"label": "uint256",
						"numberOfBytes": "32"
					}
				}
			},
			"userdoc": {
				"kind": "user",
				"methods": {},
				"version": 1
			}
		}
	}
}