{
	"contracts/zombies.sol": {
		"getterFunction": {
			"abi": [
				{
					"inputs": [
						{
							"internalType": "uint256",
							"name": "",
							"type": "uint256"
						}
					],
					"name": "NigeriaHouses",
					"outputs": [
						{
							"internalType": "string",
							"name": "houseType",
							"type": "string"
						},
						{
							"internalType": "string",
							"name": "location",
							"type": "string"
						}
					],
					"stateMutability": "view",
					"type": "function"
				},
				{
					"inputs": [],
					"name": "YorubaGreeting",
					"outputs": [
						{
							"internalType": "string",
							"name": "sound",
							"type": "string"
						},
						{
							"internalType": "uint256",
							"name": "times",
							"type": "uint256"
						}
					],
					"stateMutability": "view",
					"type": "function"
				},
				{
					"inputs": [
						{
							"internalType": "string",
							"name": "_houseType",
							"type": "string"
						},
						{
							"internalType": "string",
							"name": "_location",
							"type": "string"
						}
					],
					"name": "getHouse",
					"outputs": [],
					"stateMutability": "nonpayable",
					"type": "function"
				},
				{
					"inputs": [
						{
							"internalType": "string",
							"name": "",
							"type": "string"
						}
					],
					"name": "greetsMe",
					"outputs": [
						{
							"internalType": "uint256",
							"name": "",
							"type": "uint256"
						}
					],
					"stateMutability": "view",
					"type": "function"
				},
				{
					"inputs": [
						{
							"internalType": "string",
							"name": "",
							"type": "string"
						}
					],
					"name": "houseMaps",
					"outputs": [
						{
							"internalType": "string",
							"name": "",
							"type": "string"
						}
					],
					"stateMutability": "view",
					"type": "function"
				},
				{
					"inputs": [],
					"name": "sayHello",
					"outputs": [
						{
							"internalType": "string",
							"name": "",
							"type": "string"
						}
					],
					"stateMutability": "view",
					"type": "function"
				}
			],
			"devdoc": {
				"kind": "dev",
				"methods": {},
				"version": 1
			},
			"evm": {
				"assembly": "    /* \"contracts/zombies.sol\":691:1758  contract getterFunction {... */\n  mstore(0x40, 0x80)\n    /* \"contracts/zombies.sol\":885:951  howGreetings({... */\n  mload(0x40)\n  dup1\n  0x40\n  add\n  0x40\n  mstore\n  dup1\n  mload(0x40)\n  dup1\n  0x40\n  add\n  0x40\n  mstore\n  dup1\n  0x0b\n  dup2\n  mstore\n  0x20\n  add\n  0x45206b6120726f6f206d61000000000000000000000000000000000000000000\n  dup2\n  mstore\n  pop\n  dup2\n  mstore\n  0x20\n  add\n    /* \"contracts/zombies.sol\":943:944  2 */\n  0x02\n    /* \"contracts/zombies.sol\":885:951  howGreetings({... */\n  dup2\n  mstore\n  pop\n    /* \"contracts/zombies.sol\":848:951  howGreetings public YorubaGreeting = howGreetings({... */\n  0x01\n  0x00\n  dup3\n  add\n  mload\n  dup2\n  0x00\n  add\n  swap1\n  dup2\n  tag_1\n  swap2\n  swap1\n  tag_2\n  jump\t// in\ntag_1:\n  pop\n  0x20\n  dup3\n  add\n  mload\n  dup2\n  0x01\n  add\n  sstore\n  pop\n  pop\n    /* \"contracts/zombies.sol\":1439:1472  string greetings = \"Hello bright\" */\n  mload(0x40)\n  dup1\n  0x40\n  add\n  0x40\n  mstore\n  dup1\n  0x0c\n  dup2\n  mstore\n  0x20\n  add\n  0x48656c6c6f206272696768740000000000000000000000000000000000000000\n  dup2\n  mstore\n  pop\n  0x05\n  swap1\n  dup2\n  tag_3\n  swap2\n  swap1\n  tag_2\n  jump\t// in\ntag_3:\n  pop\n    /* \"contracts/zombies.sol\":691:1758  contract getterFunction {... */\n  callvalue\n  dup1\n  iszero\n  tag_4\n  jumpi\n  0x00\n  dup1\n  revert\ntag_4:\n  pop\n  jump(tag_5)\n    /* \"#utility.yul\":7:106   */\ntag_6:\n    /* \"#utility.yul\":59:65   */\n  0x00\n    /* \"#utility.yul\":93:98   */\n  dup2\n    /* \"#utility.yul\":87:99   */\n  mload\n    /* \"#utility.yul\":77:99   */\n  swap1\n  pop\n    /* \"#utility.yul\":7:106   */\n  swap2\n  swap1\n  pop\n  jump\t// out\n    /* \"#utility.yul\":112:292   */\ntag_7:\n    /* \"#utility.yul\":160:237   */\n  0x4e487b7100000000000000000000000000000000000000000000000000000000\n    /* \"#utility.yul\":157:158   */\n  0x00\n    /* \"#utility.yul\":150:238   */\n  mstore\n    /* \"#utility.yul\":257:261   */\n  0x41\n    /* \"#utility.yul\":254:255   */\n  0x04\n    /* \"#utility.yul\":247:262   */\n  mstore\n    /* \"#utility.yul\":281:285   */\n  0x24\n    /* \"#utility.yul\":278:279   */\n  0x00\n    /* \"#utility.yul\":271:286   */\n  revert\n    /* \"#utility.yul\":298:478   */\ntag_8:\n    /* \"#utility.yul\":346:423   */\n  0x4e487b7100000000000000000000000000000000000000000000000000000000\n    /* \"#utility.yul\":343:344   */\n  0x00\n    /* \"#utility.yul\":336:424   */\n  mstore\n    /* \"#utility.yul\":443:447   */\n  0x22\n    /* \"#utility.yul\":440:441   */\n  0x04\n    /* \"#utility.yul\":433:448   */\n  mstore\n    /* \"#utility.yul\":467:471   */\n  0x24\n    /* \"#utility.yul\":464:465   */\n  0x00\n    /* \"#utility.yul\":457:472   */\n  revert\n    /* \"#utility.yul\":484:804   */\ntag_9:\n    /* \"#utility.yul\":528:534   */\n  0x00\n    /* \"#utility.yul\":565:566   */\n  0x02\n    /* \"#utility.yul\":559:563   */\n  dup3\n    /* \"#utility.yul\":555:567   */\n  div\n    /* \"#utility.yul\":545:567   */\n  swap1\n  pop\n    /* \"#utility.yul\":612:613   */\n  0x01\n    /* \"#utility.yul\":606:610   */\n  dup3\n    /* \"#utility.yul\":602:614   */\n  and\n    /* \"#utility.yul\":633:651   */\n  dup1\n    /* \"#utility.yul\":623:704   */\n  tag_31\n  jumpi\n    /* \"#utility.yul\":689:693   */\n  0x7f\n    /* \"#utility.yul\":681:687   */\n  dup3\n    /* \"#utility.yul\":677:694   */\n  and\n    /* \"#utility.yul\":667:694   */\n  swap2\n  pop\n    /* \"#utility.yul\":623:704   */\ntag_31:\n    /* \"#utility.yul\":751:753   */\n  0x20\n    /* \"#utility.yul\":743:749   */\n  dup3\n    /* \"#utility.yul\":740:754   */\n  lt\n    /* \"#utility.yul\":720:738   */\n  dup2\n    /* \"#utility.yul\":717:755   */\n  sub\n    /* \"#utility.yul\":714:798   */\n  tag_32\n  jumpi\n    /* \"#utility.yul\":770:788   */\n  tag_33\n  tag_8\n  jump\t// in\ntag_33:\n    /* \"#utility.yul\":714:798   */\ntag_32:\n    /* \"#utility.yul\":535:804   */\n  pop\n    /* \"#utility.yul\":484:804   */\n  swap2\n  swap1\n  pop\n  jump\t// out\n    /* \"#utility.yul\":810:951   */\ntag_10:\n    /* \"#utility.yul\":859:863   */\n  0x00\n    /* \"#utility.yul\":882:885   */\n  dup2\n    /* \"#utility.yul\":874:885   */\n  swap1\n  pop\n    /* \"#utility.yul\":905:908   */\n  dup2\n    /* \"#utility.yul\":902:903   */\n  0x00\n    /* \"#utility.yul\":895:909   */\n  mstore\n    /* \"#utility.yul\":939:943   */\n  0x20\n    /* \"#utility.yul\":936:937   */\n  0x00\n    /* \"#utility.yul\":926:944   */\n  keccak256\n    /* \"#utility.yul\":918:944   */\n  swap1\n  pop\n    /* \"#utility.yul\":810:951   */\n  swap2\n  swap1\n  pop\n  jump\t// out\n    /* \"#utility.yul\":957:1050   */\ntag_11:\n    /* \"#utility.yul\":994:1000   */\n  0x00\n    /* \"#utility.yul\":1041:1043   */\n  0x20\n    /* \"#utility.yul\":1036:1038   */\n  0x1f\n    /* \"#utility.yul\":1029:1034   */\n  dup4\n    /* \"#utility.yul\":1025:1039   */\n  add\n    /* \"#utility.yul\":1021:1044   */\n  div\n    /* \"#utility.yul\":1011:1044   */\n  swap1\n  pop\n    /* \"#utility.yul\":957:1050   */\n  swap2\n  swap1\n  pop\n  jump\t// out\n    /* \"#utility.yul\":1056:1163   */\ntag_12:\n    /* \"#utility.yul\":1100:1108   */\n  0x00\n    /* \"#utility.yul\":1150:1155   */\n  dup3\n    /* \"#utility.yul\":1144:1148   */\n  dup3\n    /* \"#utility.yul\":1140:1156   */\n  shl\n    /* \"#utility.yul\":1119:1156   */\n  swap1\n  pop\n    /* \"#utility.yul\":1056:1163   */\n  swap3\n  swap2\n  pop\n  pop\n  jump\t// out\n    /* \"#utility.yul\":1169:1562   */\ntag_13:\n    /* \"#utility.yul\":1238:1244   */\n  0x00\n    /* \"#utility.yul\":1288:1289   */\n  0x08\n    /* \"#utility.yul\":1276:1286   */\n  dup4\n    /* \"#utility.yul\":1272:1290   */\n  mul\n    /* \"#utility.yul\":1311:1408   */\n  tag_38\n    /* \"#utility.yul\":1341:1407   */\n  0xffffffffffffffffffffffffffffffffffffffffffffffffffffffffffffffff\n    /* \"#utility.yul\":1330:1339   */\n  dup3\n    /* \"#utility.yul\":1311:1408   */\n  tag_12\n  jump\t// in\ntag_38:\n    /* \"#utility.yul\":1429:1468   */\n  tag_39\n    /* \"#utility.yul\":1459:1467   */\n  dup7\n    /* \"#utility.yul\":1448:1457   */\n  dup4\n    /* \"#utility.yul\":1429:1468   */\n  tag_12\n  jump\t// in\ntag_39:\n    /* \"#utility.yul\":1417:1468   */\n  swap6\n  pop\n    /* \"#utility.yul\":1501:1505   */\n  dup1\n    /* \"#utility.yul\":1497:1506   */\n  not\n    /* \"#utility.yul\":1490:1495   */\n  dup5\n    /* \"#utility.yul\":1486:1507   */\n  and\n    /* \"#utility.yul\":1477:1507   */\n  swap4\n  pop\n    /* \"#utility.yul\":1550:1554   */\n  dup1\n    /* \"#utility.yul\":1540:1548   */\n  dup7\n    /* \"#utility.yul\":1536:1555   */\n  and\n    /* \"#utility.yul\":1529:1534   */\n  dup5\n    /* \"#utility.yul\":1526:1556   */\n  or\n    /* \"#utility.yul\":1516:1556   */\n  swap3\n  pop\n    /* \"#utility.yul\":1245:1562   */\n  pop\n  pop\n    /* \"#utility.yul\":1169:1562   */\n  swap4\n  swap3\n  pop\n  pop\n  pop\n  jump\t// out\n    /* \"#utility.yul\":1568:1645   */\ntag_14:\n    /* \"#utility.yul\":1605:1612   */\n  0x00\n    /* \"#utility.yul\":1634:1639   */\n  dup2\n    /* \"#utility.yul\":1623:1639   */\n  swap1\n  pop\n    /* \"#utility.yul\":1568:1645   */\n  swap2\n  swap1\n  pop\n  jump\t// out\n    /* \"#utility.yul\":1651:1711   */\ntag_15:\n    /* \"#utility.yul\":1679:1682   */\n  0x00\n    /* \"#utility.yul\":1700:1705   */\n  dup2\n    /* \"#utility.yul\":1693:1705   */\n  swap1\n  pop\n    /* \"#utility.yul\":1651:1711   */\n  swap2\n  swap1\n  pop\n  jump\t// out\n    /* \"#utility.yul\":1717:1859   */\ntag_16:\n    /* \"#utility.yul\":1767:1776   */\n  0x00\n    /* \"#utility.yul\":1800:1853   */\n  tag_43\n    /* \"#utility.yul\":1818:1852   */\n  tag_44\n    /* \"#utility.yul\":1827:1851   */\n  tag_45\n    /* \"#utility.yul\":1845:1850   */\n  dup5\n    /* \"#utility.yul\":1827:1851   */\n  tag_14\n  jump\t// in\ntag_45:\n    /* \"#utility.yul\":1818:1852   */\n  tag_15\n  jump\t// in\ntag_44:\n    /* \"#utility.yul\":1800:1853   */\n  tag_14\n  jump\t// in\ntag_43:\n    /* \"#utility.yul\":1787:1853   */\n  swap1\n  pop\n    /* \"#utility.yul\":1717:1859   */\n  swap2\n  swap1\n  pop\n  jump\t// out\n    /* \"#utility.yul\":1865:1940   */\ntag_17:\n    /* \"#utility.yul\":1908:1911   */\n  0x00\n    /* \"#utility.yul\":1929:1934   */\n  dup2\n    /* \"#utility.yul\":1922:1934   */\n  swap1\n  pop\n    /* \"#utility.yul\":1865:1940   */\n  swap2\n  swap1\n  pop\n  jump\t// out\n    /* \"#utility.yul\":1946:2215   */\ntag_18:\n    /* \"#utility.yul\":2056:2095   */\n  tag_48\n    /* \"#utility.yul\":2087:2094   */\n  dup4\n    /* \"#utility.yul\":2056:2095   */\n  tag_16\n  jump\t// in\ntag_48:\n    /* \"#utility.yul\":2117:2208   */\n  tag_49\n    /* \"#utility.yul\":2166:2207   */\n  tag_50\n    /* \"#utility.yul\":2190:2206   */\n  dup3\n    /* \"#utility.yul\":2166:2207   */\n  tag_17\n  jump\t// in\ntag_50:\n    /* \"#utility.yul\":2158:2164   */\n  dup5\n    /* \"#utility.yul\":2151:2155   */\n  dup5\n    /* \"#utility.yul\":2145:2156   */\n  sload\n    /* \"#utility.yul\":2117:2208   */\n  tag_13\n  jump\t// in\ntag_49:\n    /* \"#utility.yul\":2111:2115   */\n  dup3\n    /* \"#utility.yul\":2104:2209   */\n  sstore\n    /* \"#utility.yul\":2022:2215   */\n  pop\n    /* \"#utility.yul\":1946:2215   */\n  pop\n  pop\n  pop\n  jump\t// out\n    /* \"#utility.yul\":2221:2294   */\ntag_19:\n    /* \"#utility.yul\":2266:2269   */\n  0x00\n    /* \"#utility.yul\":2221:2294   */\n  swap1\n  jump\t// out\n    /* \"#utility.yul\":2300:2489   */\ntag_20:\n    /* \"#utility.yul\":2377:2409   */\n  tag_53\n  tag_19\n  jump\t// in\ntag_53:\n    /* \"#utility.yul\":2418:2483   */\n  tag_54\n    /* \"#utility.yul\":2476:2482   */\n  dup2\n    /* \"#utility.yul\":2468:2474   */\n  dup5\n    /* \"#utility.yul\":2462:2466   */\n  dup5\n    /* \"#utility.yul\":2418:2483   */\n  tag_18\n  jump\t// in\ntag_54:\n    /* \"#utility.yul\":2353:2489   */\n  pop\n    /* \"#utility.yul\":2300:2489   */\n  pop\n  pop\n  jump\t// out\n    /* \"#utility.yul\":2495:2681   */\ntag_21:\n    /* \"#utility.yul\":2555:2675   */\ntag_56:\n    /* \"#utility.yul\":2572:2575   */\n  dup2\n    /* \"#utility.yul\":2565:2570   */\n  dup2\n    /* \"#utility.yul\":2562:2576   */\n  lt\n    /* \"#utility.yul\":2555:2675   */\n  iszero\n  tag_58\n  jumpi\n    /* \"#utility.yul\":2626:2665   */\n  tag_59\n    /* \"#utility.yul\":2663:2664   */\n  0x00\n    /* \"#utility.yul\":2656:2661   */\n  dup3\n    /* \"#utility.yul\":2626:2665   */\n  tag_20\n  jump\t// in\ntag_59:\n    /* \"#utility.yul\":2599:2600   */\n  0x01\n    /* \"#utility.yul\":2592:2597   */\n  dup2\n    /* \"#utility.yul\":2588:2601   */\n  add\n    /* \"#utility.yul\":2579:2601   */\n  swap1\n  pop\n    /* \"#utility.yul\":2555:2675   */\n  jump(tag_56)\ntag_58:\n    /* \"#utility.yul\":2495:2681   */\n  pop\n  pop\n  jump\t// out\n    /* \"#utility.yul\":2687:3230   */\ntag_22:\n    /* \"#utility.yul\":2788:2790   */\n  0x1f\n    /* \"#utility.yul\":2783:2786   */\n  dup3\n    /* \"#utility.yul\":2780:2791   */\n  gt\n    /* \"#utility.yul\":2777:3223   */\n  iszero\n  tag_61\n  jumpi\n    /* \"#utility.yul\":2822:2860   */\n  tag_62\n    /* \"#utility.yul\":2854:2859   */\n  dup2\n    /* \"#utility.yul\":2822:2860   */\n  tag_10\n  jump\t// in\ntag_62:\n    /* \"#utility.yul\":2906:2935   */\n  tag_63\n    /* \"#utility.yul\":2924:2934   */\n  dup5\n    /* \"#utility.yul\":2906:2935   */\n  tag_11\n  jump\t// in\ntag_63:\n    /* \"#utility.yul\":2896:2904   */\n  dup2\n    /* \"#utility.yul\":2892:2936   */\n  add\n    /* \"#utility.yul\":3089:3091   */\n  0x20\n    /* \"#utility.yul\":3077:3087   */\n  dup6\n    /* \"#utility.yul\":3074:3092   */\n  lt\n    /* \"#utility.yul\":3071:3120   */\n  iszero\n  tag_64\n  jumpi\n    /* \"#utility.yul\":3110:3118   */\n  dup2\n    /* \"#utility.yul\":3095:3118   */\n  swap1\n  pop\n    /* \"#utility.yul\":3071:3120   */\ntag_64:\n    /* \"#utility.yul\":3133:3213   */\n  tag_65\n    /* \"#utility.yul\":3189:3211   */\n  tag_66\n    /* \"#utility.yul\":3207:3210   */\n  dup6\n    /* \"#utility.yul\":3189:3211   */\n  tag_11\n  jump\t// in\ntag_66:\n    /* \"#utility.yul\":3179:3187   */\n  dup4\n    /* \"#utility.yul\":3175:3212   */\n  add\n    /* \"#utility.yul\":3162:3173   */\n  dup3\n    /* \"#utility.yul\":3133:3213   */\n  tag_21\n  jump\t// in\ntag_65:\n    /* \"#utility.yul\":2792:3223   */\n  pop\n  pop\n    /* \"#utility.yul\":2777:3223   */\ntag_61:\n    /* \"#utility.yul\":2687:3230   */\n  pop\n  pop\n  pop\n  jump\t// out\n    /* \"#utility.yul\":3236:3353   */\ntag_23:\n    /* \"#utility.yul\":3290:3298   */\n  0x00\n    /* \"#utility.yul\":3340:3345   */\n  dup3\n    /* \"#utility.yul\":3334:3338   */\n  dup3\n    /* \"#utility.yul\":3330:3346   */\n  shr\n    /* \"#utility.yul\":3309:3346   */\n  swap1\n  pop\n    /* \"#utility.yul\":3236:3353   */\n  swap3\n  swap2\n  pop\n  pop\n  jump\t// out\n    /* \"#utility.yul\":3359:3528   */\ntag_24:\n    /* \"#utility.yul\":3403:3409   */\n  0x00\n    /* \"#utility.yul\":3436:3487   */\n  tag_69\n    /* \"#utility.yul\":3484:3485   */\n  0x00\n    /* \"#utility.yul\":3480:3486   */\n  not\n    /* \"#utility.yul\":3472:3477   */\n  dup5\n    /* \"#utility.yul\":3469:3470   */\n  0x08\n    /* \"#utility.yul\":3465:3478   */\n  mul\n    /* \"#utility.yul\":3436:3487   */\n  tag_23\n  jump\t// in\ntag_69:\n    /* \"#utility.yul\":3432:3488   */\n  not\n    /* \"#utility.yul\":3517:3521   */\n  dup1\n    /* \"#utility.yul\":3511:3515   */\n  dup4\n    /* \"#utility.yul\":3507:3522   */\n  and\n    /* \"#utility.yul\":3497:3522   */\n  swap2\n  pop\n    /* \"#utility.yul\":3410:3528   */\n  pop\n    /* \"#utility.yul\":3359:3528   */\n  swap3\n  swap2\n  pop\n  pop\n  jump\t// out\n    /* \"#utility.yul\":3533:3828   */\ntag_25:\n    /* \"#utility.yul\":3609:3613   */\n  0x00\n    /* \"#utility.yul\":3755:3784   */\n  tag_71\n    /* \"#utility.yul\":3780:3783   */\n  dup4\n    /* \"#utility.yul\":3774:3778   */\n  dup4\n    /* \"#utility.yul\":3755:3784   */\n  tag_24\n  jump\t// in\ntag_71:\n    /* \"#utility.yul\":3747:3784   */\n  swap2\n  pop\n    /* \"#utility.yul\":3817:3820   */\n  dup3\n    /* \"#utility.yul\":3814:3815   */\n  0x02\n    /* \"#utility.yul\":3810:3821   */\n  mul\n    /* \"#utility.yul\":3804:3808   */\n  dup3\n    /* \"#utility.yul\":3801:3822   */\n  or\n    /* \"#utility.yul\":3793:3822   */\n  swap1\n  pop\n    /* \"#utility.yul\":3533:3828   */\n  swap3\n  swap2\n  pop\n  pop\n  jump\t// out\n    /* \"#utility.yul\":3833:5228   */\ntag_2:\n    /* \"#utility.yul\":3950:3987   */\n  tag_73\n    /* \"#utility.yul\":3983:3986   */\n  dup3\n    /* \"#utility.yul\":3950:3987   */\n  tag_6\n  jump\t// in\ntag_73:\n    /* \"#utility.yul\":4052:4070   */\n  0xffffffffffffffff\n    /* \"#utility.yul\":4044:4050   */\n  dup2\n    /* \"#utility.yul\":4041:4071   */\n  gt\n    /* \"#utility.yul\":4038:4094   */\n  iszero\n  tag_74\n  jumpi\n    /* \"#utility.yul\":4074:4092   */\n  tag_75\n  tag_7\n  jump\t// in\ntag_75:\n    /* \"#utility.yul\":4038:4094   */\ntag_74:\n    /* \"#utility.yul\":4118:4156   */\n  tag_76\n    /* \"#utility.yul\":4150:4154   */\n  dup3\n    /* \"#utility.yul\":4144:4155   */\n  sload\n    /* \"#utility.yul\":4118:4156   */\n  tag_9\n  jump\t// in\ntag_76:\n    /* \"#utility.yul\":4203:4270   */\n  tag_77\n    /* \"#utility.yul\":4263:4269   */\n  dup3\n    /* \"#utility.yul\":4255:4261   */\n  dup3\n    /* \"#utility.yul\":4249:4253   */\n  dup6\n    /* \"#utility.yul\":4203:4270   */\n  tag_22\n  jump\t// in\ntag_77:\n    /* \"#utility.yul\":4297:4298   */\n  0x00\n    /* \"#utility.yul\":4321:4325   */\n  0x20\n    /* \"#utility.yul\":4308:4325   */\n  swap1\n  pop\n    /* \"#utility.yul\":4353:4355   */\n  0x1f\n    /* \"#utility.yul\":4345:4351   */\n  dup4\n    /* \"#utility.yul\":4342:4356   */\n  gt\n    /* \"#utility.yul\":4370:4371   */\n  0x01\n    /* \"#utility.yul\":4365:4983   */\n  dup2\n  eq\n  tag_79\n  jumpi\n    /* \"#utility.yul\":5027:5028   */\n  0x00\n    /* \"#utility.yul\":5044:5050   */\n  dup5\n    /* \"#utility.yul\":5041:5118   */\n  iszero\n  tag_80\n  jumpi\n    /* \"#utility.yul\":5093:5102   */\n  dup3\n    /* \"#utility.yul\":5088:5091   */\n  dup8\n    /* \"#utility.yul\":5084:5103   */\n  add\n    /* \"#utility.yul\":5078:5104   */\n  mload\n    /* \"#utility.yul\":5069:5104   */\n  swap1\n  pop\n    /* \"#utility.yul\":5041:5118   */\ntag_80:\n    /* \"#utility.yul\":5144:5211   */\n  tag_81\n    /* \"#utility.yul\":5204:5210   */\n  dup6\n    /* \"#utility.yul\":5197:5202   */\n  dup3\n    /* \"#utility.yul\":5144:5211   */\n  tag_25\n  jump\t// in\ntag_81:\n    /* \"#utility.yul\":5138:5142   */\n  dup7\n    /* \"#utility.yul\":5131:5212   */\n  sstore\n    /* \"#utility.yul\":5000:5222   */\n  pop\n    /* \"#utility.yul\":4335:5222   */\n  jump(tag_78)\n    /* \"#utility.yul\":4365:4983   */\ntag_79:\n    /* \"#utility.yul\":4417:4421   */\n  0x1f\n    /* \"#utility.yul\":4413:4422   */\n  not\n    /* \"#utility.yul\":4405:4411   */\n  dup5\n    /* \"#utility.yul\":4401:4423   */\n  and\n    /* \"#utility.yul\":4451:4488   */\n  tag_82\n    /* \"#utility.yul\":4483:4487   */\n  dup7\n    /* \"#utility.yul\":4451:4488   */\n  tag_10\n  jump\t// in\ntag_82:\n    /* \"#utility.yul\":4510:4511   */\n  0x00\n    /* \"#utility.yul\":4524:4732   */\ntag_83:\n    /* \"#utility.yul\":4538:4545   */\n  dup3\n    /* \"#utility.yul\":4535:4536   */\n  dup2\n    /* \"#utility.yul\":4532:4546   */\n  lt\n    /* \"#utility.yul\":4524:4732   */\n  iszero\n  tag_85\n  jumpi\n    /* \"#utility.yul\":4617:4626   */\n  dup5\n    /* \"#utility.yul\":4612:4615   */\n  dup10\n    /* \"#utility.yul\":4608:4627   */\n  add\n    /* \"#utility.yul\":4602:4628   */\n  mload\n    /* \"#utility.yul\":4594:4600   */\n  dup3\n    /* \"#utility.yul\":4587:4629   */\n  sstore\n    /* \"#utility.yul\":4668:4669   */\n  0x01\n    /* \"#utility.yul\":4660:4666   */\n  dup3\n    /* \"#utility.yul\":4656:4670   */\n  add\n    /* \"#utility.yul\":4646:4670   */\n  swap2\n  pop\n    /* \"#utility.yul\":4715:4717   */\n  0x20\n    /* \"#utility.yul\":4704:4713   */\n  dup6\n    /* \"#utility.yul\":4700:4718   */\n  add\n    /* \"#utility.yul\":4687:4718   */\n  swap5\n  pop\n    /* \"#utility.yul\":4561:4565   */\n  0x20\n    /* \"#utility.yul\":4558:4559   */\n  dup2\n    /* \"#utility.yul\":4554:4566   */\n  add\n    /* \"#utility.yul\":4549:4566   */\n  swap1\n  pop\n    /* \"#utility.yul\":4524:4732   */\n  jump(tag_83)\ntag_85:\n    /* \"#utility.yul\":4760:4766   */\n  dup7\n    /* \"#utility.yul\":4751:4758   */\n  dup4\n    /* \"#utility.yul\":4748:4767   */\n  lt\n    /* \"#utility.yul\":4745:4924   */\n  iszero\n  tag_86\n  jumpi\n    /* \"#utility.yul\":4818:4827   */\n  dup5\n    /* \"#utility.yul\":4813:4816   */\n  dup10\n    /* \"#utility.yul\":4809:4828   */\n  add\n    /* \"#utility.yul\":4803:4829   */\n  mload\n    /* \"#utility.yul\":4861:4909   */\n  tag_87\n    /* \"#utility.yul\":4903:4907   */\n  0x1f\n    /* \"#utility.yul\":4895:4901   */\n  dup10\n    /* \"#utility.yul\":4891:4908   */\n  and\n    /* \"#utility.yul\":4880:4889   */\n  dup3\n    /* \"#utility.yul\":4861:4909   */\n  tag_24\n  jump\t// in\ntag_87:\n    /* \"#utility.yul\":4853:4859   */\n  dup4\n    /* \"#utility.yul\":4846:4910   */\n  sstore\n    /* \"#utility.yul\":4768:4924   */\n  pop\n    /* \"#utility.yul\":4745:4924   */\ntag_86:\n    /* \"#utility.yul\":4970:4971   */\n  0x01\n    /* \"#utility.yul\":4966:4967   */\n  0x02\n    /* \"#utility.yul\":4958:4964   */\n  dup9\n    /* \"#utility.yul\":4954:4968   */\n  mul\n    /* \"#utility.yul\":4950:4972   */\n  add\n    /* \"#utility.yul\":4944:4948   */\n  dup9\n    /* \"#utility.yul\":4937:4973   */\n  sstore\n    /* \"#utility.yul\":4372:4983   */\n  pop\n  pop\n  pop\n    /* \"#utility.yul\":4335:5222   */\ntag_78:\n  pop\n    /* \"#utility.yul\":3925:5228   */\n  pop\n  pop\n  pop\n    /* \"#utility.yul\":3833:5228   */\n  pop\n  pop\n  jump\t// out\n    /* \"contracts/zombies.sol\":691:1758  contract getterFunction {... */\ntag_5:\n  dataSize(sub_0)\n  dup1\n  dataOffset(sub_0)\n  0x00\n  codecopy\n  0x00\n  return\nstop\n\nsub_0: assembly {\n        /* \"contracts/zombies.sol\":691:1758  contract getterFunction {... */\n      mstore(0x40, 0x80)\n      callvalue\n      dup1\n      iszero\n      tag_1\n      jumpi\n      0x00\n      dup1\n      revert\n    tag_1:\n      pop\n      jumpi(tag_2, lt(calldatasize, 0x04))\n      shr(0xe0, calldataload(0x00))\n      dup1\n      0x6edc4186\n      eq\n      tag_3\n      jumpi\n      dup1\n      0x96c8ce48\n      eq\n      tag_4\n      jumpi\n      dup1\n      0x9b8be313\n      eq\n      tag_5\n      jumpi\n      dup1\n      0xa66a8e82\n      eq\n      tag_6\n      jumpi\n      dup1\n      0xef5fb05b\n      eq\n      tag_7\n      jumpi\n      dup1\n      0xf14977f5\n      eq\n      tag_8\n      jumpi\n    tag_2:\n      0x00\n      dup1\n      revert\n        /* \"contracts/zombies.sol\":1036:1065  Houses[] public NigeriaHouses */\n    tag_3:\n      tag_9\n      0x04\n      dup1\n      calldatasize\n      sub\n      dup2\n      add\n      swap1\n      tag_10\n      swap2\n      swap1\n      tag_11\n      jump\t// in\n    tag_10:\n      tag_12\n      jump\t// in\n    tag_9:\n      mload(0x40)\n      tag_13\n      swap3\n      swap2\n      swap1\n      tag_14\n      jump\t// in\n    tag_13:\n      mload(0x40)\n      dup1\n      swap2\n      sub\n      swap1\n      return\n        /* \"contracts/zombies.sol\":1121:1433  function getHouse (string memory _houseType, string memory _location) public {... */\n    tag_4:\n      tag_15\n      0x04\n      dup1\n      calldatasize\n      sub\n      dup2\n      add\n      swap1\n      tag_16\n      swap2\n      swap1\n      tag_17\n      jump\t// in\n    tag_16:\n      tag_18\n      jump\t// in\n    tag_15:\n      stop\n        /* \"contracts/zombies.sol\":721:763  mapping(string => uint256) public greetsMe */\n    tag_5:\n      tag_19\n      0x04\n      dup1\n      calldatasize\n      sub\n      dup2\n      add\n      swap1\n      tag_20\n      swap2\n      swap1\n      tag_21\n      jump\t// in\n    tag_20:\n      tag_22\n      jump\t// in\n    tag_19:\n      mload(0x40)\n      tag_23\n      swap2\n      swap1\n      tag_24\n      jump\t// in\n    tag_23:\n      mload(0x40)\n      dup1\n      swap2\n      sub\n      swap1\n      return\n        /* \"contracts/zombies.sol\":1071:1114  mapping (string => string) public houseMaps */\n    tag_6:\n      tag_25\n      0x04\n      dup1\n      calldatasize\n      sub\n      dup2\n      add\n      swap1\n      tag_26\n      swap2\n      swap1\n      tag_21\n      jump\t// in\n    tag_26:\n      tag_27\n      jump\t// in\n    tag_25:\n      mload(0x40)\n      tag_28\n      swap2\n      swap1\n      tag_29\n      jump\t// in\n    tag_28:\n      mload(0x40)\n      dup1\n      swap2\n      sub\n      swap1\n      return\n        /* \"contracts/zombies.sol\":1548:1638  function sayHello () public view  returns (string memory){... */\n    tag_7:\n      tag_30\n      tag_31\n      jump\t// in\n    tag_30:\n      mload(0x40)\n      tag_32\n      swap2\n      swap1\n      tag_29\n      jump\t// in\n    tag_32:\n      mload(0x40)\n      dup1\n      swap2\n      sub\n      swap1\n      return\n        /* \"contracts/zombies.sol\":848:951  howGreetings public YorubaGreeting = howGreetings({... */\n    tag_8:\n      tag_33\n      tag_34\n      jump\t// in\n    tag_33:\n      mload(0x40)\n      tag_35\n      swap3\n      swap2\n      swap1\n      tag_36\n      jump\t// in\n    tag_35:\n      mload(0x40)\n      dup1\n      swap2\n      sub\n      swap1\n      return\n        /* \"contracts/zombies.sol\":1036:1065  Houses[] public NigeriaHouses */\n    tag_12:\n      0x03\n      dup2\n      dup2\n      sload\n      dup2\n      lt\n      tag_37\n      jumpi\n      0x00\n      dup1\n      revert\n    tag_37:\n      swap1\n      0x00\n      mstore\n      keccak256(0x00, 0x20)\n      swap1\n      0x02\n      mul\n      add\n      0x00\n      swap2\n      pop\n      swap1\n      pop\n      dup1\n      0x00\n      add\n      dup1\n      sload\n      tag_39\n      swap1\n      tag_40\n      jump\t// in\n    tag_39:\n      dup1\n      0x1f\n      add\n      0x20\n      dup1\n      swap2\n      div\n      mul\n      0x20\n      add\n      mload(0x40)\n      swap1\n      dup2\n      add\n      0x40\n      mstore\n      dup1\n      swap3\n      swap2\n      swap1\n      dup2\n      dup2\n      mstore\n      0x20\n      add\n      dup3\n      dup1\n      sload\n      tag_41\n      swap1\n      tag_40\n      jump\t// in\n    tag_41:\n      dup1\n      iszero\n      tag_42\n      jumpi\n      dup1\n      0x1f\n      lt\n      tag_43\n      jumpi\n      0x0100\n      dup1\n      dup4\n      sload\n      div\n      mul\n      dup4\n      mstore\n      swap2\n      0x20\n      add\n      swap2\n      jump(tag_42)\n    tag_43:\n      dup3\n      add\n      swap2\n      swap1\n      0x00\n      mstore\n      keccak256(0x00, 0x20)\n      swap1\n    tag_44:\n      dup2\n      sload\n      dup2\n      mstore\n      swap1\n      0x01\n      add\n      swap1\n      0x20\n      add\n      dup1\n      dup4\n      gt\n      tag_44\n      jumpi\n      dup3\n      swap1\n      sub\n      0x1f\n      and\n      dup3\n      add\n      swap2\n    tag_42:\n      pop\n      pop\n      pop\n      pop\n      pop\n      swap1\n      dup1\n      0x01\n      add\n      dup1\n      sload\n      tag_45\n      swap1\n      tag_40\n      jump\t// in\n    tag_45:\n      dup1\n      0x1f\n      add\n      0x20\n      dup1\n      swap2\n      div\n      mul\n      0x20\n      add\n      mload(0x40)\n      swap1\n      dup2\n      add\n      0x40\n      mstore\n      dup1\n      swap3\n      swap2\n      swap1\n      dup2\n      dup2\n      mstore\n      0x20\n      add\n      dup3\n      dup1\n      sload\n      tag_46\n      swap1\n      tag_40\n      jump\t// in\n    tag_46:\n      dup1\n      iszero\n      tag_47\n      jumpi\n      dup1\n      0x1f\n      lt\n      tag_48\n      jumpi\n      0x0100\n      dup1\n      dup4\n      sload\n      div\n      mul\n      dup4\n      mstore\n      swap2\n      0x20\n      add\n      swap2\n      jump(tag_47)\n    tag_48:\n      dup3\n      add\n      swap2\n      swap1\n      0x00\n      mstore\n      keccak256(0x00, 0x20)\n      swap1\n    tag_49:\n      dup2\n      sload\n      dup2\n      mstore\n      swap1\n      0x01\n      add\n      swap1\n      0x20\n      add\n      dup1\n      dup4\n      gt\n      tag_49\n      jumpi\n      dup3\n      swap1\n      sub\n      0x1f\n      and\n      dup3\n      add\n      swap2\n    tag_47:\n      pop\n      pop\n      pop\n      pop\n      pop\n      swap1\n      pop\n      dup3\n      jump\t// out\n        /* \"contracts/zombies.sol\":1121:1433  function getHouse (string memory _houseType, string memory _location) public {... */\n    tag_18:\n        /* \"contracts/zombies.sol\":1208:1230  Houses memory bungalow */\n      0x00\n        /* \"contracts/zombies.sol\":1233:1283  Houses({houseType:_houseType, location:_location}) */\n      mload(0x40)\n      dup1\n      0x40\n      add\n      0x40\n      mstore\n      dup1\n        /* \"contracts/zombies.sol\":1251:1261  _houseType */\n      dup5\n        /* \"contracts/zombies.sol\":1233:1283  Houses({houseType:_houseType, location:_location}) */\n      dup2\n      mstore\n      0x20\n      add\n        /* \"contracts/zombies.sol\":1272:1281  _location */\n      dup4\n        /* \"contracts/zombies.sol\":1233:1283  Houses({houseType:_houseType, location:_location}) */\n      dup2\n      mstore\n      pop\n        /* \"contracts/zombies.sol\":1208:1283  Houses memory bungalow = Houses({houseType:_houseType, location:_location}) */\n      swap1\n      pop\n        /* \"contracts/zombies.sol\":1293:1306  NigeriaHouses */\n      0x03\n        /* \"contracts/zombies.sol\":1312:1320  bungalow */\n      dup2\n        /* \"contracts/zombies.sol\":1293:1321  NigeriaHouses.push(bungalow) */\n      swap1\n      dup1\n      0x01\n      dup2\n      sload\n      add\n      dup1\n      dup3\n      sstore\n      dup1\n      swap2\n      pop\n      pop\n      0x01\n      swap1\n      sub\n      swap1\n      0x00\n      mstore\n      keccak256(0x00, 0x20)\n      swap1\n      0x02\n      mul\n      add\n      0x00\n      swap1\n      swap2\n      swap1\n      swap2\n      swap1\n      swap2\n      pop\n      0x00\n      dup3\n      add\n      mload\n      dup2\n      0x00\n      add\n      swap1\n      dup2\n      tag_52\n      swap2\n      swap1\n      tag_53\n      jump\t// in\n    tag_52:\n      pop\n      0x20\n      dup3\n      add\n      mload\n      dup2\n      0x01\n      add\n      swap1\n      dup2\n      tag_54\n      swap2\n      swap1\n      tag_53\n      jump\t// in\n    tag_54:\n      pop\n      pop\n      pop\n        /* \"contracts/zombies.sol\":1354:1364  _houseType */\n      dup3\n        /* \"contracts/zombies.sol\":1331:1340  houseMaps */\n      0x04\n        /* \"contracts/zombies.sol\":1341:1350  _location */\n      dup4\n        /* \"contracts/zombies.sol\":1331:1351  houseMaps[_location] */\n      mload(0x40)\n      tag_55\n      swap2\n      swap1\n      tag_56\n      jump\t// in\n    tag_55:\n      swap1\n      dup2\n      mstore\n      0x20\n      add\n      mload(0x40)\n      dup1\n      swap2\n      sub\n      swap1\n      keccak256\n        /* \"contracts/zombies.sol\":1331:1364  houseMaps[_location] = _houseType */\n      swap1\n      dup2\n      tag_57\n      swap2\n      swap1\n      tag_53\n      jump\t// in\n    tag_57:\n      pop\n        /* \"contracts/zombies.sol\":1198:1433  {... */\n      pop\n        /* \"contracts/zombies.sol\":1121:1433  function getHouse (string memory _houseType, string memory _location) public {... */\n      pop\n      pop\n      jump\t// out\n        /* \"contracts/zombies.sol\":721:763  mapping(string => uint256) public greetsMe */\n    tag_22:\n      0x00\n      dup2\n      dup1\n      mload\n      0x20\n      dup2\n      add\n      dup3\n      add\n      dup1\n      mload\n      dup5\n      dup3\n      mstore\n      0x20\n      dup4\n      add\n      0x20\n      dup6\n      add\n      keccak256\n      dup2\n      dup4\n      mstore\n      dup1\n      swap6\n      pop\n      pop\n      pop\n      pop\n      pop\n      pop\n      0x00\n      swap2\n      pop\n      swap1\n      pop\n      sload\n      dup2\n      jump\t// out\n        /* \"contracts/zombies.sol\":1071:1114  mapping (string => string) public houseMaps */\n    tag_27:\n      0x04\n      dup2\n      dup1\n      mload\n      0x20\n      dup2\n      add\n      dup3\n      add\n      dup1\n      mload\n      dup5\n      dup3\n      mstore\n      0x20\n      dup4\n      add\n      0x20\n      dup6\n      add\n      keccak256\n      dup2\n      dup4\n      mstore\n      dup1\n      swap6\n      pop\n      pop\n      pop\n      pop\n      pop\n      pop\n      0x00\n      swap2\n      pop\n      swap1\n      pop\n      dup1\n      sload\n      tag_58\n      swap1\n      tag_40\n      jump\t// in\n    tag_58:\n      dup1\n      0x1f\n      add\n      0x20\n      dup1\n      swap2\n      div\n      mul\n      0x20\n      add\n      mload(0x40)\n      swap1\n      dup2\n      add\n      0x40\n      mstore\n      dup1\n      swap3\n      swap2\n      swap1\n      dup2\n      dup2\n      mstore\n      0x20\n      add\n      dup3\n      dup1\n      sload\n      tag_59\n      swap1\n      tag_40\n      jump\t// in\n    tag_59:\n      dup1\n      iszero\n      tag_60\n      jumpi\n      dup1\n      0x1f\n      lt\n      tag_61\n      jumpi\n      0x0100\n      dup1\n      dup4\n      sload\n      div\n      mul\n      dup4\n      mstore\n      swap2\n      0x20\n      add\n      swap2\n      jump(tag_60)\n    tag_61:\n      dup3\n      add\n      swap2\n      swap1\n      0x00\n      mstore\n      keccak256(0x00, 0x20)\n      swap1\n    tag_62:\n      dup2\n      sload\n      dup2\n      mstore\n      swap1\n      0x01\n      add\n      swap1\n      0x20\n      add\n      dup1\n      dup4\n      gt\n      tag_62\n      jumpi\n      dup3\n      swap1\n      sub\n      0x1f\n      and\n      dup3\n      add\n      swap2\n    tag_60:\n      pop\n      pop\n      pop\n      pop\n      pop\n      dup2\n      jump\t// out\n        /* \"contracts/zombies.sol\":1548:1638  function sayHello () public view  returns (string memory){... */\n    tag_31:\n        /* \"contracts/zombies.sol\":1591:1604  string memory */\n      0x60\n        /* \"contracts/zombies.sol\":1622:1631  greetings */\n      0x05\n        /* \"contracts/zombies.sol\":1615:1631  return greetings */\n      dup1\n      sload\n      tag_64\n      swap1\n      tag_40\n      jump\t// in\n    tag_64:\n      dup1\n      0x1f\n      add\n      0x20\n      dup1\n      swap2\n      div\n      mul\n      0x20\n      add\n      mload(0x40)\n      swap1\n      dup2\n      add\n      0x40\n      mstore\n      dup1\n      swap3\n      swap2\n      swap1\n      dup2\n      dup2\n      mstore\n      0x20\n      add\n      dup3\n      dup1\n      sload\n      tag_65\n      swap1\n      tag_40\n      jump\t// in\n    tag_65:\n      dup1\n      iszero\n      tag_66\n      jumpi\n      dup1\n      0x1f\n      lt\n      tag_67\n      jumpi\n      0x0100\n      dup1\n      dup4\n      sload\n      div\n      mul\n      dup4\n      mstore\n      swap2\n      0x20\n      add\n      swap2\n      jump(tag_66)\n    tag_67:\n      dup3\n      add\n      swap2\n      swap1\n      0x00\n      mstore\n      keccak256(0x00, 0x20)\n      swap1\n    tag_68:\n      dup2\n      sload\n      dup2\n      mstore\n      swap1\n      0x01\n      add\n      swap1\n      0x20\n      add\n      dup1\n      dup4\n      gt\n      tag_68\n      jumpi\n      dup3\n      swap1\n      sub\n      0x1f\n      and\n      dup3\n      add\n      swap2\n    tag_66:\n      pop\n      pop\n      pop\n      pop\n      pop\n      swap1\n      pop\n        /* \"contracts/zombies.sol\":1548:1638  function sayHello () public view  returns (string memory){... */\n      swap1\n      jump\t// out\n        /* \"contracts/zombies.sol\":848:951  howGreetings public YorubaGreeting = howGreetings({... */\n    tag_34:\n      0x01\n      dup1\n      0x00\n      add\n      dup1\n      sload\n      tag_69\n      swap1\n      tag_40\n      jump\t// in\n    tag_69:\n      dup1\n      0x1f\n      add\n      0x20\n      dup1\n      swap2\n      div\n      mul\n      0x20\n      add\n      mload(0x40)\n      swap1\n      dup2\n      add\n      0x40\n      mstore\n      dup1\n      swap3\n      swap2\n      swap1\n      dup2\n      dup2\n      mstore\n      0x20\n      add\n      dup3\n      dup1\n      sload\n      tag_70\n      swap1\n      tag_40\n      jump\t// in\n    tag_70:\n      dup1\n      iszero\n      tag_71\n      jumpi\n      dup1\n      0x1f\n      lt\n      tag_72\n      jumpi\n      0x0100\n      dup1\n      dup4\n      sload\n      div\n      mul\n      dup4\n      mstore\n      swap2\n      0x20\n      add\n      swap2\n      jump(tag_71)\n    tag_72:\n      dup3\n      add\n      swap2\n      swap1\n      0x00\n      mstore\n      keccak256(0x00, 0x20)\n      swap1\n    tag_73:\n      dup2\n      sload\n      dup2\n      mstore\n      swap1\n      0x01\n      add\n      swap1\n      0x20\n      add\n      dup1\n      dup4\n      gt\n      tag_73\n      jumpi\n      dup3\n      swap1\n      sub\n      0x1f\n      and\n      dup3\n      add\n      swap2\n    tag_71:\n      pop\n      pop\n      pop\n      pop\n      pop\n      swap1\n      dup1\n      0x01\n      add\n      sload\n      swap1\n      pop\n      dup3\n      jump\t// out\n        /* \"#utility.yul\":7:82   */\n    tag_74:\n        /* \"#utility.yul\":40:46   */\n      0x00\n        /* \"#utility.yul\":73:75   */\n      0x40\n        /* \"#utility.yul\":67:76   */\n      mload\n        /* \"#utility.yul\":57:76   */\n      swap1\n      pop\n        /* \"#utility.yul\":7:82   */\n      swap1\n      jump\t// out\n        /* \"#utility.yul\":88:205   */\n    tag_75:\n        /* \"#utility.yul\":197:198   */\n      0x00\n        /* \"#utility.yul\":194:195   */\n      dup1\n        /* \"#utility.yul\":187:199   */\n      revert\n        /* \"#utility.yul\":211:328   */\n    tag_76:\n        /* \"#utility.yul\":320:321   */\n      0x00\n        /* \"#utility.yul\":317:318   */\n      dup1\n        /* \"#utility.yul\":310:322   */\n      revert\n        /* \"#utility.yul\":334:411   */\n    tag_77:\n        /* \"#utility.yul\":371:378   */\n      0x00\n        /* \"#utility.yul\":400:405   */\n      dup2\n        /* \"#utility.yul\":389:405   */\n      swap1\n      pop\n        /* \"#utility.yul\":334:411   */\n      swap2\n      swap1\n      pop\n      jump\t// out\n        /* \"#utility.yul\":417:539   */\n    tag_78:\n        /* \"#utility.yul\":490:514   */\n      tag_119\n        /* \"#utility.yul\":508:513   */\n      dup2\n        /* \"#utility.yul\":490:514   */\n      tag_77\n      jump\t// in\n    tag_119:\n        /* \"#utility.yul\":483:488   */\n      dup2\n        /* \"#utility.yul\":480:515   */\n      eq\n        /* \"#utility.yul\":470:533   */\n      tag_120\n      jumpi\n        /* \"#utility.yul\":529:530   */\n      0x00\n        /* \"#utility.yul\":526:527   */\n      dup1\n        /* \"#utility.yul\":519:531   */\n      revert\n        /* \"#utility.yul\":470:533   */\n    tag_120:\n        /* \"#utility.yul\":417:539   */\n      pop\n      jump\t// out\n        /* \"#utility.yul\":545:684   */\n    tag_79:\n        /* \"#utility.yul\":591:596   */\n      0x00\n        /* \"#utility.yul\":629:635   */\n      dup2\n        /* \"#utility.yul\":616:636   */\n      calldataload\n        /* \"#utility.yul\":607:636   */\n      swap1\n      pop\n        /* \"#utility.yul\":645:678   */\n      tag_122\n        /* \"#utility.yul\":672:677   */\n      dup2\n        /* \"#utility.yul\":645:678   */\n      tag_78\n      jump\t// in\n    tag_122:\n        /* \"#utility.yul\":545:684   */\n      swap3\n      swap2\n      pop\n      pop\n      jump\t// out\n        /* \"#utility.yul\":690:1019   */\n    tag_11:\n        /* \"#utility.yul\":749:755   */\n      0x00\n        /* \"#utility.yul\":798:800   */\n      0x20\n        /* \"#utility.yul\":786:795   */\n      dup3\n        /* \"#utility.yul\":777:784   */\n      dup5\n        /* \"#utility.yul\":773:796   */\n      sub\n        /* \"#utility.yul\":769:801   */\n      slt\n        /* \"#utility.yul\":766:885   */\n      iszero\n      tag_124\n      jumpi\n        /* \"#utility.yul\":804:883   */\n      tag_125\n      tag_75\n      jump\t// in\n    tag_125:\n        /* \"#utility.yul\":766:885   */\n    tag_124:\n        /* \"#utility.yul\":924:925   */\n      0x00\n        /* \"#utility.yul\":949:1002   */\n      tag_126\n        /* \"#utility.yul\":994:1001   */\n      dup5\n        /* \"#utility.yul\":985:991   */\n      dup3\n        /* \"#utility.yul\":974:983   */\n      dup6\n        /* \"#utility.yul\":970:992   */\n      add\n        /* \"#utility.yul\":949:1002   */\n      tag_79\n      jump\t// in\n    tag_126:\n        /* \"#utility.yul\":939:1002   */\n      swap2\n      pop\n        /* \"#utility.yul\":895:1012   */\n      pop\n        /* \"#utility.yul\":690:1019   */\n      swap3\n      swap2\n      pop\n      pop\n      jump\t// out\n        /* \"#utility.yul\":1025:1124   */\n    tag_80:\n        /* \"#utility.yul\":1077:1083   */\n      0x00\n        /* \"#utility.yul\":1111:1116   */\n      dup2\n        /* \"#utility.yul\":1105:1117   */\n      mload\n        /* \"#utility.yul\":1095:1117   */\n      swap1\n      pop\n        /* \"#utility.yul\":1025:1124   */\n      swap2\n      swap1\n      pop\n      jump\t// out\n        /* \"#utility.yul\":1130:1299   */\n    tag_81:\n        /* \"#utility.yul\":1214:1225   */\n      0x00\n        /* \"#utility.yul\":1248:1254   */\n      dup3\n        /* \"#utility.yul\":1243:1246   */\n      dup3\n        /* \"#utility.yul\":1236:1255   */\n      mstore\n        /* \"#utility.yul\":1288:1292   */\n      0x20\n        /* \"#utility.yul\":1283:1286   */\n      dup3\n        /* \"#utility.yul\":1279:1293   */\n      add\n        /* \"#utility.yul\":1264:1293   */\n      swap1\n      pop\n        /* \"#utility.yul\":1130:1299   */\n      swap3\n      swap2\n      pop\n      pop\n      jump\t// out\n        /* \"#utility.yul\":1305:1551   */\n    tag_82:\n        /* \"#utility.yul\":1386:1387   */\n      0x00\n        /* \"#utility.yul\":1396:1509   */\n    tag_130:\n        /* \"#utility.yul\":1410:1416   */\n      dup4\n        /* \"#utility.yul\":1407:1408   */\n      dup2\n        /* \"#utility.yul\":1404:1417   */\n      lt\n        /* \"#utility.yul\":1396:1509   */\n      iszero\n      tag_132\n      jumpi\n        /* \"#utility.yul\":1495:1496   */\n      dup1\n        /* \"#utility.yul\":1490:1493   */\n      dup3\n        /* \"#utility.yul\":1486:1497   */\n      add\n        /* \"#utility.yul\":1480:1498   */\n      mload\n        /* \"#utility.yul\":1476:1477   */\n      dup2\n        /* \"#utility.yul\":1471:1474   */\n      dup5\n        /* \"#utility.yul\":1467:1478   */\n      add\n        /* \"#utility.yul\":1460:1499   */\n      mstore\n        /* \"#utility.yul\":1432:1434   */\n      0x20\n        /* \"#utility.yul\":1429:1430   */\n      dup2\n        /* \"#utility.yul\":1425:1435   */\n      add\n        /* \"#utility.yul\":1420:1435   */\n      swap1\n      pop\n        /* \"#utility.yul\":1396:1509   */\n      jump(tag_130)\n    tag_132:\n        /* \"#utility.yul\":1543:1544   */\n      0x00\n        /* \"#utility.yul\":1534:1540   */\n      dup5\n        /* \"#utility.yul\":1529:1532   */\n      dup5\n        /* \"#utility.yul\":1525:1541   */\n      add\n        /* \"#utility.yul\":1518:1545   */\n      mstore\n        /* \"#utility.yul\":1367:1551   */\n      pop\n        /* \"#utility.yul\":1305:1551   */\n      pop\n      pop\n      pop\n      jump\t// out\n        /* \"#utility.yul\":1557:1659   */\n    tag_83:\n        /* \"#utility.yul\":1598:1604   */\n      0x00\n        /* \"#utility.yul\":1649:1651   */\n      0x1f\n        /* \"#utility.yul\":1645:1652   */\n      not\n        /* \"#utility.yul\":1640:1642   */\n      0x1f\n        /* \"#utility.yul\":1633:1638   */\n      dup4\n        /* \"#utility.yul\":1629:1643   */\n      add\n        /* \"#utility.yul\":1625:1653   */\n      and\n        /* \"#utility.yul\":1615:1653   */\n      swap1\n      pop\n        /* \"#utility.yul\":1557:1659   */\n      swap2\n      swap1\n      pop\n      jump\t// out\n        /* \"#utility.yul\":1665:2042   */\n    tag_84:\n        /* \"#utility.yul\":1753:1756   */\n      0x00\n        /* \"#utility.yul\":1781:1820   */\n      tag_135\n        /* \"#utility.yul\":1814:1819   */\n      dup3\n        /* \"#utility.yul\":1781:1820   */\n      tag_80\n      jump\t// in\n    tag_135:\n        /* \"#utility.yul\":1836:1907   */\n      tag_136\n        /* \"#utility.yul\":1900:1906   */\n      dup2\n        /* \"#utility.yul\":1895:1898   */\n      dup6\n        /* \"#utility.yul\":1836:1907   */\n      tag_81\n      jump\t// in\n    tag_136:\n        /* \"#utility.yul\":1829:1907   */\n      swap4\n      pop\n        /* \"#utility.yul\":1916:1981   */\n      tag_137\n        /* \"#utility.yul\":1974:1980   */\n      dup2\n        /* \"#utility.yul\":1969:1972   */\n      dup6\n        /* \"#utility.yul\":1962:1966   */\n      0x20\n        /* \"#utility.yul\":1955:1960   */\n      dup7\n        /* \"#utility.yul\":1951:1967   */\n      add\n        /* \"#utility.yul\":1916:1981   */\n      tag_82\n      jump\t// in\n    tag_137:\n        /* \"#utility.yul\":2006:2035   */\n      tag_138\n        /* \"#utility.yul\":2028:2034   */\n      dup2\n        /* \"#utility.yul\":2006:2035   */\n      tag_83\n      jump\t// in\n    tag_138:\n        /* \"#utility.yul\":2001:2004   */\n      dup5\n        /* \"#utility.yul\":1997:2036   */\n      add\n        /* \"#utility.yul\":1990:2036   */\n      swap2\n      pop\n        /* \"#utility.yul\":1757:2042   */\n      pop\n        /* \"#utility.yul\":1665:2042   */\n      swap3\n      swap2\n      pop\n      pop\n      jump\t// out\n        /* \"#utility.yul\":2048:2562   */\n    tag_14:\n        /* \"#utility.yul\":2209:2213   */\n      0x00\n        /* \"#utility.yul\":2247:2249   */\n      0x40\n        /* \"#utility.yul\":2236:2245   */\n      dup3\n        /* \"#utility.yul\":2232:2250   */\n      add\n        /* \"#utility.yul\":2224:2250   */\n      swap1\n      pop\n        /* \"#utility.yul\":2296:2305   */\n      dup2\n        /* \"#utility.yul\":2290:2294   */\n      dup2\n        /* \"#utility.yul\":2286:2306   */\n      sub\n        /* \"#utility.yul\":2282:2283   */\n      0x00\n        /* \"#utility.yul\":2271:2280   */\n      dup4\n        /* \"#utility.yul\":2267:2284   */\n      add\n        /* \"#utility.yul\":2260:2307   */\n      mstore\n        /* \"#utility.yul\":2324:2402   */\n      tag_140\n        /* \"#utility.yul\":2397:2401   */\n      dup2\n        /* \"#utility.yul\":2388:2394   */\n      dup6\n        /* \"#utility.yul\":2324:2402   */\n      tag_84\n      jump\t// in\n    tag_140:\n        /* \"#utility.yul\":2316:2402   */\n      swap1\n      pop\n        /* \"#utility.yul\":2449:2458   */\n      dup2\n        /* \"#utility.yul\":2443:2447   */\n      dup2\n        /* \"#utility.yul\":2439:2459   */\n      sub\n        /* \"#utility.yul\":2434:2436   */\n      0x20\n        /* \"#utility.yul\":2423:2432   */\n      dup4\n        /* \"#utility.yul\":2419:2437   */\n      add\n        /* \"#utility.yul\":2412:2460   */\n      mstore\n        /* \"#utility.yul\":2477:2555   */\n      tag_141\n        /* \"#utility.yul\":2550:2554   */\n      dup2\n        /* \"#utility.yul\":2541:2547   */\n      dup5\n        /* \"#utility.yul\":2477:2555   */\n      tag_84\n      jump\t// in\n    tag_141:\n        /* \"#utility.yul\":2469:2555   */\n      swap1\n      pop\n        /* \"#utility.yul\":2048:2562   */\n      swap4\n      swap3\n      pop\n      pop\n      pop\n      jump\t// out\n        /* \"#utility.yul\":2568:2685   */\n    tag_85:\n        /* \"#utility.yul\":2677:2678   */\n      0x00\n        /* \"#utility.yul\":2674:2675   */\n      dup1\n        /* \"#utility.yul\":2667:2679   */\n      revert\n        /* \"#utility.yul\":2691:2808   */\n    tag_86:\n        /* \"#utility.yul\":2800:2801   */\n      0x00\n        /* \"#utility.yul\":2797:2798   */\n      dup1\n        /* \"#utility.yul\":2790:2802   */\n      revert\n        /* \"#utility.yul\":2814:2994   */\n    tag_87:\n        /* \"#utility.yul\":2862:2939   */\n      0x4e487b7100000000000000000000000000000000000000000000000000000000\n        /* \"#utility.yul\":2859:2860   */\n      0x00\n        /* \"#utility.yul\":2852:2940   */\n      mstore\n        /* \"#utility.yul\":2959:2963   */\n      0x41\n        /* \"#utility.yul\":2956:2957   */\n      0x04\n        /* \"#utility.yul\":2949:2964   */\n      mstore\n        /* \"#utility.yul\":2983:2987   */\n      0x24\n        /* \"#utility.yul\":2980:2981   */\n      0x00\n        /* \"#utility.yul\":2973:2988   */\n      revert\n        /* \"#utility.yul\":3000:3281   */\n    tag_88:\n        /* \"#utility.yul\":3083:3110   */\n      tag_146\n        /* \"#utility.yul\":3105:3109   */\n      dup3\n        /* \"#utility.yul\":3083:3110   */\n      tag_83\n      jump\t// in\n    tag_146:\n        /* \"#utility.yul\":3075:3081   */\n      dup2\n        /* \"#utility.yul\":3071:3111   */\n      add\n        /* \"#utility.yul\":3213:3219   */\n      dup2\n        /* \"#utility.yul\":3201:3211   */\n      dup2\n        /* \"#utility.yul\":3198:3220   */\n      lt\n        /* \"#utility.yul\":3177:3195   */\n      0xffffffffffffffff\n        /* \"#utility.yul\":3165:3175   */\n      dup3\n        /* \"#utility.yul\":3162:3196   */\n      gt\n        /* \"#utility.yul\":3159:3221   */\n      or\n        /* \"#utility.yul\":3156:3244   */\n      iszero\n      tag_147\n      jumpi\n        /* \"#utility.yul\":3224:3242   */\n      tag_148\n      tag_87\n      jump\t// in\n    tag_148:\n        /* \"#utility.yul\":3156:3244   */\n    tag_147:\n        /* \"#utility.yul\":3264:3274   */\n      dup1\n        /* \"#utility.yul\":3260:3262   */\n      0x40\n        /* \"#utility.yul\":3253:3275   */\n      mstore\n        /* \"#utility.yul\":3043:3281   */\n      pop\n        /* \"#utility.yul\":3000:3281   */\n      pop\n      pop\n      jump\t// out\n        /* \"#utility.yul\":3287:3416   */\n    tag_89:\n        /* \"#utility.yul\":3321:3327   */\n      0x00\n        /* \"#utility.yul\":3348:3368   */\n      tag_150\n      tag_74\n      jump\t// in\n    tag_150:\n        /* \"#utility.yul\":3338:3368   */\n      swap1\n      pop\n        /* \"#utility.yul\":3377:3410   */\n      tag_151\n        /* \"#utility.yul\":3405:3409   */\n      dup3\n        /* \"#utility.yul\":3397:3403   */\n      dup3\n        /* \"#utility.yul\":3377:3410   */\n      tag_88\n      jump\t// in\n    tag_151:\n        /* \"#utility.yul\":3287:3416   */\n      swap2\n      swap1\n      pop\n      jump\t// out\n        /* \"#utility.yul\":3422:3730   */\n    tag_90:\n        /* \"#utility.yul\":3484:3488   */\n      0x00\n        /* \"#utility.yul\":3574:3592   */\n      0xffffffffffffffff\n        /* \"#utility.yul\":3566:3572   */\n      dup3\n        /* \"#utility.yul\":3563:3593   */\n      gt\n        /* \"#utility.yul\":3560:3616   */\n      iszero\n      tag_153\n      jumpi\n        /* \"#utility.yul\":3596:3614   */\n      tag_154\n      tag_87\n      jump\t// in\n    tag_154:\n        /* \"#utility.yul\":3560:3616   */\n    tag_153:\n        /* \"#utility.yul\":3634:3663   */\n      tag_155\n        /* \"#utility.yul\":3656:3662   */\n      dup3\n        /* \"#utility.yul\":3634:3663   */\n      tag_83\n      jump\t// in\n    tag_155:\n        /* \"#utility.yul\":3626:3663   */\n      swap1\n      pop\n        /* \"#utility.yul\":3718:3722   */\n      0x20\n        /* \"#utility.yul\":3712:3716   */\n      dup2\n        /* \"#utility.yul\":3708:3723   */\n      add\n        /* \"#utility.yul\":3700:3723   */\n      swap1\n      pop\n        /* \"#utility.yul\":3422:3730   */\n      swap2\n      swap1\n      pop\n      jump\t// out\n        /* \"#utility.yul\":3736:3882   */\n    tag_91:\n        /* \"#utility.yul\":3833:3839   */\n      dup3\n        /* \"#utility.yul\":3828:3831   */\n      dup2\n        /* \"#utility.yul\":3823:3826   */\n      dup4\n        /* \"#utility.yul\":3810:3840   */\n      calldatacopy\n        /* \"#utility.yul\":3874:3875   */\n      0x00\n        /* \"#utility.yul\":3865:3871   */\n      dup4\n        /* \"#utility.yul\":3860:3863   */\n      dup4\n        /* \"#utility.yul\":3856:3872   */\n      add\n        /* \"#utility.yul\":3849:3876   */\n      mstore\n        /* \"#utility.yul\":3736:3882   */\n      pop\n      pop\n      pop\n      jump\t// out\n        /* \"#utility.yul\":3888:4313   */\n    tag_92:\n        /* \"#utility.yul\":3966:3971   */\n      0x00\n        /* \"#utility.yul\":3991:4057   */\n      tag_158\n        /* \"#utility.yul\":4007:4056   */\n      tag_159\n        /* \"#utility.yul\":4049:4055   */\n      dup5\n        /* \"#utility.yul\":4007:4056   */\n      tag_90\n      jump\t// in\n    tag_159:\n        /* \"#utility.yul\":3991:4057   */\n      tag_89\n      jump\t// in\n    tag_158:\n        /* \"#utility.yul\":3982:4057   */\n      swap1\n      pop\n        /* \"#utility.yul\":4080:4086   */\n      dup3\n        /* \"#utility.yul\":4073:4078   */\n      dup2\n        /* \"#utility.yul\":4066:4087   */\n      mstore\n        /* \"#utility.yul\":4118:4122   */\n      0x20\n        /* \"#utility.yul\":4111:4116   */\n      dup2\n        /* \"#utility.yul\":4107:4123   */\n      add\n        /* \"#utility.yul\":4156:4159   */\n      dup5\n        /* \"#utility.yul\":4147:4153   */\n      dup5\n        /* \"#utility.yul\":4142:4145   */\n      dup5\n        /* \"#utility.yul\":4138:4154   */\n      add\n        /* \"#utility.yul\":4135:4160   */\n      gt\n        /* \"#utility.yul\":4132:4244   */\n      iszero\n      tag_160\n      jumpi\n        /* \"#utility.yul\":4163:4242   */\n      tag_161\n      tag_86\n      jump\t// in\n    tag_161:\n        /* \"#utility.yul\":4132:4244   */\n    tag_160:\n        /* \"#utility.yul\":4253:4307   */\n      tag_162\n        /* \"#utility.yul\":4300:4306   */\n      dup5\n        /* \"#utility.yul\":4295:4298   */\n      dup3\n        /* \"#utility.yul\":4290:4293   */\n      dup6\n        /* \"#utility.yul\":4253:4307   */\n      tag_91\n      jump\t// in\n    tag_162:\n        /* \"#utility.yul\":3972:4313   */\n      pop\n        /* \"#utility.yul\":3888:4313   */\n      swap4\n      swap3\n      pop\n      pop\n      pop\n      jump\t// out\n        /* \"#utility.yul\":4333:4673   */\n    tag_93:\n        /* \"#utility.yul\":4389:4394   */\n      0x00\n        /* \"#utility.yul\":4438:4441   */\n      dup3\n        /* \"#utility.yul\":4431:4435   */\n      0x1f\n        /* \"#utility.yul\":4423:4429   */\n      dup4\n        /* \"#utility.yul\":4419:4436   */\n      add\n        /* \"#utility.yul\":4415:4442   */\n      slt\n        /* \"#utility.yul\":4405:4527   */\n      tag_164\n      jumpi\n        /* \"#utility.yul\":4446:4525   */\n      tag_165\n      tag_85\n      jump\t// in\n    tag_165:\n        /* \"#utility.yul\":4405:4527   */\n    tag_164:\n        /* \"#utility.yul\":4563:4569   */\n      dup2\n        /* \"#utility.yul\":4550:4570   */\n      calldataload\n        /* \"#utility.yul\":4588:4667   */\n      tag_166\n        /* \"#utility.yul\":4663:4666   */\n      dup5\n        /* \"#utility.yul\":4655:4661   */\n      dup3\n        /* \"#utility.yul\":4648:4652   */\n      0x20\n        /* \"#utility.yul\":4640:4646   */\n      dup7\n        /* \"#utility.yul\":4636:4653   */\n      add\n        /* \"#utility.yul\":4588:4667   */\n      tag_92\n      jump\t// in\n    tag_166:\n        /* \"#utility.yul\":4579:4667   */\n      swap2\n      pop\n        /* \"#utility.yul\":4395:4673   */\n      pop\n        /* \"#utility.yul\":4333:4673   */\n      swap3\n      swap2\n      pop\n      pop\n      jump\t// out\n        /* \"#utility.yul\":4679:5513   */\n    tag_17:\n        /* \"#utility.yul\":4767:4773   */\n      0x00\n        /* \"#utility.yul\":4775:4781   */\n      dup1\n        /* \"#utility.yul\":4824:4826   */\n      0x40\n        /* \"#utility.yul\":4812:4821   */\n      dup4\n        /* \"#utility.yul\":4803:4810   */\n      dup6\n        /* \"#utility.yul\":4799:4822   */\n      sub\n        /* \"#utility.yul\":4795:4827   */\n      slt\n        /* \"#utility.yul\":4792:4911   */\n      iszero\n      tag_168\n      jumpi\n        /* \"#utility.yul\":4830:4909   */\n      tag_169\n      tag_75\n      jump\t// in\n    tag_169:\n        /* \"#utility.yul\":4792:4911   */\n    tag_168:\n        /* \"#utility.yul\":4978:4979   */\n      0x00\n        /* \"#utility.yul\":4967:4976   */\n      dup4\n        /* \"#utility.yul\":4963:4980   */\n      add\n        /* \"#utility.yul\":4950:4981   */\n      calldataload\n        /* \"#utility.yul\":5008:5026   */\n      0xffffffffffffffff\n        /* \"#utility.yul\":5000:5006   */\n      dup2\n        /* \"#utility.yul\":4997:5027   */\n      gt\n        /* \"#utility.yul\":4994:5111   */\n      iszero\n      tag_170\n      jumpi\n        /* \"#utility.yul\":5030:5109   */\n      tag_171\n      tag_76\n      jump\t// in\n    tag_171:\n        /* \"#utility.yul\":4994:5111   */\n    tag_170:\n        /* \"#utility.yul\":5135:5198   */\n      tag_172\n        /* \"#utility.yul\":5190:5197   */\n      dup6\n        /* \"#utility.yul\":5181:5187   */\n      dup3\n        /* \"#utility.yul\":5170:5179   */\n      dup7\n        /* \"#utility.yul\":5166:5188   */\n      add\n        /* \"#utility.yul\":5135:5198   */\n      tag_93\n      jump\t// in\n    tag_172:\n        /* \"#utility.yul\":5125:5198   */\n      swap3\n      pop\n        /* \"#utility.yul\":4921:5208   */\n      pop\n        /* \"#utility.yul\":5275:5277   */\n      0x20\n        /* \"#utility.yul\":5264:5273   */\n      dup4\n        /* \"#utility.yul\":5260:5278   */\n      add\n        /* \"#utility.yul\":5247:5279   */\n      calldataload\n        /* \"#utility.yul\":5306:5324   */\n      0xffffffffffffffff\n        /* \"#utility.yul\":5298:5304   */\n      dup2\n        /* \"#utility.yul\":5295:5325   */\n      gt\n        /* \"#utility.yul\":5292:5409   */\n      iszero\n      tag_173\n      jumpi\n        /* \"#utility.yul\":5328:5407   */\n      tag_174\n      tag_76\n      jump\t// in\n    tag_174:\n        /* \"#utility.yul\":5292:5409   */\n    tag_173:\n        /* \"#utility.yul\":5433:5496   */\n      tag_175\n        /* \"#utility.yul\":5488:5495   */\n      dup6\n        /* \"#utility.yul\":5479:5485   */\n      dup3\n        /* \"#utility.yul\":5468:5477   */\n      dup7\n        /* \"#utility.yul\":5464:5486   */\n      add\n        /* \"#utility.yul\":5433:5496   */\n      tag_93\n      jump\t// in\n    tag_175:\n        /* \"#utility.yul\":5423:5496   */\n      swap2\n      pop\n        /* \"#utility.yul\":5218:5506   */\n      pop\n        /* \"#utility.yul\":4679:5513   */\n      swap3\n      pop\n      swap3\n      swap1\n      pop\n      jump\t// out\n        /* \"#utility.yul\":5519:6028   */\n    tag_21:\n        /* \"#utility.yul\":5588:5594   */\n      0x00\n        /* \"#utility.yul\":5637:5639   */\n      0x20\n        /* \"#utility.yul\":5625:5634   */\n      dup3\n        /* \"#utility.yul\":5616:5623   */\n      dup5\n        /* \"#utility.yul\":5612:5635   */\n      sub\n        /* \"#utility.yul\":5608:5640   */\n      slt\n        /* \"#utility.yul\":5605:5724   */\n      iszero\n      tag_177\n      jumpi\n        /* \"#utility.yul\":5643:5722   */\n      tag_178\n      tag_75\n      jump\t// in\n    tag_178:\n        /* \"#utility.yul\":5605:5724   */\n    tag_177:\n        /* \"#utility.yul\":5791:5792   */\n      0x00\n        /* \"#utility.yul\":5780:5789   */\n      dup3\n        /* \"#utility.yul\":5776:5793   */\n      add\n        /* \"#utility.yul\":5763:5794   */\n      calldataload\n        /* \"#utility.yul\":5821:5839   */\n      0xffffffffffffffff\n        /* \"#utility.yul\":5813:5819   */\n      dup2\n        /* \"#utility.yul\":5810:5840   */\n      gt\n        /* \"#utility.yul\":5807:5924   */\n      iszero\n      tag_179\n      jumpi\n        /* \"#utility.yul\":5843:5922   */\n      tag_180\n      tag_76\n      jump\t// in\n    tag_180:\n        /* \"#utility.yul\":5807:5924   */\n    tag_179:\n        /* \"#utility.yul\":5948:6011   */\n      tag_181\n        /* \"#utility.yul\":6003:6010   */\n      dup5\n        /* \"#utility.yul\":5994:6000   */\n      dup3\n        /* \"#utility.yul\":5983:5992   */\n      dup6\n        /* \"#utility.yul\":5979:6001   */\n      add\n        /* \"#utility.yul\":5948:6011   */\n      tag_93\n      jump\t// in\n    tag_181:\n        /* \"#utility.yul\":5938:6011   */\n      swap2\n      pop\n        /* \"#utility.yul\":5734:6021   */\n      pop\n        /* \"#utility.yul\":5519:6028   */\n      swap3\n      swap2\n      pop\n      pop\n      jump\t// out\n        /* \"#utility.yul\":6034:6152   */\n    tag_94:\n        /* \"#utility.yul\":6121:6145   */\n      tag_183\n        /* \"#utility.yul\":6139:6144   */\n      dup2\n        /* \"#utility.yul\":6121:6145   */\n      tag_77\n      jump\t// in\n    tag_183:\n        /* \"#utility.yul\":6116:6119   */\n      dup3\n        /* \"#utility.yul\":6109:6146   */\n      mstore\n        /* \"#utility.yul\":6034:6152   */\n      pop\n      pop\n      jump\t// out\n        /* \"#utility.yul\":6158:6380   */\n    tag_24:\n        /* \"#utility.yul\":6251:6255   */\n      0x00\n        /* \"#utility.yul\":6289:6291   */\n      0x20\n        /* \"#utility.yul\":6278:6287   */\n      dup3\n        /* \"#utility.yul\":6274:6292   */\n      add\n        /* \"#utility.yul\":6266:6292   */\n      swap1\n      pop\n        /* \"#utility.yul\":6302:6373   */\n      tag_185\n        /* \"#utility.yul\":6370:6371   */\n      0x00\n        /* \"#utility.yul\":6359:6368   */\n      dup4\n        /* \"#utility.yul\":6355:6372   */\n      add\n        /* \"#utility.yul\":6346:6352   */\n      dup5\n        /* \"#utility.yul\":6302:6373   */\n      tag_94\n      jump\t// in\n    tag_185:\n        /* \"#utility.yul\":6158:6380   */\n      swap3\n      swap2\n      pop\n      pop\n      jump\t// out\n        /* \"#utility.yul\":6386:6699   */\n    tag_29:\n        /* \"#utility.yul\":6499:6503   */\n      0x00\n        /* \"#utility.yul\":6537:6539   */\n      0x20\n        /* \"#utility.yul\":6526:6535   */\n      dup3\n        /* \"#utility.yul\":6522:6540   */\n      add\n        /* \"#utility.yul\":6514:6540   */\n      swap1\n      pop\n        /* \"#utility.yul\":6586:6595   */\n      dup2\n        /* \"#utility.yul\":6580:6584   */\n      dup2\n        /* \"#utility.yul\":6576:6596   */\n      sub\n        /* \"#utility.yul\":6572:6573   */\n      0x00\n        /* \"#utility.yul\":6561:6570   */\n      dup4\n        /* \"#utility.yul\":6557:6574   */\n      add\n        /* \"#utility.yul\":6550:6597   */\n      mstore\n        /* \"#utility.yul\":6614:6692   */\n      tag_187\n        /* \"#utility.yul\":6687:6691   */\n      dup2\n        /* \"#utility.yul\":6678:6684   */\n      dup5\n        /* \"#utility.yul\":6614:6692   */\n      tag_84\n      jump\t// in\n    tag_187:\n        /* \"#utility.yul\":6606:6692   */\n      swap1\n      pop\n        /* \"#utility.yul\":6386:6699   */\n      swap3\n      swap2\n      pop\n      pop\n      jump\t// out\n        /* \"#utility.yul\":6705:7128   */\n    tag_36:\n        /* \"#utility.yul\":6846:6850   */\n      0x00\n        /* \"#utility.yul\":6884:6886   */\n      0x40\n        /* \"#utility.yul\":6873:6882   */\n      dup3\n        /* \"#utility.yul\":6869:6887   */\n      add\n        /* \"#utility.yul\":6861:6887   */\n      swap1\n      pop\n        /* \"#utility.yul\":6933:6942   */\n      dup2\n        /* \"#utility.yul\":6927:6931   */\n      dup2\n        /* \"#utility.yul\":6923:6943   */\n      sub\n        /* \"#utility.yul\":6919:6920   */\n      0x00\n        /* \"#utility.yul\":6908:6917   */\n      dup4\n        /* \"#utility.yul\":6904:6921   */\n      add\n        /* \"#utility.yul\":6897:6944   */\n      mstore\n        /* \"#utility.yul\":6961:7039   */\n      tag_189\n        /* \"#utility.yul\":7034:7038   */\n      dup2\n        /* \"#utility.yul\":7025:7031   */\n      dup6\n        /* \"#utility.yul\":6961:7039   */\n      tag_84\n      jump\t// in\n    tag_189:\n        /* \"#utility.yul\":6953:7039   */\n      swap1\n      pop\n        /* \"#utility.yul\":7049:7121   */\n      tag_190\n        /* \"#utility.yul\":7117:7119   */\n      0x20\n        /* \"#utility.yul\":7106:7115   */\n      dup4\n        /* \"#utility.yul\":7102:7120   */\n      add\n        /* \"#utility.yul\":7093:7099   */\n      dup5\n        /* \"#utility.yul\":7049:7121   */\n      tag_94\n      jump\t// in\n    tag_190:\n        /* \"#utility.yul\":6705:7128   */\n      swap4\n      swap3\n      pop\n      pop\n      pop\n      jump\t// out\n        /* \"#utility.yul\":7134:7314   */\n    tag_95:\n        /* \"#utility.yul\":7182:7259   */\n      0x4e487b7100000000000000000000000000000000000000000000000000000000\n        /* \"#utility.yul\":7179:7180   */\n      0x00\n        /* \"#utility.yul\":7172:7260   */\n      mstore\n        /* \"#utility.yul\":7279:7283   */\n      0x22\n        /* \"#utility.yul\":7276:7277   */\n      0x04\n        /* \"#utility.yul\":7269:7284   */\n      mstore\n        /* \"#utility.yul\":7303:7307   */\n      0x24\n        /* \"#utility.yul\":7300:7301   */\n      0x00\n        /* \"#utility.yul\":7293:7308   */\n      revert\n        /* \"#utility.yul\":7320:7640   */\n    tag_40:\n        /* \"#utility.yul\":7364:7370   */\n      0x00\n        /* \"#utility.yul\":7401:7402   */\n      0x02\n        /* \"#utility.yul\":7395:7399   */\n      dup3\n        /* \"#utility.yul\":7391:7403   */\n      div\n        /* \"#utility.yul\":7381:7403   */\n      swap1\n      pop\n        /* \"#utility.yul\":7448:7449   */\n      0x01\n        /* \"#utility.yul\":7442:7446   */\n      dup3\n        /* \"#utility.yul\":7438:7450   */\n      and\n        /* \"#utility.yul\":7469:7487   */\n      dup1\n        /* \"#utility.yul\":7459:7540   */\n      tag_193\n      jumpi\n        /* \"#utility.yul\":7525:7529   */\n      0x7f\n        /* \"#utility.yul\":7517:7523   */\n      dup3\n        /* \"#utility.yul\":7513:7530   */\n      and\n        /* \"#utility.yul\":7503:7530   */\n      swap2\n      pop\n        /* \"#utility.yul\":7459:7540   */\n    tag_193:\n        /* \"#utility.yul\":7587:7589   */\n      0x20\n        /* \"#utility.yul\":7579:7585   */\n      dup3\n        /* \"#utility.yul\":7576:7590   */\n      lt\n        /* \"#utility.yul\":7556:7574   */\n      dup2\n        /* \"#utility.yul\":7553:7591   */\n      sub\n        /* \"#utility.yul\":7550:7634   */\n      tag_194\n      jumpi\n        /* \"#utility.yul\":7606:7624   */\n      tag_195\n      tag_95\n      jump\t// in\n    tag_195:\n        /* \"#utility.yul\":7550:7634   */\n    tag_194:\n        /* \"#utility.yul\":7371:7640   */\n      pop\n        /* \"#utility.yul\":7320:7640   */\n      swap2\n      swap1\n      pop\n      jump\t// out\n        /* \"#utility.yul\":7646:7787   */\n    tag_96:\n        /* \"#utility.yul\":7695:7699   */\n      0x00\n        /* \"#utility.yul\":7718:7721   */\n      dup2\n        /* \"#utility.yul\":7710:7721   */\n      swap1\n      pop\n        /* \"#utility.yul\":7741:7744   */\n      dup2\n        /* \"#utility.yul\":7738:7739   */\n      0x00\n        /* \"#utility.yul\":7731:7745   */\n      mstore\n        /* \"#utility.yul\":7775:7779   */\n      0x20\n        /* \"#utility.yul\":7772:7773   */\n      0x00\n        /* \"#utility.yul\":7762:7780   */\n      keccak256\n        /* \"#utility.yul\":7754:7780   */\n      swap1\n      pop\n        /* \"#utility.yul\":7646:7787   */\n      swap2\n      swap1\n      pop\n      jump\t// out\n        /* \"#utility.yul\":7793:7886   */\n    tag_97:\n        /* \"#utility.yul\":7830:7836   */\n      0x00\n        /* \"#utility.yul\":7877:7879   */\n      0x20\n        /* \"#utility.yul\":7872:7874   */\n      0x1f\n        /* \"#utility.yul\":7865:7870   */\n      dup4\n        /* \"#utility.yul\":7861:7875   */\n      add\n        /* \"#utility.yul\":7857:7880   */\n      div\n        /* \"#utility.yul\":7847:7880   */\n      swap1\n      pop\n        /* \"#utility.yul\":7793:7886   */\n      swap2\n      swap1\n      pop\n      jump\t// out\n        /* \"#utility.yul\":7892:7999   */\n    tag_98:\n        /* \"#utility.yul\":7936:7944   */\n      0x00\n        /* \"#utility.yul\":7986:7991   */\n      dup3\n        /* \"#utility.yul\":7980:7984   */\n      dup3\n        /* \"#utility.yul\":7976:7992   */\n      shl\n        /* \"#utility.yul\":7955:7992   */\n      swap1\n      pop\n        /* \"#utility.yul\":7892:7999   */\n      swap3\n      swap2\n      pop\n      pop\n      jump\t// out\n        /* \"#utility.yul\":8005:8398   */\n    tag_99:\n        /* \"#utility.yul\":8074:8080   */\n      0x00\n        /* \"#utility.yul\":8124:8125   */\n      0x08\n        /* \"#utility.yul\":8112:8122   */\n      dup4\n        /* \"#utility.yul\":8108:8126   */\n      mul\n        /* \"#utility.yul\":8147:8244   */\n      tag_200\n        /* \"#utility.yul\":8177:8243   */\n      0xffffffffffffffffffffffffffffffffffffffffffffffffffffffffffffffff\n        /* \"#utility.yul\":8166:8175   */\n      dup3\n        /* \"#utility.yul\":8147:8244   */\n      tag_98\n      jump\t// in\n    tag_200:\n        /* \"#utility.yul\":8265:8304   */\n      tag_201\n        /* \"#utility.yul\":8295:8303   */\n      dup7\n        /* \"#utility.yul\":8284:8293   */\n      dup4\n        /* \"#utility.yul\":8265:8304   */\n      tag_98\n      jump\t// in\n    tag_201:\n        /* \"#utility.yul\":8253:8304   */\n      swap6\n      pop\n        /* \"#utility.yul\":8337:8341   */\n      dup1\n        /* \"#utility.yul\":8333:8342   */\n      not\n        /* \"#utility.yul\":8326:8331   */\n      dup5\n        /* \"#utility.yul\":8322:8343   */\n      and\n        /* \"#utility.yul\":8313:8343   */\n      swap4\n      pop\n        /* \"#utility.yul\":8386:8390   */\n      dup1\n        /* \"#utility.yul\":8376:8384   */\n      dup7\n        /* \"#utility.yul\":8372:8391   */\n      and\n        /* \"#utility.yul\":8365:8370   */\n      dup5\n        /* \"#utility.yul\":8362:8392   */\n      or\n        /* \"#utility.yul\":8352:8392   */\n      swap3\n      pop\n        /* \"#utility.yul\":8081:8398   */\n      pop\n      pop\n        /* \"#utility.yul\":8005:8398   */\n      swap4\n      swap3\n      pop\n      pop\n      pop\n      jump\t// out\n        /* \"#utility.yul\":8404:8464   */\n    tag_100:\n        /* \"#utility.yul\":8432:8435   */\n      0x00\n        /* \"#utility.yul\":8453:8458   */\n      dup2\n        /* \"#utility.yul\":8446:8458   */\n      swap1\n      pop\n        /* \"#utility.yul\":8404:8464   */\n      swap2\n      swap1\n      pop\n      jump\t// out\n        /* \"#utility.yul\":8470:8612   */\n    tag_101:\n        /* \"#utility.yul\":8520:8529   */\n      0x00\n        /* \"#utility.yul\":8553:8606   */\n      tag_204\n        /* \"#utility.yul\":8571:8605   */\n      tag_205\n        /* \"#utility.yul\":8580:8604   */\n      tag_206\n        /* \"#utility.yul\":8598:8603   */\n      dup5\n        /* \"#utility.yul\":8580:8604   */\n      tag_77\n      jump\t// in\n    tag_206:\n        /* \"#utility.yul\":8571:8605   */\n      tag_100\n      jump\t// in\n    tag_205:\n        /* \"#utility.yul\":8553:8606   */\n      tag_77\n      jump\t// in\n    tag_204:\n        /* \"#utility.yul\":8540:8606   */\n      swap1\n      pop\n        /* \"#utility.yul\":8470:8612   */\n      swap2\n      swap1\n      pop\n      jump\t// out\n        /* \"#utility.yul\":8618:8693   */\n    tag_102:\n        /* \"#utility.yul\":8661:8664   */\n      0x00\n        /* \"#utility.yul\":8682:8687   */\n      dup2\n        /* \"#utility.yul\":8675:8687   */\n      swap1\n      pop\n        /* \"#utility.yul\":8618:8693   */\n      swap2\n      swap1\n      pop\n      jump\t// out\n        /* \"#utility.yul\":8699:8968   */\n    tag_103:\n        /* \"#utility.yul\":8809:8848   */\n      tag_209\n        /* \"#utility.yul\":8840:8847   */\n      dup4\n        /* \"#utility.yul\":8809:8848   */\n      tag_101\n      jump\t// in\n    tag_209:\n        /* \"#utility.yul\":8870:8961   */\n      tag_210\n        /* \"#utility.yul\":8919:8960   */\n      tag_211\n        /* \"#utility.yul\":8943:8959   */\n      dup3\n        /* \"#utility.yul\":8919:8960   */\n      tag_102\n      jump\t// in\n    tag_211:\n        /* \"#utility.yul\":8911:8917   */\n      dup5\n        /* \"#utility.yul\":8904:8908   */\n      dup5\n        /* \"#utility.yul\":8898:8909   */\n      sload\n        /* \"#utility.yul\":8870:8961   */\n      tag_99\n      jump\t// in\n    tag_210:\n        /* \"#utility.yul\":8864:8868   */\n      dup3\n        /* \"#utility.yul\":8857:8962   */\n      sstore\n        /* \"#utility.yul\":8775:8968   */\n      pop\n        /* \"#utility.yul\":8699:8968   */\n      pop\n      pop\n      pop\n      jump\t// out\n        /* \"#utility.yul\":8974:9047   */\n    tag_104:\n        /* \"#utility.yul\":9019:9022   */\n      0x00\n        /* \"#utility.yul\":8974:9047   */\n      swap1\n      jump\t// out\n        /* \"#utility.yul\":9053:9242   */\n    tag_105:\n        /* \"#utility.yul\":9130:9162   */\n      tag_214\n      tag_104\n      jump\t// in\n    tag_214:\n        /* \"#utility.yul\":9171:9236   */\n      tag_215\n        /* \"#utility.yul\":9229:9235   */\n      dup2\n        /* \"#utility.yul\":9221:9227   */\n      dup5\n        /* \"#utility.yul\":9215:9219   */\n      dup5\n        /* \"#utility.yul\":9171:9236   */\n      tag_103\n      jump\t// in\n    tag_215:\n        /* \"#utility.yul\":9106:9242   */\n      pop\n        /* \"#utility.yul\":9053:9242   */\n      pop\n      pop\n      jump\t// out\n        /* \"#utility.yul\":9248:9434   */\n    tag_106:\n        /* \"#utility.yul\":9308:9428   */\n    tag_217:\n        /* \"#utility.yul\":9325:9328   */\n      dup2\n        /* \"#utility.yul\":9318:9323   */\n      dup2\n        /* \"#utility.yul\":9315:9329   */\n      lt\n        /* \"#utility.yul\":9308:9428   */\n      iszero\n      tag_219\n      jumpi\n        /* \"#utility.yul\":9379:9418   */\n      tag_220\n        /* \"#utility.yul\":9416:9417   */\n      0x00\n        /* \"#utility.yul\":9409:9414   */\n      dup3\n        /* \"#utility.yul\":9379:9418   */\n      tag_105\n      jump\t// in\n    tag_220:\n        /* \"#utility.yul\":9352:9353   */\n      0x01\n        /* \"#utility.yul\":9345:9350   */\n      dup2\n        /* \"#utility.yul\":9341:9354   */\n      add\n        /* \"#utility.yul\":9332:9354   */\n      swap1\n      pop\n        /* \"#utility.yul\":9308:9428   */\n      jump(tag_217)\n    tag_219:\n        /* \"#utility.yul\":9248:9434   */\n      pop\n      pop\n      jump\t// out\n        /* \"#utility.yul\":9440:9983   */\n    tag_107:\n        /* \"#utility.yul\":9541:9543   */\n      0x1f\n        /* \"#utility.yul\":9536:9539   */\n      dup3\n        /* \"#utility.yul\":9533:9544   */\n      gt\n        /* \"#utility.yul\":9530:9976   */\n      iszero\n      tag_222\n      jumpi\n        /* \"#utility.yul\":9575:9613   */\n      tag_223\n        /* \"#utility.yul\":9607:9612   */\n      dup2\n        /* \"#utility.yul\":9575:9613   */\n      tag_96\n      jump\t// in\n    tag_223:\n        /* \"#utility.yul\":9659:9688   */\n      tag_224\n        /* \"#utility.yul\":9677:9687   */\n      dup5\n        /* \"#utility.yul\":9659:9688   */\n      tag_97\n      jump\t// in\n    tag_224:\n        /* \"#utility.yul\":9649:9657   */\n      dup2\n        /* \"#utility.yul\":9645:9689   */\n      add\n        /* \"#utility.yul\":9842:9844   */\n      0x20\n        /* \"#utility.yul\":9830:9840   */\n      dup6\n        /* \"#utility.yul\":9827:9845   */\n      lt\n        /* \"#utility.yul\":9824:9873   */\n      iszero\n      tag_225\n      jumpi\n        /* \"#utility.yul\":9863:9871   */\n      dup2\n        /* \"#utility.yul\":9848:9871   */\n      swap1\n      pop\n        /* \"#utility.yul\":9824:9873   */\n    tag_225:\n        /* \"#utility.yul\":9886:9966   */\n      tag_226\n        /* \"#utility.yul\":9942:9964   */\n      tag_227\n        /* \"#utility.yul\":9960:9963   */\n      dup6\n        /* \"#utility.yul\":9942:9964   */\n      tag_97\n      jump\t// in\n    tag_227:\n        /* \"#utility.yul\":9932:9940   */\n      dup4\n        /* \"#utility.yul\":9928:9965   */\n      add\n        /* \"#utility.yul\":9915:9926   */\n      dup3\n        /* \"#utility.yul\":9886:9966   */\n      tag_106\n      jump\t// in\n    tag_226:\n        /* \"#utility.yul\":9545:9976   */\n      pop\n      pop\n        /* \"#utility.yul\":9530:9976   */\n    tag_222:\n        /* \"#utility.yul\":9440:9983   */\n      pop\n      pop\n      pop\n      jump\t// out\n        /* \"#utility.yul\":9989:10106   */\n    tag_108:\n        /* \"#utility.yul\":10043:10051   */\n      0x00\n        /* \"#utility.yul\":10093:10098   */\n      dup3\n        /* \"#utility.yul\":10087:10091   */\n      dup3\n        /* \"#utility.yul\":10083:10099   */\n      shr\n        /* \"#utility.yul\":10062:10099   */\n      swap1\n      pop\n        /* \"#utility.yul\":9989:10106   */\n      swap3\n      swap2\n      pop\n      pop\n      jump\t// out\n        /* \"#utility.yul\":10112:10281   */\n    tag_109:\n        /* \"#utility.yul\":10156:10162   */\n      0x00\n        /* \"#utility.yul\":10189:10240   */\n      tag_230\n        /* \"#utility.yul\":10237:10238   */\n      0x00\n        /* \"#utility.yul\":10233:10239   */\n      not\n        /* \"#utility.yul\":10225:10230   */\n      dup5\n        /* \"#utility.yul\":10222:10223   */\n      0x08\n        /* \"#utility.yul\":10218:10231   */\n      mul\n        /* \"#utility.yul\":10189:10240   */\n      tag_108\n      jump\t// in\n    tag_230:\n        /* \"#utility.yul\":10185:10241   */\n      not\n        /* \"#utility.yul\":10270:10274   */\n      dup1\n        /* \"#utility.yul\":10264:10268   */\n      dup4\n        /* \"#utility.yul\":10260:10275   */\n      and\n        /* \"#utility.yul\":10250:10275   */\n      swap2\n      pop\n        /* \"#utility.yul\":10163:10281   */\n      pop\n        /* \"#utility.yul\":10112:10281   */\n      swap3\n      swap2\n      pop\n      pop\n      jump\t// out\n        /* \"#utility.yul\":10286:10581   */\n    tag_110:\n        /* \"#utility.yul\":10362:10366   */\n      0x00\n        /* \"#utility.yul\":10508:10537   */\n      tag_232\n        /* \"#utility.yul\":10533:10536   */\n      dup4\n        /* \"#utility.yul\":10527:10531   */\n      dup4\n        /* \"#utility.yul\":10508:10537   */\n      tag_109\n      jump\t// in\n    tag_232:\n        /* \"#utility.yul\":10500:10537   */\n      swap2\n      pop\n        /* \"#utility.yul\":10570:10573   */\n      dup3\n        /* \"#utility.yul\":10567:10568   */\n      0x02\n        /* \"#utility.yul\":10563:10574   */\n      mul\n        /* \"#utility.yul\":10557:10561   */\n      dup3\n        /* \"#utility.yul\":10554:10575   */\n      or\n        /* \"#utility.yul\":10546:10575   */\n      swap1\n      pop\n        /* \"#utility.yul\":10286:10581   */\n      swap3\n      swap2\n      pop\n      pop\n      jump\t// out\n        /* \"#utility.yul\":10586:11981   */\n    tag_53:\n        /* \"#utility.yul\":10703:10740   */\n      tag_234\n        /* \"#utility.yul\":10736:10739   */\n      dup3\n        /* \"#utility.yul\":10703:10740   */\n      tag_80\n      jump\t// in\n    tag_234:\n        /* \"#utility.yul\":10805:10823   */\n      0xffffffffffffffff\n        /* \"#utility.yul\":10797:10803   */\n      dup2\n        /* \"#utility.yul\":10794:10824   */\n      gt\n        /* \"#utility.yul\":10791:10847   */\n      iszero\n      tag_235\n      jumpi\n        /* \"#utility.yul\":10827:10845   */\n      tag_236\n      tag_87\n      jump\t// in\n    tag_236:\n        /* \"#utility.yul\":10791:10847   */\n    tag_235:\n        /* \"#utility.yul\":10871:10909   */\n      tag_237\n        /* \"#utility.yul\":10903:10907   */\n      dup3\n        /* \"#utility.yul\":10897:10908   */\n      sload\n        /* \"#utility.yul\":10871:10909   */\n      tag_40\n      jump\t// in\n    tag_237:\n        /* \"#utility.yul\":10956:11023   */\n      tag_238\n        /* \"#utility.yul\":11016:11022   */\n      dup3\n        /* \"#utility.yul\":11008:11014   */\n      dup3\n        /* \"#utility.yul\":11002:11006   */\n      dup6\n        /* \"#utility.yul\":10956:11023   */\n      tag_107\n      jump\t// in\n    tag_238:\n        /* \"#utility.yul\":11050:11051   */\n      0x00\n        /* \"#utility.yul\":11074:11078   */\n      0x20\n        /* \"#utility.yul\":11061:11078   */\n      swap1\n      pop\n        /* \"#utility.yul\":11106:11108   */\n      0x1f\n        /* \"#utility.yul\":11098:11104   */\n      dup4\n        /* \"#utility.yul\":11095:11109   */\n      gt\n        /* \"#utility.yul\":11123:11124   */\n      0x01\n        /* \"#utility.yul\":11118:11736   */\n      dup2\n      eq\n      tag_240\n      jumpi\n        /* \"#utility.yul\":11780:11781   */\n      0x00\n        /* \"#utility.yul\":11797:11803   */\n      dup5\n        /* \"#utility.yul\":11794:11871   */\n      iszero\n      tag_241\n      jumpi\n        /* \"#utility.yul\":11846:11855   */\n      dup3\n        /* \"#utility.yul\":11841:11844   */\n      dup8\n        /* \"#utility.yul\":11837:11856   */\n      add\n        /* \"#utility.yul\":11831:11857   */\n      mload\n        /* \"#utility.yul\":11822:11857   */\n      swap1\n      pop\n        /* \"#utility.yul\":11794:11871   */\n    tag_241:\n        /* \"#utility.yul\":11897:11964   */\n      tag_242\n        /* \"#utility.yul\":11957:11963   */\n      dup6\n        /* \"#utility.yul\":11950:11955   */\n      dup3\n        /* \"#utility.yul\":11897:11964   */\n      tag_110\n      jump\t// in\n    tag_242:\n        /* \"#utility.yul\":11891:11895   */\n      dup7\n        /* \"#utility.yul\":11884:11965   */\n      sstore\n        /* \"#utility.yul\":11753:11975   */\n      pop\n        /* \"#utility.yul\":11088:11975   */\n      jump(tag_239)\n        /* \"#utility.yul\":11118:11736   */\n    tag_240:\n        /* \"#utility.yul\":11170:11174   */\n      0x1f\n        /* \"#utility.yul\":11166:11175   */\n      not\n        /* \"#utility.yul\":11158:11164   */\n      dup5\n        /* \"#utility.yul\":11154:11176   */\n      and\n        /* \"#utility.yul\":11204:11241   */\n      tag_243\n        /* \"#utility.yul\":11236:11240   */\n      dup7\n        /* \"#utility.yul\":11204:11241   */\n      tag_96\n      jump\t// in\n    tag_243:\n        /* \"#utility.yul\":11263:11264   */\n      0x00\n        /* \"#utility.yul\":11277:11485   */\n    tag_244:\n        /* \"#utility.yul\":11291:11298   */\n      dup3\n        /* \"#utility.yul\":11288:11289   */\n      dup2\n        /* \"#utility.yul\":11285:11299   */\n      lt\n        /* \"#utility.yul\":11277:11485   */\n      iszero\n      tag_246\n      jumpi\n        /* \"#utility.yul\":11370:11379   */\n      dup5\n        /* \"#utility.yul\":11365:11368   */\n      dup10\n        /* \"#utility.yul\":11361:11380   */\n      add\n        /* \"#utility.yul\":11355:11381   */\n      mload\n        /* \"#utility.yul\":11347:11353   */\n      dup3\n        /* \"#utility.yul\":11340:11382   */\n      sstore\n        /* \"#utility.yul\":11421:11422   */\n      0x01\n        /* \"#utility.yul\":11413:11419   */\n      dup3\n        /* \"#utility.yul\":11409:11423   */\n      add\n        /* \"#utility.yul\":11399:11423   */\n      swap2\n      pop\n        /* \"#utility.yul\":11468:11470   */\n      0x20\n        /* \"#utility.yul\":11457:11466   */\n      dup6\n        /* \"#utility.yul\":11453:11471   */\n      add\n        /* \"#utility.yul\":11440:11471   */\n      swap5\n      pop\n        /* \"#utility.yul\":11314:11318   */\n      0x20\n        /* \"#utility.yul\":11311:11312   */\n      dup2\n        /* \"#utility.yul\":11307:11319   */\n      add\n        /* \"#utility.yul\":11302:11319   */\n      swap1\n      pop\n        /* \"#utility.yul\":11277:11485   */\n      jump(tag_244)\n    tag_246:\n        /* \"#utility.yul\":11513:11519   */\n      dup7\n        /* \"#utility.yul\":11504:11511   */\n      dup4\n        /* \"#utility.yul\":11501:11520   */\n      lt\n        /* \"#utility.yul\":11498:11677   */\n      iszero\n      tag_247\n      jumpi\n        /* \"#utility.yul\":11571:11580   */\n      dup5\n        /* \"#utility.yul\":11566:11569   */\n      dup10\n        /* \"#utility.yul\":11562:11581   */\n      add\n        /* \"#utility.yul\":11556:11582   */\n      mload\n        /* \"#utility.yul\":11614:11662   */\n      tag_248\n        /* \"#utility.yul\":11656:11660   */\n      0x1f\n        /* \"#utility.yul\":11648:11654   */\n      dup10\n        /* \"#utility.yul\":11644:11661   */\n      and\n        /* \"#utility.yul\":11633:11642   */\n      dup3\n        /* \"#utility.yul\":11614:11662   */\n      tag_109\n      jump\t// in\n    tag_248:\n        /* \"#utility.yul\":11606:11612   */\n      dup4\n        /* \"#utility.yul\":11599:11663   */\n      sstore\n        /* \"#utility.yul\":11521:11677   */\n      pop\n        /* \"#utility.yul\":11498:11677   */\n    tag_247:\n        /* \"#utility.yul\":11723:11724   */\n      0x01\n        /* \"#utility.yul\":11719:11720   */\n      0x02\n        /* \"#utility.yul\":11711:11717   */\n      dup9\n        /* \"#utility.yul\":11707:11721   */\n      mul\n        /* \"#utility.yul\":11703:11725   */\n      add\n        /* \"#utility.yul\":11697:11701   */\n      dup9\n        /* \"#utility.yul\":11690:11726   */\n      sstore\n        /* \"#utility.yul\":11125:11736   */\n      pop\n      pop\n      pop\n        /* \"#utility.yul\":11088:11975   */\n    tag_239:\n      pop\n        /* \"#utility.yul\":10678:11981   */\n      pop\n      pop\n      pop\n        /* \"#utility.yul\":10586:11981   */\n      pop\n      pop\n      jump\t// out\n        /* \"#utility.yul\":11987:12135   */\n    tag_111:\n        /* \"#utility.yul\":12089:12100   */\n      0x00\n        /* \"#utility.yul\":12126:12129   */\n      dup2\n        /* \"#utility.yul\":12111:12129   */\n      swap1\n      pop\n        /* \"#utility.yul\":11987:12135   */\n      swap3\n      swap2\n      pop\n      pop\n      jump\t// out\n        /* \"#utility.yul\":12141:12531   */\n    tag_112:\n        /* \"#utility.yul\":12247:12250   */\n      0x00\n        /* \"#utility.yul\":12275:12314   */\n      tag_251\n        /* \"#utility.yul\":12308:12313   */\n      dup3\n        /* \"#utility.yul\":12275:12314   */\n      tag_80\n      jump\t// in\n    tag_251:\n        /* \"#utility.yul\":12330:12419   */\n      tag_252\n        /* \"#utility.yul\":12412:12418   */\n      dup2\n        /* \"#utility.yul\":12407:12410   */\n      dup6\n        /* \"#utility.yul\":12330:12419   */\n      tag_111\n      jump\t// in\n    tag_252:\n        /* \"#utility.yul\":12323:12419   */\n      swap4\n      pop\n        /* \"#utility.yul\":12428:12493   */\n      tag_253\n        /* \"#utility.yul\":12486:12492   */\n      dup2\n        /* \"#utility.yul\":12481:12484   */\n      dup6\n        /* \"#utility.yul\":12474:12478   */\n      0x20\n        /* \"#utility.yul\":12467:12472   */\n      dup7\n        /* \"#utility.yul\":12463:12479   */\n      add\n        /* \"#utility.yul\":12428:12493   */\n      tag_82\n      jump\t// in\n    tag_253:\n        /* \"#utility.yul\":12518:12524   */\n      dup1\n        /* \"#utility.yul\":12513:12516   */\n      dup5\n        /* \"#utility.yul\":12509:12525   */\n      add\n        /* \"#utility.yul\":12502:12525   */\n      swap2\n      pop\n        /* \"#utility.yul\":12251:12531   */\n      pop\n        /* \"#utility.yul\":12141:12531   */\n      swap3\n      swap2\n      pop\n      pop\n      jump\t// out\n        /* \"#utility.yul\":12537:12812   */\n    tag_56:\n        /* \"#utility.yul\":12669:12672   */\n      0x00\n        /* \"#utility.yul\":12691:12786   */\n      tag_255\n        /* \"#utility.yul\":12782:12785   */\n      dup3\n        /* \"#utility.yul\":12773:12779   */\n      dup5\n        /* \"#utility.yul\":12691:12786   */\n      tag_112\n      jump\t// in\n    tag_255:\n        /* \"#utility.yul\":12684:12786   */\n      swap2\n      pop\n        /* \"#utility.yul\":12803:12806   */\n      dup2\n        /* \"#utility.yul\":12796:12806   */\n      swap1\n      pop\n        /* \"#utility.yul\":12537:12812   */\n      swap3\n      swap2\n      pop\n      pop\n      jump\t// out\n\n    auxdata: 0xa2646970667358221220135464c12bd1da6b2ef720bfda10e05f59b25bdd293759c70b62f31111f6ed4264736f6c63430008120033\n}\n",
				"bytecode": {
					"linkReferences": {},
					"object": "608060405260405180604001604052806040518060400160405280600b81526020017f45206b6120726f6f206d6100000000000000000000000000000000000000000081525081526020016002815250600160008201518160000190816200006891906200034a565b506020820151816001015550506040518060400160405280600c81526020017f48656c6c6f20627269676874000000000000000000000000000000000000000081525060059081620000bb91906200034a565b50348015620000c957600080fd5b5062000431565b600081519050919050565b7f4e487b7100000000000000000000000000000000000000000000000000000000600052604160045260246000fd5b7f4e487b7100000000000000000000000000000000000000000000000000000000600052602260045260246000fd5b600060028204905060018216806200015257607f821691505b6020821081036200016857620001676200010a565b5b50919050565b60008190508160005260206000209050919050565b60006020601f8301049050919050565b600082821b905092915050565b600060088302620001d27fffffffffffffffffffffffffffffffffffffffffffffffffffffffffffffffff8262000193565b620001de868362000193565b95508019841693508086168417925050509392505050565b6000819050919050565b6000819050919050565b60006200022b620002256200021f84620001f6565b62000200565b620001f6565b9050919050565b6000819050919050565b62000247836200020a565b6200025f620002568262000232565b848454620001a0565b825550505050565b600090565b6200027662000267565b620002838184846200023c565b505050565b5b81811015620002ab576200029f6000826200026c565b60018101905062000289565b5050565b601f821115620002fa57620002c4816200016e565b620002cf8462000183565b81016020851015620002df578190505b620002f7620002ee8562000183565b83018262000288565b50505b505050565b600082821c905092915050565b60006200031f60001984600802620002ff565b1980831691505092915050565b60006200033a83836200030c565b9150826002028217905092915050565b6200035582620000d0565b67ffffffffffffffff811115620003715762000370620000db565b5b6200037d825462000139565b6200038a828285620002af565b600060209050601f831160018114620003c25760008415620003ad578287015190505b620003b985826200032c565b86555062000429565b601f198416620003d2866200016e565b60005b82811015620003fc57848901518255600182019150602085019450602081019050620003d5565b868310156200041c578489015162000418601f8916826200030c565b8355505b6001600288020188555050505b505050505050565b610c6080620004416000396000f3fe608060405234801561001057600080fd5b50600436106100625760003560e01c80636edc41861461006757806396c8ce48146100985780639b8be313146100b4578063a66a8e82146100e4578063ef5fb05b14610114578063f14977f514610132575b600080fd5b610081600480360381019061007c9190610593565b610151565b60405161008f929190610650565b60405180910390f35b6100b260048036038101906100ad91906107bc565b610295565b005b6100ce60048036038101906100c99190610834565b610339565b6040516100db919061088c565b60405180910390f35b6100fe60048036038101906100f99190610834565b610367565b60405161010b91906108a7565b60405180910390f35b61011c61041d565b60405161012991906108a7565b60405180910390f35b61013a6104af565b6040516101489291906108c9565b60405180910390f35b6003818154811061016157600080fd5b906000526020600020906002020160009150905080600001805461018490610928565b80601f01602080910402602001604051908101604052809291908181526020018280546101b090610928565b80156101fd5780601f106101d2576101008083540402835291602001916101fd565b820191906000526020600020905b8154815290600101906020018083116101e057829003601f168201915b50505050509080600101805461021290610928565b80601f016020809104026020016040519081016040528092919081815260200182805461023e90610928565b801561028b5780601f106102605761010080835404028352916020019161028b565b820191906000526020600020905b81548152906001019060200180831161026e57829003601f168201915b5050505050905082565b60006040518060400160405280848152602001838152509050600381908060018154018082558091505060019003906000526020600020906002020160009091909190915060008201518160000190816102ef9190610b05565b5060208201518160010190816103059190610b05565b505050826004836040516103199190610c13565b908152602001604051809103902090816103339190610b05565b50505050565b6000818051602081018201805184825260208301602085012081835280955050505050506000915090505481565b600481805160208101820180518482526020830160208501208183528095505050505050600091509050805461039c90610928565b80601f01602080910402602001604051908101604052809291908181526020018280546103c890610928565b80156104155780601f106103ea57610100808354040283529160200191610415565b820191906000526020600020905b8154815290600101906020018083116103f857829003601f168201915b505050505081565b60606005805461042c90610928565b80601f016020809104026020016040519081016040528092919081815260200182805461045890610928565b80156104a55780601f1061047a576101008083540402835291602001916104a5565b820191906000526020600020905b81548152906001019060200180831161048857829003601f168201915b5050505050905090565b60018060000180546104c090610928565b80601f01602080910402602001604051908101604052809291908181526020018280546104ec90610928565b80156105395780601f1061050e57610100808354040283529160200191610539565b820191906000526020600020905b81548152906001019060200180831161051c57829003601f168201915b5050505050908060010154905082565b6000604051905090565b600080fd5b600080fd5b6000819050919050565b6105708161055d565b811461057b57600080fd5b50565b60008135905061058d81610567565b92915050565b6000602082840312156105a9576105a8610553565b5b60006105b78482850161057e565b91505092915050565b600081519050919050565b600082825260208201905092915050565b60005b838110156105fa5780820151818401526020810190506105df565b60008484015250505050565b6000601f19601f8301169050919050565b6000610622826105c0565b61062c81856105cb565b935061063c8185602086016105dc565b61064581610606565b840191505092915050565b6000604082019050818103600083015261066a8185610617565b9050818103602083015261067e8184610617565b90509392505050565b600080fd5b600080fd5b7f4e487b7100000000000000000000000000000000000000000000000000000000600052604160045260246000fd5b6106c982610606565b810181811067ffffffffffffffff821117156106e8576106e7610691565b5b80604052505050565b60006106fb610549565b905061070782826106c0565b919050565b600067ffffffffffffffff82111561072757610726610691565b5b61073082610606565b9050602081019050919050565b82818337600083830152505050565b600061075f61075a8461070c565b6106f1565b90508281526020810184848401111561077b5761077a61068c565b5b61078684828561073d565b509392505050565b600082601f8301126107a3576107a2610687565b5b81356107b384826020860161074c565b91505092915050565b600080604083850312156107d3576107d2610553565b5b600083013567ffffffffffffffff8111156107f1576107f0610558565b5b6107fd8582860161078e565b925050602083013567ffffffffffffffff81111561081e5761081d610558565b5b61082a8582860161078e565b9150509250929050565b60006020828403121561084a57610849610553565b5b600082013567ffffffffffffffff81111561086857610867610558565b5b6108748482850161078e565b91505092915050565b6108868161055d565b82525050565b60006020820190506108a1600083018461087d565b92915050565b600060208201905081810360008301526108c18184610617565b905092915050565b600060408201905081810360008301526108e38185610617565b90506108f2602083018461087d565b9392505050565b7f4e487b7100000000000000000000000000000000000000000000000000000000600052602260045260246000fd5b6000600282049050600182168061094057607f821691505b602082108103610953576109526108f9565b5b50919050565b60008190508160005260206000209050919050565b60006020601f8301049050919050565b600082821b905092915050565b6000600883026109bb7fffffffffffffffffffffffffffffffffffffffffffffffffffffffffffffffff8261097e565b6109c5868361097e565b95508019841693508086168417925050509392505050565b6000819050919050565b6000610a026109fd6109f88461055d565b6109dd565b61055d565b9050919050565b6000819050919050565b610a1c836109e7565b610a30610a2882610a09565b84845461098b565b825550505050565b600090565b610a45610a38565b610a50818484610a13565b505050565b5b81811015610a7457610a69600082610a3d565b600181019050610a56565b5050565b601f821115610ab957610a8a81610959565b610a938461096e565b81016020851015610aa2578190505b610ab6610aae8561096e565b830182610a55565b50505b505050565b600082821c905092915050565b6000610adc60001984600802610abe565b1980831691505092915050565b6000610af58383610acb565b9150826002028217905092915050565b610b0e826105c0565b67ffffffffffffffff811115610b2757610b26610691565b5b610b318254610928565b610b3c828285610a78565b600060209050601f831160018114610b6f5760008415610b5d578287015190505b610b678582610ae9565b865550610bcf565b601f198416610b7d86610959565b60005b82811015610ba557848901518255600182019150602085019450602081019050610b80565b86831015610bc25784890151610bbe601f891682610acb565b8355505b6001600288020188555050505b505050505050565b600081905092915050565b6000610bed826105c0565b610bf78185610bd7565b9350610c078185602086016105dc565b80840191505092915050565b6000610c1f8284610be2565b91508190509291505056fea2646970667358221220135464c12bd1da6b2ef720bfda10e05f59b25bdd293759c70b62f31111f6ed4264736f6c63430008120033",
					"opcodes": "PUSH1 0x80 PUSH1 0x40 MSTORE PUSH1 0x40 MLOAD DUP1 PUSH1 0x40 ADD PUSH1 0x40 MSTORE DUP1 PUSH1 0x40 MLOAD DUP1 PUSH1 0x40 ADD PUSH1 0x40 MSTORE DUP1 PUSH1 0xB DUP2 MSTORE PUSH1 0x20 ADD PUSH32 0x45206B6120726F6F206D61000000000000000000000000000000000000000000 DUP2 MSTORE POP DUP2 MSTORE PUSH1 0x20 ADD PUSH1 0x2 DUP2 MSTORE POP PUSH1 0x1 PUSH1 0x0 DUP3 ADD MLOAD DUP2 PUSH1 0x0 ADD SWAP1 DUP2 PUSH3 0x68 SWAP2 SWAP1 PUSH3 0x34A JUMP JUMPDEST POP PUSH1 0x20 DUP3 ADD MLOAD DUP2 PUSH1 0x1 ADD SSTORE POP POP PUSH1 0x40 MLOAD DUP1 PUSH1 0x40 ADD PUSH1 0x40 MSTORE DUP1 PUSH1 0xC DUP2 MSTORE PUSH1 0x20 ADD PUSH32 0x48656C6C6F206272696768740000000000000000000000000000000000000000 DUP2 MSTORE POP PUSH1 0x5 SWAP1 DUP2 PUSH3 0xBB SWAP2 SWAP1 PUSH3 0x34A JUMP JUMPDEST POP CALLVALUE DUP1 ISZERO PUSH3 0xC9 JUMPI PUSH1 0x0 DUP1 REVERT JUMPDEST POP PUSH3 0x431 JUMP JUMPDEST PUSH1 0x0 DUP2 MLOAD SWAP1 POP SWAP2 SWAP1 POP JUMP JUMPDEST PUSH32 0x4E487B7100000000000000000000000000000000000000000000000000000000 PUSH1 0x0 MSTORE PUSH1 0x41 PUSH1 0x4 MSTORE PUSH1 0x24 PUSH1 0x0 REVERT JUMPDEST PUSH32 0x4E487B7100000000000000000000000000000000000000000000000000000000 PUSH1 0x0 MSTORE PUSH1 0x22 PUSH1 0x4 MSTORE PUSH1 0x24 PUSH1 0x0 REVERT JUMPDEST PUSH1 0x0 PUSH1 0x2 DUP3 DIV SWAP1 POP PUSH1 0x1 DUP3 AND DUP1 PUSH3 0x152 JUMPI PUSH1 0x7F DUP3 AND SWAP2 POP JUMPDEST PUSH1 0x20 DUP3 LT DUP2 SUB PUSH3 0x168 JUMPI PUSH3 0x167 PUSH3 0x10A JUMP JUMPDEST JUMPDEST POP SWAP2 SWAP1 POP JUMP JUMPDEST PUSH1 0x0 DUP2 SWAP1 POP DUP2 PUSH1 0x0 MSTORE PUSH1 0x20 PUSH1 0x0 KECCAK256 SWAP1 POP SWAP2 SWAP1 POP JUMP JUMPDEST PUSH1 0x0 PUSH1 0x20 PUSH1 0x1F DUP4 ADD DIV SWAP1 POP SWAP2 SWAP1 POP JUMP JUMPDEST PUSH1 0x0 DUP3 DUP3 SHL SWAP1 POP SWAP3 SWAP2 POP POP JUMP JUMPDEST PUSH1 0x0 PUSH1 0x8 DUP4 MUL PUSH3 0x1D2 PUSH32 0xFFFFFFFFFFFFFFFFFFFFFFFFFFFFFFFFFFFFFFFFFFFFFFFFFFFFFFFFFFFFFFFF DUP3 PUSH3 0x193 JUMP JUMPDEST PUSH3 0x1DE DUP7 DUP4 PUSH3 0x193 JUMP JUMPDEST SWAP6 POP DUP1 NOT DUP5 AND SWAP4 POP DUP1 DUP7 AND DUP5 OR SWAP3 POP POP POP SWAP4 SWAP3 POP POP POP JUMP JUMPDEST PUSH1 0x0 DUP2 SWAP1 POP SWAP2 SWAP1 POP JUMP JUMPDEST PUSH1 0x0 DUP2 SWAP1 POP SWAP2 SWAP1 POP JUMP JUMPDEST PUSH1 0x0 PUSH3 0x22B PUSH3 0x225 PUSH3 0x21F DUP5 PUSH3 0x1F6 JUMP JUMPDEST PUSH3 0x200 JUMP JUMPDEST PUSH3 0x1F6 JUMP JUMPDEST SWAP1 POP SWAP2 SWAP1 POP JUMP JUMPDEST PUSH1 0x0 DUP2 SWAP1 POP SWAP2 SWAP1 POP JUMP JUMPDEST PUSH3 0x247 DUP4 PUSH3 0x20A JUMP JUMPDEST PUSH3 0x25F PUSH3 0x256 DUP3 PUSH3 0x232 JUMP JUMPDEST DUP5 DUP5 SLOAD PUSH3 0x1A0 JUMP JUMPDEST DUP3 SSTORE POP POP POP POP JUMP JUMPDEST PUSH1 0x0 SWAP1 JUMP JUMPDEST PUSH3 0x276 PUSH3 0x267 JUMP JUMPDEST PUSH3 0x283 DUP2 DUP5 DUP5 PUSH3 0x23C JUMP JUMPDEST POP POP POP JUMP JUMPDEST JUMPDEST DUP2 DUP2 LT ISZERO PUSH3 0x2AB JUMPI PUSH3 0x29F PUSH1 0x0 DUP3 PUSH3 0x26C JUMP JUMPDEST PUSH1 0x1 DUP2 ADD SWAP1 POP PUSH3 0x289 JUMP JUMPDEST POP POP JUMP JUMPDEST PUSH1 0x1F DUP3 GT ISZERO PUSH3 0x2FA JUMPI PUSH3 0x2C4 DUP2 PUSH3 0x16E JUMP JUMPDEST PUSH3 0x2CF DUP5 PUSH3 0x183 JUMP JUMPDEST DUP2 ADD PUSH1 0x20 DUP6 LT ISZERO PUSH3 0x2DF JUMPI DUP2 SWAP1 POP JUMPDEST PUSH3 0x2F7 PUSH3 0x2EE DUP6 PUSH3 0x183 JUMP JUMPDEST DUP4 ADD DUP3 PUSH3 0x288 JUMP JUMPDEST POP POP JUMPDEST POP POP POP JUMP JUMPDEST PUSH1 0x0 DUP3 DUP3 SHR SWAP1 POP SWAP3 SWAP2 POP POP JUMP JUMPDEST PUSH1 0x0 PUSH3 0x31F PUSH1 0x0 NOT DUP5 PUSH1 0x8 MUL PUSH3 0x2FF JUMP JUMPDEST NOT DUP1 DUP4 AND SWAP2 POP POP SWAP3 SWAP2 POP POP JUMP JUMPDEST PUSH1 0x0 PUSH3 0x33A DUP4 DUP4 PUSH3 0x30C JUMP JUMPDEST SWAP2 POP DUP3 PUSH1 0x2 MUL DUP3 OR SWAP1 POP SWAP3 SWAP2 POP POP JUMP JUMPDEST PUSH3 0x355 DUP3 PUSH3 0xD0 JUMP JUMPDEST PUSH8 0xFFFFFFFFFFFFFFFF DUP2 GT ISZERO PUSH3 0x371 JUMPI PUSH3 0x370 PUSH3 0xDB JUMP JUMPDEST JUMPDEST PUSH3 0x37D DUP3 SLOAD PUSH3 0x139 JUMP JUMPDEST PUSH3 0x38A DUP3 DUP3 DUP6 PUSH3 0x2AF JUMP JUMPDEST PUSH1 0x0 PUSH1 0x20 SWAP1 POP PUSH1 0x1F DUP4 GT PUSH1 0x1 DUP2 EQ PUSH3 0x3C2 JUMPI PUSH1 0x0 DUP5 ISZERO PUSH3 0x3AD JUMPI DUP3 DUP8 ADD MLOAD SWAP1 POP JUMPDEST PUSH3 0x3B9 DUP6 DUP3 PUSH3 0x32C JUMP JUMPDEST DUP7 SSTORE POP PUSH3 0x429 JUMP JUMPDEST PUSH1 0x1F NOT DUP5 AND PUSH3 0x3D2 DUP7 PUSH3 0x16E JUMP JUMPDEST PUSH1 0x0 JUMPDEST DUP3 DUP2 LT ISZERO PUSH3 0x3FC JUMPI DUP5 DUP10 ADD MLOAD DUP3 SSTORE PUSH1 0x1 DUP3 ADD SWAP2 POP PUSH1 0x20 DUP6 ADD SWAP5 POP PUSH1 0x20 DUP2 ADD SWAP1 POP PUSH3 0x3D5 JUMP JUMPDEST DUP7 DUP4 LT ISZERO PUSH3 0x41C JUMPI DUP5 DUP10 ADD MLOAD PUSH3 0x418 PUSH1 0x1F DUP10 AND DUP3 PUSH3 0x30C JUMP JUMPDEST DUP4 SSTORE POP JUMPDEST PUSH1 0x1 PUSH1 0x2 DUP9 MUL ADD DUP9 SSTORE POP POP POP JUMPDEST POP POP POP POP POP POP JUMP JUMPDEST PUSH2 0xC60 DUP1 PUSH3 0x441 PUSH1 0x0 CODECOPY PUSH1 0x0 RETURN INVALID PUSH1 0x80 PUSH1 0x40 MSTORE CALLVALUE DUP1 ISZERO PUSH2 0x10 JUMPI PUSH1 0x0 DUP1 REVERT JUMPDEST POP PUSH1 0x4 CALLDATASIZE LT PUSH2 0x62 JUMPI PUSH1 0x0 CALLDATALOAD PUSH1 0xE0 SHR DUP1 PUSH4 0x6EDC4186 EQ PUSH2 0x67 JUMPI DUP1 PUSH4 0x96C8CE48 EQ PUSH2 0x98 JUMPI DUP1 PUSH4 0x9B8BE313 EQ PUSH2 0xB4 JUMPI DUP1 PUSH4 0xA66A8E82 EQ PUSH2 0xE4 JUMPI DUP1 PUSH4 0xEF5FB05B EQ PUSH2 0x114 JUMPI DUP1 PUSH4 0xF14977F5 EQ PUSH2 0x132 JUMPI JUMPDEST PUSH1 0x0 DUP1 REVERT JUMPDEST PUSH2 0x81 PUSH1 0x4 DUP1 CALLDATASIZE SUB DUP2 ADD SWAP1 PUSH2 0x7C SWAP2 SWAP1 PUSH2 0x593 JUMP JUMPDEST PUSH2 0x151 JUMP JUMPDEST PUSH1 0x40 MLOAD PUSH2 0x8F SWAP3 SWAP2 SWAP1 PUSH2 0x650 JUMP JUMPDEST PUSH1 0x40 MLOAD DUP1 SWAP2 SUB SWAP1 RETURN JUMPDEST PUSH2 0xB2 PUSH1 0x4 DUP1 CALLDATASIZE SUB DUP2 ADD SWAP1 PUSH2 0xAD SWAP2 SWAP1 PUSH2 0x7BC JUMP JUMPDEST PUSH2 0x295 JUMP JUMPDEST STOP JUMPDEST PUSH2 0xCE PUSH1 0x4 DUP1 CALLDATASIZE SUB DUP2 ADD SWAP1 PUSH2 0xC9 SWAP2 SWAP1 PUSH2 0x834 JUMP JUMPDEST PUSH2 0x339 JUMP JUMPDEST PUSH1 0x40 MLOAD PUSH2 0xDB SWAP2 SWAP1 PUSH2 0x88C JUMP JUMPDEST PUSH1 0x40 MLOAD DUP1 SWAP2 SUB SWAP1 RETURN JUMPDEST PUSH2 0xFE PUSH1 0x4 DUP1 CALLDATASIZE SUB DUP2 ADD SWAP1 PUSH2 0xF9 SWAP2 SWAP1 PUSH2 0x834 JUMP JUMPDEST PUSH2 0x367 JUMP JUMPDEST PUSH1 0x40 MLOAD PUSH2 0x10B SWAP2 SWAP1 PUSH2 0x8A7 JUMP JUMPDEST PUSH1 0x40 MLOAD DUP1 SWAP2 SUB SWAP1 RETURN JUMPDEST PUSH2 0x11C PUSH2 0x41D JUMP JUMPDEST PUSH1 0x40 MLOAD PUSH2 0x129 SWAP2 SWAP1 PUSH2 0x8A7 JUMP JUMPDEST PUSH1 0x40 MLOAD DUP1 SWAP2 SUB SWAP1 RETURN JUMPDEST PUSH2 0x13A PUSH2 0x4AF JUMP JUMPDEST PUSH1 0x40 MLOAD PUSH2 0x148 SWAP3 SWAP2 SWAP1 PUSH2 0x8C9 JUMP JUMPDEST PUSH1 0x40 MLOAD DUP1 SWAP2 SUB SWAP1 RETURN JUMPDEST PUSH1 0x3 DUP2 DUP2 SLOAD DUP2 LT PUSH2 0x161 JUMPI PUSH1 0x0 DUP1 REVERT JUMPDEST SWAP1 PUSH1 0x0 MSTORE PUSH1 0x20 PUSH1 0x0 KECCAK256 SWAP1 PUSH1 0x2 MUL ADD PUSH1 0x0 SWAP2 POP SWAP1 POP DUP1 PUSH1 0x0 ADD DUP1 SLOAD PUSH2 0x184 SWAP1 PUSH2 0x928 JUMP JUMPDEST DUP1 PUSH1 0x1F ADD PUSH1 0x20 DUP1 SWAP2 DIV MUL PUSH1 0x20 ADD PUSH1 0x40 MLOAD SWAP1 DUP2 ADD PUSH1 0x40 MSTORE DUP1 SWAP3 SWAP2 SWAP1 DUP2 DUP2 MSTORE PUSH1 0x20 ADD DUP3 DUP1 SLOAD PUSH2 0x1B0 SWAP1 PUSH2 0x928 JUMP JUMPDEST DUP1 ISZERO PUSH2 0x1FD JUMPI DUP1 PUSH1 0x1F LT PUSH2 0x1D2 JUMPI PUSH2 0x100 DUP1 DUP4 SLOAD DIV MUL DUP4 MSTORE SWAP2 PUSH1 0x20 ADD SWAP2 PUSH2 0x1FD JUMP JUMPDEST DUP3 ADD SWAP2 SWAP1 PUSH1 0x0 MSTORE PUSH1 0x20 PUSH1 0x0 KECCAK256 SWAP1 JUMPDEST DUP2 SLOAD DUP2 MSTORE SWAP1 PUSH1 0x1 ADD SWAP1 PUSH1 0x20 ADD DUP1 DUP4 GT PUSH2 0x1E0 JUMPI DUP3 SWAP1 SUB PUSH1 0x1F AND DUP3 ADD SWAP2 JUMPDEST POP POP POP POP POP SWAP1 DUP1 PUSH1 0x1 ADD DUP1 SLOAD PUSH2 0x212 SWAP1 PUSH2 0x928 JUMP JUMPDEST DUP1 PUSH1 0x1F ADD PUSH1 0x20 DUP1 SWAP2 DIV MUL PUSH1 0x20 ADD PUSH1 0x40 MLOAD SWAP1 DUP2 ADD PUSH1 0x40 MSTORE DUP1 SWAP3 SWAP2 SWAP1 DUP2 DUP2 MSTORE PUSH1 0x20 ADD DUP3 DUP1 SLOAD PUSH2 0x23E SWAP1 PUSH2 0x928 JUMP JUMPDEST DUP1 ISZERO PUSH2 0x28B JUMPI DUP1 PUSH1 0x1F LT PUSH2 0x260 JUMPI PUSH2 0x100 DUP1 DUP4 SLOAD DIV MUL DUP4 MSTORE SWAP2 PUSH1 0x20 ADD SWAP2 PUSH2 0x28B JUMP JUMPDEST DUP3 ADD SWAP2 SWAP1 PUSH1 0x0 MSTORE PUSH1 0x20 PUSH1 0x0 KECCAK256 SWAP1 JUMPDEST DUP2 SLOAD DUP2 MSTORE SWAP1 PUSH1 0x1 ADD SWAP1 PUSH1 0x20 ADD DUP1 DUP4 GT PUSH2 0x26E JUMPI DUP3 SWAP1 SUB PUSH1 0x1F AND DUP3 ADD SWAP2 JUMPDEST POP POP POP POP POP SWAP1 POP DUP3 JUMP JUMPDEST PUSH1 0x0 PUSH1 0x40 MLOAD DUP1 PUSH1 0x40 ADD PUSH1 0x40 MSTORE DUP1 DUP5 DUP2 MSTORE PUSH1 0x20 ADD DUP4 DUP2 MSTORE POP SWAP1 POP PUSH1 0x3 DUP2 SWAP1 DUP1 PUSH1 0x1 DUP2 SLOAD ADD DUP1 DUP3 SSTORE DUP1 SWAP2 POP POP PUSH1 0x1 SWAP1 SUB SWAP1 PUSH1 0x0 MSTORE PUSH1 0x20 PUSH1 0x0 KECCAK256 SWAP1 PUSH1 0x2 MUL ADD PUSH1 0x0 SWAP1 SWAP2 SWAP1 SWAP2 SWAP1 SWAP2 POP PUSH1 0x0 DUP3 ADD MLOAD DUP2 PUSH1 0x0 ADD SWAP1 DUP2 PUSH2 0x2EF SWAP2 SWAP1 PUSH2 0xB05 JUMP JUMPDEST POP PUSH1 0x20 DUP3 ADD MLOAD DUP2 PUSH1 0x1 ADD SWAP1 DUP2 PUSH2 0x305 SWAP2 SWAP1 PUSH2 0xB05 JUMP JUMPDEST POP POP POP DUP3 PUSH1 0x4 DUP4 PUSH1 0x40 MLOAD PUSH2 0x319 SWAP2 SWAP1 PUSH2 0xC13 JUMP JUMPDEST SWAP1 DUP2 MSTORE PUSH1 0x20 ADD PUSH1 0x40 MLOAD DUP1 SWAP2 SUB SWAP1 KECCAK256 SWAP1 DUP2 PUSH2 0x333 SWAP2 SWAP1 PUSH2 0xB05 JUMP JUMPDEST POP POP POP POP JUMP JUMPDEST PUSH1 0x0 DUP2 DUP1 MLOAD PUSH1 0x20 DUP2 ADD DUP3 ADD DUP1 MLOAD DUP5 DUP3 MSTORE PUSH1 0x20 DUP4 ADD PUSH1 0x20 DUP6 ADD KECCAK256 DUP2 DUP4 MSTORE DUP1 SWAP6 POP POP POP POP POP POP PUSH1 0x0 SWAP2 POP SWAP1 POP SLOAD DUP2 JUMP JUMPDEST PUSH1 0x4 DUP2 DUP1 MLOAD PUSH1 0x20 DUP2 ADD DUP3 ADD DUP1 MLOAD DUP5 DUP3 MSTORE PUSH1 0x20 DUP4 ADD PUSH1 0x20 DUP6 ADD KECCAK256 DUP2 DUP4 MSTORE DUP1 SWAP6 POP POP POP POP POP POP PUSH1 0x0 SWAP2 POP SWAP1 POP DUP1 SLOAD PUSH2 0x39C SWAP1 PUSH2 0x928 JUMP JUMPDEST DUP1 PUSH1 0x1F ADD PUSH1 0x20 DUP1 SWAP2 DIV MUL PUSH1 0x20 ADD PUSH1 0x40 MLOAD SWAP1 DUP2 ADD PUSH1 0x40 MSTORE DUP1 SWAP3 SWAP2 SWAP1 DUP2 DUP2 MSTORE PUSH1 0x20 ADD DUP3 DUP1 SLOAD PUSH2 0x3C8 SWAP1 PUSH2 0x928 JUMP JUMPDEST DUP1 ISZERO PUSH2 0x415 JUMPI DUP1 PUSH1 0x1F LT PUSH2 0x3EA JUMPI PUSH2 0x100 DUP1 DUP4 SLOAD DIV MUL DUP4 MSTORE SWAP2 PUSH1 0x20 ADD SWAP2 PUSH2 0x415 JUMP JUMPDEST DUP3 ADD SWAP2 SWAP1 PUSH1 0x0 MSTORE PUSH1 0x20 PUSH1 0x0 KECCAK256 SWAP1 JUMPDEST DUP2 SLOAD DUP2 MSTORE SWAP1 PUSH1 0x1 ADD SWAP1 PUSH1 0x20 ADD DUP1 DUP4 GT PUSH2 0x3F8 JUMPI DUP3 SWAP1 SUB PUSH1 0x1F AND DUP3 ADD SWAP2 JUMPDEST POP POP POP POP POP DUP2 JUMP JUMPDEST PUSH1 0x60 PUSH1 0x5 DUP1 SLOAD PUSH2 0x42C SWAP1 PUSH2 0x928 JUMP JUMPDEST DUP1 PUSH1 0x1F ADD PUSH1 0x20 DUP1 SWAP2 DIV MUL PUSH1 0x20 ADD PUSH1 0x40 MLOAD SWAP1 DUP2 ADD PUSH1 0x40 MSTORE DUP1 SWAP3 SWAP2 SWAP1 DUP2 DUP2 MSTORE PUSH1 0x20 ADD DUP3 DUP1 SLOAD PUSH2 0x458 SWAP1 PUSH2 0x928 JUMP JUMPDEST DUP1 ISZERO PUSH2 0x4A5 JUMPI DUP1 PUSH1 0x1F LT PUSH2 0x47A JUMPI PUSH2 0x100 DUP1 DUP4 SLOAD DIV MUL DUP4 MSTORE SWAP2 PUSH1 0x20 ADD SWAP2 PUSH2 0x4A5 JUMP JUMPDEST DUP3 ADD SWAP2 SWAP1 PUSH1 0x0 MSTORE PUSH1 0x20 PUSH1 0x0 KECCAK256 SWAP1 JUMPDEST DUP2 SLOAD DUP2 MSTORE SWAP1 PUSH1 0x1 ADD SWAP1 PUSH1 0x20 ADD DUP1 DUP4 GT PUSH2 0x488 JUMPI DUP3 SWAP1 SUB PUSH1 0x1F AND DUP3 ADD SWAP2 JUMPDEST POP POP POP POP POP SWAP1 POP SWAP1 JUMP JUMPDEST PUSH1 0x1 DUP1 PUSH1 0x0 ADD DUP1 SLOAD PUSH2 0x4C0 SWAP1 PUSH2 0x928 JUMP JUMPDEST DUP1 PUSH1 0x1F ADD PUSH1 0x20 DUP1 SWAP2 DIV MUL PUSH1 0x20 ADD PUSH1 0x40 MLOAD SWAP1 DUP2 ADD PUSH1 0x40 MSTORE DUP1 SWAP3 SWAP2 SWAP1 DUP2 DUP2 MSTORE PUSH1 0x20 ADD DUP3 DUP1 SLOAD PUSH2 0x4EC SWAP1 PUSH2 0x928 JUMP JUMPDEST DUP1 ISZERO PUSH2 0x539 JUMPI DUP1 PUSH1 0x1F LT PUSH2 0x50E JUMPI PUSH2 0x100 DUP1 DUP4 SLOAD DIV MUL DUP4 MSTORE SWAP2 PUSH1 0x20 ADD SWAP2 PUSH2 0x539 JUMP JUMPDEST DUP3 ADD SWAP2 SWAP1 PUSH1 0x0 MSTORE PUSH1 0x20 PUSH1 0x0 KECCAK256 SWAP1 JUMPDEST DUP2 SLOAD DUP2 MSTORE SWAP1 PUSH1 0x1 ADD SWAP1 PUSH1 0x20 ADD DUP1 DUP4 GT PUSH2 0x51C JUMPI DUP3 SWAP1 SUB PUSH1 0x1F AND DUP3 ADD SWAP2 JUMPDEST POP POP POP POP POP SWAP1 DUP1 PUSH1 0x1 ADD SLOAD SWAP1 POP DUP3 JUMP JUMPDEST PUSH1 0x0 PUSH1 0x40 MLOAD SWAP1 POP SWAP1 JUMP JUMPDEST PUSH1 0x0 DUP1 REVERT JUMPDEST PUSH1 0x0 DUP1 REVERT JUMPDEST PUSH1 0x0 DUP2 SWAP1 POP SWAP2 SWAP1 POP JUMP JUMPDEST PUSH2 0x570 DUP2 PUSH2 0x55D JUMP JUMPDEST DUP2 EQ PUSH2 0x57B JUMPI PUSH1 0x0 DUP1 REVERT JUMPDEST POP JUMP JUMPDEST PUSH1 0x0 DUP2 CALLDATALOAD SWAP1 POP PUSH2 0x58D DUP2 PUSH2 0x567 JUMP JUMPDEST SWAP3 SWAP2 POP POP JUMP JUMPDEST PUSH1 0x0 PUSH1 0x20 DUP3 DUP5 SUB SLT ISZERO PUSH2 0x5A9 JUMPI PUSH2 0x5A8 PUSH2 0x553 JUMP JUMPDEST JUMPDEST PUSH1 0x0 PUSH2 0x5B7 DUP5 DUP3 DUP6 ADD PUSH2 0x57E JUMP JUMPDEST SWAP2 POP POP SWAP3 SWAP2 POP POP JUMP JUMPDEST PUSH1 0x0 DUP2 MLOAD SWAP1 POP SWAP2 SWAP1 POP JUMP JUMPDEST PUSH1 0x0 DUP3 DUP3 MSTORE PUSH1 0x20 DUP3 ADD SWAP1 POP SWAP3 SWAP2 POP POP JUMP JUMPDEST PUSH1 0x0 JUMPDEST DUP4 DUP2 LT ISZERO PUSH2 0x5FA JUMPI DUP1 DUP3 ADD MLOAD DUP2 DUP5 ADD MSTORE PUSH1 0x20 DUP2 ADD SWAP1 POP PUSH2 0x5DF JUMP JUMPDEST PUSH1 0x0 DUP5 DUP5 ADD MSTORE POP POP POP POP JUMP JUMPDEST PUSH1 0x0 PUSH1 0x1F NOT PUSH1 0x1F DUP4 ADD AND SWAP1 POP SWAP2 SWAP1 POP JUMP JUMPDEST PUSH1 0x0 PUSH2 0x622 DUP3 PUSH2 0x5C0 JUMP JUMPDEST PUSH2 0x62C DUP2 DUP6 PUSH2 0x5CB JUMP JUMPDEST SWAP4 POP PUSH2 0x63C DUP2 DUP6 PUSH1 0x20 DUP7 ADD PUSH2 0x5DC JUMP JUMPDEST PUSH2 0x645 DUP2 PUSH2 0x606 JUMP JUMPDEST DUP5 ADD SWAP2 POP POP SWAP3 SWAP2 POP POP JUMP JUMPDEST PUSH1 0x0 PUSH1 0x40 DUP3 ADD SWAP1 POP DUP2 DUP2 SUB PUSH1 0x0 DUP4 ADD MSTORE PUSH2 0x66A DUP2 DUP6 PUSH2 0x617 JUMP JUMPDEST SWAP1 POP DUP2 DUP2 SUB PUSH1 0x20 DUP4 ADD MSTORE PUSH2 0x67E DUP2 DUP5 PUSH2 0x617 JUMP JUMPDEST SWAP1 POP SWAP4 SWAP3 POP POP POP JUMP JUMPDEST PUSH1 0x0 DUP1 REVERT JUMPDEST PUSH1 0x0 DUP1 REVERT JUMPDEST PUSH32 0x4E487B7100000000000000000000000000000000000000000000000000000000 PUSH1 0x0 MSTORE PUSH1 0x41 PUSH1 0x4 MSTORE PUSH1 0x24 PUSH1 0x0 REVERT JUMPDEST PUSH2 0x6C9 DUP3 PUSH2 0x606 JUMP JUMPDEST DUP2 ADD DUP2 DUP2 LT PUSH8 0xFFFFFFFFFFFFFFFF DUP3 GT OR ISZERO PUSH2 0x6E8 JUMPI PUSH2 0x6E7 PUSH2 0x691 JUMP JUMPDEST JUMPDEST DUP1 PUSH1 0x40 MSTORE POP POP POP JUMP JUMPDEST PUSH1 0x0 PUSH2 0x6FB PUSH2 0x549 JUMP JUMPDEST SWAP1 POP PUSH2 0x707 DUP3 DUP3 PUSH2 0x6C0 JUMP JUMPDEST SWAP2 SWAP1 POP JUMP JUMPDEST PUSH1 0x0 PUSH8 0xFFFFFFFFFFFFFFFF DUP3 GT ISZERO PUSH2 0x727 JUMPI PUSH2 0x726 PUSH2 0x691 JUMP JUMPDEST JUMPDEST PUSH2 0x730 DUP3 PUSH2 0x606 JUMP JUMPDEST SWAP1 POP PUSH1 0x20 DUP2 ADD SWAP1 POP SWAP2 SWAP1 POP JUMP JUMPDEST DUP3 DUP2 DUP4 CALLDATACOPY PUSH1 0x0 DUP4 DUP4 ADD MSTORE POP POP POP JUMP JUMPDEST PUSH1 0x0 PUSH2 0x75F PUSH2 0x75A DUP5 PUSH2 0x70C JUMP JUMPDEST PUSH2 0x6F1 JUMP JUMPDEST SWAP1 POP DUP3 DUP2 MSTORE PUSH1 0x20 DUP2 ADD DUP5 DUP5 DUP5 ADD GT ISZERO PUSH2 0x77B JUMPI PUSH2 0x77A PUSH2 0x68C JUMP JUMPDEST JUMPDEST PUSH2 0x786 DUP5 DUP3 DUP6 PUSH2 0x73D JUMP JUMPDEST POP SWAP4 SWAP3 POP POP POP JUMP JUMPDEST PUSH1 0x0 DUP3 PUSH1 0x1F DUP4 ADD SLT PUSH2 0x7A3 JUMPI PUSH2 0x7A2 PUSH2 0x687 JUMP JUMPDEST JUMPDEST DUP2 CALLDATALOAD PUSH2 0x7B3 DUP5 DUP3 PUSH1 0x20 DUP7 ADD PUSH2 0x74C JUMP JUMPDEST SWAP2 POP POP SWAP3 SWAP2 POP POP JUMP JUMPDEST PUSH1 0x0 DUP1 PUSH1 0x40 DUP4 DUP6 SUB SLT ISZERO PUSH2 0x7D3 JUMPI PUSH2 0x7D2 PUSH2 0x553 JUMP JUMPDEST JUMPDEST PUSH1 0x0 DUP4 ADD CALLDATALOAD PUSH8 0xFFFFFFFFFFFFFFFF DUP2 GT ISZERO PUSH2 0x7F1 JUMPI PUSH2 0x7F0 PUSH2 0x558 JUMP JUMPDEST JUMPDEST PUSH2 0x7FD DUP6 DUP3 DUP7 ADD PUSH2 0x78E JUMP JUMPDEST SWAP3 POP POP PUSH1 0x20 DUP4 ADD CALLDATALOAD PUSH8 0xFFFFFFFFFFFFFFFF DUP2 GT ISZERO PUSH2 0x81E JUMPI PUSH2 0x81D PUSH2 0x558 JUMP JUMPDEST JUMPDEST PUSH2 0x82A DUP6 DUP3 DUP7 ADD PUSH2 0x78E JUMP JUMPDEST SWAP2 POP POP SWAP3 POP SWAP3 SWAP1 POP JUMP JUMPDEST PUSH1 0x0 PUSH1 0x20 DUP3 DUP5 SUB SLT ISZERO PUSH2 0x84A JUMPI PUSH2 0x849 PUSH2 0x553 JUMP JUMPDEST JUMPDEST PUSH1 0x0 DUP3 ADD CALLDATALOAD PUSH8 0xFFFFFFFFFFFFFFFF DUP2 GT ISZERO PUSH2 0x868 JUMPI PUSH2 0x867 PUSH2 0x558 JUMP JUMPDEST JUMPDEST PUSH2 0x874 DUP5 DUP3 DUP6 ADD PUSH2 0x78E JUMP JUMPDEST SWAP2 POP POP SWAP3 SWAP2 POP POP JUMP JUMPDEST PUSH2 0x886 DUP2 PUSH2 0x55D JUMP JUMPDEST DUP3 MSTORE POP POP JUMP JUMPDEST PUSH1 0x0 PUSH1 0x20 DUP3 ADD SWAP1 POP PUSH2 0x8A1 PUSH1 0x0 DUP4 ADD DUP5 PUSH2 0x87D JUMP JUMPDEST SWAP3 SWAP2 POP POP JUMP JUMPDEST PUSH1 0x0 PUSH1 0x20 DUP3 ADD SWAP1 POP DUP2 DUP2 SUB PUSH1 0x0 DUP4 ADD MSTORE PUSH2 0x8C1 DUP2 DUP5 PUSH2 0x617 JUMP JUMPDEST SWAP1 POP SWAP3 SWAP2 POP POP JUMP JUMPDEST PUSH1 0x0 PUSH1 0x40 DUP3 ADD SWAP1 POP DUP2 DUP2 SUB PUSH1 0x0 DUP4 ADD MSTORE PUSH2 0x8E3 DUP2 DUP6 PUSH2 0x617 JUMP JUMPDEST SWAP1 POP PUSH2 0x8F2 PUSH1 0x20 DUP4 ADD DUP5 PUSH2 0x87D JUMP JUMPDEST SWAP4 SWAP3 POP POP POP JUMP JUMPDEST PUSH32 0x4E487B7100000000000000000000000000000000000000000000000000000000 PUSH1 0x0 MSTORE PUSH1 0x22 PUSH1 0x4 MSTORE PUSH1 0x24 PUSH1 0x0 REVERT JUMPDEST PUSH1 0x0 PUSH1 0x2 DUP3 DIV SWAP1 POP PUSH1 0x1 DUP3 AND DUP1 PUSH2 0x940 JUMPI PUSH1 0x7F DUP3 AND SWAP2 POP JUMPDEST PUSH1 0x20 DUP3 LT DUP2 SUB PUSH2 0x953 JUMPI PUSH2 0x952 PUSH2 0x8F9 JUMP JUMPDEST JUMPDEST POP SWAP2 SWAP1 POP JUMP JUMPDEST PUSH1 0x0 DUP2 SWAP1 POP DUP2 PUSH1 0x0 MSTORE PUSH1 0x20 PUSH1 0x0 KECCAK256 SWAP1 POP SWAP2 SWAP1 POP JUMP JUMPDEST PUSH1 0x0 PUSH1 0x20 PUSH1 0x1F DUP4 ADD DIV SWAP1 POP SWAP2 SWAP1 POP JUMP JUMPDEST PUSH1 0x0 DUP3 DUP3 SHL SWAP1 POP SWAP3 SWAP2 POP POP JUMP JUMPDEST PUSH1 0x0 PUSH1 0x8 DUP4 MUL PUSH2 0x9BB PUSH32 0xFFFFFFFFFFFFFFFFFFFFFFFFFFFFFFFFFFFFFFFFFFFFFFFFFFFFFFFFFFFFFFFF DUP3 PUSH2 0x97E JUMP JUMPDEST PUSH2 0x9C5 DUP7 DUP4 PUSH2 0x97E JUMP JUMPDEST SWAP6 POP DUP1 NOT DUP5 AND SWAP4 POP DUP1 DUP7 AND DUP5 OR SWAP3 POP POP POP SWAP4 SWAP3 POP POP POP JUMP JUMPDEST PUSH1 0x0 DUP2 SWAP1 POP SWAP2 SWAP1 POP JUMP JUMPDEST PUSH1 0x0 PUSH2 0xA02 PUSH2 0x9FD PUSH2 0x9F8 DUP5 PUSH2 0x55D JUMP JUMPDEST PUSH2 0x9DD JUMP JUMPDEST PUSH2 0x55D JUMP JUMPDEST SWAP1 POP SWAP2 SWAP1 POP JUMP JUMPDEST PUSH1 0x0 DUP2 SWAP1 POP SWAP2 SWAP1 POP JUMP JUMPDEST PUSH2 0xA1C DUP4 PUSH2 0x9E7 JUMP JUMPDEST PUSH2 0xA30 PUSH2 0xA28 DUP3 PUSH2 0xA09 JUMP JUMPDEST DUP5 DUP5 SLOAD PUSH2 0x98B JUMP JUMPDEST DUP3 SSTORE POP POP POP POP JUMP JUMPDEST PUSH1 0x0 SWAP1 JUMP JUMPDEST PUSH2 0xA45 PUSH2 0xA38 JUMP JUMPDEST PUSH2 0xA50 DUP2 DUP5 DUP5 PUSH2 0xA13 JUMP JUMPDEST POP POP POP JUMP JUMPDEST JUMPDEST DUP2 DUP2 LT ISZERO PUSH2 0xA74 JUMPI PUSH2 0xA69 PUSH1 0x0 DUP3 PUSH2 0xA3D JUMP JUMPDEST PUSH1 0x1 DUP2 ADD SWAP1 POP PUSH2 0xA56 JUMP JUMPDEST POP POP JUMP JUMPDEST PUSH1 0x1F DUP3 GT ISZERO PUSH2 0xAB9 JUMPI PUSH2 0xA8A DUP2 PUSH2 0x959 JUMP JUMPDEST PUSH2 0xA93 DUP5 PUSH2 0x96E JUMP JUMPDEST DUP2 ADD PUSH1 0x20 DUP6 LT ISZERO PUSH2 0xAA2 JUMPI DUP2 SWAP1 POP JUMPDEST PUSH2 0xAB6 PUSH2 0xAAE DUP6 PUSH2 0x96E JUMP JUMPDEST DUP4 ADD DUP3 PUSH2 0xA55 JUMP JUMPDEST POP POP JUMPDEST POP POP POP JUMP JUMPDEST PUSH1 0x0 DUP3 DUP3 SHR SWAP1 POP SWAP3 SWAP2 POP POP JUMP JUMPDEST PUSH1 0x0 PUSH2 0xADC PUSH1 0x0 NOT DUP5 PUSH1 0x8 MUL PUSH2 0xABE JUMP JUMPDEST NOT DUP1 DUP4 AND SWAP2 POP POP SWAP3 SWAP2 POP POP JUMP JUMPDEST PUSH1 0x0 PUSH2 0xAF5 DUP4 DUP4 PUSH2 0xACB JUMP JUMPDEST SWAP2 POP DUP3 PUSH1 0x2 MUL DUP3 OR SWAP1 POP SWAP3 SWAP2 POP POP JUMP JUMPDEST PUSH2 0xB0E DUP3 PUSH2 0x5C0 JUMP JUMPDEST PUSH8 0xFFFFFFFFFFFFFFFF DUP2 GT ISZERO PUSH2 0xB27 JUMPI PUSH2 0xB26 PUSH2 0x691 JUMP JUMPDEST JUMPDEST PUSH2 0xB31 DUP3 SLOAD PUSH2 0x928 JUMP JUMPDEST PUSH2 0xB3C DUP3 DUP3 DUP6 PUSH2 0xA78 JUMP JUMPDEST PUSH1 0x0 PUSH1 0x20 SWAP1 POP PUSH1 0x1F DUP4 GT PUSH1 0x1 DUP2 EQ PUSH2 0xB6F JUMPI PUSH1 0x0 DUP5 ISZERO PUSH2 0xB5D JUMPI DUP3 DUP8 ADD MLOAD SWAP1 POP JUMPDEST PUSH2 0xB67 DUP6 DUP3 PUSH2 0xAE9 JUMP JUMPDEST DUP7 SSTORE POP PUSH2 0xBCF JUMP JUMPDEST PUSH1 0x1F NOT DUP5 AND PUSH2 0xB7D DUP7 PUSH2 0x959 JUMP JUMPDEST PUSH1 0x0 JUMPDEST DUP3 DUP2 LT ISZERO PUSH2 0xBA5 JUMPI DUP5 DUP10 ADD MLOAD DUP3 SSTORE PUSH1 0x1 DUP3 ADD SWAP2 POP PUSH1 0x20 DUP6 ADD SWAP5 POP PUSH1 0x20 DUP2 ADD SWAP1 POP PUSH2 0xB80 JUMP JUMPDEST DUP7 DUP4 LT ISZERO PUSH2 0xBC2 JUMPI DUP5 DUP10 ADD MLOAD PUSH2 0xBBE PUSH1 0x1F DUP10 AND DUP3 PUSH2 0xACB JUMP JUMPDEST DUP4 SSTORE POP JUMPDEST PUSH1 0x1 PUSH1 0x2 DUP9 MUL ADD DUP9 SSTORE POP POP POP JUMPDEST POP POP POP POP POP POP JUMP JUMPDEST PUSH1 0x0 DUP2 SWAP1 POP SWAP3 SWAP2 POP POP JUMP JUMPDEST PUSH1 0x0 PUSH2 0xBED DUP3 PUSH2 0x5C0 JUMP JUMPDEST PUSH2 0xBF7 DUP2 DUP6 PUSH2 0xBD7 JUMP JUMPDEST SWAP4 POP PUSH2 0xC07 DUP2 DUP6 PUSH1 0x20 DUP7 ADD PUSH2 0x5DC JUMP JUMPDEST DUP1 DUP5 ADD SWAP2 POP POP SWAP3 SWAP2 POP POP JUMP JUMPDEST PUSH1 0x0 PUSH2 0xC1F DUP3 DUP5 PUSH2 0xBE2 JUMP JUMPDEST SWAP2 POP DUP2 SWAP1 POP SWAP3 SWAP2 POP POP JUMP INVALID LOG2 PUSH5 0x6970667358 0x22 SLT KECCAK256 SGT SLOAD PUSH5 0xC12BD1DA6B 0x2E 0xF7 KECCAK256 0xBF 0xDA LT 0xE0 0x5F MSIZE 0xB2 JUMPDEST 0xDD 0x29 CALLDATACOPY MSIZE 0xC7 SIGNEXTEND PUSH3 0xF31111 0xF6 0xED TIMESTAMP PUSH5 0x736F6C6343 STOP ADDMOD SLT STOP CALLER "
				},
				"gasEstimates": {
					"creation": {
						"codeDepositCost": "633600",
						"executionCost": "infinite",
						"totalCost": "infinite"
					},
					"external": {
						"NigeriaHouses(uint256)": "infinite",
						"YorubaGreeting()": "infinite",
						"getHouse(string,string)": "infinite",
						"greetsMe(string)": "infinite",
						"houseMaps(string)": "infinite",
						"sayHello()": "infinite"
					},
					"internal": {
						"_sayHellos(string memory)": "infinite"
					}
				},
				"methodIdentifiers": {
					"NigeriaHouses(uint256)": "6edc4186",
					"YorubaGreeting()": "f14977f5",
					"getHouse(string,string)": "96c8ce48",
					"greetsMe(string)": "9b8be313",
					"houseMaps(string)": "a66a8e82",
					"sayHello()": "ef5fb05b"
				}
			},
			"storageLayout": {
				"storage": [
					{
						"astId": 61,
						"contract": "contracts/zombies.sol:getterFunction",
						"label": "greetsMe",
						"offset": 0,
						"slot": "0",
						"type": "t_mapping(t_string_memory_ptr,t_uint256)"
					},
					{
						"astId": 73,
						"contract": "contracts/zombies.sol:getterFunction",
						"label": "YorubaGreeting",
						"offset": 0,
						"slot": "1",
						"type": "t_struct(howGreetings)66_storage"
					},
					{
						"astId": 82,
						"contract": "contracts/zombies.sol:getterFunction",
						"label": "NigeriaHouses",
						"offset": 0,
						"slot": "3",
						"type": "t_array(t_struct(Houses)78_storage)dyn_storage"
					},
					{
						"astId": 86,
						"contract": "contracts/zombies.sol:getterFunction",
						"label": "houseMaps",
						"offset": 0,
						"slot": "4",
						"type": "t_mapping(t_string_memory_ptr,t_string_storage)"
					},
					{
						"astId": 117,
						"contract": "contracts/zombies.sol:getterFunction",
						"label": "greetings",
						"offset": 0,
						"slot": "5",
						"type": "t_string_storage"
					}
				],
				"types": {
					"t_array(t_struct(Houses)78_storage)dyn_storage": {
						"base": "t_struct(Houses)78_storage",
						"encoding": "dynamic_array",
						"label": "struct getterFunction.Houses[]",
						"numberOfBytes": "32"
					},
					"t_mapping(t_string_memory_ptr,t_string_storage)": {
						"encoding": "mapping",
						"key": "t_string_memory_ptr",
						"label": "mapping(string => string)",
						"numberOfBytes": "32",
						"value": "t_string_storage"
					},
					"t_mapping(t_string_memory_ptr,t_uint256)": {
						"encoding": "mapping",
						"key": "t_string_memory_ptr",
						"label": "mapping(string => uint256)",
						"numberOfBytes": "32",
						"value": "t_uint256"
					},
					"t_string_memory_ptr": {
						"encoding": "bytes",
						"label": "string",
						"numberOfBytes": "32"
					},
					"t_string_storage": {
						"encoding": "bytes",
						"label": "string",
						"numberOfBytes": "32"
					},
					"t_struct(Houses)78_storage": {
						"encoding": "inplace",
						"label": "struct getterFunction.Houses",
						"members": [
							{
								"astId": 75,
								"contract": "contracts/zombies.sol:getterFunction",
								"label": "houseType",
								"offset": 0,
								"slot": "0",
								"type": "t_string_storage"
							},
							{
								"astId": 77,
								"contract": "contracts/zombies.sol:getterFunction",
								"label": "location",
								"offset": 0,
								"slot": "1",
								"type": "t_string_storage"
							}
						],
						"numberOfBytes": "64"
					},
					"t_struct(howGreetings)66_storage": {
						"encoding": "inplace",
						"label": "struct getterFunction.howGreetings",
						"members": [
							{
								"astId": 63,
								"contract": "contracts/zombies.sol:getterFunction",
								"label": "sound",
								"offset": 0,
								"slot": "0",
								"type": "t_string_storage"
							},
							{
								"astId": 65,
								"contract": "contracts/zombies.sol:getterFunction",
								"label": "times",
								"offset": 0,
								"slot": "1",
								"type": "t_uint256"
							}
						],
						"numberOfBytes": "64"
					},
					"t_uint256": {
						"encoding": "inplace",
						"label": "uint256",
						"numberOfBytes": "32"
					}
				}
			},
			"userdoc": {
				"kind": "user",
				"methods": {},
				"version": 1
			}
		}
	}
}