{
	"contracts/storage.sol": {
		"Adds": {
			"abi": [
				{
					"inputs": [
						{
							"internalType": "string",
							"name": "_name",
							"type": "string"
						},
						{
							"internalType": "uint256",
							"name": "_age",
							"type": "uint256"
						}
					],
					"name": "AddNewMember",
					"outputs": [],
					"stateMutability": "nonpayable",
					"type": "function"
				},
				{
					"inputs": [
						{
							"internalType": "string",
							"name": "_name",
							"type": "string"
						},
						{
							"internalType": "uint256",
							"name": "_numberOfPLayers",
							"type": "uint256"
						},
						{
							"internalType": "uint256",
							"name": "_avaerageAge",
							"type": "uint256"
						},
						{
							"internalType": "string",
							"name": "_jerseyType",
							"type": "string"
						}
					],
					"name": "AddNewTeam",
					"outputs": [],
					"stateMutability": "nonpayable",
					"type": "function"
				},
				{
					"inputs": [
						{
							"internalType": "string",
							"name": "_name",
							"type": "string"
						},
						{
							"internalType": "uint256",
							"name": "_year",
							"type": "uint256"
						}
					],
					"name": "AddSocials",
					"outputs": [],
					"stateMutability": "nonpayable",
					"type": "function"
				},
				{
					"inputs": [],
					"name": "Chelsea",
					"outputs": [
						{
							"internalType": "string",
							"name": "name",
							"type": "string"
						},
						{
							"internalType": "uint256",
							"name": "numberOfPLayers",
							"type": "uint256"
						},
						{
							"internalType": "uint256",
							"name": "averageAge",
							"type": "uint256"
						},
						{
							"internalType": "string",
							"name": "jerseyType",
							"type": "string"
						}
					],
					"stateMutability": "view",
					"type": "function"
				},
				{
					"inputs": [],
					"name": "Rangers",
					"outputs": [
						{
							"internalType": "string",
							"name": "name",
							"type": "string"
						},
						{
							"internalType": "uint256",
							"name": "numberOfPLayers",
							"type": "uint256"
						},
						{
							"internalType": "uint256",
							"name": "averageAge",
							"type": "uint256"
						},
						{
							"internalType": "string",
							"name": "jerseyType",
							"type": "string"
						}
					],
					"stateMutability": "view",
					"type": "function"
				},
				{
					"inputs": [
						{
							"internalType": "uint256",
							"name": "",
							"type": "uint256"
						}
					],
					"name": "club",
					"outputs": [
						{
							"internalType": "string",
							"name": "name",
							"type": "string"
						},
						{
							"internalType": "uint256",
							"name": "age",
							"type": "uint256"
						}
					],
					"stateMutability": "view",
					"type": "function"
				},
				{
					"inputs": [
						{
							"internalType": "string",
							"name": "",
							"type": "string"
						}
					],
					"name": "name2FavNumber",
					"outputs": [
						{
							"internalType": "uint256",
							"name": "",
							"type": "uint256"
						}
					],
					"stateMutability": "view",
					"type": "function"
				},
				{
					"inputs": [
						{
							"internalType": "string",
							"name": "",
							"type": "string"
						}
					],
					"name": "nameToAge",
					"outputs": [
						{
							"internalType": "uint256",
							"name": "",
							"type": "uint256"
						}
					],
					"stateMutability": "view",
					"type": "function"
				},
				{
					"inputs": [
						{
							"internalType": "string",
							"name": "",
							"type": "string"
						}
					],
					"name": "nameToJerseyType",
					"outputs": [
						{
							"internalType": "string",
							"name": "",
							"type": "string"
						}
					],
					"stateMutability": "view",
					"type": "function"
				},
				{
					"inputs": [
						{
							"internalType": "string",
							"name": "",
							"type": "string"
						}
					],
					"name": "nameToYearMaps",
					"outputs": [
						{
							"internalType": "uint256",
							"name": "",
							"type": "uint256"
						}
					],
					"stateMutability": "view",
					"type": "function"
				},
				{
					"inputs": [
						{
							"internalType": "uint256",
							"name": "",
							"type": "uint256"
						}
					],
					"name": "socialMedia",
					"outputs": [
						{
							"internalType": "string",
							"name": "name",
							"type": "string"
						},
						{
							"internalType": "uint256",
							"name": "year",
							"type": "uint256"
						}
					],
					"stateMutability": "view",
					"type": "function"
				},
				{
					"inputs": [
						{
							"internalType": "uint256",
							"name": "",
							"type": "uint256"
						}
					],
					"name": "teams",
					"outputs": [
						{
							"internalType": "string",
							"name": "name",
							"type": "string"
						},
						{
							"internalType": "uint256",
							"name": "numberOfPLayers",
							"type": "uint256"
						},
						{
							"internalType": "uint256",
							"name": "averageAge",
							"type": "uint256"
						},
						{
							"internalType": "string",
							"name": "jerseyType",
							"type": "string"
						}
					],
					"stateMutability": "view",
					"type": "function"
				}
			],
			"devdoc": {
				"kind": "dev",
				"methods": {},
				"version": 1
			},
			"evm": {
				"assembly": "    /* \"contracts/storage.sol\":990:2724  contract Adds {... */\n  mstore(0x40, 0x80)\n    /* \"contracts/storage.sol\":1470:1474  1998 */\n  0x07ce\n    /* \"contracts/storage.sol\":1452:1474  uint256 numbers = 1998 */\n  0x03\n  sstore\n    /* \"contracts/storage.sol\":1977:2063  footballTeam({name:\"Rangers\", numberOfPLayers:23, averageAge:20, jerseyType:\"Yellow\"}) */\n  mload(0x40)\n  dup1\n  0x80\n  add\n  0x40\n  mstore\n  dup1\n  mload(0x40)\n  dup1\n  0x40\n  add\n  0x40\n  mstore\n  dup1\n  0x07\n  dup2\n  mstore\n  0x20\n  add\n  0x52616e6765727300000000000000000000000000000000000000000000000000\n  dup2\n  mstore\n  pop\n  dup2\n  mstore\n  0x20\n  add\n    /* \"contracts/storage.sol\":2023:2025  23 */\n  0x17\n    /* \"contracts/storage.sol\":1977:2063  footballTeam({name:\"Rangers\", numberOfPLayers:23, averageAge:20, jerseyType:\"Yellow\"}) */\n  dup2\n  mstore\n  0x20\n  add\n    /* \"contracts/storage.sol\":2038:2040  20 */\n  0x14\n    /* \"contracts/storage.sol\":1977:2063  footballTeam({name:\"Rangers\", numberOfPLayers:23, averageAge:20, jerseyType:\"Yellow\"}) */\n  dup2\n  mstore\n  0x20\n  add\n  mload(0x40)\n  dup1\n  0x40\n  add\n  0x40\n  mstore\n  dup1\n  0x06\n  dup2\n  mstore\n  0x20\n  add\n  0x59656c6c6f770000000000000000000000000000000000000000000000000000\n  dup2\n  mstore\n  pop\n  dup2\n  mstore\n  pop\n    /* \"contracts/storage.sol\":1947:2063  footballTeam public Rangers = footballTeam({name:\"Rangers\", numberOfPLayers:23, averageAge:20, jerseyType:\"Yellow\"}) */\n  0x06\n  0x00\n  dup3\n  add\n  mload\n  dup2\n  0x00\n  add\n  swap1\n  dup2\n  tag_1\n  swap2\n  swap1\n  tag_2\n  jump\t// in\ntag_1:\n  pop\n  0x20\n  dup3\n  add\n  mload\n  dup2\n  0x01\n  add\n  sstore\n  0x40\n  dup3\n  add\n  mload\n  dup2\n  0x02\n  add\n  sstore\n  0x60\n  dup3\n  add\n  mload\n  dup2\n  0x03\n  add\n  swap1\n  dup2\n  tag_3\n  swap2\n  swap1\n  tag_2\n  jump\t// in\ntag_3:\n  pop\n  pop\n  pop\n    /* \"contracts/storage.sol\":2099:2183  footballTeam({name:\"Chelsea\", numberOfPLayers:45, averageAge:23, jerseyType:\"Blue\"}) */\n  mload(0x40)\n  dup1\n  0x80\n  add\n  0x40\n  mstore\n  dup1\n  mload(0x40)\n  dup1\n  0x40\n  add\n  0x40\n  mstore\n  dup1\n  0x07\n  dup2\n  mstore\n  0x20\n  add\n  0x4368656c73656100000000000000000000000000000000000000000000000000\n  dup2\n  mstore\n  pop\n  dup2\n  mstore\n  0x20\n  add\n    /* \"contracts/storage.sol\":2145:2147  45 */\n  0x2d\n    /* \"contracts/storage.sol\":2099:2183  footballTeam({name:\"Chelsea\", numberOfPLayers:45, averageAge:23, jerseyType:\"Blue\"}) */\n  dup2\n  mstore\n  0x20\n  add\n    /* \"contracts/storage.sol\":2160:2162  23 */\n  0x17\n    /* \"contracts/storage.sol\":2099:2183  footballTeam({name:\"Chelsea\", numberOfPLayers:45, averageAge:23, jerseyType:\"Blue\"}) */\n  dup2\n  mstore\n  0x20\n  add\n  mload(0x40)\n  dup1\n  0x40\n  add\n  0x40\n  mstore\n  dup1\n  0x04\n  dup2\n  mstore\n  0x20\n  add\n  0x426c756500000000000000000000000000000000000000000000000000000000\n  dup2\n  mstore\n  pop\n  dup2\n  mstore\n  pop\n    /* \"contracts/storage.sol\":2069:2183  footballTeam public Chelsea = footballTeam({name:\"Chelsea\", numberOfPLayers:45, averageAge:23, jerseyType:\"Blue\"}) */\n  0x0a\n  0x00\n  dup3\n  add\n  mload\n  dup2\n  0x00\n  add\n  swap1\n  dup2\n  tag_4\n  swap2\n  swap1\n  tag_2\n  jump\t// in\ntag_4:\n  pop\n  0x20\n  dup3\n  add\n  mload\n  dup2\n  0x01\n  add\n  sstore\n  0x40\n  dup3\n  add\n  mload\n  dup2\n  0x02\n  add\n  sstore\n  0x60\n  dup3\n  add\n  mload\n  dup2\n  0x03\n  add\n  swap1\n  dup2\n  tag_5\n  swap2\n  swap1\n  tag_2\n  jump\t// in\ntag_5:\n  pop\n  pop\n  pop\n    /* \"contracts/storage.sol\":990:2724  contract Adds {... */\n  callvalue\n  dup1\n  iszero\n  tag_6\n  jumpi\n  0x00\n  dup1\n  revert\ntag_6:\n  pop\n  jump(tag_7)\n    /* \"#utility.yul\":7:106   */\ntag_8:\n    /* \"#utility.yul\":59:65   */\n  0x00\n    /* \"#utility.yul\":93:98   */\n  dup2\n    /* \"#utility.yul\":87:99   */\n  mload\n    /* \"#utility.yul\":77:99   */\n  swap1\n  pop\n    /* \"#utility.yul\":7:106   */\n  swap2\n  swap1\n  pop\n  jump\t// out\n    /* \"#utility.yul\":112:292   */\ntag_9:\n    /* \"#utility.yul\":160:237   */\n  0x4e487b7100000000000000000000000000000000000000000000000000000000\n    /* \"#utility.yul\":157:158   */\n  0x00\n    /* \"#utility.yul\":150:238   */\n  mstore\n    /* \"#utility.yul\":257:261   */\n  0x41\n    /* \"#utility.yul\":254:255   */\n  0x04\n    /* \"#utility.yul\":247:262   */\n  mstore\n    /* \"#utility.yul\":281:285   */\n  0x24\n    /* \"#utility.yul\":278:279   */\n  0x00\n    /* \"#utility.yul\":271:286   */\n  revert\n    /* \"#utility.yul\":298:478   */\ntag_10:\n    /* \"#utility.yul\":346:423   */\n  0x4e487b7100000000000000000000000000000000000000000000000000000000\n    /* \"#utility.yul\":343:344   */\n  0x00\n    /* \"#utility.yul\":336:424   */\n  mstore\n    /* \"#utility.yul\":443:447   */\n  0x22\n    /* \"#utility.yul\":440:441   */\n  0x04\n    /* \"#utility.yul\":433:448   */\n  mstore\n    /* \"#utility.yul\":467:471   */\n  0x24\n    /* \"#utility.yul\":464:465   */\n  0x00\n    /* \"#utility.yul\":457:472   */\n  revert\n    /* \"#utility.yul\":484:804   */\ntag_11:\n    /* \"#utility.yul\":528:534   */\n  0x00\n    /* \"#utility.yul\":565:566   */\n  0x02\n    /* \"#utility.yul\":559:563   */\n  dup3\n    /* \"#utility.yul\":555:567   */\n  div\n    /* \"#utility.yul\":545:567   */\n  swap1\n  pop\n    /* \"#utility.yul\":612:613   */\n  0x01\n    /* \"#utility.yul\":606:610   */\n  dup3\n    /* \"#utility.yul\":602:614   */\n  and\n    /* \"#utility.yul\":633:651   */\n  dup1\n    /* \"#utility.yul\":623:704   */\n  tag_33\n  jumpi\n    /* \"#utility.yul\":689:693   */\n  0x7f\n    /* \"#utility.yul\":681:687   */\n  dup3\n    /* \"#utility.yul\":677:694   */\n  and\n    /* \"#utility.yul\":667:694   */\n  swap2\n  pop\n    /* \"#utility.yul\":623:704   */\ntag_33:\n    /* \"#utility.yul\":751:753   */\n  0x20\n    /* \"#utility.yul\":743:749   */\n  dup3\n    /* \"#utility.yul\":740:754   */\n  lt\n    /* \"#utility.yul\":720:738   */\n  dup2\n    /* \"#utility.yul\":717:755   */\n  sub\n    /* \"#utility.yul\":714:798   */\n  tag_34\n  jumpi\n    /* \"#utility.yul\":770:788   */\n  tag_35\n  tag_10\n  jump\t// in\ntag_35:\n    /* \"#utility.yul\":714:798   */\ntag_34:\n    /* \"#utility.yul\":535:804   */\n  pop\n    /* \"#utility.yul\":484:804   */\n  swap2\n  swap1\n  pop\n  jump\t// out\n    /* \"#utility.yul\":810:951   */\ntag_12:\n    /* \"#utility.yul\":859:863   */\n  0x00\n    /* \"#utility.yul\":882:885   */\n  dup2\n    /* \"#utility.yul\":874:885   */\n  swap1\n  pop\n    /* \"#utility.yul\":905:908   */\n  dup2\n    /* \"#utility.yul\":902:903   */\n  0x00\n    /* \"#utility.yul\":895:909   */\n  mstore\n    /* \"#utility.yul\":939:943   */\n  0x20\n    /* \"#utility.yul\":936:937   */\n  0x00\n    /* \"#utility.yul\":926:944   */\n  keccak256\n    /* \"#utility.yul\":918:944   */\n  swap1\n  pop\n    /* \"#utility.yul\":810:951   */\n  swap2\n  swap1\n  pop\n  jump\t// out\n    /* \"#utility.yul\":957:1050   */\ntag_13:\n    /* \"#utility.yul\":994:1000   */\n  0x00\n    /* \"#utility.yul\":1041:1043   */\n  0x20\n    /* \"#utility.yul\":1036:1038   */\n  0x1f\n    /* \"#utility.yul\":1029:1034   */\n  dup4\n    /* \"#utility.yul\":1025:1039   */\n  add\n    /* \"#utility.yul\":1021:1044   */\n  div\n    /* \"#utility.yul\":1011:1044   */\n  swap1\n  pop\n    /* \"#utility.yul\":957:1050   */\n  swap2\n  swap1\n  pop\n  jump\t// out\n    /* \"#utility.yul\":1056:1163   */\ntag_14:\n    /* \"#utility.yul\":1100:1108   */\n  0x00\n    /* \"#utility.yul\":1150:1155   */\n  dup3\n    /* \"#utility.yul\":1144:1148   */\n  dup3\n    /* \"#utility.yul\":1140:1156   */\n  shl\n    /* \"#utility.yul\":1119:1156   */\n  swap1\n  pop\n    /* \"#utility.yul\":1056:1163   */\n  swap3\n  swap2\n  pop\n  pop\n  jump\t// out\n    /* \"#utility.yul\":1169:1562   */\ntag_15:\n    /* \"#utility.yul\":1238:1244   */\n  0x00\n    /* \"#utility.yul\":1288:1289   */\n  0x08\n    /* \"#utility.yul\":1276:1286   */\n  dup4\n    /* \"#utility.yul\":1272:1290   */\n  mul\n    /* \"#utility.yul\":1311:1408   */\n  tag_40\n    /* \"#utility.yul\":1341:1407   */\n  0xffffffffffffffffffffffffffffffffffffffffffffffffffffffffffffffff\n    /* \"#utility.yul\":1330:1339   */\n  dup3\n    /* \"#utility.yul\":1311:1408   */\n  tag_14\n  jump\t// in\ntag_40:\n    /* \"#utility.yul\":1429:1468   */\n  tag_41\n    /* \"#utility.yul\":1459:1467   */\n  dup7\n    /* \"#utility.yul\":1448:1457   */\n  dup4\n    /* \"#utility.yul\":1429:1468   */\n  tag_14\n  jump\t// in\ntag_41:\n    /* \"#utility.yul\":1417:1468   */\n  swap6\n  pop\n    /* \"#utility.yul\":1501:1505   */\n  dup1\n    /* \"#utility.yul\":1497:1506   */\n  not\n    /* \"#utility.yul\":1490:1495   */\n  dup5\n    /* \"#utility.yul\":1486:1507   */\n  and\n    /* \"#utility.yul\":1477:1507   */\n  swap4\n  pop\n    /* \"#utility.yul\":1550:1554   */\n  dup1\n    /* \"#utility.yul\":1540:1548   */\n  dup7\n    /* \"#utility.yul\":1536:1555   */\n  and\n    /* \"#utility.yul\":1529:1534   */\n  dup5\n    /* \"#utility.yul\":1526:1556   */\n  or\n    /* \"#utility.yul\":1516:1556   */\n  swap3\n  pop\n    /* \"#utility.yul\":1245:1562   */\n  pop\n  pop\n    /* \"#utility.yul\":1169:1562   */\n  swap4\n  swap3\n  pop\n  pop\n  pop\n  jump\t// out\n    /* \"#utility.yul\":1568:1645   */\ntag_16:\n    /* \"#utility.yul\":1605:1612   */\n  0x00\n    /* \"#utility.yul\":1634:1639   */\n  dup2\n    /* \"#utility.yul\":1623:1639   */\n  swap1\n  pop\n    /* \"#utility.yul\":1568:1645   */\n  swap2\n  swap1\n  pop\n  jump\t// out\n    /* \"#utility.yul\":1651:1711   */\ntag_17:\n    /* \"#utility.yul\":1679:1682   */\n  0x00\n    /* \"#utility.yul\":1700:1705   */\n  dup2\n    /* \"#utility.yul\":1693:1705   */\n  swap1\n  pop\n    /* \"#utility.yul\":1651:1711   */\n  swap2\n  swap1\n  pop\n  jump\t// out\n    /* \"#utility.yul\":1717:1859   */\ntag_18:\n    /* \"#utility.yul\":1767:1776   */\n  0x00\n    /* \"#utility.yul\":1800:1853   */\n  tag_45\n    /* \"#utility.yul\":1818:1852   */\n  tag_46\n    /* \"#utility.yul\":1827:1851   */\n  tag_47\n    /* \"#utility.yul\":1845:1850   */\n  dup5\n    /* \"#utility.yul\":1827:1851   */\n  tag_16\n  jump\t// in\ntag_47:\n    /* \"#utility.yul\":1818:1852   */\n  tag_17\n  jump\t// in\ntag_46:\n    /* \"#utility.yul\":1800:1853   */\n  tag_16\n  jump\t// in\ntag_45:\n    /* \"#utility.yul\":1787:1853   */\n  swap1\n  pop\n    /* \"#utility.yul\":1717:1859   */\n  swap2\n  swap1\n  pop\n  jump\t// out\n    /* \"#utility.yul\":1865:1940   */\ntag_19:\n    /* \"#utility.yul\":1908:1911   */\n  0x00\n    /* \"#utility.yul\":1929:1934   */\n  dup2\n    /* \"#utility.yul\":1922:1934   */\n  swap1\n  pop\n    /* \"#utility.yul\":1865:1940   */\n  swap2\n  swap1\n  pop\n  jump\t// out\n    /* \"#utility.yul\":1946:2215   */\ntag_20:\n    /* \"#utility.yul\":2056:2095   */\n  tag_50\n    /* \"#utility.yul\":2087:2094   */\n  dup4\n    /* \"#utility.yul\":2056:2095   */\n  tag_18\n  jump\t// in\ntag_50:\n    /* \"#utility.yul\":2117:2208   */\n  tag_51\n    /* \"#utility.yul\":2166:2207   */\n  tag_52\n    /* \"#utility.yul\":2190:2206   */\n  dup3\n    /* \"#utility.yul\":2166:2207   */\n  tag_19\n  jump\t// in\ntag_52:\n    /* \"#utility.yul\":2158:2164   */\n  dup5\n    /* \"#utility.yul\":2151:2155   */\n  dup5\n    /* \"#utility.yul\":2145:2156   */\n  sload\n    /* \"#utility.yul\":2117:2208   */\n  tag_15\n  jump\t// in\ntag_51:\n    /* \"#utility.yul\":2111:2115   */\n  dup3\n    /* \"#utility.yul\":2104:2209   */\n  sstore\n    /* \"#utility.yul\":2022:2215   */\n  pop\n    /* \"#utility.yul\":1946:2215   */\n  pop\n  pop\n  pop\n  jump\t// out\n    /* \"#utility.yul\":2221:2294   */\ntag_21:\n    /* \"#utility.yul\":2266:2269   */\n  0x00\n    /* \"#utility.yul\":2221:2294   */\n  swap1\n  jump\t// out\n    /* \"#utility.yul\":2300:2489   */\ntag_22:\n    /* \"#utility.yul\":2377:2409   */\n  tag_55\n  tag_21\n  jump\t// in\ntag_55:\n    /* \"#utility.yul\":2418:2483   */\n  tag_56\n    /* \"#utility.yul\":2476:2482   */\n  dup2\n    /* \"#utility.yul\":2468:2474   */\n  dup5\n    /* \"#utility.yul\":2462:2466   */\n  dup5\n    /* \"#utility.yul\":2418:2483   */\n  tag_20\n  jump\t// in\ntag_56:\n    /* \"#utility.yul\":2353:2489   */\n  pop\n    /* \"#utility.yul\":2300:2489   */\n  pop\n  pop\n  jump\t// out\n    /* \"#utility.yul\":2495:2681   */\ntag_23:\n    /* \"#utility.yul\":2555:2675   */\ntag_58:\n    /* \"#utility.yul\":2572:2575   */\n  dup2\n    /* \"#utility.yul\":2565:2570   */\n  dup2\n    /* \"#utility.yul\":2562:2576   */\n  lt\n    /* \"#utility.yul\":2555:2675   */\n  iszero\n  tag_60\n  jumpi\n    /* \"#utility.yul\":2626:2665   */\n  tag_61\n    /* \"#utility.yul\":2663:2664   */\n  0x00\n    /* \"#utility.yul\":2656:2661   */\n  dup3\n    /* \"#utility.yul\":2626:2665   */\n  tag_22\n  jump\t// in\ntag_61:\n    /* \"#utility.yul\":2599:2600   */\n  0x01\n    /* \"#utility.yul\":2592:2597   */\n  dup2\n    /* \"#utility.yul\":2588:2601   */\n  add\n    /* \"#utility.yul\":2579:2601   */\n  swap1\n  pop\n    /* \"#utility.yul\":2555:2675   */\n  jump(tag_58)\ntag_60:\n    /* \"#utility.yul\":2495:2681   */\n  pop\n  pop\n  jump\t// out\n    /* \"#utility.yul\":2687:3230   */\ntag_24:\n    /* \"#utility.yul\":2788:2790   */\n  0x1f\n    /* \"#utility.yul\":2783:2786   */\n  dup3\n    /* \"#utility.yul\":2780:2791   */\n  gt\n    /* \"#utility.yul\":2777:3223   */\n  iszero\n  tag_63\n  jumpi\n    /* \"#utility.yul\":2822:2860   */\n  tag_64\n    /* \"#utility.yul\":2854:2859   */\n  dup2\n    /* \"#utility.yul\":2822:2860   */\n  tag_12\n  jump\t// in\ntag_64:\n    /* \"#utility.yul\":2906:2935   */\n  tag_65\n    /* \"#utility.yul\":2924:2934   */\n  dup5\n    /* \"#utility.yul\":2906:2935   */\n  tag_13\n  jump\t// in\ntag_65:\n    /* \"#utility.yul\":2896:2904   */\n  dup2\n    /* \"#utility.yul\":2892:2936   */\n  add\n    /* \"#utility.yul\":3089:3091   */\n  0x20\n    /* \"#utility.yul\":3077:3087   */\n  dup6\n    /* \"#utility.yul\":3074:3092   */\n  lt\n    /* \"#utility.yul\":3071:3120   */\n  iszero\n  tag_66\n  jumpi\n    /* \"#utility.yul\":3110:3118   */\n  dup2\n    /* \"#utility.yul\":3095:3118   */\n  swap1\n  pop\n    /* \"#utility.yul\":3071:3120   */\ntag_66:\n    /* \"#utility.yul\":3133:3213   */\n  tag_67\n    /* \"#utility.yul\":3189:3211   */\n  tag_68\n    /* \"#utility.yul\":3207:3210   */\n  dup6\n    /* \"#utility.yul\":3189:3211   */\n  tag_13\n  jump\t// in\ntag_68:\n    /* \"#utility.yul\":3179:3187   */\n  dup4\n    /* \"#utility.yul\":3175:3212   */\n  add\n    /* \"#utility.yul\":3162:3173   */\n  dup3\n    /* \"#utility.yul\":3133:3213   */\n  tag_23\n  jump\t// in\ntag_67:\n    /* \"#utility.yul\":2792:3223   */\n  pop\n  pop\n    /* \"#utility.yul\":2777:3223   */\ntag_63:\n    /* \"#utility.yul\":2687:3230   */\n  pop\n  pop\n  pop\n  jump\t// out\n    /* \"#utility.yul\":3236:3353   */\ntag_25:\n    /* \"#utility.yul\":3290:3298   */\n  0x00\n    /* \"#utility.yul\":3340:3345   */\n  dup3\n    /* \"#utility.yul\":3334:3338   */\n  dup3\n    /* \"#utility.yul\":3330:3346   */\n  shr\n    /* \"#utility.yul\":3309:3346   */\n  swap1\n  pop\n    /* \"#utility.yul\":3236:3353   */\n  swap3\n  swap2\n  pop\n  pop\n  jump\t// out\n    /* \"#utility.yul\":3359:3528   */\ntag_26:\n    /* \"#utility.yul\":3403:3409   */\n  0x00\n    /* \"#utility.yul\":3436:3487   */\n  tag_71\n    /* \"#utility.yul\":3484:3485   */\n  0x00\n    /* \"#utility.yul\":3480:3486   */\n  not\n    /* \"#utility.yul\":3472:3477   */\n  dup5\n    /* \"#utility.yul\":3469:3470   */\n  0x08\n    /* \"#utility.yul\":3465:3478   */\n  mul\n    /* \"#utility.yul\":3436:3487   */\n  tag_25\n  jump\t// in\ntag_71:\n    /* \"#utility.yul\":3432:3488   */\n  not\n    /* \"#utility.yul\":3517:3521   */\n  dup1\n    /* \"#utility.yul\":3511:3515   */\n  dup4\n    /* \"#utility.yul\":3507:3522   */\n  and\n    /* \"#utility.yul\":3497:3522   */\n  swap2\n  pop\n    /* \"#utility.yul\":3410:3528   */\n  pop\n    /* \"#utility.yul\":3359:3528   */\n  swap3\n  swap2\n  pop\n  pop\n  jump\t// out\n    /* \"#utility.yul\":3533:3828   */\ntag_27:\n    /* \"#utility.yul\":3609:3613   */\n  0x00\n    /* \"#utility.yul\":3755:3784   */\n  tag_73\n    /* \"#utility.yul\":3780:3783   */\n  dup4\n    /* \"#utility.yul\":3774:3778   */\n  dup4\n    /* \"#utility.yul\":3755:3784   */\n  tag_26\n  jump\t// in\ntag_73:\n    /* \"#utility.yul\":3747:3784   */\n  swap2\n  pop\n    /* \"#utility.yul\":3817:3820   */\n  dup3\n    /* \"#utility.yul\":3814:3815   */\n  0x02\n    /* \"#utility.yul\":3810:3821   */\n  mul\n    /* \"#utility.yul\":3804:3808   */\n  dup3\n    /* \"#utility.yul\":3801:3822   */\n  or\n    /* \"#utility.yul\":3793:3822   */\n  swap1\n  pop\n    /* \"#utility.yul\":3533:3828   */\n  swap3\n  swap2\n  pop\n  pop\n  jump\t// out\n    /* \"#utility.yul\":3833:5228   */\ntag_2:\n    /* \"#utility.yul\":3950:3987   */\n  tag_75\n    /* \"#utility.yul\":3983:3986   */\n  dup3\n    /* \"#utility.yul\":3950:3987   */\n  tag_8\n  jump\t// in\ntag_75:\n    /* \"#utility.yul\":4052:4070   */\n  0xffffffffffffffff\n    /* \"#utility.yul\":4044:4050   */\n  dup2\n    /* \"#utility.yul\":4041:4071   */\n  gt\n    /* \"#utility.yul\":4038:4094   */\n  iszero\n  tag_76\n  jumpi\n    /* \"#utility.yul\":4074:4092   */\n  tag_77\n  tag_9\n  jump\t// in\ntag_77:\n    /* \"#utility.yul\":4038:4094   */\ntag_76:\n    /* \"#utility.yul\":4118:4156   */\n  tag_78\n    /* \"#utility.yul\":4150:4154   */\n  dup3\n    /* \"#utility.yul\":4144:4155   */\n  sload\n    /* \"#utility.yul\":4118:4156   */\n  tag_11\n  jump\t// in\ntag_78:\n    /* \"#utility.yul\":4203:4270   */\n  tag_79\n    /* \"#utility.yul\":4263:4269   */\n  dup3\n    /* \"#utility.yul\":4255:4261   */\n  dup3\n    /* \"#utility.yul\":4249:4253   */\n  dup6\n    /* \"#utility.yul\":4203:4270   */\n  tag_24\n  jump\t// in\ntag_79:\n    /* \"#utility.yul\":4297:4298   */\n  0x00\n    /* \"#utility.yul\":4321:4325   */\n  0x20\n    /* \"#utility.yul\":4308:4325   */\n  swap1\n  pop\n    /* \"#utility.yul\":4353:4355   */\n  0x1f\n    /* \"#utility.yul\":4345:4351   */\n  dup4\n    /* \"#utility.yul\":4342:4356   */\n  gt\n    /* \"#utility.yul\":4370:4371   */\n  0x01\n    /* \"#utility.yul\":4365:4983   */\n  dup2\n  eq\n  tag_81\n  jumpi\n    /* \"#utility.yul\":5027:5028   */\n  0x00\n    /* \"#utility.yul\":5044:5050   */\n  dup5\n    /* \"#utility.yul\":5041:5118   */\n  iszero\n  tag_82\n  jumpi\n    /* \"#utility.yul\":5093:5102   */\n  dup3\n    /* \"#utility.yul\":5088:5091   */\n  dup8\n    /* \"#utility.yul\":5084:5103   */\n  add\n    /* \"#utility.yul\":5078:5104   */\n  mload\n    /* \"#utility.yul\":5069:5104   */\n  swap1\n  pop\n    /* \"#utility.yul\":5041:5118   */\ntag_82:\n    /* \"#utility.yul\":5144:5211   */\n  tag_83\n    /* \"#utility.yul\":5204:5210   */\n  dup6\n    /* \"#utility.yul\":5197:5202   */\n  dup3\n    /* \"#utility.yul\":5144:5211   */\n  tag_27\n  jump\t// in\ntag_83:\n    /* \"#utility.yul\":5138:5142   */\n  dup7\n    /* \"#utility.yul\":5131:5212   */\n  sstore\n    /* \"#utility.yul\":5000:5222   */\n  pop\n    /* \"#utility.yul\":4335:5222   */\n  jump(tag_80)\n    /* \"#utility.yul\":4365:4983   */\ntag_81:\n    /* \"#utility.yul\":4417:4421   */\n  0x1f\n    /* \"#utility.yul\":4413:4422   */\n  not\n    /* \"#utility.yul\":4405:4411   */\n  dup5\n    /* \"#utility.yul\":4401:4423   */\n  and\n    /* \"#utility.yul\":4451:4488   */\n  tag_84\n    /* \"#utility.yul\":4483:4487   */\n  dup7\n    /* \"#utility.yul\":4451:4488   */\n  tag_12\n  jump\t// in\ntag_84:\n    /* \"#utility.yul\":4510:4511   */\n  0x00\n    /* \"#utility.yul\":4524:4732   */\ntag_85:\n    /* \"#utility.yul\":4538:4545   */\n  dup3\n    /* \"#utility.yul\":4535:4536   */\n  dup2\n    /* \"#utility.yul\":4532:4546   */\n  lt\n    /* \"#utility.yul\":4524:4732   */\n  iszero\n  tag_87\n  jumpi\n    /* \"#utility.yul\":4617:4626   */\n  dup5\n    /* \"#utility.yul\":4612:4615   */\n  dup10\n    /* \"#utility.yul\":4608:4627   */\n  add\n    /* \"#utility.yul\":4602:4628   */\n  mload\n    /* \"#utility.yul\":4594:4600   */\n  dup3\n    /* \"#utility.yul\":4587:4629   */\n  sstore\n    /* \"#utility.yul\":4668:4669   */\n  0x01\n    /* \"#utility.yul\":4660:4666   */\n  dup3\n    /* \"#utility.yul\":4656:4670   */\n  add\n    /* \"#utility.yul\":4646:4670   */\n  swap2\n  pop\n    /* \"#utility.yul\":4715:4717   */\n  0x20\n    /* \"#utility.yul\":4704:4713   */\n  dup6\n    /* \"#utility.yul\":4700:4718   */\n  add\n    /* \"#utility.yul\":4687:4718   */\n  swap5\n  pop\n    /* \"#utility.yul\":4561:4565   */\n  0x20\n    /* \"#utility.yul\":4558:4559   */\n  dup2\n    /* \"#utility.yul\":4554:4566   */\n  add\n    /* \"#utility.yul\":4549:4566   */\n  swap1\n  pop\n    /* \"#utility.yul\":4524:4732   */\n  jump(tag_85)\ntag_87:\n    /* \"#utility.yul\":4760:4766   */\n  dup7\n    /* \"#utility.yul\":4751:4758   */\n  dup4\n    /* \"#utility.yul\":4748:4767   */\n  lt\n    /* \"#utility.yul\":4745:4924   */\n  iszero\n  tag_88\n  jumpi\n    /* \"#utility.yul\":4818:4827   */\n  dup5\n    /* \"#utility.yul\":4813:4816   */\n  dup10\n    /* \"#utility.yul\":4809:4828   */\n  add\n    /* \"#utility.yul\":4803:4829   */\n  mload\n    /* \"#utility.yul\":4861:4909   */\n  tag_89\n    /* \"#utility.yul\":4903:4907   */\n  0x1f\n    /* \"#utility.yul\":4895:4901   */\n  dup10\n    /* \"#utility.yul\":4891:4908   */\n  and\n    /* \"#utility.yul\":4880:4889   */\n  dup3\n    /* \"#utility.yul\":4861:4909   */\n  tag_26\n  jump\t// in\ntag_89:\n    /* \"#utility.yul\":4853:4859   */\n  dup4\n    /* \"#utility.yul\":4846:4910   */\n  sstore\n    /* \"#utility.yul\":4768:4924   */\n  pop\n    /* \"#utility.yul\":4745:4924   */\ntag_88:\n    /* \"#utility.yul\":4970:4971   */\n  0x01\n    /* \"#utility.yul\":4966:4967   */\n  0x02\n    /* \"#utility.yul\":4958:4964   */\n  dup9\n    /* \"#utility.yul\":4954:4968   */\n  mul\n    /* \"#utility.yul\":4950:4972   */\n  add\n    /* \"#utility.yul\":4944:4948   */\n  dup9\n    /* \"#utility.yul\":4937:4973   */\n  sstore\n    /* \"#utility.yul\":4372:4983   */\n  pop\n  pop\n  pop\n    /* \"#utility.yul\":4335:5222   */\ntag_80:\n  pop\n    /* \"#utility.yul\":3925:5228   */\n  pop\n  pop\n  pop\n    /* \"#utility.yul\":3833:5228   */\n  pop\n  pop\n  jump\t// out\n    /* \"contracts/storage.sol\":990:2724  contract Adds {... */\ntag_7:\n  dataSize(sub_0)\n  dup1\n  dataOffset(sub_0)\n  0x00\n  codecopy\n  0x00\n  return\nstop\n\nsub_0: assembly {\n        /* \"contracts/storage.sol\":990:2724  contract Adds {... */\n      mstore(0x40, 0x80)\n      callvalue\n      dup1\n      iszero\n      tag_1\n      jumpi\n      0x00\n      dup1\n      revert\n    tag_1:\n      pop\n      jumpi(tag_2, lt(calldatasize, 0x04))\n      shr(0xe0, calldataload(0x00))\n      dup1\n      0x554d5de7\n      gt\n      tag_15\n      jumpi\n      dup1\n      0x554d5de7\n      eq\n      tag_9\n      jumpi\n      dup1\n      0x6546e787\n      eq\n      tag_10\n      jumpi\n      dup1\n      0x90c3ee4d\n      eq\n      tag_11\n      jumpi\n      dup1\n      0x93090c21\n      eq\n      tag_12\n      jumpi\n      dup1\n      0xd8ad175f\n      eq\n      tag_13\n      jumpi\n      dup1\n      0xe4fa60a6\n      eq\n      tag_14\n      jumpi\n      jump(tag_2)\n    tag_15:\n      dup1\n      0x0f957756\n      eq\n      tag_3\n      jumpi\n      dup1\n      0x1f92c704\n      eq\n      tag_4\n      jumpi\n      dup1\n      0x22c8b94e\n      eq\n      tag_5\n      jumpi\n      dup1\n      0x273e2cc4\n      eq\n      tag_6\n      jumpi\n      dup1\n      0x35784ef1\n      eq\n      tag_7\n      jumpi\n      dup1\n      0x3ed2b77a\n      eq\n      tag_8\n      jumpi\n    tag_2:\n      0x00\n      dup1\n      revert\n        /* \"contracts/storage.sol\":1010:1059  mapping (string => uint256) public name2FavNumber */\n    tag_3:\n      tag_16\n      0x04\n      dup1\n      calldatasize\n      sub\n      dup2\n      add\n      swap1\n      tag_17\n      swap2\n      swap1\n      tag_18\n      jump\t// in\n    tag_17:\n      tag_19\n      jump\t// in\n    tag_16:\n      mload(0x40)\n      tag_20\n      swap2\n      swap1\n      tag_21\n      jump\t// in\n    tag_20:\n      mload(0x40)\n      dup1\n      swap2\n      sub\n      swap1\n      return\n        /* \"contracts/storage.sol\":1947:2063  footballTeam public Rangers = footballTeam({name:\"Rangers\", numberOfPLayers:23, averageAge:20, jerseyType:\"Yellow\"}) */\n    tag_4:\n      tag_22\n      tag_23\n      jump\t// in\n    tag_22:\n      mload(0x40)\n      tag_24\n      swap5\n      swap4\n      swap3\n      swap2\n      swap1\n      tag_25\n      jump\t// in\n    tag_24:\n      mload(0x40)\n      dup1\n      swap2\n      sub\n      swap1\n      return\n        /* \"contracts/storage.sol\":1616:1641  ClubMembers[] public club */\n    tag_5:\n      tag_26\n      0x04\n      dup1\n      calldatasize\n      sub\n      dup2\n      add\n      swap1\n      tag_27\n      swap2\n      swap1\n      tag_28\n      jump\t// in\n    tag_27:\n      tag_29\n      jump\t// in\n    tag_26:\n      mload(0x40)\n      tag_30\n      swap3\n      swap2\n      swap1\n      tag_31\n      jump\t// in\n    tag_30:\n      mload(0x40)\n      dup1\n      swap2\n      sub\n      swap1\n      return\n        /* \"contracts/storage.sol\":1171:1220  mapping (string => uint256) public nameToYearMaps */\n    tag_6:\n      tag_32\n      0x04\n      dup1\n      calldatasize\n      sub\n      dup2\n      add\n      swap1\n      tag_33\n      swap2\n      swap1\n      tag_18\n      jump\t// in\n    tag_33:\n      tag_34\n      jump\t// in\n    tag_32:\n      mload(0x40)\n      tag_35\n      swap2\n      swap1\n      tag_21\n      jump\t// in\n    tag_35:\n      mload(0x40)\n      dup1\n      swap2\n      sub\n      swap1\n      return\n        /* \"contracts/storage.sol\":2278:2721  function AddNewTeam (string memory _name, uint256 _numberOfPLayers, uint256 _avaerageAge, string memory _jerseyType) public {... */\n    tag_7:\n      tag_36\n      0x04\n      dup1\n      calldatasize\n      sub\n      dup2\n      add\n      swap1\n      tag_37\n      swap2\n      swap1\n      tag_38\n      jump\t// in\n    tag_37:\n      tag_39\n      jump\t// in\n    tag_36:\n      stop\n        /* \"contracts/storage.sol\":2190:2217  footballTeam[] public teams */\n    tag_8:\n      tag_40\n      0x04\n      dup1\n      calldatasize\n      sub\n      dup2\n      add\n      swap1\n      tag_41\n      swap2\n      swap1\n      tag_28\n      jump\t// in\n    tag_41:\n      tag_42\n      jump\t// in\n    tag_40:\n      mload(0x40)\n      tag_43\n      swap5\n      swap4\n      swap3\n      swap2\n      swap1\n      tag_25\n      jump\t// in\n    tag_43:\n      mload(0x40)\n      dup1\n      swap2\n      sub\n      swap1\n      return\n        /* \"contracts/storage.sol\":1137:1165  Socials[] public socialMedia */\n    tag_9:\n      tag_44\n      0x04\n      dup1\n      calldatasize\n      sub\n      dup2\n      add\n      swap1\n      tag_45\n      swap2\n      swap1\n      tag_28\n      jump\t// in\n    tag_45:\n      tag_46\n      jump\t// in\n    tag_44:\n      mload(0x40)\n      tag_47\n      swap3\n      swap2\n      swap1\n      tag_31\n      jump\t// in\n    tag_47:\n      mload(0x40)\n      dup1\n      swap2\n      sub\n      swap1\n      return\n        /* \"contracts/storage.sol\":1227:1446  function AddSocials (string memory _name, uint256 _year) public {... */\n    tag_10:\n      tag_48\n      0x04\n      dup1\n      calldatasize\n      sub\n      dup2\n      add\n      swap1\n      tag_49\n      swap2\n      swap1\n      tag_50\n      jump\t// in\n    tag_49:\n      tag_51\n      jump\t// in\n    tag_48:\n      stop\n        /* \"contracts/storage.sol\":1566:1609  mapping(string => uint256) public nameToAge */\n    tag_11:\n      tag_52\n      0x04\n      dup1\n      calldatasize\n      sub\n      dup2\n      add\n      swap1\n      tag_53\n      swap2\n      swap1\n      tag_18\n      jump\t// in\n    tag_53:\n      tag_54\n      jump\t// in\n    tag_52:\n      mload(0x40)\n      tag_55\n      swap2\n      swap1\n      tag_21\n      jump\t// in\n    tag_55:\n      mload(0x40)\n      dup1\n      swap2\n      sub\n      swap1\n      return\n        /* \"contracts/storage.sol\":2223:2272  mapping(string => string) public nameToJerseyType */\n    tag_12:\n      tag_56\n      0x04\n      dup1\n      calldatasize\n      sub\n      dup2\n      add\n      swap1\n      tag_57\n      swap2\n      swap1\n      tag_18\n      jump\t// in\n    tag_57:\n      tag_58\n      jump\t// in\n    tag_56:\n      mload(0x40)\n      tag_59\n      swap2\n      swap1\n      tag_60\n      jump\t// in\n    tag_59:\n      mload(0x40)\n      dup1\n      swap2\n      sub\n      swap1\n      return\n        /* \"contracts/storage.sol\":2069:2183  footballTeam public Chelsea = footballTeam({name:\"Chelsea\", numberOfPLayers:45, averageAge:23, jerseyType:\"Blue\"}) */\n    tag_13:\n      tag_61\n      tag_62\n      jump\t// in\n    tag_61:\n      mload(0x40)\n      tag_63\n      swap5\n      swap4\n      swap3\n      swap2\n      swap1\n      tag_25\n      jump\t// in\n    tag_63:\n      mload(0x40)\n      dup1\n      swap2\n      sub\n      swap1\n      return\n        /* \"contracts/storage.sol\":1648:1798  function AddNewMember (string memory _name, uint256 _age) public {... */\n    tag_14:\n      tag_64\n      0x04\n      dup1\n      calldatasize\n      sub\n      dup2\n      add\n      swap1\n      tag_65\n      swap2\n      swap1\n      tag_50\n      jump\t// in\n    tag_65:\n      tag_66\n      jump\t// in\n    tag_64:\n      stop\n        /* \"contracts/storage.sol\":1010:1059  mapping (string => uint256) public name2FavNumber */\n    tag_19:\n      0x00\n      dup2\n      dup1\n      mload\n      0x20\n      dup2\n      add\n      dup3\n      add\n      dup1\n      mload\n      dup5\n      dup3\n      mstore\n      0x20\n      dup4\n      add\n      0x20\n      dup6\n      add\n      keccak256\n      dup2\n      dup4\n      mstore\n      dup1\n      swap6\n      pop\n      pop\n      pop\n      pop\n      pop\n      pop\n      0x00\n      swap2\n      pop\n      swap1\n      pop\n      sload\n      dup2\n      jump\t// out\n        /* \"contracts/storage.sol\":1947:2063  footballTeam public Rangers = footballTeam({name:\"Rangers\", numberOfPLayers:23, averageAge:20, jerseyType:\"Yellow\"}) */\n    tag_23:\n      0x06\n      dup1\n      0x00\n      add\n      dup1\n      sload\n      tag_67\n      swap1\n      tag_68\n      jump\t// in\n    tag_67:\n      dup1\n      0x1f\n      add\n      0x20\n      dup1\n      swap2\n      div\n      mul\n      0x20\n      add\n      mload(0x40)\n      swap1\n      dup2\n      add\n      0x40\n      mstore\n      dup1\n      swap3\n      swap2\n      swap1\n      dup2\n      dup2\n      mstore\n      0x20\n      add\n      dup3\n      dup1\n      sload\n      tag_69\n      swap1\n      tag_68\n      jump\t// in\n    tag_69:\n      dup1\n      iszero\n      tag_70\n      jumpi\n      dup1\n      0x1f\n      lt\n      tag_71\n      jumpi\n      0x0100\n      dup1\n      dup4\n      sload\n      div\n      mul\n      dup4\n      mstore\n      swap2\n      0x20\n      add\n      swap2\n      jump(tag_70)\n    tag_71:\n      dup3\n      add\n      swap2\n      swap1\n      0x00\n      mstore\n      keccak256(0x00, 0x20)\n      swap1\n    tag_72:\n      dup2\n      sload\n      dup2\n      mstore\n      swap1\n      0x01\n      add\n      swap1\n      0x20\n      add\n      dup1\n      dup4\n      gt\n      tag_72\n      jumpi\n      dup3\n      swap1\n      sub\n      0x1f\n      and\n      dup3\n      add\n      swap2\n    tag_70:\n      pop\n      pop\n      pop\n      pop\n      pop\n      swap1\n      dup1\n      0x01\n      add\n      sload\n      swap1\n      dup1\n      0x02\n      add\n      sload\n      swap1\n      dup1\n      0x03\n      add\n      dup1\n      sload\n      tag_73\n      swap1\n      tag_68\n      jump\t// in\n    tag_73:\n      dup1\n      0x1f\n      add\n      0x20\n      dup1\n      swap2\n      div\n      mul\n      0x20\n      add\n      mload(0x40)\n      swap1\n      dup2\n      add\n      0x40\n      mstore\n      dup1\n      swap3\n      swap2\n      swap1\n      dup2\n      dup2\n      mstore\n      0x20\n      add\n      dup3\n      dup1\n      sload\n      tag_74\n      swap1\n      tag_68\n      jump\t// in\n    tag_74:\n      dup1\n      iszero\n      tag_75\n      jumpi\n      dup1\n      0x1f\n      lt\n      tag_76\n      jumpi\n      0x0100\n      dup1\n      dup4\n      sload\n      div\n      mul\n      dup4\n      mstore\n      swap2\n      0x20\n      add\n      swap2\n      jump(tag_75)\n    tag_76:\n      dup3\n      add\n      swap2\n      swap1\n      0x00\n      mstore\n      keccak256(0x00, 0x20)\n      swap1\n    tag_77:\n      dup2\n      sload\n      dup2\n      mstore\n      swap1\n      0x01\n      add\n      swap1\n      0x20\n      add\n      dup1\n      dup4\n      gt\n      tag_77\n      jumpi\n      dup3\n      swap1\n      sub\n      0x1f\n      and\n      dup3\n      add\n      swap2\n    tag_75:\n      pop\n      pop\n      pop\n      pop\n      pop\n      swap1\n      pop\n      dup5\n      jump\t// out\n        /* \"contracts/storage.sol\":1616:1641  ClubMembers[] public club */\n    tag_29:\n      0x05\n      dup2\n      dup2\n      sload\n      dup2\n      lt\n      tag_78\n      jumpi\n      0x00\n      dup1\n      revert\n    tag_78:\n      swap1\n      0x00\n      mstore\n      keccak256(0x00, 0x20)\n      swap1\n      0x02\n      mul\n      add\n      0x00\n      swap2\n      pop\n      swap1\n      pop\n      dup1\n      0x00\n      add\n      dup1\n      sload\n      tag_80\n      swap1\n      tag_68\n      jump\t// in\n    tag_80:\n      dup1\n      0x1f\n      add\n      0x20\n      dup1\n      swap2\n      div\n      mul\n      0x20\n      add\n      mload(0x40)\n      swap1\n      dup2\n      add\n      0x40\n      mstore\n      dup1\n      swap3\n      swap2\n      swap1\n      dup2\n      dup2\n      mstore\n      0x20\n      add\n      dup3\n      dup1\n      sload\n      tag_81\n      swap1\n      tag_68\n      jump\t// in\n    tag_81:\n      dup1\n      iszero\n      tag_82\n      jumpi\n      dup1\n      0x1f\n      lt\n      tag_83\n      jumpi\n      0x0100\n      dup1\n      dup4\n      sload\n      div\n      mul\n      dup4\n      mstore\n      swap2\n      0x20\n      add\n      swap2\n      jump(tag_82)\n    tag_83:\n      dup3\n      add\n      swap2\n      swap1\n      0x00\n      mstore\n      keccak256(0x00, 0x20)\n      swap1\n    tag_84:\n      dup2\n      sload\n      dup2\n      mstore\n      swap1\n      0x01\n      add\n      swap1\n      0x20\n      add\n      dup1\n      dup4\n      gt\n      tag_84\n      jumpi\n      dup3\n      swap1\n      sub\n      0x1f\n      and\n      dup3\n      add\n      swap2\n    tag_82:\n      pop\n      pop\n      pop\n      pop\n      pop\n      swap1\n      dup1\n      0x01\n      add\n      sload\n      swap1\n      pop\n      dup3\n      jump\t// out\n        /* \"contracts/storage.sol\":1171:1220  mapping (string => uint256) public nameToYearMaps */\n    tag_34:\n      0x02\n      dup2\n      dup1\n      mload\n      0x20\n      dup2\n      add\n      dup3\n      add\n      dup1\n      mload\n      dup5\n      dup3\n      mstore\n      0x20\n      dup4\n      add\n      0x20\n      dup6\n      add\n      keccak256\n      dup2\n      dup4\n      mstore\n      dup1\n      swap6\n      pop\n      pop\n      pop\n      pop\n      pop\n      pop\n      0x00\n      swap2\n      pop\n      swap1\n      pop\n      sload\n      dup2\n      jump\t// out\n        /* \"contracts/storage.sol\":2278:2721  function AddNewTeam (string memory _name, uint256 _numberOfPLayers, uint256 _avaerageAge, string memory _jerseyType) public {... */\n    tag_39:\n        /* \"contracts/storage.sol\":2499:2526  footballTeam memory newTeam */\n      0x00\n        /* \"contracts/storage.sol\":2529:2638  footballTeam({name:_name, numberOfPLayers:_numberOfPLayers, averageAge:_avaerageAge, jerseyType:_jerseyType}) */\n      mload(0x40)\n      dup1\n      0x80\n      add\n      0x40\n      mstore\n      dup1\n        /* \"contracts/storage.sol\":2548:2553  _name */\n      dup7\n        /* \"contracts/storage.sol\":2529:2638  footballTeam({name:_name, numberOfPLayers:_numberOfPLayers, averageAge:_avaerageAge, jerseyType:_jerseyType}) */\n      dup2\n      mstore\n      0x20\n      add\n        /* \"contracts/storage.sol\":2571:2587  _numberOfPLayers */\n      dup6\n        /* \"contracts/storage.sol\":2529:2638  footballTeam({name:_name, numberOfPLayers:_numberOfPLayers, averageAge:_avaerageAge, jerseyType:_jerseyType}) */\n      dup2\n      mstore\n      0x20\n      add\n        /* \"contracts/storage.sol\":2600:2612  _avaerageAge */\n      dup5\n        /* \"contracts/storage.sol\":2529:2638  footballTeam({name:_name, numberOfPLayers:_numberOfPLayers, averageAge:_avaerageAge, jerseyType:_jerseyType}) */\n      dup2\n      mstore\n      0x20\n      add\n        /* \"contracts/storage.sol\":2625:2636  _jerseyType */\n      dup4\n        /* \"contracts/storage.sol\":2529:2638  footballTeam({name:_name, numberOfPLayers:_numberOfPLayers, averageAge:_avaerageAge, jerseyType:_jerseyType}) */\n      dup2\n      mstore\n      pop\n        /* \"contracts/storage.sol\":2499:2638  footballTeam memory newTeam = footballTeam({name:_name, numberOfPLayers:_numberOfPLayers, averageAge:_avaerageAge, jerseyType:_jerseyType}) */\n      swap1\n      pop\n        /* \"contracts/storage.sol\":2648:2653  teams */\n      0x0e\n        /* \"contracts/storage.sol\":2659:2666  newTeam */\n      dup2\n        /* \"contracts/storage.sol\":2648:2667  teams.push(newTeam) */\n      swap1\n      dup1\n      0x01\n      dup2\n      sload\n      add\n      dup1\n      dup3\n      sstore\n      dup1\n      swap2\n      pop\n      pop\n      0x01\n      swap1\n      sub\n      swap1\n      0x00\n      mstore\n      keccak256(0x00, 0x20)\n      swap1\n      0x04\n      mul\n      add\n      0x00\n      swap1\n      swap2\n      swap1\n      swap2\n      swap1\n      swap2\n      pop\n      0x00\n      dup3\n      add\n      mload\n      dup2\n      0x00\n      add\n      swap1\n      dup2\n      tag_87\n      swap2\n      swap1\n      tag_88\n      jump\t// in\n    tag_87:\n      pop\n      0x20\n      dup3\n      add\n      mload\n      dup2\n      0x01\n      add\n      sstore\n      0x40\n      dup3\n      add\n      mload\n      dup2\n      0x02\n      add\n      sstore\n      0x60\n      dup3\n      add\n      mload\n      dup2\n      0x03\n      add\n      swap1\n      dup2\n      tag_89\n      swap2\n      swap1\n      tag_88\n      jump\t// in\n    tag_89:\n      pop\n      pop\n      pop\n        /* \"contracts/storage.sol\":2703:2714  _jerseyType */\n      dup2\n        /* \"contracts/storage.sol\":2677:2693  nameToJerseyType */\n      0x0f\n        /* \"contracts/storage.sol\":2694:2699  _name */\n      dup7\n        /* \"contracts/storage.sol\":2677:2700  nameToJerseyType[_name] */\n      mload(0x40)\n      tag_90\n      swap2\n      swap1\n      tag_91\n      jump\t// in\n    tag_90:\n      swap1\n      dup2\n      mstore\n      0x20\n      add\n      mload(0x40)\n      dup1\n      swap2\n      sub\n      swap1\n      keccak256\n        /* \"contracts/storage.sol\":2677:2714  nameToJerseyType[_name] = _jerseyType */\n      swap1\n      dup2\n      tag_92\n      swap2\n      swap1\n      tag_88\n      jump\t// in\n    tag_92:\n      pop\n        /* \"contracts/storage.sol\":2402:2721  {... */\n      pop\n        /* \"contracts/storage.sol\":2278:2721  function AddNewTeam (string memory _name, uint256 _numberOfPLayers, uint256 _avaerageAge, string memory _jerseyType) public {... */\n      pop\n      pop\n      pop\n      pop\n      jump\t// out\n        /* \"contracts/storage.sol\":2190:2217  footballTeam[] public teams */\n    tag_42:\n      0x0e\n      dup2\n      dup2\n      sload\n      dup2\n      lt\n      tag_93\n      jumpi\n      0x00\n      dup1\n      revert\n    tag_93:\n      swap1\n      0x00\n      mstore\n      keccak256(0x00, 0x20)\n      swap1\n      0x04\n      mul\n      add\n      0x00\n      swap2\n      pop\n      swap1\n      pop\n      dup1\n      0x00\n      add\n      dup1\n      sload\n      tag_95\n      swap1\n      tag_68\n      jump\t// in\n    tag_95:\n      dup1\n      0x1f\n      add\n      0x20\n      dup1\n      swap2\n      div\n      mul\n      0x20\n      add\n      mload(0x40)\n      swap1\n      dup2\n      add\n      0x40\n      mstore\n      dup1\n      swap3\n      swap2\n      swap1\n      dup2\n      dup2\n      mstore\n      0x20\n      add\n      dup3\n      dup1\n      sload\n      tag_96\n      swap1\n      tag_68\n      jump\t// in\n    tag_96:\n      dup1\n      iszero\n      tag_97\n      jumpi\n      dup1\n      0x1f\n      lt\n      tag_98\n      jumpi\n      0x0100\n      dup1\n      dup4\n      sload\n      div\n      mul\n      dup4\n      mstore\n      swap2\n      0x20\n      add\n      swap2\n      jump(tag_97)\n    tag_98:\n      dup3\n      add\n      swap2\n      swap1\n      0x00\n      mstore\n      keccak256(0x00, 0x20)\n      swap1\n    tag_99:\n      dup2\n      sload\n      dup2\n      mstore\n      swap1\n      0x01\n      add\n      swap1\n      0x20\n      add\n      dup1\n      dup4\n      gt\n      tag_99\n      jumpi\n      dup3\n      swap1\n      sub\n      0x1f\n      and\n      dup3\n      add\n      swap2\n    tag_97:\n      pop\n      pop\n      pop\n      pop\n      pop\n      swap1\n      dup1\n      0x01\n      add\n      sload\n      swap1\n      dup1\n      0x02\n      add\n      sload\n      swap1\n      dup1\n      0x03\n      add\n      dup1\n      sload\n      tag_100\n      swap1\n      tag_68\n      jump\t// in\n    tag_100:\n      dup1\n      0x1f\n      add\n      0x20\n      dup1\n      swap2\n      div\n      mul\n      0x20\n      add\n      mload(0x40)\n      swap1\n      dup2\n      add\n      0x40\n      mstore\n      dup1\n      swap3\n      swap2\n      swap1\n      dup2\n      dup2\n      mstore\n      0x20\n      add\n      dup3\n      dup1\n      sload\n      tag_101\n      swap1\n      tag_68\n      jump\t// in\n    tag_101:\n      dup1\n      iszero\n      tag_102\n      jumpi\n      dup1\n      0x1f\n      lt\n      tag_103\n      jumpi\n      0x0100\n      dup1\n      dup4\n      sload\n      div\n      mul\n      dup4\n      mstore\n      swap2\n      0x20\n      add\n      swap2\n      jump(tag_102)\n    tag_103:\n      dup3\n      add\n      swap2\n      swap1\n      0x00\n      mstore\n      keccak256(0x00, 0x20)\n      swap1\n    tag_104:\n      dup2\n      sload\n      dup2\n      mstore\n      swap1\n      0x01\n      add\n      swap1\n      0x20\n      add\n      dup1\n      dup4\n      gt\n      tag_104\n      jumpi\n      dup3\n      swap1\n      sub\n      0x1f\n      and\n      dup3\n      add\n      swap2\n    tag_102:\n      pop\n      pop\n      pop\n      pop\n      pop\n      swap1\n      pop\n      dup5\n      jump\t// out\n        /* \"contracts/storage.sol\":1137:1165  Socials[] public socialMedia */\n    tag_46:\n      0x01\n      dup2\n      dup2\n      sload\n      dup2\n      lt\n      tag_105\n      jumpi\n      0x00\n      dup1\n      revert\n    tag_105:\n      swap1\n      0x00\n      mstore\n      keccak256(0x00, 0x20)\n      swap1\n      0x02\n      mul\n      add\n      0x00\n      swap2\n      pop\n      swap1\n      pop\n      dup1\n      0x00\n      add\n      dup1\n      sload\n      tag_107\n      swap1\n      tag_68\n      jump\t// in\n    tag_107:\n      dup1\n      0x1f\n      add\n      0x20\n      dup1\n      swap2\n      div\n      mul\n      0x20\n      add\n      mload(0x40)\n      swap1\n      dup2\n      add\n      0x40\n      mstore\n      dup1\n      swap3\n      swap2\n      swap1\n      dup2\n      dup2\n      mstore\n      0x20\n      add\n      dup3\n      dup1\n      sload\n      tag_108\n      swap1\n      tag_68\n      jump\t// in\n    tag_108:\n      dup1\n      iszero\n      tag_109\n      jumpi\n      dup1\n      0x1f\n      lt\n      tag_110\n      jumpi\n      0x0100\n      dup1\n      dup4\n      sload\n      div\n      mul\n      dup4\n      mstore\n      swap2\n      0x20\n      add\n      swap2\n      jump(tag_109)\n    tag_110:\n      dup3\n      add\n      swap2\n      swap1\n      0x00\n      mstore\n      keccak256(0x00, 0x20)\n      swap1\n    tag_111:\n      dup2\n      sload\n      dup2\n      mstore\n      swap1\n      0x01\n      add\n      swap1\n      0x20\n      add\n      dup1\n      dup4\n      gt\n      tag_111\n      jumpi\n      dup3\n      swap1\n      sub\n      0x1f\n      and\n      dup3\n      add\n      swap2\n    tag_109:\n      pop\n      pop\n      pop\n      pop\n      pop\n      swap1\n      dup1\n      0x01\n      add\n      sload\n      swap1\n      pop\n      dup3\n      jump\t// out\n        /* \"contracts/storage.sol\":1227:1446  function AddSocials (string memory _name, uint256 _year) public {... */\n    tag_51:\n        /* \"contracts/storage.sol\":1302:1326  Socials memory newSocial */\n      0x00\n        /* \"contracts/storage.sol\":1329:1362  Socials({name:_name, year:_year}) */\n      mload(0x40)\n      dup1\n      0x40\n      add\n      0x40\n      mstore\n      dup1\n        /* \"contracts/storage.sol\":1343:1348  _name */\n      dup5\n        /* \"contracts/storage.sol\":1329:1362  Socials({name:_name, year:_year}) */\n      dup2\n      mstore\n      0x20\n      add\n        /* \"contracts/storage.sol\":1355:1360  _year */\n      dup4\n        /* \"contracts/storage.sol\":1329:1362  Socials({name:_name, year:_year}) */\n      dup2\n      mstore\n      pop\n        /* \"contracts/storage.sol\":1302:1362  Socials memory newSocial = Socials({name:_name, year:_year}) */\n      swap1\n      pop\n        /* \"contracts/storage.sol\":1372:1383  socialMedia */\n      0x01\n        /* \"contracts/storage.sol\":1389:1398  newSocial */\n      dup2\n        /* \"contracts/storage.sol\":1372:1399  socialMedia.push(newSocial) */\n      swap1\n      dup1\n      0x01\n      dup2\n      sload\n      add\n      dup1\n      dup3\n      sstore\n      dup1\n      swap2\n      pop\n      pop\n      0x01\n      swap1\n      sub\n      swap1\n      0x00\n      mstore\n      keccak256(0x00, 0x20)\n      swap1\n      0x02\n      mul\n      add\n      0x00\n      swap1\n      swap2\n      swap1\n      swap2\n      swap1\n      swap2\n      pop\n      0x00\n      dup3\n      add\n      mload\n      dup2\n      0x00\n      add\n      swap1\n      dup2\n      tag_114\n      swap2\n      swap1\n      tag_88\n      jump\t// in\n    tag_114:\n      pop\n      0x20\n      dup3\n      add\n      mload\n      dup2\n      0x01\n      add\n      sstore\n      pop\n      pop\n        /* \"contracts/storage.sol\":1433:1438  _year */\n      dup2\n        /* \"contracts/storage.sol\":1409:1423  nameToYearMaps */\n      0x02\n        /* \"contracts/storage.sol\":1424:1429  _name */\n      dup5\n        /* \"contracts/storage.sol\":1409:1430  nameToYearMaps[_name] */\n      mload(0x40)\n      tag_115\n      swap2\n      swap1\n      tag_91\n      jump\t// in\n    tag_115:\n      swap1\n      dup2\n      mstore\n      0x20\n      add\n      mload(0x40)\n      dup1\n      swap2\n      sub\n      swap1\n      keccak256\n        /* \"contracts/storage.sol\":1409:1438  nameToYearMaps[_name] = _year */\n      dup2\n      swap1\n      sstore\n      pop\n        /* \"contracts/storage.sol\":1291:1446  {... */\n      pop\n        /* \"contracts/storage.sol\":1227:1446  function AddSocials (string memory _name, uint256 _year) public {... */\n      pop\n      pop\n      jump\t// out\n        /* \"contracts/storage.sol\":1566:1609  mapping(string => uint256) public nameToAge */\n    tag_54:\n      0x04\n      dup2\n      dup1\n      mload\n      0x20\n      dup2\n      add\n      dup3\n      add\n      dup1\n      mload\n      dup5\n      dup3\n      mstore\n      0x20\n      dup4\n      add\n      0x20\n      dup6\n      add\n      keccak256\n      dup2\n      dup4\n      mstore\n      dup1\n      swap6\n      pop\n      pop\n      pop\n      pop\n      pop\n      pop\n      0x00\n      swap2\n      pop\n      swap1\n      pop\n      sload\n      dup2\n      jump\t// out\n        /* \"contracts/storage.sol\":2223:2272  mapping(string => string) public nameToJerseyType */\n    tag_58:\n      0x0f\n      dup2\n      dup1\n      mload\n      0x20\n      dup2\n      add\n      dup3\n      add\n      dup1\n      mload\n      dup5\n      dup3\n      mstore\n      0x20\n      dup4\n      add\n      0x20\n      dup6\n      add\n      keccak256\n      dup2\n      dup4\n      mstore\n      dup1\n      swap6\n      pop\n      pop\n      pop\n      pop\n      pop\n      pop\n      0x00\n      swap2\n      pop\n      swap1\n      pop\n      dup1\n      sload\n      tag_116\n      swap1\n      tag_68\n      jump\t// in\n    tag_116:\n      dup1\n      0x1f\n      add\n      0x20\n      dup1\n      swap2\n      div\n      mul\n      0x20\n      add\n      mload(0x40)\n      swap1\n      dup2\n      add\n      0x40\n      mstore\n      dup1\n      swap3\n      swap2\n      swap1\n      dup2\n      dup2\n      mstore\n      0x20\n      add\n      dup3\n      dup1\n      sload\n      tag_117\n      swap1\n      tag_68\n      jump\t// in\n    tag_117:\n      dup1\n      iszero\n      tag_118\n      jumpi\n      dup1\n      0x1f\n      lt\n      tag_119\n      jumpi\n      0x0100\n      dup1\n      dup4\n      sload\n      div\n      mul\n      dup4\n      mstore\n      swap2\n      0x20\n      add\n      swap2\n      jump(tag_118)\n    tag_119:\n      dup3\n      add\n      swap2\n      swap1\n      0x00\n      mstore\n      keccak256(0x00, 0x20)\n      swap1\n    tag_120:\n      dup2\n      sload\n      dup2\n      mstore\n      swap1\n      0x01\n      add\n      swap1\n      0x20\n      add\n      dup1\n      dup4\n      gt\n      tag_120\n      jumpi\n      dup3\n      swap1\n      sub\n      0x1f\n      and\n      dup3\n      add\n      swap2\n    tag_118:\n      pop\n      pop\n      pop\n      pop\n      pop\n      dup2\n      jump\t// out\n        /* \"contracts/storage.sol\":2069:2183  footballTeam public Chelsea = footballTeam({name:\"Chelsea\", numberOfPLayers:45, averageAge:23, jerseyType:\"Blue\"}) */\n    tag_62:\n      0x0a\n      dup1\n      0x00\n      add\n      dup1\n      sload\n      tag_121\n      swap1\n      tag_68\n      jump\t// in\n    tag_121:\n      dup1\n      0x1f\n      add\n      0x20\n      dup1\n      swap2\n      div\n      mul\n      0x20\n      add\n      mload(0x40)\n      swap1\n      dup2\n      add\n      0x40\n      mstore\n      dup1\n      swap3\n      swap2\n      swap1\n      dup2\n      dup2\n      mstore\n      0x20\n      add\n      dup3\n      dup1\n      sload\n      tag_122\n      swap1\n      tag_68\n      jump\t// in\n    tag_122:\n      dup1\n      iszero\n      tag_123\n      jumpi\n      dup1\n      0x1f\n      lt\n      tag_124\n      jumpi\n      0x0100\n      dup1\n      dup4\n      sload\n      div\n      mul\n      dup4\n      mstore\n      swap2\n      0x20\n      add\n      swap2\n      jump(tag_123)\n    tag_124:\n      dup3\n      add\n      swap2\n      swap1\n      0x00\n      mstore\n      keccak256(0x00, 0x20)\n      swap1\n    tag_125:\n      dup2\n      sload\n      dup2\n      mstore\n      swap1\n      0x01\n      add\n      swap1\n      0x20\n      add\n      dup1\n      dup4\n      gt\n      tag_125\n      jumpi\n      dup3\n      swap1\n      sub\n      0x1f\n      and\n      dup3\n      add\n      swap2\n    tag_123:\n      pop\n      pop\n      pop\n      pop\n      pop\n      swap1\n      dup1\n      0x01\n      add\n      sload\n      swap1\n      dup1\n      0x02\n      add\n      sload\n      swap1\n      dup1\n      0x03\n      add\n      dup1\n      sload\n      tag_126\n      swap1\n      tag_68\n      jump\t// in\n    tag_126:\n      dup1\n      0x1f\n      add\n      0x20\n      dup1\n      swap2\n      div\n      mul\n      0x20\n      add\n      mload(0x40)\n      swap1\n      dup2\n      add\n      0x40\n      mstore\n      dup1\n      swap3\n      swap2\n      swap1\n      dup2\n      dup2\n      mstore\n      0x20\n      add\n      dup3\n      dup1\n      sload\n      tag_127\n      swap1\n      tag_68\n      jump\t// in\n    tag_127:\n      dup1\n      iszero\n      tag_128\n      jumpi\n      dup1\n      0x1f\n      lt\n      tag_129\n      jumpi\n      0x0100\n      dup1\n      dup4\n      sload\n      div\n      mul\n      dup4\n      mstore\n      swap2\n      0x20\n      add\n      swap2\n      jump(tag_128)\n    tag_129:\n      dup3\n      add\n      swap2\n      swap1\n      0x00\n      mstore\n      keccak256(0x00, 0x20)\n      swap1\n    tag_130:\n      dup2\n      sload\n      dup2\n      mstore\n      swap1\n      0x01\n      add\n      swap1\n      0x20\n      add\n      dup1\n      dup4\n      gt\n      tag_130\n      jumpi\n      dup3\n      swap1\n      sub\n      0x1f\n      and\n      dup3\n      add\n      swap2\n    tag_128:\n      pop\n      pop\n      pop\n      pop\n      pop\n      swap1\n      pop\n      dup5\n      jump\t// out\n        /* \"contracts/storage.sol\":1648:1798  function AddNewMember (string memory _name, uint256 _age) public {... */\n    tag_66:\n        /* \"contracts/storage.sol\":1723:1727  club */\n      0x05\n        /* \"contracts/storage.sol\":1733:1757  ClubMembers(_name, _age) */\n      mload(0x40)\n      dup1\n      0x40\n      add\n      0x40\n      mstore\n      dup1\n        /* \"contracts/storage.sol\":1745:1750  _name */\n      dup5\n        /* \"contracts/storage.sol\":1733:1757  ClubMembers(_name, _age) */\n      dup2\n      mstore\n      0x20\n      add\n        /* \"contracts/storage.sol\":1752:1756  _age */\n      dup4\n        /* \"contracts/storage.sol\":1733:1757  ClubMembers(_name, _age) */\n      dup2\n      mstore\n      pop\n        /* \"contracts/storage.sol\":1723:1758  club.push(ClubMembers(_name, _age)) */\n      swap1\n      dup1\n      0x01\n      dup2\n      sload\n      add\n      dup1\n      dup3\n      sstore\n      dup1\n      swap2\n      pop\n      pop\n      0x01\n      swap1\n      sub\n      swap1\n      0x00\n      mstore\n      keccak256(0x00, 0x20)\n      swap1\n      0x02\n      mul\n      add\n      0x00\n      swap1\n      swap2\n      swap1\n      swap2\n      swap1\n      swap2\n      pop\n      0x00\n      dup3\n      add\n      mload\n      dup2\n      0x00\n      add\n      swap1\n      dup2\n      tag_133\n      swap2\n      swap1\n      tag_88\n      jump\t// in\n    tag_133:\n      pop\n      0x20\n      dup3\n      add\n      mload\n      dup2\n      0x01\n      add\n      sstore\n      pop\n      pop\n        /* \"contracts/storage.sol\":1787:1791  _age */\n      dup1\n        /* \"contracts/storage.sol\":1768:1777  nameToAge */\n      0x04\n        /* \"contracts/storage.sol\":1778:1783  _name */\n      dup4\n        /* \"contracts/storage.sol\":1768:1784  nameToAge[_name] */\n      mload(0x40)\n      tag_134\n      swap2\n      swap1\n      tag_91\n      jump\t// in\n    tag_134:\n      swap1\n      dup2\n      mstore\n      0x20\n      add\n      mload(0x40)\n      dup1\n      swap2\n      sub\n      swap1\n      keccak256\n        /* \"contracts/storage.sol\":1768:1791  nameToAge[_name] = _age */\n      dup2\n      swap1\n      sstore\n      pop\n        /* \"contracts/storage.sol\":1648:1798  function AddNewMember (string memory _name, uint256 _age) public {... */\n      pop\n      pop\n      jump\t// out\n        /* \"#utility.yul\":7:82   */\n    tag_135:\n        /* \"#utility.yul\":40:46   */\n      0x00\n        /* \"#utility.yul\":73:75   */\n      0x40\n        /* \"#utility.yul\":67:76   */\n      mload\n        /* \"#utility.yul\":57:76   */\n      swap1\n      pop\n        /* \"#utility.yul\":7:82   */\n      swap1\n      jump\t// out\n        /* \"#utility.yul\":88:205   */\n    tag_136:\n        /* \"#utility.yul\":197:198   */\n      0x00\n        /* \"#utility.yul\":194:195   */\n      dup1\n        /* \"#utility.yul\":187:199   */\n      revert\n        /* \"#utility.yul\":211:328   */\n    tag_137:\n        /* \"#utility.yul\":320:321   */\n      0x00\n        /* \"#utility.yul\":317:318   */\n      dup1\n        /* \"#utility.yul\":310:322   */\n      revert\n        /* \"#utility.yul\":334:451   */\n    tag_138:\n        /* \"#utility.yul\":443:444   */\n      0x00\n        /* \"#utility.yul\":440:441   */\n      dup1\n        /* \"#utility.yul\":433:445   */\n      revert\n        /* \"#utility.yul\":457:574   */\n    tag_139:\n        /* \"#utility.yul\":566:567   */\n      0x00\n        /* \"#utility.yul\":563:564   */\n      dup1\n        /* \"#utility.yul\":556:568   */\n      revert\n        /* \"#utility.yul\":580:682   */\n    tag_140:\n        /* \"#utility.yul\":621:627   */\n      0x00\n        /* \"#utility.yul\":672:674   */\n      0x1f\n        /* \"#utility.yul\":668:675   */\n      not\n        /* \"#utility.yul\":663:665   */\n      0x1f\n        /* \"#utility.yul\":656:661   */\n      dup4\n        /* \"#utility.yul\":652:666   */\n      add\n        /* \"#utility.yul\":648:676   */\n      and\n        /* \"#utility.yul\":638:676   */\n      swap1\n      pop\n        /* \"#utility.yul\":580:682   */\n      swap2\n      swap1\n      pop\n      jump\t// out\n        /* \"#utility.yul\":688:868   */\n    tag_141:\n        /* \"#utility.yul\":736:813   */\n      0x4e487b7100000000000000000000000000000000000000000000000000000000\n        /* \"#utility.yul\":733:734   */\n      0x00\n        /* \"#utility.yul\":726:814   */\n      mstore\n        /* \"#utility.yul\":833:837   */\n      0x41\n        /* \"#utility.yul\":830:831   */\n      0x04\n        /* \"#utility.yul\":823:838   */\n      mstore\n        /* \"#utility.yul\":857:861   */\n      0x24\n        /* \"#utility.yul\":854:855   */\n      0x00\n        /* \"#utility.yul\":847:862   */\n      revert\n        /* \"#utility.yul\":874:1155   */\n    tag_142:\n        /* \"#utility.yul\":957:984   */\n      tag_183\n        /* \"#utility.yul\":979:983   */\n      dup3\n        /* \"#utility.yul\":957:984   */\n      tag_140\n      jump\t// in\n    tag_183:\n        /* \"#utility.yul\":949:955   */\n      dup2\n        /* \"#utility.yul\":945:985   */\n      add\n        /* \"#utility.yul\":1087:1093   */\n      dup2\n        /* \"#utility.yul\":1075:1085   */\n      dup2\n        /* \"#utility.yul\":1072:1094   */\n      lt\n        /* \"#utility.yul\":1051:1069   */\n      0xffffffffffffffff\n        /* \"#utility.yul\":1039:1049   */\n      dup3\n        /* \"#utility.yul\":1036:1070   */\n      gt\n        /* \"#utility.yul\":1033:1095   */\n      or\n        /* \"#utility.yul\":1030:1118   */\n      iszero\n      tag_184\n      jumpi\n        /* \"#utility.yul\":1098:1116   */\n      tag_185\n      tag_141\n      jump\t// in\n    tag_185:\n        /* \"#utility.yul\":1030:1118   */\n    tag_184:\n        /* \"#utility.yul\":1138:1148   */\n      dup1\n        /* \"#utility.yul\":1134:1136   */\n      0x40\n        /* \"#utility.yul\":1127:1149   */\n      mstore\n        /* \"#utility.yul\":917:1155   */\n      pop\n        /* \"#utility.yul\":874:1155   */\n      pop\n      pop\n      jump\t// out\n        /* \"#utility.yul\":1161:1290   */\n    tag_143:\n        /* \"#utility.yul\":1195:1201   */\n      0x00\n        /* \"#utility.yul\":1222:1242   */\n      tag_187\n      tag_135\n      jump\t// in\n    tag_187:\n        /* \"#utility.yul\":1212:1242   */\n      swap1\n      pop\n        /* \"#utility.yul\":1251:1284   */\n      tag_188\n        /* \"#utility.yul\":1279:1283   */\n      dup3\n        /* \"#utility.yul\":1271:1277   */\n      dup3\n        /* \"#utility.yul\":1251:1284   */\n      tag_142\n      jump\t// in\n    tag_188:\n        /* \"#utility.yul\":1161:1290   */\n      swap2\n      swap1\n      pop\n      jump\t// out\n        /* \"#utility.yul\":1296:1604   */\n    tag_144:\n        /* \"#utility.yul\":1358:1362   */\n      0x00\n        /* \"#utility.yul\":1448:1466   */\n      0xffffffffffffffff\n        /* \"#utility.yul\":1440:1446   */\n      dup3\n        /* \"#utility.yul\":1437:1467   */\n      gt\n        /* \"#utility.yul\":1434:1490   */\n      iszero\n      tag_190\n      jumpi\n        /* \"#utility.yul\":1470:1488   */\n      tag_191\n      tag_141\n      jump\t// in\n    tag_191:\n        /* \"#utility.yul\":1434:1490   */\n    tag_190:\n        /* \"#utility.yul\":1508:1537   */\n      tag_192\n        /* \"#utility.yul\":1530:1536   */\n      dup3\n        /* \"#utility.yul\":1508:1537   */\n      tag_140\n      jump\t// in\n    tag_192:\n        /* \"#utility.yul\":1500:1537   */\n      swap1\n      pop\n        /* \"#utility.yul\":1592:1596   */\n      0x20\n        /* \"#utility.yul\":1586:1590   */\n      dup2\n        /* \"#utility.yul\":1582:1597   */\n      add\n        /* \"#utility.yul\":1574:1597   */\n      swap1\n      pop\n        /* \"#utility.yul\":1296:1604   */\n      swap2\n      swap1\n      pop\n      jump\t// out\n        /* \"#utility.yul\":1610:1756   */\n    tag_145:\n        /* \"#utility.yul\":1707:1713   */\n      dup3\n        /* \"#utility.yul\":1702:1705   */\n      dup2\n        /* \"#utility.yul\":1697:1700   */\n      dup4\n        /* \"#utility.yul\":1684:1714   */\n      calldatacopy\n        /* \"#utility.yul\":1748:1749   */\n      0x00\n        /* \"#utility.yul\":1739:1745   */\n      dup4\n        /* \"#utility.yul\":1734:1737   */\n      dup4\n        /* \"#utility.yul\":1730:1746   */\n      add\n        /* \"#utility.yul\":1723:1750   */\n      mstore\n        /* \"#utility.yul\":1610:1756   */\n      pop\n      pop\n      pop\n      jump\t// out\n        /* \"#utility.yul\":1762:2187   */\n    tag_146:\n        /* \"#utility.yul\":1840:1845   */\n      0x00\n        /* \"#utility.yul\":1865:1931   */\n      tag_195\n        /* \"#utility.yul\":1881:1930   */\n      tag_196\n        /* \"#utility.yul\":1923:1929   */\n      dup5\n        /* \"#utility.yul\":1881:1930   */\n      tag_144\n      jump\t// in\n    tag_196:\n        /* \"#utility.yul\":1865:1931   */\n      tag_143\n      jump\t// in\n    tag_195:\n        /* \"#utility.yul\":1856:1931   */\n      swap1\n      pop\n        /* \"#utility.yul\":1954:1960   */\n      dup3\n        /* \"#utility.yul\":1947:1952   */\n      dup2\n        /* \"#utility.yul\":1940:1961   */\n      mstore\n        /* \"#utility.yul\":1992:1996   */\n      0x20\n        /* \"#utility.yul\":1985:1990   */\n      dup2\n        /* \"#utility.yul\":1981:1997   */\n      add\n        /* \"#utility.yul\":2030:2033   */\n      dup5\n        /* \"#utility.yul\":2021:2027   */\n      dup5\n        /* \"#utility.yul\":2016:2019   */\n      dup5\n        /* \"#utility.yul\":2012:2028   */\n      add\n        /* \"#utility.yul\":2009:2034   */\n      gt\n        /* \"#utility.yul\":2006:2118   */\n      iszero\n      tag_197\n      jumpi\n        /* \"#utility.yul\":2037:2116   */\n      tag_198\n      tag_139\n      jump\t// in\n    tag_198:\n        /* \"#utility.yul\":2006:2118   */\n    tag_197:\n        /* \"#utility.yul\":2127:2181   */\n      tag_199\n        /* \"#utility.yul\":2174:2180   */\n      dup5\n        /* \"#utility.yul\":2169:2172   */\n      dup3\n        /* \"#utility.yul\":2164:2167   */\n      dup6\n        /* \"#utility.yul\":2127:2181   */\n      tag_145\n      jump\t// in\n    tag_199:\n        /* \"#utility.yul\":1846:2187   */\n      pop\n        /* \"#utility.yul\":1762:2187   */\n      swap4\n      swap3\n      pop\n      pop\n      pop\n      jump\t// out\n        /* \"#utility.yul\":2207:2547   */\n    tag_147:\n        /* \"#utility.yul\":2263:2268   */\n      0x00\n        /* \"#utility.yul\":2312:2315   */\n      dup3\n        /* \"#utility.yul\":2305:2309   */\n      0x1f\n        /* \"#utility.yul\":2297:2303   */\n      dup4\n        /* \"#utility.yul\":2293:2310   */\n      add\n        /* \"#utility.yul\":2289:2316   */\n      slt\n        /* \"#utility.yul\":2279:2401   */\n      tag_201\n      jumpi\n        /* \"#utility.yul\":2320:2399   */\n      tag_202\n      tag_138\n      jump\t// in\n    tag_202:\n        /* \"#utility.yul\":2279:2401   */\n    tag_201:\n        /* \"#utility.yul\":2437:2443   */\n      dup2\n        /* \"#utility.yul\":2424:2444   */\n      calldataload\n        /* \"#utility.yul\":2462:2541   */\n      tag_203\n        /* \"#utility.yul\":2537:2540   */\n      dup5\n        /* \"#utility.yul\":2529:2535   */\n      dup3\n        /* \"#utility.yul\":2522:2526   */\n      0x20\n        /* \"#utility.yul\":2514:2520   */\n      dup7\n        /* \"#utility.yul\":2510:2527   */\n      add\n        /* \"#utility.yul\":2462:2541   */\n      tag_146\n      jump\t// in\n    tag_203:\n        /* \"#utility.yul\":2453:2541   */\n      swap2\n      pop\n        /* \"#utility.yul\":2269:2547   */\n      pop\n        /* \"#utility.yul\":2207:2547   */\n      swap3\n      swap2\n      pop\n      pop\n      jump\t// out\n        /* \"#utility.yul\":2553:3062   */\n    tag_18:\n        /* \"#utility.yul\":2622:2628   */\n      0x00\n        /* \"#utility.yul\":2671:2673   */\n      0x20\n        /* \"#utility.yul\":2659:2668   */\n      dup3\n        /* \"#utility.yul\":2650:2657   */\n      dup5\n        /* \"#utility.yul\":2646:2669   */\n      sub\n        /* \"#utility.yul\":2642:2674   */\n      slt\n        /* \"#utility.yul\":2639:2758   */\n      iszero\n      tag_205\n      jumpi\n        /* \"#utility.yul\":2677:2756   */\n      tag_206\n      tag_136\n      jump\t// in\n    tag_206:\n        /* \"#utility.yul\":2639:2758   */\n    tag_205:\n        /* \"#utility.yul\":2825:2826   */\n      0x00\n        /* \"#utility.yul\":2814:2823   */\n      dup3\n        /* \"#utility.yul\":2810:2827   */\n      add\n        /* \"#utility.yul\":2797:2828   */\n      calldataload\n        /* \"#utility.yul\":2855:2873   */\n      0xffffffffffffffff\n        /* \"#utility.yul\":2847:2853   */\n      dup2\n        /* \"#utility.yul\":2844:2874   */\n      gt\n        /* \"#utility.yul\":2841:2958   */\n      iszero\n      tag_207\n      jumpi\n        /* \"#utility.yul\":2877:2956   */\n      tag_208\n      tag_137\n      jump\t// in\n    tag_208:\n        /* \"#utility.yul\":2841:2958   */\n    tag_207:\n        /* \"#utility.yul\":2982:3045   */\n      tag_209\n        /* \"#utility.yul\":3037:3044   */\n      dup5\n        /* \"#utility.yul\":3028:3034   */\n      dup3\n        /* \"#utility.yul\":3017:3026   */\n      dup6\n        /* \"#utility.yul\":3013:3035   */\n      add\n        /* \"#utility.yul\":2982:3045   */\n      tag_147\n      jump\t// in\n    tag_209:\n        /* \"#utility.yul\":2972:3045   */\n      swap2\n      pop\n        /* \"#utility.yul\":2768:3055   */\n      pop\n        /* \"#utility.yul\":2553:3062   */\n      swap3\n      swap2\n      pop\n      pop\n      jump\t// out\n        /* \"#utility.yul\":3068:3145   */\n    tag_148:\n        /* \"#utility.yul\":3105:3112   */\n      0x00\n        /* \"#utility.yul\":3134:3139   */\n      dup2\n        /* \"#utility.yul\":3123:3139   */\n      swap1\n      pop\n        /* \"#utility.yul\":3068:3145   */\n      swap2\n      swap1\n      pop\n      jump\t// out\n        /* \"#utility.yul\":3151:3269   */\n    tag_149:\n        /* \"#utility.yul\":3238:3262   */\n      tag_212\n        /* \"#utility.yul\":3256:3261   */\n      dup2\n        /* \"#utility.yul\":3238:3262   */\n      tag_148\n      jump\t// in\n    tag_212:\n        /* \"#utility.yul\":3233:3236   */\n      dup3\n        /* \"#utility.yul\":3226:3263   */\n      mstore\n        /* \"#utility.yul\":3151:3269   */\n      pop\n      pop\n      jump\t// out\n        /* \"#utility.yul\":3275:3497   */\n    tag_21:\n        /* \"#utility.yul\":3368:3372   */\n      0x00\n        /* \"#utility.yul\":3406:3408   */\n      0x20\n        /* \"#utility.yul\":3395:3404   */\n      dup3\n        /* \"#utility.yul\":3391:3409   */\n      add\n        /* \"#utility.yul\":3383:3409   */\n      swap1\n      pop\n        /* \"#utility.yul\":3419:3490   */\n      tag_214\n        /* \"#utility.yul\":3487:3488   */\n      0x00\n        /* \"#utility.yul\":3476:3485   */\n      dup4\n        /* \"#utility.yul\":3472:3489   */\n      add\n        /* \"#utility.yul\":3463:3469   */\n      dup5\n        /* \"#utility.yul\":3419:3490   */\n      tag_149\n      jump\t// in\n    tag_214:\n        /* \"#utility.yul\":3275:3497   */\n      swap3\n      swap2\n      pop\n      pop\n      jump\t// out\n        /* \"#utility.yul\":3503:3602   */\n    tag_150:\n        /* \"#utility.yul\":3555:3561   */\n      0x00\n        /* \"#utility.yul\":3589:3594   */\n      dup2\n        /* \"#utility.yul\":3583:3595   */\n      mload\n        /* \"#utility.yul\":3573:3595   */\n      swap1\n      pop\n        /* \"#utility.yul\":3503:3602   */\n      swap2\n      swap1\n      pop\n      jump\t// out\n        /* \"#utility.yul\":3608:3777   */\n    tag_151:\n        /* \"#utility.yul\":3692:3703   */\n      0x00\n        /* \"#utility.yul\":3726:3732   */\n      dup3\n        /* \"#utility.yul\":3721:3724   */\n      dup3\n        /* \"#utility.yul\":3714:3733   */\n      mstore\n        /* \"#utility.yul\":3766:3770   */\n      0x20\n        /* \"#utility.yul\":3761:3764   */\n      dup3\n        /* \"#utility.yul\":3757:3771   */\n      add\n        /* \"#utility.yul\":3742:3771   */\n      swap1\n      pop\n        /* \"#utility.yul\":3608:3777   */\n      swap3\n      swap2\n      pop\n      pop\n      jump\t// out\n        /* \"#utility.yul\":3783:4029   */\n    tag_152:\n        /* \"#utility.yul\":3864:3865   */\n      0x00\n        /* \"#utility.yul\":3874:3987   */\n    tag_218:\n        /* \"#utility.yul\":3888:3894   */\n      dup4\n        /* \"#utility.yul\":3885:3886   */\n      dup2\n        /* \"#utility.yul\":3882:3895   */\n      lt\n        /* \"#utility.yul\":3874:3987   */\n      iszero\n      tag_220\n      jumpi\n        /* \"#utility.yul\":3973:3974   */\n      dup1\n        /* \"#utility.yul\":3968:3971   */\n      dup3\n        /* \"#utility.yul\":3964:3975   */\n      add\n        /* \"#utility.yul\":3958:3976   */\n      mload\n        /* \"#utility.yul\":3954:3955   */\n      dup2\n        /* \"#utility.yul\":3949:3952   */\n      dup5\n        /* \"#utility.yul\":3945:3956   */\n      add\n        /* \"#utility.yul\":3938:3977   */\n      mstore\n        /* \"#utility.yul\":3910:3912   */\n      0x20\n        /* \"#utility.yul\":3907:3908   */\n      dup2\n        /* \"#utility.yul\":3903:3913   */\n      add\n        /* \"#utility.yul\":3898:3913   */\n      swap1\n      pop\n        /* \"#utility.yul\":3874:3987   */\n      jump(tag_218)\n    tag_220:\n        /* \"#utility.yul\":4021:4022   */\n      0x00\n        /* \"#utility.yul\":4012:4018   */\n      dup5\n        /* \"#utility.yul\":4007:4010   */\n      dup5\n        /* \"#utility.yul\":4003:4019   */\n      add\n        /* \"#utility.yul\":3996:4023   */\n      mstore\n        /* \"#utility.yul\":3845:4029   */\n      pop\n        /* \"#utility.yul\":3783:4029   */\n      pop\n      pop\n      pop\n      jump\t// out\n        /* \"#utility.yul\":4035:4412   */\n    tag_153:\n        /* \"#utility.yul\":4123:4126   */\n      0x00\n        /* \"#utility.yul\":4151:4190   */\n      tag_222\n        /* \"#utility.yul\":4184:4189   */\n      dup3\n        /* \"#utility.yul\":4151:4190   */\n      tag_150\n      jump\t// in\n    tag_222:\n        /* \"#utility.yul\":4206:4277   */\n      tag_223\n        /* \"#utility.yul\":4270:4276   */\n      dup2\n        /* \"#utility.yul\":4265:4268   */\n      dup6\n        /* \"#utility.yul\":4206:4277   */\n      tag_151\n      jump\t// in\n    tag_223:\n        /* \"#utility.yul\":4199:4277   */\n      swap4\n      pop\n        /* \"#utility.yul\":4286:4351   */\n      tag_224\n        /* \"#utility.yul\":4344:4350   */\n      dup2\n        /* \"#utility.yul\":4339:4342   */\n      dup6\n        /* \"#utility.yul\":4332:4336   */\n      0x20\n        /* \"#utility.yul\":4325:4330   */\n      dup7\n        /* \"#utility.yul\":4321:4337   */\n      add\n        /* \"#utility.yul\":4286:4351   */\n      tag_152\n      jump\t// in\n    tag_224:\n        /* \"#utility.yul\":4376:4405   */\n      tag_225\n        /* \"#utility.yul\":4398:4404   */\n      dup2\n        /* \"#utility.yul\":4376:4405   */\n      tag_140\n      jump\t// in\n    tag_225:\n        /* \"#utility.yul\":4371:4374   */\n      dup5\n        /* \"#utility.yul\":4367:4406   */\n      add\n        /* \"#utility.yul\":4360:4406   */\n      swap2\n      pop\n        /* \"#utility.yul\":4127:4412   */\n      pop\n        /* \"#utility.yul\":4035:4412   */\n      swap3\n      swap2\n      pop\n      pop\n      jump\t// out\n        /* \"#utility.yul\":4418:5153   */\n    tag_25:\n        /* \"#utility.yul\":4635:4639   */\n      0x00\n        /* \"#utility.yul\":4673:4676   */\n      0x80\n        /* \"#utility.yul\":4662:4671   */\n      dup3\n        /* \"#utility.yul\":4658:4677   */\n      add\n        /* \"#utility.yul\":4650:4677   */\n      swap1\n      pop\n        /* \"#utility.yul\":4723:4732   */\n      dup2\n        /* \"#utility.yul\":4717:4721   */\n      dup2\n        /* \"#utility.yul\":4713:4733   */\n      sub\n        /* \"#utility.yul\":4709:4710   */\n      0x00\n        /* \"#utility.yul\":4698:4707   */\n      dup4\n        /* \"#utility.yul\":4694:4711   */\n      add\n        /* \"#utility.yul\":4687:4734   */\n      mstore\n        /* \"#utility.yul\":4751:4829   */\n      tag_227\n        /* \"#utility.yul\":4824:4828   */\n      dup2\n        /* \"#utility.yul\":4815:4821   */\n      dup8\n        /* \"#utility.yul\":4751:4829   */\n      tag_153\n      jump\t// in\n    tag_227:\n        /* \"#utility.yul\":4743:4829   */\n      swap1\n      pop\n        /* \"#utility.yul\":4839:4911   */\n      tag_228\n        /* \"#utility.yul\":4907:4909   */\n      0x20\n        /* \"#utility.yul\":4896:4905   */\n      dup4\n        /* \"#utility.yul\":4892:4910   */\n      add\n        /* \"#utility.yul\":4883:4889   */\n      dup7\n        /* \"#utility.yul\":4839:4911   */\n      tag_149\n      jump\t// in\n    tag_228:\n        /* \"#utility.yul\":4921:4993   */\n      tag_229\n        /* \"#utility.yul\":4989:4991   */\n      0x40\n        /* \"#utility.yul\":4978:4987   */\n      dup4\n        /* \"#utility.yul\":4974:4992   */\n      add\n        /* \"#utility.yul\":4965:4971   */\n      dup6\n        /* \"#utility.yul\":4921:4993   */\n      tag_149\n      jump\t// in\n    tag_229:\n        /* \"#utility.yul\":5040:5049   */\n      dup2\n        /* \"#utility.yul\":5034:5038   */\n      dup2\n        /* \"#utility.yul\":5030:5050   */\n      sub\n        /* \"#utility.yul\":5025:5027   */\n      0x60\n        /* \"#utility.yul\":5014:5023   */\n      dup4\n        /* \"#utility.yul\":5010:5028   */\n      add\n        /* \"#utility.yul\":5003:5051   */\n      mstore\n        /* \"#utility.yul\":5068:5146   */\n      tag_230\n        /* \"#utility.yul\":5141:5145   */\n      dup2\n        /* \"#utility.yul\":5132:5138   */\n      dup5\n        /* \"#utility.yul\":5068:5146   */\n      tag_153\n      jump\t// in\n    tag_230:\n        /* \"#utility.yul\":5060:5146   */\n      swap1\n      pop\n        /* \"#utility.yul\":4418:5153   */\n      swap6\n      swap5\n      pop\n      pop\n      pop\n      pop\n      pop\n      jump\t// out\n        /* \"#utility.yul\":5159:5281   */\n    tag_154:\n        /* \"#utility.yul\":5232:5256   */\n      tag_232\n        /* \"#utility.yul\":5250:5255   */\n      dup2\n        /* \"#utility.yul\":5232:5256   */\n      tag_148\n      jump\t// in\n    tag_232:\n        /* \"#utility.yul\":5225:5230   */\n      dup2\n        /* \"#utility.yul\":5222:5257   */\n      eq\n        /* \"#utility.yul\":5212:5275   */\n      tag_233\n      jumpi\n        /* \"#utility.yul\":5271:5272   */\n      0x00\n        /* \"#utility.yul\":5268:5269   */\n      dup1\n        /* \"#utility.yul\":5261:5273   */\n      revert\n        /* \"#utility.yul\":5212:5275   */\n    tag_233:\n        /* \"#utility.yul\":5159:5281   */\n      pop\n      jump\t// out\n        /* \"#utility.yul\":5287:5426   */\n    tag_155:\n        /* \"#utility.yul\":5333:5338   */\n      0x00\n        /* \"#utility.yul\":5371:5377   */\n      dup2\n        /* \"#utility.yul\":5358:5378   */\n      calldataload\n        /* \"#utility.yul\":5349:5378   */\n      swap1\n      pop\n        /* \"#utility.yul\":5387:5420   */\n      tag_235\n        /* \"#utility.yul\":5414:5419   */\n      dup2\n        /* \"#utility.yul\":5387:5420   */\n      tag_154\n      jump\t// in\n    tag_235:\n        /* \"#utility.yul\":5287:5426   */\n      swap3\n      swap2\n      pop\n      pop\n      jump\t// out\n        /* \"#utility.yul\":5432:5761   */\n    tag_28:\n        /* \"#utility.yul\":5491:5497   */\n      0x00\n        /* \"#utility.yul\":5540:5542   */\n      0x20\n        /* \"#utility.yul\":5528:5537   */\n      dup3\n        /* \"#utility.yul\":5519:5526   */\n      dup5\n        /* \"#utility.yul\":5515:5538   */\n      sub\n        /* \"#utility.yul\":5511:5543   */\n      slt\n        /* \"#utility.yul\":5508:5627   */\n      iszero\n      tag_237\n      jumpi\n        /* \"#utility.yul\":5546:5625   */\n      tag_238\n      tag_136\n      jump\t// in\n    tag_238:\n        /* \"#utility.yul\":5508:5627   */\n    tag_237:\n        /* \"#utility.yul\":5666:5667   */\n      0x00\n        /* \"#utility.yul\":5691:5744   */\n      tag_239\n        /* \"#utility.yul\":5736:5743   */\n      dup5\n        /* \"#utility.yul\":5727:5733   */\n      dup3\n        /* \"#utility.yul\":5716:5725   */\n      dup6\n        /* \"#utility.yul\":5712:5734   */\n      add\n        /* \"#utility.yul\":5691:5744   */\n      tag_155\n      jump\t// in\n    tag_239:\n        /* \"#utility.yul\":5681:5744   */\n      swap2\n      pop\n        /* \"#utility.yul\":5637:5754   */\n      pop\n        /* \"#utility.yul\":5432:5761   */\n      swap3\n      swap2\n      pop\n      pop\n      jump\t// out\n        /* \"#utility.yul\":5767:6190   */\n    tag_31:\n        /* \"#utility.yul\":5908:5912   */\n      0x00\n        /* \"#utility.yul\":5946:5948   */\n      0x40\n        /* \"#utility.yul\":5935:5944   */\n      dup3\n        /* \"#utility.yul\":5931:5949   */\n      add\n        /* \"#utility.yul\":5923:5949   */\n      swap1\n      pop\n        /* \"#utility.yul\":5995:6004   */\n      dup2\n        /* \"#utility.yul\":5989:5993   */\n      dup2\n        /* \"#utility.yul\":5985:6005   */\n      sub\n        /* \"#utility.yul\":5981:5982   */\n      0x00\n        /* \"#utility.yul\":5970:5979   */\n      dup4\n        /* \"#utility.yul\":5966:5983   */\n      add\n        /* \"#utility.yul\":5959:6006   */\n      mstore\n        /* \"#utility.yul\":6023:6101   */\n      tag_241\n        /* \"#utility.yul\":6096:6100   */\n      dup2\n        /* \"#utility.yul\":6087:6093   */\n      dup6\n        /* \"#utility.yul\":6023:6101   */\n      tag_153\n      jump\t// in\n    tag_241:\n        /* \"#utility.yul\":6015:6101   */\n      swap1\n      pop\n        /* \"#utility.yul\":6111:6183   */\n      tag_242\n        /* \"#utility.yul\":6179:6181   */\n      0x20\n        /* \"#utility.yul\":6168:6177   */\n      dup4\n        /* \"#utility.yul\":6164:6182   */\n      add\n        /* \"#utility.yul\":6155:6161   */\n      dup5\n        /* \"#utility.yul\":6111:6183   */\n      tag_149\n      jump\t// in\n    tag_242:\n        /* \"#utility.yul\":5767:6190   */\n      swap4\n      swap3\n      pop\n      pop\n      pop\n      jump\t// out\n        /* \"#utility.yul\":6196:7321   */\n    tag_38:\n        /* \"#utility.yul\":6302:6308   */\n      0x00\n        /* \"#utility.yul\":6310:6316   */\n      dup1\n        /* \"#utility.yul\":6318:6324   */\n      0x00\n        /* \"#utility.yul\":6326:6332   */\n      dup1\n        /* \"#utility.yul\":6375:6378   */\n      0x80\n        /* \"#utility.yul\":6363:6372   */\n      dup6\n        /* \"#utility.yul\":6354:6361   */\n      dup8\n        /* \"#utility.yul\":6350:6373   */\n      sub\n        /* \"#utility.yul\":6346:6379   */\n      slt\n        /* \"#utility.yul\":6343:6463   */\n      iszero\n      tag_244\n      jumpi\n        /* \"#utility.yul\":6382:6461   */\n      tag_245\n      tag_136\n      jump\t// in\n    tag_245:\n        /* \"#utility.yul\":6343:6463   */\n    tag_244:\n        /* \"#utility.yul\":6530:6531   */\n      0x00\n        /* \"#utility.yul\":6519:6528   */\n      dup6\n        /* \"#utility.yul\":6515:6532   */\n      add\n        /* \"#utility.yul\":6502:6533   */\n      calldataload\n        /* \"#utility.yul\":6560:6578   */\n      0xffffffffffffffff\n        /* \"#utility.yul\":6552:6558   */\n      dup2\n        /* \"#utility.yul\":6549:6579   */\n      gt\n        /* \"#utility.yul\":6546:6663   */\n      iszero\n      tag_246\n      jumpi\n        /* \"#utility.yul\":6582:6661   */\n      tag_247\n      tag_137\n      jump\t// in\n    tag_247:\n        /* \"#utility.yul\":6546:6663   */\n    tag_246:\n        /* \"#utility.yul\":6687:6750   */\n      tag_248\n        /* \"#utility.yul\":6742:6749   */\n      dup8\n        /* \"#utility.yul\":6733:6739   */\n      dup3\n        /* \"#utility.yul\":6722:6731   */\n      dup9\n        /* \"#utility.yul\":6718:6740   */\n      add\n        /* \"#utility.yul\":6687:6750   */\n      tag_147\n      jump\t// in\n    tag_248:\n        /* \"#utility.yul\":6677:6750   */\n      swap5\n      pop\n        /* \"#utility.yul\":6473:6760   */\n      pop\n        /* \"#utility.yul\":6799:6801   */\n      0x20\n        /* \"#utility.yul\":6825:6878   */\n      tag_249\n        /* \"#utility.yul\":6870:6877   */\n      dup8\n        /* \"#utility.yul\":6861:6867   */\n      dup3\n        /* \"#utility.yul\":6850:6859   */\n      dup9\n        /* \"#utility.yul\":6846:6868   */\n      add\n        /* \"#utility.yul\":6825:6878   */\n      tag_155\n      jump\t// in\n    tag_249:\n        /* \"#utility.yul\":6815:6878   */\n      swap4\n      pop\n        /* \"#utility.yul\":6770:6888   */\n      pop\n        /* \"#utility.yul\":6927:6929   */\n      0x40\n        /* \"#utility.yul\":6953:7006   */\n      tag_250\n        /* \"#utility.yul\":6998:7005   */\n      dup8\n        /* \"#utility.yul\":6989:6995   */\n      dup3\n        /* \"#utility.yul\":6978:6987   */\n      dup9\n        /* \"#utility.yul\":6974:6996   */\n      add\n        /* \"#utility.yul\":6953:7006   */\n      tag_155\n      jump\t// in\n    tag_250:\n        /* \"#utility.yul\":6943:7006   */\n      swap3\n      pop\n        /* \"#utility.yul\":6898:7016   */\n      pop\n        /* \"#utility.yul\":7083:7085   */\n      0x60\n        /* \"#utility.yul\":7072:7081   */\n      dup6\n        /* \"#utility.yul\":7068:7086   */\n      add\n        /* \"#utility.yul\":7055:7087   */\n      calldataload\n        /* \"#utility.yul\":7114:7132   */\n      0xffffffffffffffff\n        /* \"#utility.yul\":7106:7112   */\n      dup2\n        /* \"#utility.yul\":7103:7133   */\n      gt\n        /* \"#utility.yul\":7100:7217   */\n      iszero\n      tag_251\n      jumpi\n        /* \"#utility.yul\":7136:7215   */\n      tag_252\n      tag_137\n      jump\t// in\n    tag_252:\n        /* \"#utility.yul\":7100:7217   */\n    tag_251:\n        /* \"#utility.yul\":7241:7304   */\n      tag_253\n        /* \"#utility.yul\":7296:7303   */\n      dup8\n        /* \"#utility.yul\":7287:7293   */\n      dup3\n        /* \"#utility.yul\":7276:7285   */\n      dup9\n        /* \"#utility.yul\":7272:7294   */\n      add\n        /* \"#utility.yul\":7241:7304   */\n      tag_147\n      jump\t// in\n    tag_253:\n        /* \"#utility.yul\":7231:7304   */\n      swap2\n      pop\n        /* \"#utility.yul\":7026:7314   */\n      pop\n        /* \"#utility.yul\":6196:7321   */\n      swap3\n      swap6\n      swap2\n      swap5\n      pop\n      swap3\n      pop\n      jump\t// out\n        /* \"#utility.yul\":7327:7981   */\n    tag_50:\n        /* \"#utility.yul\":7405:7411   */\n      0x00\n        /* \"#utility.yul\":7413:7419   */\n      dup1\n        /* \"#utility.yul\":7462:7464   */\n      0x40\n        /* \"#utility.yul\":7450:7459   */\n      dup4\n        /* \"#utility.yul\":7441:7448   */\n      dup6\n        /* \"#utility.yul\":7437:7460   */\n      sub\n        /* \"#utility.yul\":7433:7465   */\n      slt\n        /* \"#utility.yul\":7430:7549   */\n      iszero\n      tag_255\n      jumpi\n        /* \"#utility.yul\":7468:7547   */\n      tag_256\n      tag_136\n      jump\t// in\n    tag_256:\n        /* \"#utility.yul\":7430:7549   */\n    tag_255:\n        /* \"#utility.yul\":7616:7617   */\n      0x00\n        /* \"#utility.yul\":7605:7614   */\n      dup4\n        /* \"#utility.yul\":7601:7618   */\n      add\n        /* \"#utility.yul\":7588:7619   */\n      calldataload\n        /* \"#utility.yul\":7646:7664   */\n      0xffffffffffffffff\n        /* \"#utility.yul\":7638:7644   */\n      dup2\n        /* \"#utility.yul\":7635:7665   */\n      gt\n        /* \"#utility.yul\":7632:7749   */\n      iszero\n      tag_257\n      jumpi\n        /* \"#utility.yul\":7668:7747   */\n      tag_258\n      tag_137\n      jump\t// in\n    tag_258:\n        /* \"#utility.yul\":7632:7749   */\n    tag_257:\n        /* \"#utility.yul\":7773:7836   */\n      tag_259\n        /* \"#utility.yul\":7828:7835   */\n      dup6\n        /* \"#utility.yul\":7819:7825   */\n      dup3\n        /* \"#utility.yul\":7808:7817   */\n      dup7\n        /* \"#utility.yul\":7804:7826   */\n      add\n        /* \"#utility.yul\":7773:7836   */\n      tag_147\n      jump\t// in\n    tag_259:\n        /* \"#utility.yul\":7763:7836   */\n      swap3\n      pop\n        /* \"#utility.yul\":7559:7846   */\n      pop\n        /* \"#utility.yul\":7885:7887   */\n      0x20\n        /* \"#utility.yul\":7911:7964   */\n      tag_260\n        /* \"#utility.yul\":7956:7963   */\n      dup6\n        /* \"#utility.yul\":7947:7953   */\n      dup3\n        /* \"#utility.yul\":7936:7945   */\n      dup7\n        /* \"#utility.yul\":7932:7954   */\n      add\n        /* \"#utility.yul\":7911:7964   */\n      tag_155\n      jump\t// in\n    tag_260:\n        /* \"#utility.yul\":7901:7964   */\n      swap2\n      pop\n        /* \"#utility.yul\":7856:7974   */\n      pop\n        /* \"#utility.yul\":7327:7981   */\n      swap3\n      pop\n      swap3\n      swap1\n      pop\n      jump\t// out\n        /* \"#utility.yul\":7987:8300   */\n    tag_60:\n        /* \"#utility.yul\":8100:8104   */\n      0x00\n        /* \"#utility.yul\":8138:8140   */\n      0x20\n        /* \"#utility.yul\":8127:8136   */\n      dup3\n        /* \"#utility.yul\":8123:8141   */\n      add\n        /* \"#utility.yul\":8115:8141   */\n      swap1\n      pop\n        /* \"#utility.yul\":8187:8196   */\n      dup2\n        /* \"#utility.yul\":8181:8185   */\n      dup2\n        /* \"#utility.yul\":8177:8197   */\n      sub\n        /* \"#utility.yul\":8173:8174   */\n      0x00\n        /* \"#utility.yul\":8162:8171   */\n      dup4\n        /* \"#utility.yul\":8158:8175   */\n      add\n        /* \"#utility.yul\":8151:8198   */\n      mstore\n        /* \"#utility.yul\":8215:8293   */\n      tag_262\n        /* \"#utility.yul\":8288:8292   */\n      dup2\n        /* \"#utility.yul\":8279:8285   */\n      dup5\n        /* \"#utility.yul\":8215:8293   */\n      tag_153\n      jump\t// in\n    tag_262:\n        /* \"#utility.yul\":8207:8293   */\n      swap1\n      pop\n        /* \"#utility.yul\":7987:8300   */\n      swap3\n      swap2\n      pop\n      pop\n      jump\t// out\n        /* \"#utility.yul\":8306:8486   */\n    tag_156:\n        /* \"#utility.yul\":8354:8431   */\n      0x4e487b7100000000000000000000000000000000000000000000000000000000\n        /* \"#utility.yul\":8351:8352   */\n      0x00\n        /* \"#utility.yul\":8344:8432   */\n      mstore\n        /* \"#utility.yul\":8451:8455   */\n      0x22\n        /* \"#utility.yul\":8448:8449   */\n      0x04\n        /* \"#utility.yul\":8441:8456   */\n      mstore\n        /* \"#utility.yul\":8475:8479   */\n      0x24\n        /* \"#utility.yul\":8472:8473   */\n      0x00\n        /* \"#utility.yul\":8465:8480   */\n      revert\n        /* \"#utility.yul\":8492:8812   */\n    tag_68:\n        /* \"#utility.yul\":8536:8542   */\n      0x00\n        /* \"#utility.yul\":8573:8574   */\n      0x02\n        /* \"#utility.yul\":8567:8571   */\n      dup3\n        /* \"#utility.yul\":8563:8575   */\n      div\n        /* \"#utility.yul\":8553:8575   */\n      swap1\n      pop\n        /* \"#utility.yul\":8620:8621   */\n      0x01\n        /* \"#utility.yul\":8614:8618   */\n      dup3\n        /* \"#utility.yul\":8610:8622   */\n      and\n        /* \"#utility.yul\":8641:8659   */\n      dup1\n        /* \"#utility.yul\":8631:8712   */\n      tag_265\n      jumpi\n        /* \"#utility.yul\":8697:8701   */\n      0x7f\n        /* \"#utility.yul\":8689:8695   */\n      dup3\n        /* \"#utility.yul\":8685:8702   */\n      and\n        /* \"#utility.yul\":8675:8702   */\n      swap2\n      pop\n        /* \"#utility.yul\":8631:8712   */\n    tag_265:\n        /* \"#utility.yul\":8759:8761   */\n      0x20\n        /* \"#utility.yul\":8751:8757   */\n      dup3\n        /* \"#utility.yul\":8748:8762   */\n      lt\n        /* \"#utility.yul\":8728:8746   */\n      dup2\n        /* \"#utility.yul\":8725:8763   */\n      sub\n        /* \"#utility.yul\":8722:8806   */\n      tag_266\n      jumpi\n        /* \"#utility.yul\":8778:8796   */\n      tag_267\n      tag_156\n      jump\t// in\n    tag_267:\n        /* \"#utility.yul\":8722:8806   */\n    tag_266:\n        /* \"#utility.yul\":8543:8812   */\n      pop\n        /* \"#utility.yul\":8492:8812   */\n      swap2\n      swap1\n      pop\n      jump\t// out\n        /* \"#utility.yul\":8818:8959   */\n    tag_157:\n        /* \"#utility.yul\":8867:8871   */\n      0x00\n        /* \"#utility.yul\":8890:8893   */\n      dup2\n        /* \"#utility.yul\":8882:8893   */\n      swap1\n      pop\n        /* \"#utility.yul\":8913:8916   */\n      dup2\n        /* \"#utility.yul\":8910:8911   */\n      0x00\n        /* \"#utility.yul\":8903:8917   */\n      mstore\n        /* \"#utility.yul\":8947:8951   */\n      0x20\n        /* \"#utility.yul\":8944:8945   */\n      0x00\n        /* \"#utility.yul\":8934:8952   */\n      keccak256\n        /* \"#utility.yul\":8926:8952   */\n      swap1\n      pop\n        /* \"#utility.yul\":8818:8959   */\n      swap2\n      swap1\n      pop\n      jump\t// out\n        /* \"#utility.yul\":8965:9058   */\n    tag_158:\n        /* \"#utility.yul\":9002:9008   */\n      0x00\n        /* \"#utility.yul\":9049:9051   */\n      0x20\n        /* \"#utility.yul\":9044:9046   */\n      0x1f\n        /* \"#utility.yul\":9037:9042   */\n      dup4\n        /* \"#utility.yul\":9033:9047   */\n      add\n        /* \"#utility.yul\":9029:9052   */\n      div\n        /* \"#utility.yul\":9019:9052   */\n      swap1\n      pop\n        /* \"#utility.yul\":8965:9058   */\n      swap2\n      swap1\n      pop\n      jump\t// out\n        /* \"#utility.yul\":9064:9171   */\n    tag_159:\n        /* \"#utility.yul\":9108:9116   */\n      0x00\n        /* \"#utility.yul\":9158:9163   */\n      dup3\n        /* \"#utility.yul\":9152:9156   */\n      dup3\n        /* \"#utility.yul\":9148:9164   */\n      shl\n        /* \"#utility.yul\":9127:9164   */\n      swap1\n      pop\n        /* \"#utility.yul\":9064:9171   */\n      swap3\n      swap2\n      pop\n      pop\n      jump\t// out\n        /* \"#utility.yul\":9177:9570   */\n    tag_160:\n        /* \"#utility.yul\":9246:9252   */\n      0x00\n        /* \"#utility.yul\":9296:9297   */\n      0x08\n        /* \"#utility.yul\":9284:9294   */\n      dup4\n        /* \"#utility.yul\":9280:9298   */\n      mul\n        /* \"#utility.yul\":9319:9416   */\n      tag_272\n        /* \"#utility.yul\":9349:9415   */\n      0xffffffffffffffffffffffffffffffffffffffffffffffffffffffffffffffff\n        /* \"#utility.yul\":9338:9347   */\n      dup3\n        /* \"#utility.yul\":9319:9416   */\n      tag_159\n      jump\t// in\n    tag_272:\n        /* \"#utility.yul\":9437:9476   */\n      tag_273\n        /* \"#utility.yul\":9467:9475   */\n      dup7\n        /* \"#utility.yul\":9456:9465   */\n      dup4\n        /* \"#utility.yul\":9437:9476   */\n      tag_159\n      jump\t// in\n    tag_273:\n        /* \"#utility.yul\":9425:9476   */\n      swap6\n      pop\n        /* \"#utility.yul\":9509:9513   */\n      dup1\n        /* \"#utility.yul\":9505:9514   */\n      not\n        /* \"#utility.yul\":9498:9503   */\n      dup5\n        /* \"#utility.yul\":9494:9515   */\n      and\n        /* \"#utility.yul\":9485:9515   */\n      swap4\n      pop\n        /* \"#utility.yul\":9558:9562   */\n      dup1\n        /* \"#utility.yul\":9548:9556   */\n      dup7\n        /* \"#utility.yul\":9544:9563   */\n      and\n        /* \"#utility.yul\":9537:9542   */\n      dup5\n        /* \"#utility.yul\":9534:9564   */\n      or\n        /* \"#utility.yul\":9524:9564   */\n      swap3\n      pop\n        /* \"#utility.yul\":9253:9570   */\n      pop\n      pop\n        /* \"#utility.yul\":9177:9570   */\n      swap4\n      swap3\n      pop\n      pop\n      pop\n      jump\t// out\n        /* \"#utility.yul\":9576:9636   */\n    tag_161:\n        /* \"#utility.yul\":9604:9607   */\n      0x00\n        /* \"#utility.yul\":9625:9630   */\n      dup2\n        /* \"#utility.yul\":9618:9630   */\n      swap1\n      pop\n        /* \"#utility.yul\":9576:9636   */\n      swap2\n      swap1\n      pop\n      jump\t// out\n        /* \"#utility.yul\":9642:9784   */\n    tag_162:\n        /* \"#utility.yul\":9692:9701   */\n      0x00\n        /* \"#utility.yul\":9725:9778   */\n      tag_276\n        /* \"#utility.yul\":9743:9777   */\n      tag_277\n        /* \"#utility.yul\":9752:9776   */\n      tag_278\n        /* \"#utility.yul\":9770:9775   */\n      dup5\n        /* \"#utility.yul\":9752:9776   */\n      tag_148\n      jump\t// in\n    tag_278:\n        /* \"#utility.yul\":9743:9777   */\n      tag_161\n      jump\t// in\n    tag_277:\n        /* \"#utility.yul\":9725:9778   */\n      tag_148\n      jump\t// in\n    tag_276:\n        /* \"#utility.yul\":9712:9778   */\n      swap1\n      pop\n        /* \"#utility.yul\":9642:9784   */\n      swap2\n      swap1\n      pop\n      jump\t// out\n        /* \"#utility.yul\":9790:9865   */\n    tag_163:\n        /* \"#utility.yul\":9833:9836   */\n      0x00\n        /* \"#utility.yul\":9854:9859   */\n      dup2\n        /* \"#utility.yul\":9847:9859   */\n      swap1\n      pop\n        /* \"#utility.yul\":9790:9865   */\n      swap2\n      swap1\n      pop\n      jump\t// out\n        /* \"#utility.yul\":9871:10140   */\n    tag_164:\n        /* \"#utility.yul\":9981:10020   */\n      tag_281\n        /* \"#utility.yul\":10012:10019   */\n      dup4\n        /* \"#utility.yul\":9981:10020   */\n      tag_162\n      jump\t// in\n    tag_281:\n        /* \"#utility.yul\":10042:10133   */\n      tag_282\n        /* \"#utility.yul\":10091:10132   */\n      tag_283\n        /* \"#utility.yul\":10115:10131   */\n      dup3\n        /* \"#utility.yul\":10091:10132   */\n      tag_163\n      jump\t// in\n    tag_283:\n        /* \"#utility.yul\":10083:10089   */\n      dup5\n        /* \"#utility.yul\":10076:10080   */\n      dup5\n        /* \"#utility.yul\":10070:10081   */\n      sload\n        /* \"#utility.yul\":10042:10133   */\n      tag_160\n      jump\t// in\n    tag_282:\n        /* \"#utility.yul\":10036:10040   */\n      dup3\n        /* \"#utility.yul\":10029:10134   */\n      sstore\n        /* \"#utility.yul\":9947:10140   */\n      pop\n        /* \"#utility.yul\":9871:10140   */\n      pop\n      pop\n      pop\n      jump\t// out\n        /* \"#utility.yul\":10146:10219   */\n    tag_165:\n        /* \"#utility.yul\":10191:10194   */\n      0x00\n        /* \"#utility.yul\":10146:10219   */\n      swap1\n      jump\t// out\n        /* \"#utility.yul\":10225:10414   */\n    tag_166:\n        /* \"#utility.yul\":10302:10334   */\n      tag_286\n      tag_165\n      jump\t// in\n    tag_286:\n        /* \"#utility.yul\":10343:10408   */\n      tag_287\n        /* \"#utility.yul\":10401:10407   */\n      dup2\n        /* \"#utility.yul\":10393:10399   */\n      dup5\n        /* \"#utility.yul\":10387:10391   */\n      dup5\n        /* \"#utility.yul\":10343:10408   */\n      tag_164\n      jump\t// in\n    tag_287:\n        /* \"#utility.yul\":10278:10414   */\n      pop\n        /* \"#utility.yul\":10225:10414   */\n      pop\n      pop\n      jump\t// out\n        /* \"#utility.yul\":10420:10606   */\n    tag_167:\n        /* \"#utility.yul\":10480:10600   */\n    tag_289:\n        /* \"#utility.yul\":10497:10500   */\n      dup2\n        /* \"#utility.yul\":10490:10495   */\n      dup2\n        /* \"#utility.yul\":10487:10501   */\n      lt\n        /* \"#utility.yul\":10480:10600   */\n      iszero\n      tag_291\n      jumpi\n        /* \"#utility.yul\":10551:10590   */\n      tag_292\n        /* \"#utility.yul\":10588:10589   */\n      0x00\n        /* \"#utility.yul\":10581:10586   */\n      dup3\n        /* \"#utility.yul\":10551:10590   */\n      tag_166\n      jump\t// in\n    tag_292:\n        /* \"#utility.yul\":10524:10525   */\n      0x01\n        /* \"#utility.yul\":10517:10522   */\n      dup2\n        /* \"#utility.yul\":10513:10526   */\n      add\n        /* \"#utility.yul\":10504:10526   */\n      swap1\n      pop\n        /* \"#utility.yul\":10480:10600   */\n      jump(tag_289)\n    tag_291:\n        /* \"#utility.yul\":10420:10606   */\n      pop\n      pop\n      jump\t// out\n        /* \"#utility.yul\":10612:11155   */\n    tag_168:\n        /* \"#utility.yul\":10713:10715   */\n      0x1f\n        /* \"#utility.yul\":10708:10711   */\n      dup3\n        /* \"#utility.yul\":10705:10716   */\n      gt\n        /* \"#utility.yul\":10702:11148   */\n      iszero\n      tag_294\n      jumpi\n        /* \"#utility.yul\":10747:10785   */\n      tag_295\n        /* \"#utility.yul\":10779:10784   */\n      dup2\n        /* \"#utility.yul\":10747:10785   */\n      tag_157\n      jump\t// in\n    tag_295:\n        /* \"#utility.yul\":10831:10860   */\n      tag_296\n        /* \"#utility.yul\":10849:10859   */\n      dup5\n        /* \"#utility.yul\":10831:10860   */\n      tag_158\n      jump\t// in\n    tag_296:\n        /* \"#utility.yul\":10821:10829   */\n      dup2\n        /* \"#utility.yul\":10817:10861   */\n      add\n        /* \"#utility.yul\":11014:11016   */\n      0x20\n        /* \"#utility.yul\":11002:11012   */\n      dup6\n        /* \"#utility.yul\":10999:11017   */\n      lt\n        /* \"#utility.yul\":10996:11045   */\n      iszero\n      tag_297\n      jumpi\n        /* \"#utility.yul\":11035:11043   */\n      dup2\n        /* \"#utility.yul\":11020:11043   */\n      swap1\n      pop\n        /* \"#utility.yul\":10996:11045   */\n    tag_297:\n        /* \"#utility.yul\":11058:11138   */\n      tag_298\n        /* \"#utility.yul\":11114:11136   */\n      tag_299\n        /* \"#utility.yul\":11132:11135   */\n      dup6\n        /* \"#utility.yul\":11114:11136   */\n      tag_158\n      jump\t// in\n    tag_299:\n        /* \"#utility.yul\":11104:11112   */\n      dup4\n        /* \"#utility.yul\":11100:11137   */\n      add\n        /* \"#utility.yul\":11087:11098   */\n      dup3\n        /* \"#utility.yul\":11058:11138   */\n      tag_167\n      jump\t// in\n    tag_298:\n        /* \"#utility.yul\":10717:11148   */\n      pop\n      pop\n        /* \"#utility.yul\":10702:11148   */\n    tag_294:\n        /* \"#utility.yul\":10612:11155   */\n      pop\n      pop\n      pop\n      jump\t// out\n        /* \"#utility.yul\":11161:11278   */\n    tag_169:\n        /* \"#utility.yul\":11215:11223   */\n      0x00\n        /* \"#utility.yul\":11265:11270   */\n      dup3\n        /* \"#utility.yul\":11259:11263   */\n      dup3\n        /* \"#utility.yul\":11255:11271   */\n      shr\n        /* \"#utility.yul\":11234:11271   */\n      swap1\n      pop\n        /* \"#utility.yul\":11161:11278   */\n      swap3\n      swap2\n      pop\n      pop\n      jump\t// out\n        /* \"#utility.yul\":11284:11453   */\n    tag_170:\n        /* \"#utility.yul\":11328:11334   */\n      0x00\n        /* \"#utility.yul\":11361:11412   */\n      tag_302\n        /* \"#utility.yul\":11409:11410   */\n      0x00\n        /* \"#utility.yul\":11405:11411   */\n      not\n        /* \"#utility.yul\":11397:11402   */\n      dup5\n        /* \"#utility.yul\":11394:11395   */\n      0x08\n        /* \"#utility.yul\":11390:11403   */\n      mul\n        /* \"#utility.yul\":11361:11412   */\n      tag_169\n      jump\t// in\n    tag_302:\n        /* \"#utility.yul\":11357:11413   */\n      not\n        /* \"#utility.yul\":11442:11446   */\n      dup1\n        /* \"#utility.yul\":11436:11440   */\n      dup4\n        /* \"#utility.yul\":11432:11447   */\n      and\n        /* \"#utility.yul\":11422:11447   */\n      swap2\n      pop\n        /* \"#utility.yul\":11335:11453   */\n      pop\n        /* \"#utility.yul\":11284:11453   */\n      swap3\n      swap2\n      pop\n      pop\n      jump\t// out\n        /* \"#utility.yul\":11458:11753   */\n    tag_171:\n        /* \"#utility.yul\":11534:11538   */\n      0x00\n        /* \"#utility.yul\":11680:11709   */\n      tag_304\n        /* \"#utility.yul\":11705:11708   */\n      dup4\n        /* \"#utility.yul\":11699:11703   */\n      dup4\n        /* \"#utility.yul\":11680:11709   */\n      tag_170\n      jump\t// in\n    tag_304:\n        /* \"#utility.yul\":11672:11709   */\n      swap2\n      pop\n        /* \"#utility.yul\":11742:11745   */\n      dup3\n        /* \"#utility.yul\":11739:11740   */\n      0x02\n        /* \"#utility.yul\":11735:11746   */\n      mul\n        /* \"#utility.yul\":11729:11733   */\n      dup3\n        /* \"#utility.yul\":11726:11747   */\n      or\n        /* \"#utility.yul\":11718:11747   */\n      swap1\n      pop\n        /* \"#utility.yul\":11458:11753   */\n      swap3\n      swap2\n      pop\n      pop\n      jump\t// out\n        /* \"#utility.yul\":11758:13153   */\n    tag_88:\n        /* \"#utility.yul\":11875:11912   */\n      tag_306\n        /* \"#utility.yul\":11908:11911   */\n      dup3\n        /* \"#utility.yul\":11875:11912   */\n      tag_150\n      jump\t// in\n    tag_306:\n        /* \"#utility.yul\":11977:11995   */\n      0xffffffffffffffff\n        /* \"#utility.yul\":11969:11975   */\n      dup2\n        /* \"#utility.yul\":11966:11996   */\n      gt\n        /* \"#utility.yul\":11963:12019   */\n      iszero\n      tag_307\n      jumpi\n        /* \"#utility.yul\":11999:12017   */\n      tag_308\n      tag_141\n      jump\t// in\n    tag_308:\n        /* \"#utility.yul\":11963:12019   */\n    tag_307:\n        /* \"#utility.yul\":12043:12081   */\n      tag_309\n        /* \"#utility.yul\":12075:12079   */\n      dup3\n        /* \"#utility.yul\":12069:12080   */\n      sload\n        /* \"#utility.yul\":12043:12081   */\n      tag_68\n      jump\t// in\n    tag_309:\n        /* \"#utility.yul\":12128:12195   */\n      tag_310\n        /* \"#utility.yul\":12188:12194   */\n      dup3\n        /* \"#utility.yul\":12180:12186   */\n      dup3\n        /* \"#utility.yul\":12174:12178   */\n      dup6\n        /* \"#utility.yul\":12128:12195   */\n      tag_168\n      jump\t// in\n    tag_310:\n        /* \"#utility.yul\":12222:12223   */\n      0x00\n        /* \"#utility.yul\":12246:12250   */\n      0x20\n        /* \"#utility.yul\":12233:12250   */\n      swap1\n      pop\n        /* \"#utility.yul\":12278:12280   */\n      0x1f\n        /* \"#utility.yul\":12270:12276   */\n      dup4\n        /* \"#utility.yul\":12267:12281   */\n      gt\n        /* \"#utility.yul\":12295:12296   */\n      0x01\n        /* \"#utility.yul\":12290:12908   */\n      dup2\n      eq\n      tag_312\n      jumpi\n        /* \"#utility.yul\":12952:12953   */\n      0x00\n        /* \"#utility.yul\":12969:12975   */\n      dup5\n        /* \"#utility.yul\":12966:13043   */\n      iszero\n      tag_313\n      jumpi\n        /* \"#utility.yul\":13018:13027   */\n      dup3\n        /* \"#utility.yul\":13013:13016   */\n      dup8\n        /* \"#utility.yul\":13009:13028   */\n      add\n        /* \"#utility.yul\":13003:13029   */\n      mload\n        /* \"#utility.yul\":12994:13029   */\n      swap1\n      pop\n        /* \"#utility.yul\":12966:13043   */\n    tag_313:\n        /* \"#utility.yul\":13069:13136   */\n      tag_314\n        /* \"#utility.yul\":13129:13135   */\n      dup6\n        /* \"#utility.yul\":13122:13127   */\n      dup3\n        /* \"#utility.yul\":13069:13136   */\n      tag_171\n      jump\t// in\n    tag_314:\n        /* \"#utility.yul\":13063:13067   */\n      dup7\n        /* \"#utility.yul\":13056:13137   */\n      sstore\n        /* \"#utility.yul\":12925:13147   */\n      pop\n        /* \"#utility.yul\":12260:13147   */\n      jump(tag_311)\n        /* \"#utility.yul\":12290:12908   */\n    tag_312:\n        /* \"#utility.yul\":12342:12346   */\n      0x1f\n        /* \"#utility.yul\":12338:12347   */\n      not\n        /* \"#utility.yul\":12330:12336   */\n      dup5\n        /* \"#utility.yul\":12326:12348   */\n      and\n        /* \"#utility.yul\":12376:12413   */\n      tag_315\n        /* \"#utility.yul\":12408:12412   */\n      dup7\n        /* \"#utility.yul\":12376:12413   */\n      tag_157\n      jump\t// in\n    tag_315:\n        /* \"#utility.yul\":12435:12436   */\n      0x00\n        /* \"#utility.yul\":12449:12657   */\n    tag_316:\n        /* \"#utility.yul\":12463:12470   */\n      dup3\n        /* \"#utility.yul\":12460:12461   */\n      dup2\n        /* \"#utility.yul\":12457:12471   */\n      lt\n        /* \"#utility.yul\":12449:12657   */\n      iszero\n      tag_318\n      jumpi\n        /* \"#utility.yul\":12542:12551   */\n      dup5\n        /* \"#utility.yul\":12537:12540   */\n      dup10\n        /* \"#utility.yul\":12533:12552   */\n      add\n        /* \"#utility.yul\":12527:12553   */\n      mload\n        /* \"#utility.yul\":12519:12525   */\n      dup3\n        /* \"#utility.yul\":12512:12554   */\n      sstore\n        /* \"#utility.yul\":12593:12594   */\n      0x01\n        /* \"#utility.yul\":12585:12591   */\n      dup3\n        /* \"#utility.yul\":12581:12595   */\n      add\n        /* \"#utility.yul\":12571:12595   */\n      swap2\n      pop\n        /* \"#utility.yul\":12640:12642   */\n      0x20\n        /* \"#utility.yul\":12629:12638   */\n      dup6\n        /* \"#utility.yul\":12625:12643   */\n      add\n        /* \"#utility.yul\":12612:12643   */\n      swap5\n      pop\n        /* \"#utility.yul\":12486:12490   */\n      0x20\n        /* \"#utility.yul\":12483:12484   */\n      dup2\n        /* \"#utility.yul\":12479:12491   */\n      add\n        /* \"#utility.yul\":12474:12491   */\n      swap1\n      pop\n        /* \"#utility.yul\":12449:12657   */\n      jump(tag_316)\n    tag_318:\n        /* \"#utility.yul\":12685:12691   */\n      dup7\n        /* \"#utility.yul\":12676:12683   */\n      dup4\n        /* \"#utility.yul\":12673:12692   */\n      lt\n        /* \"#utility.yul\":12670:12849   */\n      iszero\n      tag_319\n      jumpi\n        /* \"#utility.yul\":12743:12752   */\n      dup5\n        /* \"#utility.yul\":12738:12741   */\n      dup10\n        /* \"#utility.yul\":12734:12753   */\n      add\n        /* \"#utility.yul\":12728:12754   */\n      mload\n        /* \"#utility.yul\":12786:12834   */\n      tag_320\n        /* \"#utility.yul\":12828:12832   */\n      0x1f\n        /* \"#utility.yul\":12820:12826   */\n      dup10\n        /* \"#utility.yul\":12816:12833   */\n      and\n        /* \"#utility.yul\":12805:12814   */\n      dup3\n        /* \"#utility.yul\":12786:12834   */\n      tag_170\n      jump\t// in\n    tag_320:\n        /* \"#utility.yul\":12778:12784   */\n      dup4\n        /* \"#utility.yul\":12771:12835   */\n      sstore\n        /* \"#utility.yul\":12693:12849   */\n      pop\n        /* \"#utility.yul\":12670:12849   */\n    tag_319:\n        /* \"#utility.yul\":12895:12896   */\n      0x01\n        /* \"#utility.yul\":12891:12892   */\n      0x02\n        /* \"#utility.yul\":12883:12889   */\n      dup9\n        /* \"#utility.yul\":12879:12893   */\n      mul\n        /* \"#utility.yul\":12875:12897   */\n      add\n        /* \"#utility.yul\":12869:12873   */\n      dup9\n        /* \"#utility.yul\":12862:12898   */\n      sstore\n        /* \"#utility.yul\":12297:12908   */\n      pop\n      pop\n      pop\n        /* \"#utility.yul\":12260:13147   */\n    tag_311:\n      pop\n        /* \"#utility.yul\":11850:13153   */\n      pop\n      pop\n      pop\n        /* \"#utility.yul\":11758:13153   */\n      pop\n      pop\n      jump\t// out\n        /* \"#utility.yul\":13159:13307   */\n    tag_172:\n        /* \"#utility.yul\":13261:13272   */\n      0x00\n        /* \"#utility.yul\":13298:13301   */\n      dup2\n        /* \"#utility.yul\":13283:13301   */\n      swap1\n      pop\n        /* \"#utility.yul\":13159:13307   */\n      swap3\n      swap2\n      pop\n      pop\n      jump\t// out\n        /* \"#utility.yul\":13313:13703   */\n    tag_173:\n        /* \"#utility.yul\":13419:13422   */\n      0x00\n        /* \"#utility.yul\":13447:13486   */\n      tag_323\n        /* \"#utility.yul\":13480:13485   */\n      dup3\n        /* \"#utility.yul\":13447:13486   */\n      tag_150\n      jump\t// in\n    tag_323:\n        /* \"#utility.yul\":13502:13591   */\n      tag_324\n        /* \"#utility.yul\":13584:13590   */\n      dup2\n        /* \"#utility.yul\":13579:13582   */\n      dup6\n        /* \"#utility.yul\":13502:13591   */\n      tag_172\n      jump\t// in\n    tag_324:\n        /* \"#utility.yul\":13495:13591   */\n      swap4\n      pop\n        /* \"#utility.yul\":13600:13665   */\n      tag_325\n        /* \"#utility.yul\":13658:13664   */\n      dup2\n        /* \"#utility.yul\":13653:13656   */\n      dup6\n        /* \"#utility.yul\":13646:13650   */\n      0x20\n        /* \"#utility.yul\":13639:13644   */\n      dup7\n        /* \"#utility.yul\":13635:13651   */\n      add\n        /* \"#utility.yul\":13600:13665   */\n      tag_152\n      jump\t// in\n    tag_325:\n        /* \"#utility.yul\":13690:13696   */\n      dup1\n        /* \"#utility.yul\":13685:13688   */\n      dup5\n        /* \"#utility.yul\":13681:13697   */\n      add\n        /* \"#utility.yul\":13674:13697   */\n      swap2\n      pop\n        /* \"#utility.yul\":13423:13703   */\n      pop\n        /* \"#utility.yul\":13313:13703   */\n      swap3\n      swap2\n      pop\n      pop\n      jump\t// out\n        /* \"#utility.yul\":13709:13984   */\n    tag_91:\n        /* \"#utility.yul\":13841:13844   */\n      0x00\n        /* \"#utility.yul\":13863:13958   */\n      tag_327\n        /* \"#utility.yul\":13954:13957   */\n      dup3\n        /* \"#utility.yul\":13945:13951   */\n      dup5\n        /* \"#utility.yul\":13863:13958   */\n      tag_173\n      jump\t// in\n    tag_327:\n        /* \"#utility.yul\":13856:13958   */\n      swap2\n      pop\n        /* \"#utility.yul\":13975:13978   */\n      dup2\n        /* \"#utility.yul\":13968:13978   */\n      swap1\n      pop\n        /* \"#utility.yul\":13709:13984   */\n      swap3\n      swap2\n      pop\n      pop\n      jump\t// out\n\n    auxdata: 0xa264697066735822122005cc40a40576ec1996bb800f6ad4db51f0ab92547f9120f4c01459da84c13ce564736f6c63430008120033\n}\n",
				"bytecode": {
					"linkReferences": {},
					"object": "60806040526107ce60035560405180608001604052806040518060400160405280600781526020017f52616e6765727300000000000000000000000000000000000000000000000000815250815260200160178152602001601481526020016040518060400160405280600681526020017f59656c6c6f77000000000000000000000000000000000000000000000000000081525081525060066000820151816000019081620000b0919062000442565b5060208201518160010155604082015181600201556060820151816003019081620000dc919062000442565b50505060405180608001604052806040518060400160405280600781526020017f4368656c736561000000000000000000000000000000000000000000000000008152508152602001602d8152602001601781526020016040518060400160405280600481526020017f426c756500000000000000000000000000000000000000000000000000000000815250815250600a600082015181600001908162000185919062000442565b5060208201518160010155604082015181600201556060820151816003019081620001b1919062000442565b505050348015620001c157600080fd5b5062000529565b600081519050919050565b7f4e487b7100000000000000000000000000000000000000000000000000000000600052604160045260246000fd5b7f4e487b7100000000000000000000000000000000000000000000000000000000600052602260045260246000fd5b600060028204905060018216806200024a57607f821691505b60208210810362000260576200025f62000202565b5b50919050565b60008190508160005260206000209050919050565b60006020601f8301049050919050565b600082821b905092915050565b600060088302620002ca7fffffffffffffffffffffffffffffffffffffffffffffffffffffffffffffffff826200028b565b620002d686836200028b565b95508019841693508086168417925050509392505050565b6000819050919050565b6000819050919050565b6000620003236200031d6200031784620002ee565b620002f8565b620002ee565b9050919050565b6000819050919050565b6200033f8362000302565b620003576200034e826200032a565b84845462000298565b825550505050565b600090565b6200036e6200035f565b6200037b81848462000334565b505050565b5b81811015620003a3576200039760008262000364565b60018101905062000381565b5050565b601f821115620003f257620003bc8162000266565b620003c7846200027b565b81016020851015620003d7578190505b620003ef620003e6856200027b565b83018262000380565b50505b505050565b600082821c905092915050565b60006200041760001984600802620003f7565b1980831691505092915050565b600062000432838362000404565b9150826002028217905092915050565b6200044d82620001c8565b67ffffffffffffffff811115620004695762000468620001d3565b5b62000475825462000231565b62000482828285620003a7565b600060209050601f831160018114620004ba5760008415620004a5578287015190505b620004b1858262000424565b86555062000521565b601f198416620004ca8662000266565b60005b82811015620004f457848901518255600182019150602085019450602081019050620004cd565b8683101562000514578489015162000510601f89168262000404565b8355505b6001600288020188555050505b505050505050565b61129c80620005396000396000f3fe608060405234801561001057600080fd5b50600436106100b45760003560e01c8063554d5de711610071578063554d5de7146101ba5780636546e787146101eb57806390c3ee4d1461020757806393090c2114610237578063d8ad175f14610267578063e4fa60a614610288576100b4565b80630f957756146100b95780631f92c704146100e957806322c8b94e1461010a578063273e2cc41461013b57806335784ef11461016b5780633ed2b77a14610187575b600080fd5b6100d360048036038101906100ce9190610c40565b6102a4565b6040516100e09190610ca2565b60405180910390f35b6100f16102d2565b6040516101019493929190610d3c565b60405180910390f35b610124600480360381019061011f9190610dbb565b610400565b604051610132929190610de8565b60405180910390f35b61015560048036038101906101509190610c40565b6104bc565b6040516101629190610ca2565b60405180910390f35b61018560048036038101906101809190610e18565b6104ea565b005b6101a1600480360381019061019c9190610dbb565b6105b0565b6040516101b19493929190610d3c565b60405180910390f35b6101d460048036038101906101cf9190610dbb565b610700565b6040516101e2929190610de8565b60405180910390f35b61020560048036038101906102009190610eb7565b6107bc565b005b610221600480360381019061021c9190610c40565b61084b565b60405161022e9190610ca2565b60405180910390f35b610251600480360381019061024c9190610c40565b610879565b60405161025e9190610f13565b60405180910390f35b61026f61092f565b60405161027f9493929190610d3c565b60405180910390f35b6102a2600480360381019061029d9190610eb7565b610a5d565b005b6000818051602081018201805184825260208301602085012081835280955050505050506000915090505481565b60068060000180546102e390610f64565b80601f016020809104026020016040519081016040528092919081815260200182805461030f90610f64565b801561035c5780601f106103315761010080835404028352916020019161035c565b820191906000526020600020905b81548152906001019060200180831161033f57829003601f168201915b50505050509080600101549080600201549080600301805461037d90610f64565b80601f01602080910402602001604051908101604052809291908181526020018280546103a990610f64565b80156103f65780601f106103cb576101008083540402835291602001916103f6565b820191906000526020600020905b8154815290600101906020018083116103d957829003601f168201915b5050505050905084565b6005818154811061041057600080fd5b906000526020600020906002020160009150905080600001805461043390610f64565b80601f016020809104026020016040519081016040528092919081815260200182805461045f90610f64565b80156104ac5780601f10610481576101008083540402835291602001916104ac565b820191906000526020600020905b81548152906001019060200180831161048f57829003601f168201915b5050505050908060010154905082565b6002818051602081018201805184825260208301602085012081835280955050505050506000915090505481565b60006040518060800160405280868152602001858152602001848152602001838152509050600e81908060018154018082558091505060019003906000526020600020906004020160009091909190915060008201518160000190816105509190611141565b506020820151816001015560408201518160020155606082015181600301908161057a9190611141565b50505081600f8660405161058e919061124f565b908152602001604051809103902090816105a89190611141565b505050505050565b600e81815481106105c057600080fd5b90600052602060002090600402016000915090508060000180546105e390610f64565b80601f016020809104026020016040519081016040528092919081815260200182805461060f90610f64565b801561065c5780601f106106315761010080835404028352916020019161065c565b820191906000526020600020905b81548152906001019060200180831161063f57829003601f168201915b50505050509080600101549080600201549080600301805461067d90610f64565b80601f01602080910402602001604051908101604052809291908181526020018280546106a990610f64565b80156106f65780601f106106cb576101008083540402835291602001916106f6565b820191906000526020600020905b8154815290600101906020018083116106d957829003601f168201915b5050505050905084565b6001818154811061071057600080fd5b906000526020600020906002020160009150905080600001805461073390610f64565b80601f016020809104026020016040519081016040528092919081815260200182805461075f90610f64565b80156107ac5780601f10610781576101008083540402835291602001916107ac565b820191906000526020600020905b81548152906001019060200180831161078f57829003601f168201915b5050505050908060010154905082565b60006040518060400160405280848152602001838152509050600181908060018154018082558091505060019003906000526020600020906002020160009091909190915060008201518160000190816108169190611141565b5060208201518160010155505081600284604051610834919061124f565b908152602001604051809103902081905550505050565b6004818051602081018201805184825260208301602085012081835280955050505050506000915090505481565b600f8180516020810182018051848252602083016020850120818352809550505050505060009150905080546108ae90610f64565b80601f01602080910402602001604051908101604052809291908181526020018280546108da90610f64565b80156109275780601f106108fc57610100808354040283529160200191610927565b820191906000526020600020905b81548152906001019060200180831161090a57829003601f168201915b505050505081565b600a80600001805461094090610f64565b80601f016020809104026020016040519081016040528092919081815260200182805461096c90610f64565b80156109b95780601f1061098e576101008083540402835291602001916109b9565b820191906000526020600020905b81548152906001019060200180831161099c57829003601f168201915b5050505050908060010154908060020154908060030180546109da90610f64565b80601f0160208091040260200160405190810160405280929190818152602001828054610a0690610f64565b8015610a535780601f10610a2857610100808354040283529160200191610a53565b820191906000526020600020905b815481529060010190602001808311610a3657829003601f168201915b5050505050905084565b600560405180604001604052808481526020018381525090806001815401808255809150506001900390600052602060002090600202016000909190919091506000820151816000019081610ab29190611141565b5060208201518160010155505080600483604051610ad0919061124f565b9081526020016040518091039020819055505050565b6000604051905090565b600080fd5b600080fd5b600080fd5b600080fd5b6000601f19601f8301169050919050565b7f4e487b7100000000000000000000000000000000000000000000000000000000600052604160045260246000fd5b610b4d82610b04565b810181811067ffffffffffffffff82111715610b6c57610b6b610b15565b5b80604052505050565b6000610b7f610ae6565b9050610b8b8282610b44565b919050565b600067ffffffffffffffff821115610bab57610baa610b15565b5b610bb482610b04565b9050602081019050919050565b82818337600083830152505050565b6000610be3610bde84610b90565b610b75565b905082815260208101848484011115610bff57610bfe610aff565b5b610c0a848285610bc1565b509392505050565b600082601f830112610c2757610c26610afa565b5b8135610c37848260208601610bd0565b91505092915050565b600060208284031215610c5657610c55610af0565b5b600082013567ffffffffffffffff811115610c7457610c73610af5565b5b610c8084828501610c12565b91505092915050565b6000819050919050565b610c9c81610c89565b82525050565b6000602082019050610cb76000830184610c93565b92915050565b600081519050919050565b600082825260208201905092915050565b60005b83811015610cf7578082015181840152602081019050610cdc565b60008484015250505050565b6000610d0e82610cbd565b610d188185610cc8565b9350610d28818560208601610cd9565b610d3181610b04565b840191505092915050565b60006080820190508181036000830152610d568187610d03565b9050610d656020830186610c93565b610d726040830185610c93565b8181036060830152610d848184610d03565b905095945050505050565b610d9881610c89565b8114610da357600080fd5b50565b600081359050610db581610d8f565b92915050565b600060208284031215610dd157610dd0610af0565b5b6000610ddf84828501610da6565b91505092915050565b60006040820190508181036000830152610e028185610d03565b9050610e116020830184610c93565b9392505050565b60008060008060808587031215610e3257610e31610af0565b5b600085013567ffffffffffffffff811115610e5057610e4f610af5565b5b610e5c87828801610c12565b9450506020610e6d87828801610da6565b9350506040610e7e87828801610da6565b925050606085013567ffffffffffffffff811115610e9f57610e9e610af5565b5b610eab87828801610c12565b91505092959194509250565b60008060408385031215610ece57610ecd610af0565b5b600083013567ffffffffffffffff811115610eec57610eeb610af5565b5b610ef885828601610c12565b9250506020610f0985828601610da6565b9150509250929050565b60006020820190508181036000830152610f2d8184610d03565b905092915050565b7f4e487b7100000000000000000000000000000000000000000000000000000000600052602260045260246000fd5b60006002820490506001821680610f7c57607f821691505b602082108103610f8f57610f8e610f35565b5b50919050565b60008190508160005260206000209050919050565b60006020601f8301049050919050565b600082821b905092915050565b600060088302610ff77fffffffffffffffffffffffffffffffffffffffffffffffffffffffffffffffff82610fba565b6110018683610fba565b95508019841693508086168417925050509392505050565b6000819050919050565b600061103e61103961103484610c89565b611019565b610c89565b9050919050565b6000819050919050565b61105883611023565b61106c61106482611045565b848454610fc7565b825550505050565b600090565b611081611074565b61108c81848461104f565b505050565b5b818110156110b0576110a5600082611079565b600181019050611092565b5050565b601f8211156110f5576110c681610f95565b6110cf84610faa565b810160208510156110de578190505b6110f26110ea85610faa565b830182611091565b50505b505050565b600082821c905092915050565b6000611118600019846008026110fa565b1980831691505092915050565b60006111318383611107565b9150826002028217905092915050565b61114a82610cbd565b67ffffffffffffffff81111561116357611162610b15565b5b61116d8254610f64565b6111788282856110b4565b600060209050601f8311600181146111ab5760008415611199578287015190505b6111a38582611125565b86555061120b565b601f1984166111b986610f95565b60005b828110156111e1578489015182556001820191506020850194506020810190506111bc565b868310156111fe57848901516111fa601f891682611107565b8355505b6001600288020188555050505b505050505050565b600081905092915050565b600061122982610cbd565b6112338185611213565b9350611243818560208601610cd9565b80840191505092915050565b600061125b828461121e565b91508190509291505056fea264697066735822122005cc40a40576ec1996bb800f6ad4db51f0ab92547f9120f4c01459da84c13ce564736f6c63430008120033",
					"opcodes": "PUSH1 0x80 PUSH1 0x40 MSTORE PUSH2 0x7CE PUSH1 0x3 SSTORE PUSH1 0x40 MLOAD DUP1 PUSH1 0x80 ADD PUSH1 0x40 MSTORE DUP1 PUSH1 0x40 MLOAD DUP1 PUSH1 0x40 ADD PUSH1 0x40 MSTORE DUP1 PUSH1 0x7 DUP2 MSTORE PUSH1 0x20 ADD PUSH32 0x52616E6765727300000000000000000000000000000000000000000000000000 DUP2 MSTORE POP DUP2 MSTORE PUSH1 0x20 ADD PUSH1 0x17 DUP2 MSTORE PUSH1 0x20 ADD PUSH1 0x14 DUP2 MSTORE PUSH1 0x20 ADD PUSH1 0x40 MLOAD DUP1 PUSH1 0x40 ADD PUSH1 0x40 MSTORE DUP1 PUSH1 0x6 DUP2 MSTORE PUSH1 0x20 ADD PUSH32 0x59656C6C6F770000000000000000000000000000000000000000000000000000 DUP2 MSTORE POP DUP2 MSTORE POP PUSH1 0x6 PUSH1 0x0 DUP3 ADD MLOAD DUP2 PUSH1 0x0 ADD SWAP1 DUP2 PUSH3 0xB0 SWAP2 SWAP1 PUSH3 0x442 JUMP JUMPDEST POP PUSH1 0x20 DUP3 ADD MLOAD DUP2 PUSH1 0x1 ADD SSTORE PUSH1 0x40 DUP3 ADD MLOAD DUP2 PUSH1 0x2 ADD SSTORE PUSH1 0x60 DUP3 ADD MLOAD DUP2 PUSH1 0x3 ADD SWAP1 DUP2 PUSH3 0xDC SWAP2 SWAP1 PUSH3 0x442 JUMP JUMPDEST POP POP POP PUSH1 0x40 MLOAD DUP1 PUSH1 0x80 ADD PUSH1 0x40 MSTORE DUP1 PUSH1 0x40 MLOAD DUP1 PUSH1 0x40 ADD PUSH1 0x40 MSTORE DUP1 PUSH1 0x7 DUP2 MSTORE PUSH1 0x20 ADD PUSH32 0x4368656C73656100000000000000000000000000000000000000000000000000 DUP2 MSTORE POP DUP2 MSTORE PUSH1 0x20 ADD PUSH1 0x2D DUP2 MSTORE PUSH1 0x20 ADD PUSH1 0x17 DUP2 MSTORE PUSH1 0x20 ADD PUSH1 0x40 MLOAD DUP1 PUSH1 0x40 ADD PUSH1 0x40 MSTORE DUP1 PUSH1 0x4 DUP2 MSTORE PUSH1 0x20 ADD PUSH32 0x426C756500000000000000000000000000000000000000000000000000000000 DUP2 MSTORE POP DUP2 MSTORE POP PUSH1 0xA PUSH1 0x0 DUP3 ADD MLOAD DUP2 PUSH1 0x0 ADD SWAP1 DUP2 PUSH3 0x185 SWAP2 SWAP1 PUSH3 0x442 JUMP JUMPDEST POP PUSH1 0x20 DUP3 ADD MLOAD DUP2 PUSH1 0x1 ADD SSTORE PUSH1 0x40 DUP3 ADD MLOAD DUP2 PUSH1 0x2 ADD SSTORE PUSH1 0x60 DUP3 ADD MLOAD DUP2 PUSH1 0x3 ADD SWAP1 DUP2 PUSH3 0x1B1 SWAP2 SWAP1 PUSH3 0x442 JUMP JUMPDEST POP POP POP CALLVALUE DUP1 ISZERO PUSH3 0x1C1 JUMPI PUSH1 0x0 DUP1 REVERT JUMPDEST POP PUSH3 0x529 JUMP JUMPDEST PUSH1 0x0 DUP2 MLOAD SWAP1 POP SWAP2 SWAP1 POP JUMP JUMPDEST PUSH32 0x4E487B7100000000000000000000000000000000000000000000000000000000 PUSH1 0x0 MSTORE PUSH1 0x41 PUSH1 0x4 MSTORE PUSH1 0x24 PUSH1 0x0 REVERT JUMPDEST PUSH32 0x4E487B7100000000000000000000000000000000000000000000000000000000 PUSH1 0x0 MSTORE PUSH1 0x22 PUSH1 0x4 MSTORE PUSH1 0x24 PUSH1 0x0 REVERT JUMPDEST PUSH1 0x0 PUSH1 0x2 DUP3 DIV SWAP1 POP PUSH1 0x1 DUP3 AND DUP1 PUSH3 0x24A JUMPI PUSH1 0x7F DUP3 AND SWAP2 POP JUMPDEST PUSH1 0x20 DUP3 LT DUP2 SUB PUSH3 0x260 JUMPI PUSH3 0x25F PUSH3 0x202 JUMP JUMPDEST JUMPDEST POP SWAP2 SWAP1 POP JUMP JUMPDEST PUSH1 0x0 DUP2 SWAP1 POP DUP2 PUSH1 0x0 MSTORE PUSH1 0x20 PUSH1 0x0 KECCAK256 SWAP1 POP SWAP2 SWAP1 POP JUMP JUMPDEST PUSH1 0x0 PUSH1 0x20 PUSH1 0x1F DUP4 ADD DIV SWAP1 POP SWAP2 SWAP1 POP JUMP JUMPDEST PUSH1 0x0 DUP3 DUP3 SHL SWAP1 POP SWAP3 SWAP2 POP POP JUMP JUMPDEST PUSH1 0x0 PUSH1 0x8 DUP4 MUL PUSH3 0x2CA PUSH32 0xFFFFFFFFFFFFFFFFFFFFFFFFFFFFFFFFFFFFFFFFFFFFFFFFFFFFFFFFFFFFFFFF DUP3 PUSH3 0x28B JUMP JUMPDEST PUSH3 0x2D6 DUP7 DUP4 PUSH3 0x28B JUMP JUMPDEST SWAP6 POP DUP1 NOT DUP5 AND SWAP4 POP DUP1 DUP7 AND DUP5 OR SWAP3 POP POP POP SWAP4 SWAP3 POP POP POP JUMP JUMPDEST PUSH1 0x0 DUP2 SWAP1 POP SWAP2 SWAP1 POP JUMP JUMPDEST PUSH1 0x0 DUP2 SWAP1 POP SWAP2 SWAP1 POP JUMP JUMPDEST PUSH1 0x0 PUSH3 0x323 PUSH3 0x31D PUSH3 0x317 DUP5 PUSH3 0x2EE JUMP JUMPDEST PUSH3 0x2F8 JUMP JUMPDEST PUSH3 0x2EE JUMP JUMPDEST SWAP1 POP SWAP2 SWAP1 POP JUMP JUMPDEST PUSH1 0x0 DUP2 SWAP1 POP SWAP2 SWAP1 POP JUMP JUMPDEST PUSH3 0x33F DUP4 PUSH3 0x302 JUMP JUMPDEST PUSH3 0x357 PUSH3 0x34E DUP3 PUSH3 0x32A JUMP JUMPDEST DUP5 DUP5 SLOAD PUSH3 0x298 JUMP JUMPDEST DUP3 SSTORE POP POP POP POP JUMP JUMPDEST PUSH1 0x0 SWAP1 JUMP JUMPDEST PUSH3 0x36E PUSH3 0x35F JUMP JUMPDEST PUSH3 0x37B DUP2 DUP5 DUP5 PUSH3 0x334 JUMP JUMPDEST POP POP POP JUMP JUMPDEST JUMPDEST DUP2 DUP2 LT ISZERO PUSH3 0x3A3 JUMPI PUSH3 0x397 PUSH1 0x0 DUP3 PUSH3 0x364 JUMP JUMPDEST PUSH1 0x1 DUP2 ADD SWAP1 POP PUSH3 0x381 JUMP JUMPDEST POP POP JUMP JUMPDEST PUSH1 0x1F DUP3 GT ISZERO PUSH3 0x3F2 JUMPI PUSH3 0x3BC DUP2 PUSH3 0x266 JUMP JUMPDEST PUSH3 0x3C7 DUP5 PUSH3 0x27B JUMP JUMPDEST DUP2 ADD PUSH1 0x20 DUP6 LT ISZERO PUSH3 0x3D7 JUMPI DUP2 SWAP1 POP JUMPDEST PUSH3 0x3EF PUSH3 0x3E6 DUP6 PUSH3 0x27B JUMP JUMPDEST DUP4 ADD DUP3 PUSH3 0x380 JUMP JUMPDEST POP POP JUMPDEST POP POP POP JUMP JUMPDEST PUSH1 0x0 DUP3 DUP3 SHR SWAP1 POP SWAP3 SWAP2 POP POP JUMP JUMPDEST PUSH1 0x0 PUSH3 0x417 PUSH1 0x0 NOT DUP5 PUSH1 0x8 MUL PUSH3 0x3F7 JUMP JUMPDEST NOT DUP1 DUP4 AND SWAP2 POP POP SWAP3 SWAP2 POP POP JUMP JUMPDEST PUSH1 0x0 PUSH3 0x432 DUP4 DUP4 PUSH3 0x404 JUMP JUMPDEST SWAP2 POP DUP3 PUSH1 0x2 MUL DUP3 OR SWAP1 POP SWAP3 SWAP2 POP POP JUMP JUMPDEST PUSH3 0x44D DUP3 PUSH3 0x1C8 JUMP JUMPDEST PUSH8 0xFFFFFFFFFFFFFFFF DUP2 GT ISZERO PUSH3 0x469 JUMPI PUSH3 0x468 PUSH3 0x1D3 JUMP JUMPDEST JUMPDEST PUSH3 0x475 DUP3 SLOAD PUSH3 0x231 JUMP JUMPDEST PUSH3 0x482 DUP3 DUP3 DUP6 PUSH3 0x3A7 JUMP JUMPDEST PUSH1 0x0 PUSH1 0x20 SWAP1 POP PUSH1 0x1F DUP4 GT PUSH1 0x1 DUP2 EQ PUSH3 0x4BA JUMPI PUSH1 0x0 DUP5 ISZERO PUSH3 0x4A5 JUMPI DUP3 DUP8 ADD MLOAD SWAP1 POP JUMPDEST PUSH3 0x4B1 DUP6 DUP3 PUSH3 0x424 JUMP JUMPDEST DUP7 SSTORE POP PUSH3 0x521 JUMP JUMPDEST PUSH1 0x1F NOT DUP5 AND PUSH3 0x4CA DUP7 PUSH3 0x266 JUMP JUMPDEST PUSH1 0x0 JUMPDEST DUP3 DUP2 LT ISZERO PUSH3 0x4F4 JUMPI DUP5 DUP10 ADD MLOAD DUP3 SSTORE PUSH1 0x1 DUP3 ADD SWAP2 POP PUSH1 0x20 DUP6 ADD SWAP5 POP PUSH1 0x20 DUP2 ADD SWAP1 POP PUSH3 0x4CD JUMP JUMPDEST DUP7 DUP4 LT ISZERO PUSH3 0x514 JUMPI DUP5 DUP10 ADD MLOAD PUSH3 0x510 PUSH1 0x1F DUP10 AND DUP3 PUSH3 0x404 JUMP JUMPDEST DUP4 SSTORE POP JUMPDEST PUSH1 0x1 PUSH1 0x2 DUP9 MUL ADD DUP9 SSTORE POP POP POP JUMPDEST POP POP POP POP POP POP JUMP JUMPDEST PUSH2 0x129C DUP1 PUSH3 0x539 PUSH1 0x0 CODECOPY PUSH1 0x0 RETURN INVALID PUSH1 0x80 PUSH1 0x40 MSTORE CALLVALUE DUP1 ISZERO PUSH2 0x10 JUMPI PUSH1 0x0 DUP1 REVERT JUMPDEST POP PUSH1 0x4 CALLDATASIZE LT PUSH2 0xB4 JUMPI PUSH1 0x0 CALLDATALOAD PUSH1 0xE0 SHR DUP1 PUSH4 0x554D5DE7 GT PUSH2 0x71 JUMPI DUP1 PUSH4 0x554D5DE7 EQ PUSH2 0x1BA JUMPI DUP1 PUSH4 0x6546E787 EQ PUSH2 0x1EB JUMPI DUP1 PUSH4 0x90C3EE4D EQ PUSH2 0x207 JUMPI DUP1 PUSH4 0x93090C21 EQ PUSH2 0x237 JUMPI DUP1 PUSH4 0xD8AD175F EQ PUSH2 0x267 JUMPI DUP1 PUSH4 0xE4FA60A6 EQ PUSH2 0x288 JUMPI PUSH2 0xB4 JUMP JUMPDEST DUP1 PUSH4 0xF957756 EQ PUSH2 0xB9 JUMPI DUP1 PUSH4 0x1F92C704 EQ PUSH2 0xE9 JUMPI DUP1 PUSH4 0x22C8B94E EQ PUSH2 0x10A JUMPI DUP1 PUSH4 0x273E2CC4 EQ PUSH2 0x13B JUMPI DUP1 PUSH4 0x35784EF1 EQ PUSH2 0x16B JUMPI DUP1 PUSH4 0x3ED2B77A EQ PUSH2 0x187 JUMPI JUMPDEST PUSH1 0x0 DUP1 REVERT JUMPDEST PUSH2 0xD3 PUSH1 0x4 DUP1 CALLDATASIZE SUB DUP2 ADD SWAP1 PUSH2 0xCE SWAP2 SWAP1 PUSH2 0xC40 JUMP JUMPDEST PUSH2 0x2A4 JUMP JUMPDEST PUSH1 0x40 MLOAD PUSH2 0xE0 SWAP2 SWAP1 PUSH2 0xCA2 JUMP JUMPDEST PUSH1 0x40 MLOAD DUP1 SWAP2 SUB SWAP1 RETURN JUMPDEST PUSH2 0xF1 PUSH2 0x2D2 JUMP JUMPDEST PUSH1 0x40 MLOAD PUSH2 0x101 SWAP5 SWAP4 SWAP3 SWAP2 SWAP1 PUSH2 0xD3C JUMP JUMPDEST PUSH1 0x40 MLOAD DUP1 SWAP2 SUB SWAP1 RETURN JUMPDEST PUSH2 0x124 PUSH1 0x4 DUP1 CALLDATASIZE SUB DUP2 ADD SWAP1 PUSH2 0x11F SWAP2 SWAP1 PUSH2 0xDBB JUMP JUMPDEST PUSH2 0x400 JUMP JUMPDEST PUSH1 0x40 MLOAD PUSH2 0x132 SWAP3 SWAP2 SWAP1 PUSH2 0xDE8 JUMP JUMPDEST PUSH1 0x40 MLOAD DUP1 SWAP2 SUB SWAP1 RETURN JUMPDEST PUSH2 0x155 PUSH1 0x4 DUP1 CALLDATASIZE SUB DUP2 ADD SWAP1 PUSH2 0x150 SWAP2 SWAP1 PUSH2 0xC40 JUMP JUMPDEST PUSH2 0x4BC JUMP JUMPDEST PUSH1 0x40 MLOAD PUSH2 0x162 SWAP2 SWAP1 PUSH2 0xCA2 JUMP JUMPDEST PUSH1 0x40 MLOAD DUP1 SWAP2 SUB SWAP1 RETURN JUMPDEST PUSH2 0x185 PUSH1 0x4 DUP1 CALLDATASIZE SUB DUP2 ADD SWAP1 PUSH2 0x180 SWAP2 SWAP1 PUSH2 0xE18 JUMP JUMPDEST PUSH2 0x4EA JUMP JUMPDEST STOP JUMPDEST PUSH2 0x1A1 PUSH1 0x4 DUP1 CALLDATASIZE SUB DUP2 ADD SWAP1 PUSH2 0x19C SWAP2 SWAP1 PUSH2 0xDBB JUMP JUMPDEST PUSH2 0x5B0 JUMP JUMPDEST PUSH1 0x40 MLOAD PUSH2 0x1B1 SWAP5 SWAP4 SWAP3 SWAP2 SWAP1 PUSH2 0xD3C JUMP JUMPDEST PUSH1 0x40 MLOAD DUP1 SWAP2 SUB SWAP1 RETURN JUMPDEST PUSH2 0x1D4 PUSH1 0x4 DUP1 CALLDATASIZE SUB DUP2 ADD SWAP1 PUSH2 0x1CF SWAP2 SWAP1 PUSH2 0xDBB JUMP JUMPDEST PUSH2 0x700 JUMP JUMPDEST PUSH1 0x40 MLOAD PUSH2 0x1E2 SWAP3 SWAP2 SWAP1 PUSH2 0xDE8 JUMP JUMPDEST PUSH1 0x40 MLOAD DUP1 SWAP2 SUB SWAP1 RETURN JUMPDEST PUSH2 0x205 PUSH1 0x4 DUP1 CALLDATASIZE SUB DUP2 ADD SWAP1 PUSH2 0x200 SWAP2 SWAP1 PUSH2 0xEB7 JUMP JUMPDEST PUSH2 0x7BC JUMP JUMPDEST STOP JUMPDEST PUSH2 0x221 PUSH1 0x4 DUP1 CALLDATASIZE SUB DUP2 ADD SWAP1 PUSH2 0x21C SWAP2 SWAP1 PUSH2 0xC40 JUMP JUMPDEST PUSH2 0x84B JUMP JUMPDEST PUSH1 0x40 MLOAD PUSH2 0x22E SWAP2 SWAP1 PUSH2 0xCA2 JUMP JUMPDEST PUSH1 0x40 MLOAD DUP1 SWAP2 SUB SWAP1 RETURN JUMPDEST PUSH2 0x251 PUSH1 0x4 DUP1 CALLDATASIZE SUB DUP2 ADD SWAP1 PUSH2 0x24C SWAP2 SWAP1 PUSH2 0xC40 JUMP JUMPDEST PUSH2 0x879 JUMP JUMPDEST PUSH1 0x40 MLOAD PUSH2 0x25E SWAP2 SWAP1 PUSH2 0xF13 JUMP JUMPDEST PUSH1 0x40 MLOAD DUP1 SWAP2 SUB SWAP1 RETURN JUMPDEST PUSH2 0x26F PUSH2 0x92F JUMP JUMPDEST PUSH1 0x40 MLOAD PUSH2 0x27F SWAP5 SWAP4 SWAP3 SWAP2 SWAP1 PUSH2 0xD3C JUMP JUMPDEST PUSH1 0x40 MLOAD DUP1 SWAP2 SUB SWAP1 RETURN JUMPDEST PUSH2 0x2A2 PUSH1 0x4 DUP1 CALLDATASIZE SUB DUP2 ADD SWAP1 PUSH2 0x29D SWAP2 SWAP1 PUSH2 0xEB7 JUMP JUMPDEST PUSH2 0xA5D JUMP JUMPDEST STOP JUMPDEST PUSH1 0x0 DUP2 DUP1 MLOAD PUSH1 0x20 DUP2 ADD DUP3 ADD DUP1 MLOAD DUP5 DUP3 MSTORE PUSH1 0x20 DUP4 ADD PUSH1 0x20 DUP6 ADD KECCAK256 DUP2 DUP4 MSTORE DUP1 SWAP6 POP POP POP POP POP POP PUSH1 0x0 SWAP2 POP SWAP1 POP SLOAD DUP2 JUMP JUMPDEST PUSH1 0x6 DUP1 PUSH1 0x0 ADD DUP1 SLOAD PUSH2 0x2E3 SWAP1 PUSH2 0xF64 JUMP JUMPDEST DUP1 PUSH1 0x1F ADD PUSH1 0x20 DUP1 SWAP2 DIV MUL PUSH1 0x20 ADD PUSH1 0x40 MLOAD SWAP1 DUP2 ADD PUSH1 0x40 MSTORE DUP1 SWAP3 SWAP2 SWAP1 DUP2 DUP2 MSTORE PUSH1 0x20 ADD DUP3 DUP1 SLOAD PUSH2 0x30F SWAP1 PUSH2 0xF64 JUMP JUMPDEST DUP1 ISZERO PUSH2 0x35C JUMPI DUP1 PUSH1 0x1F LT PUSH2 0x331 JUMPI PUSH2 0x100 DUP1 DUP4 SLOAD DIV MUL DUP4 MSTORE SWAP2 PUSH1 0x20 ADD SWAP2 PUSH2 0x35C JUMP JUMPDEST DUP3 ADD SWAP2 SWAP1 PUSH1 0x0 MSTORE PUSH1 0x20 PUSH1 0x0 KECCAK256 SWAP1 JUMPDEST DUP2 SLOAD DUP2 MSTORE SWAP1 PUSH1 0x1 ADD SWAP1 PUSH1 0x20 ADD DUP1 DUP4 GT PUSH2 0x33F JUMPI DUP3 SWAP1 SUB PUSH1 0x1F AND DUP3 ADD SWAP2 JUMPDEST POP POP POP POP POP SWAP1 DUP1 PUSH1 0x1 ADD SLOAD SWAP1 DUP1 PUSH1 0x2 ADD SLOAD SWAP1 DUP1 PUSH1 0x3 ADD DUP1 SLOAD PUSH2 0x37D SWAP1 PUSH2 0xF64 JUMP JUMPDEST DUP1 PUSH1 0x1F ADD PUSH1 0x20 DUP1 SWAP2 DIV MUL PUSH1 0x20 ADD PUSH1 0x40 MLOAD SWAP1 DUP2 ADD PUSH1 0x40 MSTORE DUP1 SWAP3 SWAP2 SWAP1 DUP2 DUP2 MSTORE PUSH1 0x20 ADD DUP3 DUP1 SLOAD PUSH2 0x3A9 SWAP1 PUSH2 0xF64 JUMP JUMPDEST DUP1 ISZERO PUSH2 0x3F6 JUMPI DUP1 PUSH1 0x1F LT PUSH2 0x3CB JUMPI PUSH2 0x100 DUP1 DUP4 SLOAD DIV MUL DUP4 MSTORE SWAP2 PUSH1 0x20 ADD SWAP2 PUSH2 0x3F6 JUMP JUMPDEST DUP3 ADD SWAP2 SWAP1 PUSH1 0x0 MSTORE PUSH1 0x20 PUSH1 0x0 KECCAK256 SWAP1 JUMPDEST DUP2 SLOAD DUP2 MSTORE SWAP1 PUSH1 0x1 ADD SWAP1 PUSH1 0x20 ADD DUP1 DUP4 GT PUSH2 0x3D9 JUMPI DUP3 SWAP1 SUB PUSH1 0x1F AND DUP3 ADD SWAP2 JUMPDEST POP POP POP POP POP SWAP1 POP DUP5 JUMP JUMPDEST PUSH1 0x5 DUP2 DUP2 SLOAD DUP2 LT PUSH2 0x410 JUMPI PUSH1 0x0 DUP1 REVERT JUMPDEST SWAP1 PUSH1 0x0 MSTORE PUSH1 0x20 PUSH1 0x0 KECCAK256 SWAP1 PUSH1 0x2 MUL ADD PUSH1 0x0 SWAP2 POP SWAP1 POP DUP1 PUSH1 0x0 ADD DUP1 SLOAD PUSH2 0x433 SWAP1 PUSH2 0xF64 JUMP JUMPDEST DUP1 PUSH1 0x1F ADD PUSH1 0x20 DUP1 SWAP2 DIV MUL PUSH1 0x20 ADD PUSH1 0x40 MLOAD SWAP1 DUP2 ADD PUSH1 0x40 MSTORE DUP1 SWAP3 SWAP2 SWAP1 DUP2 DUP2 MSTORE PUSH1 0x20 ADD DUP3 DUP1 SLOAD PUSH2 0x45F SWAP1 PUSH2 0xF64 JUMP JUMPDEST DUP1 ISZERO PUSH2 0x4AC JUMPI DUP1 PUSH1 0x1F LT PUSH2 0x481 JUMPI PUSH2 0x100 DUP1 DUP4 SLOAD DIV MUL DUP4 MSTORE SWAP2 PUSH1 0x20 ADD SWAP2 PUSH2 0x4AC JUMP JUMPDEST DUP3 ADD SWAP2 SWAP1 PUSH1 0x0 MSTORE PUSH1 0x20 PUSH1 0x0 KECCAK256 SWAP1 JUMPDEST DUP2 SLOAD DUP2 MSTORE SWAP1 PUSH1 0x1 ADD SWAP1 PUSH1 0x20 ADD DUP1 DUP4 GT PUSH2 0x48F JUMPI DUP3 SWAP1 SUB PUSH1 0x1F AND DUP3 ADD SWAP2 JUMPDEST POP POP POP POP POP SWAP1 DUP1 PUSH1 0x1 ADD SLOAD SWAP1 POP DUP3 JUMP JUMPDEST PUSH1 0x2 DUP2 DUP1 MLOAD PUSH1 0x20 DUP2 ADD DUP3 ADD DUP1 MLOAD DUP5 DUP3 MSTORE PUSH1 0x20 DUP4 ADD PUSH1 0x20 DUP6 ADD KECCAK256 DUP2 DUP4 MSTORE DUP1 SWAP6 POP POP POP POP POP POP PUSH1 0x0 SWAP2 POP SWAP1 POP SLOAD DUP2 JUMP JUMPDEST PUSH1 0x0 PUSH1 0x40 MLOAD DUP1 PUSH1 0x80 ADD PUSH1 0x40 MSTORE DUP1 DUP7 DUP2 MSTORE PUSH1 0x20 ADD DUP6 DUP2 MSTORE PUSH1 0x20 ADD DUP5 DUP2 MSTORE PUSH1 0x20 ADD DUP4 DUP2 MSTORE POP SWAP1 POP PUSH1 0xE DUP2 SWAP1 DUP1 PUSH1 0x1 DUP2 SLOAD ADD DUP1 DUP3 SSTORE DUP1 SWAP2 POP POP PUSH1 0x1 SWAP1 SUB SWAP1 PUSH1 0x0 MSTORE PUSH1 0x20 PUSH1 0x0 KECCAK256 SWAP1 PUSH1 0x4 MUL ADD PUSH1 0x0 SWAP1 SWAP2 SWAP1 SWAP2 SWAP1 SWAP2 POP PUSH1 0x0 DUP3 ADD MLOAD DUP2 PUSH1 0x0 ADD SWAP1 DUP2 PUSH2 0x550 SWAP2 SWAP1 PUSH2 0x1141 JUMP JUMPDEST POP PUSH1 0x20 DUP3 ADD MLOAD DUP2 PUSH1 0x1 ADD SSTORE PUSH1 0x40 DUP3 ADD MLOAD DUP2 PUSH1 0x2 ADD SSTORE PUSH1 0x60 DUP3 ADD MLOAD DUP2 PUSH1 0x3 ADD SWAP1 DUP2 PUSH2 0x57A SWAP2 SWAP1 PUSH2 0x1141 JUMP JUMPDEST POP POP POP DUP2 PUSH1 0xF DUP7 PUSH1 0x40 MLOAD PUSH2 0x58E SWAP2 SWAP1 PUSH2 0x124F JUMP JUMPDEST SWAP1 DUP2 MSTORE PUSH1 0x20 ADD PUSH1 0x40 MLOAD DUP1 SWAP2 SUB SWAP1 KECCAK256 SWAP1 DUP2 PUSH2 0x5A8 SWAP2 SWAP1 PUSH2 0x1141 JUMP JUMPDEST POP POP POP POP POP POP JUMP JUMPDEST PUSH1 0xE DUP2 DUP2 SLOAD DUP2 LT PUSH2 0x5C0 JUMPI PUSH1 0x0 DUP1 REVERT JUMPDEST SWAP1 PUSH1 0x0 MSTORE PUSH1 0x20 PUSH1 0x0 KECCAK256 SWAP1 PUSH1 0x4 MUL ADD PUSH1 0x0 SWAP2 POP SWAP1 POP DUP1 PUSH1 0x0 ADD DUP1 SLOAD PUSH2 0x5E3 SWAP1 PUSH2 0xF64 JUMP JUMPDEST DUP1 PUSH1 0x1F ADD PUSH1 0x20 DUP1 SWAP2 DIV MUL PUSH1 0x20 ADD PUSH1 0x40 MLOAD SWAP1 DUP2 ADD PUSH1 0x40 MSTORE DUP1 SWAP3 SWAP2 SWAP1 DUP2 DUP2 MSTORE PUSH1 0x20 ADD DUP3 DUP1 SLOAD PUSH2 0x60F SWAP1 PUSH2 0xF64 JUMP JUMPDEST DUP1 ISZERO PUSH2 0x65C JUMPI DUP1 PUSH1 0x1F LT PUSH2 0x631 JUMPI PUSH2 0x100 DUP1 DUP4 SLOAD DIV MUL DUP4 MSTORE SWAP2 PUSH1 0x20 ADD SWAP2 PUSH2 0x65C JUMP JUMPDEST DUP3 ADD SWAP2 SWAP1 PUSH1 0x0 MSTORE PUSH1 0x20 PUSH1 0x0 KECCAK256 SWAP1 JUMPDEST DUP2 SLOAD DUP2 MSTORE SWAP1 PUSH1 0x1 ADD SWAP1 PUSH1 0x20 ADD DUP1 DUP4 GT PUSH2 0x63F JUMPI DUP3 SWAP1 SUB PUSH1 0x1F AND DUP3 ADD SWAP2 JUMPDEST POP POP POP POP POP SWAP1 DUP1 PUSH1 0x1 ADD SLOAD SWAP1 DUP1 PUSH1 0x2 ADD SLOAD SWAP1 DUP1 PUSH1 0x3 ADD DUP1 SLOAD PUSH2 0x67D SWAP1 PUSH2 0xF64 JUMP JUMPDEST DUP1 PUSH1 0x1F ADD PUSH1 0x20 DUP1 SWAP2 DIV MUL PUSH1 0x20 ADD PUSH1 0x40 MLOAD SWAP1 DUP2 ADD PUSH1 0x40 MSTORE DUP1 SWAP3 SWAP2 SWAP1 DUP2 DUP2 MSTORE PUSH1 0x20 ADD DUP3 DUP1 SLOAD PUSH2 0x6A9 SWAP1 PUSH2 0xF64 JUMP JUMPDEST DUP1 ISZERO PUSH2 0x6F6 JUMPI DUP1 PUSH1 0x1F LT PUSH2 0x6CB JUMPI PUSH2 0x100 DUP1 DUP4 SLOAD DIV MUL DUP4 MSTORE SWAP2 PUSH1 0x20 ADD SWAP2 PUSH2 0x6F6 JUMP JUMPDEST DUP3 ADD SWAP2 SWAP1 PUSH1 0x0 MSTORE PUSH1 0x20 PUSH1 0x0 KECCAK256 SWAP1 JUMPDEST DUP2 SLOAD DUP2 MSTORE SWAP1 PUSH1 0x1 ADD SWAP1 PUSH1 0x20 ADD DUP1 DUP4 GT PUSH2 0x6D9 JUMPI DUP3 SWAP1 SUB PUSH1 0x1F AND DUP3 ADD SWAP2 JUMPDEST POP POP POP POP POP SWAP1 POP DUP5 JUMP JUMPDEST PUSH1 0x1 DUP2 DUP2 SLOAD DUP2 LT PUSH2 0x710 JUMPI PUSH1 0x0 DUP1 REVERT JUMPDEST SWAP1 PUSH1 0x0 MSTORE PUSH1 0x20 PUSH1 0x0 KECCAK256 SWAP1 PUSH1 0x2 MUL ADD PUSH1 0x0 SWAP2 POP SWAP1 POP DUP1 PUSH1 0x0 ADD DUP1 SLOAD PUSH2 0x733 SWAP1 PUSH2 0xF64 JUMP JUMPDEST DUP1 PUSH1 0x1F ADD PUSH1 0x20 DUP1 SWAP2 DIV MUL PUSH1 0x20 ADD PUSH1 0x40 MLOAD SWAP1 DUP2 ADD PUSH1 0x40 MSTORE DUP1 SWAP3 SWAP2 SWAP1 DUP2 DUP2 MSTORE PUSH1 0x20 ADD DUP3 DUP1 SLOAD PUSH2 0x75F SWAP1 PUSH2 0xF64 JUMP JUMPDEST DUP1 ISZERO PUSH2 0x7AC JUMPI DUP1 PUSH1 0x1F LT PUSH2 0x781 JUMPI PUSH2 0x100 DUP1 DUP4 SLOAD DIV MUL DUP4 MSTORE SWAP2 PUSH1 0x20 ADD SWAP2 PUSH2 0x7AC JUMP JUMPDEST DUP3 ADD SWAP2 SWAP1 PUSH1 0x0 MSTORE PUSH1 0x20 PUSH1 0x0 KECCAK256 SWAP1 JUMPDEST DUP2 SLOAD DUP2 MSTORE SWAP1 PUSH1 0x1 ADD SWAP1 PUSH1 0x20 ADD DUP1 DUP4 GT PUSH2 0x78F JUMPI DUP3 SWAP1 SUB PUSH1 0x1F AND DUP3 ADD SWAP2 JUMPDEST POP POP POP POP POP SWAP1 DUP1 PUSH1 0x1 ADD SLOAD SWAP1 POP DUP3 JUMP JUMPDEST PUSH1 0x0 PUSH1 0x40 MLOAD DUP1 PUSH1 0x40 ADD PUSH1 0x40 MSTORE DUP1 DUP5 DUP2 MSTORE PUSH1 0x20 ADD DUP4 DUP2 MSTORE POP SWAP1 POP PUSH1 0x1 DUP2 SWAP1 DUP1 PUSH1 0x1 DUP2 SLOAD ADD DUP1 DUP3 SSTORE DUP1 SWAP2 POP POP PUSH1 0x1 SWAP1 SUB SWAP1 PUSH1 0x0 MSTORE PUSH1 0x20 PUSH1 0x0 KECCAK256 SWAP1 PUSH1 0x2 MUL ADD PUSH1 0x0 SWAP1 SWAP2 SWAP1 SWAP2 SWAP1 SWAP2 POP PUSH1 0x0 DUP3 ADD MLOAD DUP2 PUSH1 0x0 ADD SWAP1 DUP2 PUSH2 0x816 SWAP2 SWAP1 PUSH2 0x1141 JUMP JUMPDEST POP PUSH1 0x20 DUP3 ADD MLOAD DUP2 PUSH1 0x1 ADD SSTORE POP POP DUP2 PUSH1 0x2 DUP5 PUSH1 0x40 MLOAD PUSH2 0x834 SWAP2 SWAP1 PUSH2 0x124F JUMP JUMPDEST SWAP1 DUP2 MSTORE PUSH1 0x20 ADD PUSH1 0x40 MLOAD DUP1 SWAP2 SUB SWAP1 KECCAK256 DUP2 SWAP1 SSTORE POP POP POP POP JUMP JUMPDEST PUSH1 0x4 DUP2 DUP1 MLOAD PUSH1 0x20 DUP2 ADD DUP3 ADD DUP1 MLOAD DUP5 DUP3 MSTORE PUSH1 0x20 DUP4 ADD PUSH1 0x20 DUP6 ADD KECCAK256 DUP2 DUP4 MSTORE DUP1 SWAP6 POP POP POP POP POP POP PUSH1 0x0 SWAP2 POP SWAP1 POP SLOAD DUP2 JUMP JUMPDEST PUSH1 0xF DUP2 DUP1 MLOAD PUSH1 0x20 DUP2 ADD DUP3 ADD DUP1 MLOAD DUP5 DUP3 MSTORE PUSH1 0x20 DUP4 ADD PUSH1 0x20 DUP6 ADD KECCAK256 DUP2 DUP4 MSTORE DUP1 SWAP6 POP POP POP POP POP POP PUSH1 0x0 SWAP2 POP SWAP1 POP DUP1 SLOAD PUSH2 0x8AE SWAP1 PUSH2 0xF64 JUMP JUMPDEST DUP1 PUSH1 0x1F ADD PUSH1 0x20 DUP1 SWAP2 DIV MUL PUSH1 0x20 ADD PUSH1 0x40 MLOAD SWAP1 DUP2 ADD PUSH1 0x40 MSTORE DUP1 SWAP3 SWAP2 SWAP1 DUP2 DUP2 MSTORE PUSH1 0x20 ADD DUP3 DUP1 SLOAD PUSH2 0x8DA SWAP1 PUSH2 0xF64 JUMP JUMPDEST DUP1 ISZERO PUSH2 0x927 JUMPI DUP1 PUSH1 0x1F LT PUSH2 0x8FC JUMPI PUSH2 0x100 DUP1 DUP4 SLOAD DIV MUL DUP4 MSTORE SWAP2 PUSH1 0x20 ADD SWAP2 PUSH2 0x927 JUMP JUMPDEST DUP3 ADD SWAP2 SWAP1 PUSH1 0x0 MSTORE PUSH1 0x20 PUSH1 0x0 KECCAK256 SWAP1 JUMPDEST DUP2 SLOAD DUP2 MSTORE SWAP1 PUSH1 0x1 ADD SWAP1 PUSH1 0x20 ADD DUP1 DUP4 GT PUSH2 0x90A JUMPI DUP3 SWAP1 SUB PUSH1 0x1F AND DUP3 ADD SWAP2 JUMPDEST POP POP POP POP POP DUP2 JUMP JUMPDEST PUSH1 0xA DUP1 PUSH1 0x0 ADD DUP1 SLOAD PUSH2 0x940 SWAP1 PUSH2 0xF64 JUMP JUMPDEST DUP1 PUSH1 0x1F ADD PUSH1 0x20 DUP1 SWAP2 DIV MUL PUSH1 0x20 ADD PUSH1 0x40 MLOAD SWAP1 DUP2 ADD PUSH1 0x40 MSTORE DUP1 SWAP3 SWAP2 SWAP1 DUP2 DUP2 MSTORE PUSH1 0x20 ADD DUP3 DUP1 SLOAD PUSH2 0x96C SWAP1 PUSH2 0xF64 JUMP JUMPDEST DUP1 ISZERO PUSH2 0x9B9 JUMPI DUP1 PUSH1 0x1F LT PUSH2 0x98E JUMPI PUSH2 0x100 DUP1 DUP4 SLOAD DIV MUL DUP4 MSTORE SWAP2 PUSH1 0x20 ADD SWAP2 PUSH2 0x9B9 JUMP JUMPDEST DUP3 ADD SWAP2 SWAP1 PUSH1 0x0 MSTORE PUSH1 0x20 PUSH1 0x0 KECCAK256 SWAP1 JUMPDEST DUP2 SLOAD DUP2 MSTORE SWAP1 PUSH1 0x1 ADD SWAP1 PUSH1 0x20 ADD DUP1 DUP4 GT PUSH2 0x99C JUMPI DUP3 SWAP1 SUB PUSH1 0x1F AND DUP3 ADD SWAP2 JUMPDEST POP POP POP POP POP SWAP1 DUP1 PUSH1 0x1 ADD SLOAD SWAP1 DUP1 PUSH1 0x2 ADD SLOAD SWAP1 DUP1 PUSH1 0x3 ADD DUP1 SLOAD PUSH2 0x9DA SWAP1 PUSH2 0xF64 JUMP JUMPDEST DUP1 PUSH1 0x1F ADD PUSH1 0x20 DUP1 SWAP2 DIV MUL PUSH1 0x20 ADD PUSH1 0x40 MLOAD SWAP1 DUP2 ADD PUSH1 0x40 MSTORE DUP1 SWAP3 SWAP2 SWAP1 DUP2 DUP2 MSTORE PUSH1 0x20 ADD DUP3 DUP1 SLOAD PUSH2 0xA06 SWAP1 PUSH2 0xF64 JUMP JUMPDEST DUP1 ISZERO PUSH2 0xA53 JUMPI DUP1 PUSH1 0x1F LT PUSH2 0xA28 JUMPI PUSH2 0x100 DUP1 DUP4 SLOAD DIV MUL DUP4 MSTORE SWAP2 PUSH1 0x20 ADD SWAP2 PUSH2 0xA53 JUMP JUMPDEST DUP3 ADD SWAP2 SWAP1 PUSH1 0x0 MSTORE PUSH1 0x20 PUSH1 0x0 KECCAK256 SWAP1 JUMPDEST DUP2 SLOAD DUP2 MSTORE SWAP1 PUSH1 0x1 ADD SWAP1 PUSH1 0x20 ADD DUP1 DUP4 GT PUSH2 0xA36 JUMPI DUP3 SWAP1 SUB PUSH1 0x1F AND DUP3 ADD SWAP2 JUMPDEST POP POP POP POP POP SWAP1 POP DUP5 JUMP JUMPDEST PUSH1 0x5 PUSH1 0x40 MLOAD DUP1 PUSH1 0x40 ADD PUSH1 0x40 MSTORE DUP1 DUP5 DUP2 MSTORE PUSH1 0x20 ADD DUP4 DUP2 MSTORE POP SWAP1 DUP1 PUSH1 0x1 DUP2 SLOAD ADD DUP1 DUP3 SSTORE DUP1 SWAP2 POP POP PUSH1 0x1 SWAP1 SUB SWAP1 PUSH1 0x0 MSTORE PUSH1 0x20 PUSH1 0x0 KECCAK256 SWAP1 PUSH1 0x2 MUL ADD PUSH1 0x0 SWAP1 SWAP2 SWAP1 SWAP2 SWAP1 SWAP2 POP PUSH1 0x0 DUP3 ADD MLOAD DUP2 PUSH1 0x0 ADD SWAP1 DUP2 PUSH2 0xAB2 SWAP2 SWAP1 PUSH2 0x1141 JUMP JUMPDEST POP PUSH1 0x20 DUP3 ADD MLOAD DUP2 PUSH1 0x1 ADD SSTORE POP POP DUP1 PUSH1 0x4 DUP4 PUSH1 0x40 MLOAD PUSH2 0xAD0 SWAP2 SWAP1 PUSH2 0x124F JUMP JUMPDEST SWAP1 DUP2 MSTORE PUSH1 0x20 ADD PUSH1 0x40 MLOAD DUP1 SWAP2 SUB SWAP1 KECCAK256 DUP2 SWAP1 SSTORE POP POP POP JUMP JUMPDEST PUSH1 0x0 PUSH1 0x40 MLOAD SWAP1 POP SWAP1 JUMP JUMPDEST PUSH1 0x0 DUP1 REVERT JUMPDEST PUSH1 0x0 DUP1 REVERT JUMPDEST PUSH1 0x0 DUP1 REVERT JUMPDEST PUSH1 0x0 DUP1 REVERT JUMPDEST PUSH1 0x0 PUSH1 0x1F NOT PUSH1 0x1F DUP4 ADD AND SWAP1 POP SWAP2 SWAP1 POP JUMP JUMPDEST PUSH32 0x4E487B7100000000000000000000000000000000000000000000000000000000 PUSH1 0x0 MSTORE PUSH1 0x41 PUSH1 0x4 MSTORE PUSH1 0x24 PUSH1 0x0 REVERT JUMPDEST PUSH2 0xB4D DUP3 PUSH2 0xB04 JUMP JUMPDEST DUP2 ADD DUP2 DUP2 LT PUSH8 0xFFFFFFFFFFFFFFFF DUP3 GT OR ISZERO PUSH2 0xB6C JUMPI PUSH2 0xB6B PUSH2 0xB15 JUMP JUMPDEST JUMPDEST DUP1 PUSH1 0x40 MSTORE POP POP POP JUMP JUMPDEST PUSH1 0x0 PUSH2 0xB7F PUSH2 0xAE6 JUMP JUMPDEST SWAP1 POP PUSH2 0xB8B DUP3 DUP3 PUSH2 0xB44 JUMP JUMPDEST SWAP2 SWAP1 POP JUMP JUMPDEST PUSH1 0x0 PUSH8 0xFFFFFFFFFFFFFFFF DUP3 GT ISZERO PUSH2 0xBAB JUMPI PUSH2 0xBAA PUSH2 0xB15 JUMP JUMPDEST JUMPDEST PUSH2 0xBB4 DUP3 PUSH2 0xB04 JUMP JUMPDEST SWAP1 POP PUSH1 0x20 DUP2 ADD SWAP1 POP SWAP2 SWAP1 POP JUMP JUMPDEST DUP3 DUP2 DUP4 CALLDATACOPY PUSH1 0x0 DUP4 DUP4 ADD MSTORE POP POP POP JUMP JUMPDEST PUSH1 0x0 PUSH2 0xBE3 PUSH2 0xBDE DUP5 PUSH2 0xB90 JUMP JUMPDEST PUSH2 0xB75 JUMP JUMPDEST SWAP1 POP DUP3 DUP2 MSTORE PUSH1 0x20 DUP2 ADD DUP5 DUP5 DUP5 ADD GT ISZERO PUSH2 0xBFF JUMPI PUSH2 0xBFE PUSH2 0xAFF JUMP JUMPDEST JUMPDEST PUSH2 0xC0A DUP5 DUP3 DUP6 PUSH2 0xBC1 JUMP JUMPDEST POP SWAP4 SWAP3 POP POP POP JUMP JUMPDEST PUSH1 0x0 DUP3 PUSH1 0x1F DUP4 ADD SLT PUSH2 0xC27 JUMPI PUSH2 0xC26 PUSH2 0xAFA JUMP JUMPDEST JUMPDEST DUP2 CALLDATALOAD PUSH2 0xC37 DUP5 DUP3 PUSH1 0x20 DUP7 ADD PUSH2 0xBD0 JUMP JUMPDEST SWAP2 POP POP SWAP3 SWAP2 POP POP JUMP JUMPDEST PUSH1 0x0 PUSH1 0x20 DUP3 DUP5 SUB SLT ISZERO PUSH2 0xC56 JUMPI PUSH2 0xC55 PUSH2 0xAF0 JUMP JUMPDEST JUMPDEST PUSH1 0x0 DUP3 ADD CALLDATALOAD PUSH8 0xFFFFFFFFFFFFFFFF DUP2 GT ISZERO PUSH2 0xC74 JUMPI PUSH2 0xC73 PUSH2 0xAF5 JUMP JUMPDEST JUMPDEST PUSH2 0xC80 DUP5 DUP3 DUP6 ADD PUSH2 0xC12 JUMP JUMPDEST SWAP2 POP POP SWAP3 SWAP2 POP POP JUMP JUMPDEST PUSH1 0x0 DUP2 SWAP1 POP SWAP2 SWAP1 POP JUMP JUMPDEST PUSH2 0xC9C DUP2 PUSH2 0xC89 JUMP JUMPDEST DUP3 MSTORE POP POP JUMP JUMPDEST PUSH1 0x0 PUSH1 0x20 DUP3 ADD SWAP1 POP PUSH2 0xCB7 PUSH1 0x0 DUP4 ADD DUP5 PUSH2 0xC93 JUMP JUMPDEST SWAP3 SWAP2 POP POP JUMP JUMPDEST PUSH1 0x0 DUP2 MLOAD SWAP1 POP SWAP2 SWAP1 POP JUMP JUMPDEST PUSH1 0x0 DUP3 DUP3 MSTORE PUSH1 0x20 DUP3 ADD SWAP1 POP SWAP3 SWAP2 POP POP JUMP JUMPDEST PUSH1 0x0 JUMPDEST DUP4 DUP2 LT ISZERO PUSH2 0xCF7 JUMPI DUP1 DUP3 ADD MLOAD DUP2 DUP5 ADD MSTORE PUSH1 0x20 DUP2 ADD SWAP1 POP PUSH2 0xCDC JUMP JUMPDEST PUSH1 0x0 DUP5 DUP5 ADD MSTORE POP POP POP POP JUMP JUMPDEST PUSH1 0x0 PUSH2 0xD0E DUP3 PUSH2 0xCBD JUMP JUMPDEST PUSH2 0xD18 DUP2 DUP6 PUSH2 0xCC8 JUMP JUMPDEST SWAP4 POP PUSH2 0xD28 DUP2 DUP6 PUSH1 0x20 DUP7 ADD PUSH2 0xCD9 JUMP JUMPDEST PUSH2 0xD31 DUP2 PUSH2 0xB04 JUMP JUMPDEST DUP5 ADD SWAP2 POP POP SWAP3 SWAP2 POP POP JUMP JUMPDEST PUSH1 0x0 PUSH1 0x80 DUP3 ADD SWAP1 POP DUP2 DUP2 SUB PUSH1 0x0 DUP4 ADD MSTORE PUSH2 0xD56 DUP2 DUP8 PUSH2 0xD03 JUMP JUMPDEST SWAP1 POP PUSH2 0xD65 PUSH1 0x20 DUP4 ADD DUP7 PUSH2 0xC93 JUMP JUMPDEST PUSH2 0xD72 PUSH1 0x40 DUP4 ADD DUP6 PUSH2 0xC93 JUMP JUMPDEST DUP2 DUP2 SUB PUSH1 0x60 DUP4 ADD MSTORE PUSH2 0xD84 DUP2 DUP5 PUSH2 0xD03 JUMP JUMPDEST SWAP1 POP SWAP6 SWAP5 POP POP POP POP POP JUMP JUMPDEST PUSH2 0xD98 DUP2 PUSH2 0xC89 JUMP JUMPDEST DUP2 EQ PUSH2 0xDA3 JUMPI PUSH1 0x0 DUP1 REVERT JUMPDEST POP JUMP JUMPDEST PUSH1 0x0 DUP2 CALLDATALOAD SWAP1 POP PUSH2 0xDB5 DUP2 PUSH2 0xD8F JUMP JUMPDEST SWAP3 SWAP2 POP POP JUMP JUMPDEST PUSH1 0x0 PUSH1 0x20 DUP3 DUP5 SUB SLT ISZERO PUSH2 0xDD1 JUMPI PUSH2 0xDD0 PUSH2 0xAF0 JUMP JUMPDEST JUMPDEST PUSH1 0x0 PUSH2 0xDDF DUP5 DUP3 DUP6 ADD PUSH2 0xDA6 JUMP JUMPDEST SWAP2 POP POP SWAP3 SWAP2 POP POP JUMP JUMPDEST PUSH1 0x0 PUSH1 0x40 DUP3 ADD SWAP1 POP DUP2 DUP2 SUB PUSH1 0x0 DUP4 ADD MSTORE PUSH2 0xE02 DUP2 DUP6 PUSH2 0xD03 JUMP JUMPDEST SWAP1 POP PUSH2 0xE11 PUSH1 0x20 DUP4 ADD DUP5 PUSH2 0xC93 JUMP JUMPDEST SWAP4 SWAP3 POP POP POP JUMP JUMPDEST PUSH1 0x0 DUP1 PUSH1 0x0 DUP1 PUSH1 0x80 DUP6 DUP8 SUB SLT ISZERO PUSH2 0xE32 JUMPI PUSH2 0xE31 PUSH2 0xAF0 JUMP JUMPDEST JUMPDEST PUSH1 0x0 DUP6 ADD CALLDATALOAD PUSH8 0xFFFFFFFFFFFFFFFF DUP2 GT ISZERO PUSH2 0xE50 JUMPI PUSH2 0xE4F PUSH2 0xAF5 JUMP JUMPDEST JUMPDEST PUSH2 0xE5C DUP8 DUP3 DUP9 ADD PUSH2 0xC12 JUMP JUMPDEST SWAP5 POP POP PUSH1 0x20 PUSH2 0xE6D DUP8 DUP3 DUP9 ADD PUSH2 0xDA6 JUMP JUMPDEST SWAP4 POP POP PUSH1 0x40 PUSH2 0xE7E DUP8 DUP3 DUP9 ADD PUSH2 0xDA6 JUMP JUMPDEST SWAP3 POP POP PUSH1 0x60 DUP6 ADD CALLDATALOAD PUSH8 0xFFFFFFFFFFFFFFFF DUP2 GT ISZERO PUSH2 0xE9F JUMPI PUSH2 0xE9E PUSH2 0xAF5 JUMP JUMPDEST JUMPDEST PUSH2 0xEAB DUP8 DUP3 DUP9 ADD PUSH2 0xC12 JUMP JUMPDEST SWAP2 POP POP SWAP3 SWAP6 SWAP2 SWAP5 POP SWAP3 POP JUMP JUMPDEST PUSH1 0x0 DUP1 PUSH1 0x40 DUP4 DUP6 SUB SLT ISZERO PUSH2 0xECE JUMPI PUSH2 0xECD PUSH2 0xAF0 JUMP JUMPDEST JUMPDEST PUSH1 0x0 DUP4 ADD CALLDATALOAD PUSH8 0xFFFFFFFFFFFFFFFF DUP2 GT ISZERO PUSH2 0xEEC JUMPI PUSH2 0xEEB PUSH2 0xAF5 JUMP JUMPDEST JUMPDEST PUSH2 0xEF8 DUP6 DUP3 DUP7 ADD PUSH2 0xC12 JUMP JUMPDEST SWAP3 POP POP PUSH1 0x20 PUSH2 0xF09 DUP6 DUP3 DUP7 ADD PUSH2 0xDA6 JUMP JUMPDEST SWAP2 POP POP SWAP3 POP SWAP3 SWAP1 POP JUMP JUMPDEST PUSH1 0x0 PUSH1 0x20 DUP3 ADD SWAP1 POP DUP2 DUP2 SUB PUSH1 0x0 DUP4 ADD MSTORE PUSH2 0xF2D DUP2 DUP5 PUSH2 0xD03 JUMP JUMPDEST SWAP1 POP SWAP3 SWAP2 POP POP JUMP JUMPDEST PUSH32 0x4E487B7100000000000000000000000000000000000000000000000000000000 PUSH1 0x0 MSTORE PUSH1 0x22 PUSH1 0x4 MSTORE PUSH1 0x24 PUSH1 0x0 REVERT JUMPDEST PUSH1 0x0 PUSH1 0x2 DUP3 DIV SWAP1 POP PUSH1 0x1 DUP3 AND DUP1 PUSH2 0xF7C JUMPI PUSH1 0x7F DUP3 AND SWAP2 POP JUMPDEST PUSH1 0x20 DUP3 LT DUP2 SUB PUSH2 0xF8F JUMPI PUSH2 0xF8E PUSH2 0xF35 JUMP JUMPDEST JUMPDEST POP SWAP2 SWAP1 POP JUMP JUMPDEST PUSH1 0x0 DUP2 SWAP1 POP DUP2 PUSH1 0x0 MSTORE PUSH1 0x20 PUSH1 0x0 KECCAK256 SWAP1 POP SWAP2 SWAP1 POP JUMP JUMPDEST PUSH1 0x0 PUSH1 0x20 PUSH1 0x1F DUP4 ADD DIV SWAP1 POP SWAP2 SWAP1 POP JUMP JUMPDEST PUSH1 0x0 DUP3 DUP3 SHL SWAP1 POP SWAP3 SWAP2 POP POP JUMP JUMPDEST PUSH1 0x0 PUSH1 0x8 DUP4 MUL PUSH2 0xFF7 PUSH32 0xFFFFFFFFFFFFFFFFFFFFFFFFFFFFFFFFFFFFFFFFFFFFFFFFFFFFFFFFFFFFFFFF DUP3 PUSH2 0xFBA JUMP JUMPDEST PUSH2 0x1001 DUP7 DUP4 PUSH2 0xFBA JUMP JUMPDEST SWAP6 POP DUP1 NOT DUP5 AND SWAP4 POP DUP1 DUP7 AND DUP5 OR SWAP3 POP POP POP SWAP4 SWAP3 POP POP POP JUMP JUMPDEST PUSH1 0x0 DUP2 SWAP1 POP SWAP2 SWAP1 POP JUMP JUMPDEST PUSH1 0x0 PUSH2 0x103E PUSH2 0x1039 PUSH2 0x1034 DUP5 PUSH2 0xC89 JUMP JUMPDEST PUSH2 0x1019 JUMP JUMPDEST PUSH2 0xC89 JUMP JUMPDEST SWAP1 POP SWAP2 SWAP1 POP JUMP JUMPDEST PUSH1 0x0 DUP2 SWAP1 POP SWAP2 SWAP1 POP JUMP JUMPDEST PUSH2 0x1058 DUP4 PUSH2 0x1023 JUMP JUMPDEST PUSH2 0x106C PUSH2 0x1064 DUP3 PUSH2 0x1045 JUMP JUMPDEST DUP5 DUP5 SLOAD PUSH2 0xFC7 JUMP JUMPDEST DUP3 SSTORE POP POP POP POP JUMP JUMPDEST PUSH1 0x0 SWAP1 JUMP JUMPDEST PUSH2 0x1081 PUSH2 0x1074 JUMP JUMPDEST PUSH2 0x108C DUP2 DUP5 DUP5 PUSH2 0x104F JUMP JUMPDEST POP POP POP JUMP JUMPDEST JUMPDEST DUP2 DUP2 LT ISZERO PUSH2 0x10B0 JUMPI PUSH2 0x10A5 PUSH1 0x0 DUP3 PUSH2 0x1079 JUMP JUMPDEST PUSH1 0x1 DUP2 ADD SWAP1 POP PUSH2 0x1092 JUMP JUMPDEST POP POP JUMP JUMPDEST PUSH1 0x1F DUP3 GT ISZERO PUSH2 0x10F5 JUMPI PUSH2 0x10C6 DUP2 PUSH2 0xF95 JUMP JUMPDEST PUSH2 0x10CF DUP5 PUSH2 0xFAA JUMP JUMPDEST DUP2 ADD PUSH1 0x20 DUP6 LT ISZERO PUSH2 0x10DE JUMPI DUP2 SWAP1 POP JUMPDEST PUSH2 0x10F2 PUSH2 0x10EA DUP6 PUSH2 0xFAA JUMP JUMPDEST DUP4 ADD DUP3 PUSH2 0x1091 JUMP JUMPDEST POP POP JUMPDEST POP POP POP JUMP JUMPDEST PUSH1 0x0 DUP3 DUP3 SHR SWAP1 POP SWAP3 SWAP2 POP POP JUMP JUMPDEST PUSH1 0x0 PUSH2 0x1118 PUSH1 0x0 NOT DUP5 PUSH1 0x8 MUL PUSH2 0x10FA JUMP JUMPDEST NOT DUP1 DUP4 AND SWAP2 POP POP SWAP3 SWAP2 POP POP JUMP JUMPDEST PUSH1 0x0 PUSH2 0x1131 DUP4 DUP4 PUSH2 0x1107 JUMP JUMPDEST SWAP2 POP DUP3 PUSH1 0x2 MUL DUP3 OR SWAP1 POP SWAP3 SWAP2 POP POP JUMP JUMPDEST PUSH2 0x114A DUP3 PUSH2 0xCBD JUMP JUMPDEST PUSH8 0xFFFFFFFFFFFFFFFF DUP2 GT ISZERO PUSH2 0x1163 JUMPI PUSH2 0x1162 PUSH2 0xB15 JUMP JUMPDEST JUMPDEST PUSH2 0x116D DUP3 SLOAD PUSH2 0xF64 JUMP JUMPDEST PUSH2 0x1178 DUP3 DUP3 DUP6 PUSH2 0x10B4 JUMP JUMPDEST PUSH1 0x0 PUSH1 0x20 SWAP1 POP PUSH1 0x1F DUP4 GT PUSH1 0x1 DUP2 EQ PUSH2 0x11AB JUMPI PUSH1 0x0 DUP5 ISZERO PUSH2 0x1199 JUMPI DUP3 DUP8 ADD MLOAD SWAP1 POP JUMPDEST PUSH2 0x11A3 DUP6 DUP3 PUSH2 0x1125 JUMP JUMPDEST DUP7 SSTORE POP PUSH2 0x120B JUMP JUMPDEST PUSH1 0x1F NOT DUP5 AND PUSH2 0x11B9 DUP7 PUSH2 0xF95 JUMP JUMPDEST PUSH1 0x0 JUMPDEST DUP3 DUP2 LT ISZERO PUSH2 0x11E1 JUMPI DUP5 DUP10 ADD MLOAD DUP3 SSTORE PUSH1 0x1 DUP3 ADD SWAP2 POP PUSH1 0x20 DUP6 ADD SWAP5 POP PUSH1 0x20 DUP2 ADD SWAP1 POP PUSH2 0x11BC JUMP JUMPDEST DUP7 DUP4 LT ISZERO PUSH2 0x11FE JUMPI DUP5 DUP10 ADD MLOAD PUSH2 0x11FA PUSH1 0x1F DUP10 AND DUP3 PUSH2 0x1107 JUMP JUMPDEST DUP4 SSTORE POP JUMPDEST PUSH1 0x1 PUSH1 0x2 DUP9 MUL ADD DUP9 SSTORE POP POP POP JUMPDEST POP POP POP POP POP POP JUMP JUMPDEST PUSH1 0x0 DUP2 SWAP1 POP SWAP3 SWAP2 POP POP JUMP JUMPDEST PUSH1 0x0 PUSH2 0x1229 DUP3 PUSH2 0xCBD JUMP JUMPDEST PUSH2 0x1233 DUP2 DUP6 PUSH2 0x1213 JUMP JUMPDEST SWAP4 POP PUSH2 0x1243 DUP2 DUP6 PUSH1 0x20 DUP7 ADD PUSH2 0xCD9 JUMP JUMPDEST DUP1 DUP5 ADD SWAP2 POP POP SWAP3 SWAP2 POP POP JUMP JUMPDEST PUSH1 0x0 PUSH2 0x125B DUP3 DUP5 PUSH2 0x121E JUMP JUMPDEST SWAP2 POP DUP2 SWAP1 POP SWAP3 SWAP2 POP POP JUMP INVALID LOG2 PUSH5 0x6970667358 0x22 SLT KECCAK256 SDIV 0xCC BLOCKHASH LOG4 SDIV PUSH23 0xEC1996BB800F6AD4DB51F0AB92547F9120F4C01459DA84 0xC1 EXTCODECOPY 0xE5 PUSH5 0x736F6C6343 STOP ADDMOD SLT STOP CALLER "
				},
				"gasEstimates": {
					"creation": {
						"codeDepositCost": "952800",
						"executionCost": "infinite",
						"totalCost": "infinite"
					},
					"external": {
						"AddNewMember(string,uint256)": "infinite",
						"AddNewTeam(string,uint256,uint256,string)": "infinite",
						"AddSocials(string,uint256)": "infinite",
						"Chelsea()": "infinite",
						"Rangers()": "infinite",
						"club(uint256)": "infinite",
						"name2FavNumber(string)": "infinite",
						"nameToAge(string)": "infinite",
						"nameToJerseyType(string)": "infinite",
						"nameToYearMaps(string)": "infinite",
						"socialMedia(uint256)": "infinite",
						"teams(uint256)": "infinite"
					}
				},
				"methodIdentifiers": {
					"AddNewMember(string,uint256)": "e4fa60a6",
					"AddNewTeam(string,uint256,uint256,string)": "35784ef1",
					"AddSocials(string,uint256)": "6546e787",
					"Chelsea()": "d8ad175f",
					"Rangers()": "1f92c704",
					"club(uint256)": "22c8b94e",
					"name2FavNumber(string)": "0f957756",
					"nameToAge(string)": "90c3ee4d",
					"nameToJerseyType(string)": "93090c21",
					"nameToYearMaps(string)": "273e2cc4",
					"socialMedia(uint256)": "554d5de7",
					"teams(uint256)": "3ed2b77a"
				}
			},
			"storageLayout": {
				"storage": [
					{
						"astId": 101,
						"contract": "contracts/storage.sol:Adds",
						"label": "name2FavNumber",
						"offset": 0,
						"slot": "0",
						"type": "t_mapping(t_string_memory_ptr,t_uint256)"
					},
					{
						"astId": 110,
						"contract": "contracts/storage.sol:Adds",
						"label": "socialMedia",
						"offset": 0,
						"slot": "1",
						"type": "t_array(t_struct(Socials)106_storage)dyn_storage"
					},
					{
						"astId": 114,
						"contract": "contracts/storage.sol:Adds",
						"label": "nameToYearMaps",
						"offset": 0,
						"slot": "2",
						"type": "t_mapping(t_string_memory_ptr,t_uint256)"
					},
					{
						"astId": 145,
						"contract": "contracts/storage.sol:Adds",
						"label": "numbers",
						"offset": 0,
						"slot": "3",
						"type": "t_uint256"
					},
					{
						"astId": 154,
						"contract": "contracts/storage.sol:Adds",
						"label": "nameToAge",
						"offset": 0,
						"slot": "4",
						"type": "t_mapping(t_string_memory_ptr,t_uint256)"
					},
					{
						"astId": 158,
						"contract": "contracts/storage.sol:Adds",
						"label": "club",
						"offset": 0,
						"slot": "5",
						"type": "t_array(t_struct(ClubMembers)150_storage)dyn_storage"
					},
					{
						"astId": 199,
						"contract": "contracts/storage.sol:Adds",
						"label": "Rangers",
						"offset": 0,
						"slot": "6",
						"type": "t_struct(footballTeam)190_storage"
					},
					{
						"astId": 208,
						"contract": "contracts/storage.sol:Adds",
						"label": "Chelsea",
						"offset": 0,
						"slot": "10",
						"type": "t_struct(footballTeam)190_storage"
					},
					{
						"astId": 212,
						"contract": "contracts/storage.sol:Adds",
						"label": "teams",
						"offset": 0,
						"slot": "14",
						"type": "t_array(t_struct(footballTeam)190_storage)dyn_storage"
					},
					{
						"astId": 216,
						"contract": "contracts/storage.sol:Adds",
						"label": "nameToJerseyType",
						"offset": 0,
						"slot": "15",
						"type": "t_mapping(t_string_memory_ptr,t_string_storage)"
					}
				],
				"types": {
					"t_array(t_struct(ClubMembers)150_storage)dyn_storage": {
						"base": "t_struct(ClubMembers)150_storage",
						"encoding": "dynamic_array",
						"label": "struct Adds.ClubMembers[]",
						"numberOfBytes": "32"
					},
					"t_array(t_struct(Socials)106_storage)dyn_storage": {
						"base": "t_struct(Socials)106_storage",
						"encoding": "dynamic_array",
						"label": "struct Adds.Socials[]",
						"numberOfBytes": "32"
					},
					"t_array(t_struct(footballTeam)190_storage)dyn_storage": {
						"base": "t_struct(footballTeam)190_storage",
						"encoding": "dynamic_array",
						"label": "struct Adds.footballTeam[]",
						"numberOfBytes": "32"
					},
					"t_mapping(t_string_memory_ptr,t_string_storage)": {
						"encoding": "mapping",
						"key": "t_string_memory_ptr",
						"label": "mapping(string => string)",
						"numberOfBytes": "32",
						"value": "t_string_storage"
					},
					"t_mapping(t_string_memory_ptr,t_uint256)": {
						"encoding": "mapping",
						"key": "t_string_memory_ptr",
						"label": "mapping(string => uint256)",
						"numberOfBytes": "32",
						"value": "t_uint256"
					},
					"t_string_memory_ptr": {
						"encoding": "bytes",
						"label": "string",
						"numberOfBytes": "32"
					},
					"t_string_storage": {
						"encoding": "bytes",
						"label": "string",
						"numberOfBytes": "32"
					},
					"t_struct(ClubMembers)150_storage": {
						"encoding": "inplace",
						"label": "struct Adds.ClubMembers",
						"members": [
							{
								"astId": 147,
								"contract": "contracts/storage.sol:Adds",
								"label": "name",
								"offset": 0,
								"slot": "0",
								"type": "t_string_storage"
							},
							{
								"astId": 149,
								"contract": "contracts/storage.sol:Adds",
								"label": "age",
								"offset": 0,
								"slot": "1",
								"type": "t_uint256"
							}
						],
						"numberOfBytes": "64"
					},
					"t_struct(Socials)106_storage": {
						"encoding": "inplace",
						"label": "struct Adds.Socials",
						"members": [
							{
								"astId": 103,
								"contract": "contracts/storage.sol:Adds",
								"label": "name",
								"offset": 0,
								"slot": "0",
								"type": "t_string_storage"
							},
							{
								"astId": 105,
								"contract": "contracts/storage.sol:Adds",
								"label": "year",
								"offset": 0,
								"slot": "1",
								"type": "t_uint256"
							}
						],
						"numberOfBytes": "64"
					},
					"t_struct(footballTeam)190_storage": {
						"encoding": "inplace",
						"label": "struct Adds.footballTeam",
						"members": [
							{
								"astId": 183,
								"contract": "contracts/storage.sol:Adds",
								"label": "name",
								"offset": 0,
								"slot": "0",
								"type": "t_string_storage"
							},
							{
								"astId": 185,
								"contract": "contracts/storage.sol:Adds",
								"label": "numberOfPLayers",
								"offset": 0,
								"slot": "1",
								"type": "t_uint256"
							},
							{
								"astId": 187,
								"contract": "contracts/storage.sol:Adds",
								"label": "averageAge",
								"offset": 0,
								"slot": "2",
								"type": "t_uint256"
							},
							{
								"astId": 189,
								"contract": "contracts/storage.sol:Adds",
								"label": "jerseyType",
								"offset": 0,
								"slot": "3",
								"type": "t_string_storage"
							}
						],
						"numberOfBytes": "128"
					},
					"t_uint256": {
						"encoding": "inplace",
						"label": "uint256",
						"numberOfBytes": "32"
					}
				}
			},
			"userdoc": {
				"kind": "user",
				"methods": {},
				"version": 1
			}
		}
	}
}