{
	"data": {
		"bytecode": {
			"linkReferences": {},
			"object": "608060405234801561001057600080fd5b50610bc1806100206000396000f3fe608060405234801561001057600080fd5b506004361061004c5760003560e01c8063246628fa1461005157806360288ea31461006d5780638c1ae5d1146100895780639e7a13ad146100ba575b600080fd5b61006b6004803603810190610066919061062f565b6100ee565b005b610087600480360381019061008291906106fe565b61019f565b005b6100a3600480360381019061009e919061075a565b610205565b6040516100b1929190610815565b60405180910390f35b6100d460048036038101906100cf919061075a565b6102c1565b6040516100e5959493929190610845565b60405180910390f35b60006040518060a0016040528087815260200186815260200185815260200184815260200183815250908060018154018082558091505060019003906000526020600020906005020160009091909190915060008201518160000190816101559190610ab9565b506020820151816001015560408201518160020190816101759190610ab9565b50606082015181600301908161018b9190610ab9565b506080820151816004015550505050505050565b6001604051806040016040528084815260200183815250908060018154018082558091505060019003906000526020600020906002020160009091909190915060008201518160000190816101f49190610ab9565b506020820151816001015550505050565b6001818154811061021557600080fd5b9060005260206000209060020201600091509050806000018054610238906108dc565b80601f0160208091040260200160405190810160405280929190818152602001828054610264906108dc565b80156102b15780601f10610286576101008083540402835291602001916102b1565b820191906000526020600020905b81548152906001019060200180831161029457829003601f168201915b5050505050908060010154905082565b600081815481106102d157600080fd5b90600052602060002090600502016000915090508060000180546102f4906108dc565b80601f0160208091040260200160405190810160405280929190818152602001828054610320906108dc565b801561036d5780601f106103425761010080835404028352916020019161036d565b820191906000526020600020905b81548152906001019060200180831161035057829003601f168201915b505050505090806001015490806002018054610388906108dc565b80601f01602080910402602001604051908101604052809291908181526020018280546103b4906108dc565b80156104015780601f106103d657610100808354040283529160200191610401565b820191906000526020600020905b8154815290600101906020018083116103e457829003601f168201915b505050505090806003018054610416906108dc565b80601f0160208091040260200160405190810160405280929190818152602001828054610442906108dc565b801561048f5780601f106104645761010080835404028352916020019161048f565b820191906000526020600020905b81548152906001019060200180831161047257829003601f168201915b5050505050908060040154905085565b6000604051905090565b600080fd5b600080fd5b600080fd5b600080fd5b6000601f19601f8301169050919050565b7f4e487b7100000000000000000000000000000000000000000000000000000000600052604160045260246000fd5b610506826104bd565b810181811067ffffffffffffffff82111715610525576105246104ce565b5b80604052505050565b600061053861049f565b905061054482826104fd565b919050565b600067ffffffffffffffff821115610564576105636104ce565b5b61056d826104bd565b9050602081019050919050565b82818337600083830152505050565b600061059c61059784610549565b61052e565b9050828152602081018484840111156105b8576105b76104b8565b5b6105c384828561057a565b509392505050565b600082601f8301126105e0576105df6104b3565b5b81356105f0848260208601610589565b91505092915050565b6000819050919050565b61060c816105f9565b811461061757600080fd5b50565b60008135905061062981610603565b92915050565b600080600080600060a0868803121561064b5761064a6104a9565b5b600086013567ffffffffffffffff811115610669576106686104ae565b5b610675888289016105cb565b95505060206106868882890161061a565b945050604086013567ffffffffffffffff8111156106a7576106a66104ae565b5b6106b3888289016105cb565b935050606086013567ffffffffffffffff8111156106d4576106d36104ae565b5b6106e0888289016105cb565b92505060806106f18882890161061a565b9150509295509295909350565b60008060408385031215610715576107146104a9565b5b600083013567ffffffffffffffff811115610733576107326104ae565b5b61073f858286016105cb565b92505060206107508582860161061a565b9150509250929050565b6000602082840312156107705761076f6104a9565b5b600061077e8482850161061a565b91505092915050565b600081519050919050565b600082825260208201905092915050565b60005b838110156107c15780820151818401526020810190506107a6565b60008484015250505050565b60006107d882610787565b6107e28185610792565b93506107f28185602086016107a3565b6107fb816104bd565b840191505092915050565b61080f816105f9565b82525050565b6000604082019050818103600083015261082f81856107cd565b905061083e6020830184610806565b9392505050565b600060a082019050818103600083015261085f81886107cd565b905061086e6020830187610806565b818103604083015261088081866107cd565b9050818103606083015261089481856107cd565b90506108a36080830184610806565b9695505050505050565b7f4e487b7100000000000000000000000000000000000000000000000000000000600052602260045260246000fd5b600060028204905060018216806108f457607f821691505b602082108103610907576109066108ad565b5b50919050565b60008190508160005260206000209050919050565b60006020601f8301049050919050565b600082821b905092915050565b60006008830261096f7fffffffffffffffffffffffffffffffffffffffffffffffffffffffffffffffff82610932565b6109798683610932565b95508019841693508086168417925050509392505050565b6000819050919050565b60006109b66109b16109ac846105f9565b610991565b6105f9565b9050919050565b6000819050919050565b6109d08361099b565b6109e46109dc826109bd565b84845461093f565b825550505050565b600090565b6109f96109ec565b610a048184846109c7565b505050565b5b81811015610a2857610a1d6000826109f1565b600181019050610a0a565b5050565b601f821115610a6d57610a3e8161090d565b610a4784610922565b81016020851015610a56578190505b610a6a610a6285610922565b830182610a09565b50505b505050565b600082821c905092915050565b6000610a9060001984600802610a72565b1980831691505092915050565b6000610aa98383610a7f565b9150826002028217905092915050565b610ac282610787565b67ffffffffffffffff811115610adb57610ada6104ce565b5b610ae582546108dc565b610af0828285610a2c565b600060209050601f831160018114610b235760008415610b11578287015190505b610b1b8582610a9d565b865550610b83565b601f198416610b318661090d565b60005b82811015610b5957848901518255600182019150602085019450602081019050610b34565b86831015610b765784890151610b72601f891682610a7f565b8355505b6001600288020188555050505b50505050505056fea2646970667358221220a474f5167d20701f5d6704e84d265a21892381a7b51974134e0375ca68ba8f4f64736f6c63430008120033",
			"opcodes": "PUSH1 0x80 PUSH1 0x40 MSTORE CALLVALUE DUP1 ISZERO PUSH2 0x10 JUMPI PUSH1 0x0 DUP1 REVERT JUMPDEST POP PUSH2 0xBC1 DUP1 PUSH2 0x20 PUSH1 0x0 CODECOPY PUSH1 0x0 RETURN INVALID PUSH1 0x80 PUSH1 0x40 MSTORE CALLVALUE DUP1 ISZERO PUSH2 0x10 JUMPI PUSH1 0x0 DUP1 REVERT JUMPDEST POP PUSH1 0x4 CALLDATASIZE LT PUSH2 0x4C JUMPI PUSH1 0x0 CALLDATALOAD PUSH1 0xE0 SHR DUP1 PUSH4 0x246628FA EQ PUSH2 0x51 JUMPI DUP1 PUSH4 0x60288EA3 EQ PUSH2 0x6D JUMPI DUP1 PUSH4 0x8C1AE5D1 EQ PUSH2 0x89 JUMPI DUP1 PUSH4 0x9E7A13AD EQ PUSH2 0xBA JUMPI JUMPDEST PUSH1 0x0 DUP1 REVERT JUMPDEST PUSH2 0x6B PUSH1 0x4 DUP1 CALLDATASIZE SUB DUP2 ADD SWAP1 PUSH2 0x66 SWAP2 SWAP1 PUSH2 0x62F JUMP JUMPDEST PUSH2 0xEE JUMP JUMPDEST STOP JUMPDEST PUSH2 0x87 PUSH1 0x4 DUP1 CALLDATASIZE SUB DUP2 ADD SWAP1 PUSH2 0x82 SWAP2 SWAP1 PUSH2 0x6FE JUMP JUMPDEST PUSH2 0x19F JUMP JUMPDEST STOP JUMPDEST PUSH2 0xA3 PUSH1 0x4 DUP1 CALLDATASIZE SUB DUP2 ADD SWAP1 PUSH2 0x9E SWAP2 SWAP1 PUSH2 0x75A JUMP JUMPDEST PUSH2 0x205 JUMP JUMPDEST PUSH1 0x40 MLOAD PUSH2 0xB1 SWAP3 SWAP2 SWAP1 PUSH2 0x815 JUMP JUMPDEST PUSH1 0x40 MLOAD DUP1 SWAP2 SUB SWAP1 RETURN JUMPDEST PUSH2 0xD4 PUSH1 0x4 DUP1 CALLDATASIZE SUB DUP2 ADD SWAP1 PUSH2 0xCF SWAP2 SWAP1 PUSH2 0x75A JUMP JUMPDEST PUSH2 0x2C1 JUMP JUMPDEST PUSH1 0x40 MLOAD PUSH2 0xE5 SWAP6 SWAP5 SWAP4 SWAP3 SWAP2 SWAP1 PUSH2 0x845 JUMP JUMPDEST PUSH1 0x40 MLOAD DUP1 SWAP2 SUB SWAP1 RETURN JUMPDEST PUSH1 0x0 PUSH1 0x40 MLOAD DUP1 PUSH1 0xA0 ADD PUSH1 0x40 MSTORE DUP1 DUP8 DUP2 MSTORE PUSH1 0x20 ADD DUP7 DUP2 MSTORE PUSH1 0x20 ADD DUP6 DUP2 MSTORE PUSH1 0x20 ADD DUP5 DUP2 MSTORE PUSH1 0x20 ADD DUP4 DUP2 MSTORE POP SWAP1 DUP1 PUSH1 0x1 DUP2 SLOAD ADD DUP1 DUP3 SSTORE DUP1 SWAP2 POP POP PUSH1 0x1 SWAP1 SUB SWAP1 PUSH1 0x0 MSTORE PUSH1 0x20 PUSH1 0x0 KECCAK256 SWAP1 PUSH1 0x5 MUL ADD PUSH1 0x0 SWAP1 SWAP2 SWAP1 SWAP2 SWAP1 SWAP2 POP PUSH1 0x0 DUP3 ADD MLOAD DUP2 PUSH1 0x0 ADD SWAP1 DUP2 PUSH2 0x155 SWAP2 SWAP1 PUSH2 0xAB9 JUMP JUMPDEST POP PUSH1 0x20 DUP3 ADD MLOAD DUP2 PUSH1 0x1 ADD SSTORE PUSH1 0x40 DUP3 ADD MLOAD DUP2 PUSH1 0x2 ADD SWAP1 DUP2 PUSH2 0x175 SWAP2 SWAP1 PUSH2 0xAB9 JUMP JUMPDEST POP PUSH1 0x60 DUP3 ADD MLOAD DUP2 PUSH1 0x3 ADD SWAP1 DUP2 PUSH2 0x18B SWAP2 SWAP1 PUSH2 0xAB9 JUMP JUMPDEST POP PUSH1 0x80 DUP3 ADD MLOAD DUP2 PUSH1 0x4 ADD SSTORE POP POP POP POP POP POP POP JUMP JUMPDEST PUSH1 0x1 PUSH1 0x40 MLOAD DUP1 PUSH1 0x40 ADD PUSH1 0x40 MSTORE DUP1 DUP5 DUP2 MSTORE PUSH1 0x20 ADD DUP4 DUP2 MSTORE POP SWAP1 DUP1 PUSH1 0x1 DUP2 SLOAD ADD DUP1 DUP3 SSTORE DUP1 SWAP2 POP POP PUSH1 0x1 SWAP1 SUB SWAP1 PUSH1 0x0 MSTORE PUSH1 0x20 PUSH1 0x0 KECCAK256 SWAP1 PUSH1 0x2 MUL ADD PUSH1 0x0 SWAP1 SWAP2 SWAP1 SWAP2 SWAP1 SWAP2 POP PUSH1 0x0 DUP3 ADD MLOAD DUP2 PUSH1 0x0 ADD SWAP1 DUP2 PUSH2 0x1F4 SWAP2 SWAP1 PUSH2 0xAB9 JUMP JUMPDEST POP PUSH1 0x20 DUP3 ADD MLOAD DUP2 PUSH1 0x1 ADD SSTORE POP POP POP POP JUMP JUMPDEST PUSH1 0x1 DUP2 DUP2 SLOAD DUP2 LT PUSH2 0x215 JUMPI PUSH1 0x0 DUP1 REVERT JUMPDEST SWAP1 PUSH1 0x0 MSTORE PUSH1 0x20 PUSH1 0x0 KECCAK256 SWAP1 PUSH1 0x2 MUL ADD PUSH1 0x0 SWAP2 POP SWAP1 POP DUP1 PUSH1 0x0 ADD DUP1 SLOAD PUSH2 0x238 SWAP1 PUSH2 0x8DC JUMP JUMPDEST DUP1 PUSH1 0x1F ADD PUSH1 0x20 DUP1 SWAP2 DIV MUL PUSH1 0x20 ADD PUSH1 0x40 MLOAD SWAP1 DUP2 ADD PUSH1 0x40 MSTORE DUP1 SWAP3 SWAP2 SWAP1 DUP2 DUP2 MSTORE PUSH1 0x20 ADD DUP3 DUP1 SLOAD PUSH2 0x264 SWAP1 PUSH2 0x8DC JUMP JUMPDEST DUP1 ISZERO PUSH2 0x2B1 JUMPI DUP1 PUSH1 0x1F LT PUSH2 0x286 JUMPI PUSH2 0x100 DUP1 DUP4 SLOAD DIV MUL DUP4 MSTORE SWAP2 PUSH1 0x20 ADD SWAP2 PUSH2 0x2B1 JUMP JUMPDEST DUP3 ADD SWAP2 SWAP1 PUSH1 0x0 MSTORE PUSH1 0x20 PUSH1 0x0 KECCAK256 SWAP1 JUMPDEST DUP2 SLOAD DUP2 MSTORE SWAP1 PUSH1 0x1 ADD SWAP1 PUSH1 0x20 ADD DUP1 DUP4 GT PUSH2 0x294 JUMPI DUP3 SWAP1 SUB PUSH1 0x1F AND DUP3 ADD SWAP2 JUMPDEST POP POP POP POP POP SWAP1 DUP1 PUSH1 0x1 ADD SLOAD SWAP1 POP DUP3 JUMP JUMPDEST PUSH1 0x0 DUP2 DUP2 SLOAD DUP2 LT PUSH2 0x2D1 JUMPI PUSH1 0x0 DUP1 REVERT JUMPDEST SWAP1 PUSH1 0x0 MSTORE PUSH1 0x20 PUSH1 0x0 KECCAK256 SWAP1 PUSH1 0x5 MUL ADD PUSH1 0x0 SWAP2 POP SWAP1 POP DUP1 PUSH1 0x0 ADD DUP1 SLOAD PUSH2 0x2F4 SWAP1 PUSH2 0x8DC JUMP JUMPDEST DUP1 PUSH1 0x1F ADD PUSH1 0x20 DUP1 SWAP2 DIV MUL PUSH1 0x20 ADD PUSH1 0x40 MLOAD SWAP1 DUP2 ADD PUSH1 0x40 MSTORE DUP1 SWAP3 SWAP2 SWAP1 DUP2 DUP2 MSTORE PUSH1 0x20 ADD DUP3 DUP1 SLOAD PUSH2 0x320 SWAP1 PUSH2 0x8DC JUMP JUMPDEST DUP1 ISZERO PUSH2 0x36D JUMPI DUP1 PUSH1 0x1F LT PUSH2 0x342 JUMPI PUSH2 0x100 DUP1 DUP4 SLOAD DIV MUL DUP4 MSTORE SWAP2 PUSH1 0x20 ADD SWAP2 PUSH2 0x36D JUMP JUMPDEST DUP3 ADD SWAP2 SWAP1 PUSH1 0x0 MSTORE PUSH1 0x20 PUSH1 0x0 KECCAK256 SWAP1 JUMPDEST DUP2 SLOAD DUP2 MSTORE SWAP1 PUSH1 0x1 ADD SWAP1 PUSH1 0x20 ADD DUP1 DUP4 GT PUSH2 0x350 JUMPI DUP3 SWAP1 SUB PUSH1 0x1F AND DUP3 ADD SWAP2 JUMPDEST POP POP POP POP POP SWAP1 DUP1 PUSH1 0x1 ADD SLOAD SWAP1 DUP1 PUSH1 0x2 ADD DUP1 SLOAD PUSH2 0x388 SWAP1 PUSH2 0x8DC JUMP JUMPDEST DUP1 PUSH1 0x1F ADD PUSH1 0x20 DUP1 SWAP2 DIV MUL PUSH1 0x20 ADD PUSH1 0x40 MLOAD SWAP1 DUP2 ADD PUSH1 0x40 MSTORE DUP1 SWAP3 SWAP2 SWAP1 DUP2 DUP2 MSTORE PUSH1 0x20 ADD DUP3 DUP1 SLOAD PUSH2 0x3B4 SWAP1 PUSH2 0x8DC JUMP JUMPDEST DUP1 ISZERO PUSH2 0x401 JUMPI DUP1 PUSH1 0x1F LT PUSH2 0x3D6 JUMPI PUSH2 0x100 DUP1 DUP4 SLOAD DIV MUL DUP4 MSTORE SWAP2 PUSH1 0x20 ADD SWAP2 PUSH2 0x401 JUMP JUMPDEST DUP3 ADD SWAP2 SWAP1 PUSH1 0x0 MSTORE PUSH1 0x20 PUSH1 0x0 KECCAK256 SWAP1 JUMPDEST DUP2 SLOAD DUP2 MSTORE SWAP1 PUSH1 0x1 ADD SWAP1 PUSH1 0x20 ADD DUP1 DUP4 GT PUSH2 0x3E4 JUMPI DUP3 SWAP1 SUB PUSH1 0x1F AND DUP3 ADD SWAP2 JUMPDEST POP POP POP POP POP SWAP1 DUP1 PUSH1 0x3 ADD DUP1 SLOAD PUSH2 0x416 SWAP1 PUSH2 0x8DC JUMP JUMPDEST DUP1 PUSH1 0x1F ADD PUSH1 0x20 DUP1 SWAP2 DIV MUL PUSH1 0x20 ADD PUSH1 0x40 MLOAD SWAP1 DUP2 ADD PUSH1 0x40 MSTORE DUP1 SWAP3 SWAP2 SWAP1 DUP2 DUP2 MSTORE PUSH1 0x20 ADD DUP3 DUP1 SLOAD PUSH2 0x442 SWAP1 PUSH2 0x8DC JUMP JUMPDEST DUP1 ISZERO PUSH2 0x48F JUMPI DUP1 PUSH1 0x1F LT PUSH2 0x464 JUMPI PUSH2 0x100 DUP1 DUP4 SLOAD DIV MUL DUP4 MSTORE SWAP2 PUSH1 0x20 ADD SWAP2 PUSH2 0x48F JUMP JUMPDEST DUP3 ADD SWAP2 SWAP1 PUSH1 0x0 MSTORE PUSH1 0x20 PUSH1 0x0 KECCAK256 SWAP1 JUMPDEST DUP2 SLOAD DUP2 MSTORE SWAP1 PUSH1 0x1 ADD SWAP1 PUSH1 0x20 ADD DUP1 DUP4 GT PUSH2 0x472 JUMPI DUP3 SWAP1 SUB PUSH1 0x1F AND DUP3 ADD SWAP2 JUMPDEST POP POP POP POP POP SWAP1 DUP1 PUSH1 0x4 ADD SLOAD SWAP1 POP DUP6 JUMP JUMPDEST PUSH1 0x0 PUSH1 0x40 MLOAD SWAP1 POP SWAP1 JUMP JUMPDEST PUSH1 0x0 DUP1 REVERT JUMPDEST PUSH1 0x0 DUP1 REVERT JUMPDEST PUSH1 0x0 DUP1 REVERT JUMPDEST PUSH1 0x0 DUP1 REVERT JUMPDEST PUSH1 0x0 PUSH1 0x1F NOT PUSH1 0x1F DUP4 ADD AND SWAP1 POP SWAP2 SWAP1 POP JUMP JUMPDEST PUSH32 0x4E487B7100000000000000000000000000000000000000000000000000000000 PUSH1 0x0 MSTORE PUSH1 0x41 PUSH1 0x4 MSTORE PUSH1 0x24 PUSH1 0x0 REVERT JUMPDEST PUSH2 0x506 DUP3 PUSH2 0x4BD JUMP JUMPDEST DUP2 ADD DUP2 DUP2 LT PUSH8 0xFFFFFFFFFFFFFFFF DUP3 GT OR ISZERO PUSH2 0x525 JUMPI PUSH2 0x524 PUSH2 0x4CE JUMP JUMPDEST JUMPDEST DUP1 PUSH1 0x40 MSTORE POP POP POP JUMP JUMPDEST PUSH1 0x0 PUSH2 0x538 PUSH2 0x49F JUMP JUMPDEST SWAP1 POP PUSH2 0x544 DUP3 DUP3 PUSH2 0x4FD JUMP JUMPDEST SWAP2 SWAP1 POP JUMP JUMPDEST PUSH1 0x0 PUSH8 0xFFFFFFFFFFFFFFFF DUP3 GT ISZERO PUSH2 0x564 JUMPI PUSH2 0x563 PUSH2 0x4CE JUMP JUMPDEST JUMPDEST PUSH2 0x56D DUP3 PUSH2 0x4BD JUMP JUMPDEST SWAP1 POP PUSH1 0x20 DUP2 ADD SWAP1 POP SWAP2 SWAP1 POP JUMP JUMPDEST DUP3 DUP2 DUP4 CALLDATACOPY PUSH1 0x0 DUP4 DUP4 ADD MSTORE POP POP POP JUMP JUMPDEST PUSH1 0x0 PUSH2 0x59C PUSH2 0x597 DUP5 PUSH2 0x549 JUMP JUMPDEST PUSH2 0x52E JUMP JUMPDEST SWAP1 POP DUP3 DUP2 MSTORE PUSH1 0x20 DUP2 ADD DUP5 DUP5 DUP5 ADD GT ISZERO PUSH2 0x5B8 JUMPI PUSH2 0x5B7 PUSH2 0x4B8 JUMP JUMPDEST JUMPDEST PUSH2 0x5C3 DUP5 DUP3 DUP6 PUSH2 0x57A JUMP JUMPDEST POP SWAP4 SWAP3 POP POP POP JUMP JUMPDEST PUSH1 0x0 DUP3 PUSH1 0x1F DUP4 ADD SLT PUSH2 0x5E0 JUMPI PUSH2 0x5DF PUSH2 0x4B3 JUMP JUMPDEST JUMPDEST DUP2 CALLDATALOAD PUSH2 0x5F0 DUP5 DUP3 PUSH1 0x20 DUP7 ADD PUSH2 0x589 JUMP JUMPDEST SWAP2 POP POP SWAP3 SWAP2 POP POP JUMP JUMPDEST PUSH1 0x0 DUP2 SWAP1 POP SWAP2 SWAP1 POP JUMP JUMPDEST PUSH2 0x60C DUP2 PUSH2 0x5F9 JUMP JUMPDEST DUP2 EQ PUSH2 0x617 JUMPI PUSH1 0x0 DUP1 REVERT JUMPDEST POP JUMP JUMPDEST PUSH1 0x0 DUP2 CALLDATALOAD SWAP1 POP PUSH2 0x629 DUP2 PUSH2 0x603 JUMP JUMPDEST SWAP3 SWAP2 POP POP JUMP JUMPDEST PUSH1 0x0 DUP1 PUSH1 0x0 DUP1 PUSH1 0x0 PUSH1 0xA0 DUP7 DUP9 SUB SLT ISZERO PUSH2 0x64B JUMPI PUSH2 0x64A PUSH2 0x4A9 JUMP JUMPDEST JUMPDEST PUSH1 0x0 DUP7 ADD CALLDATALOAD PUSH8 0xFFFFFFFFFFFFFFFF DUP2 GT ISZERO PUSH2 0x669 JUMPI PUSH2 0x668 PUSH2 0x4AE JUMP JUMPDEST JUMPDEST PUSH2 0x675 DUP9 DUP3 DUP10 ADD PUSH2 0x5CB JUMP JUMPDEST SWAP6 POP POP PUSH1 0x20 PUSH2 0x686 DUP9 DUP3 DUP10 ADD PUSH2 0x61A JUMP JUMPDEST SWAP5 POP POP PUSH1 0x40 DUP7 ADD CALLDATALOAD PUSH8 0xFFFFFFFFFFFFFFFF DUP2 GT ISZERO PUSH2 0x6A7 JUMPI PUSH2 0x6A6 PUSH2 0x4AE JUMP JUMPDEST JUMPDEST PUSH2 0x6B3 DUP9 DUP3 DUP10 ADD PUSH2 0x5CB JUMP JUMPDEST SWAP4 POP POP PUSH1 0x60 DUP7 ADD CALLDATALOAD PUSH8 0xFFFFFFFFFFFFFFFF DUP2 GT ISZERO PUSH2 0x6D4 JUMPI PUSH2 0x6D3 PUSH2 0x4AE JUMP JUMPDEST JUMPDEST PUSH2 0x6E0 DUP9 DUP3 DUP10 ADD PUSH2 0x5CB JUMP JUMPDEST SWAP3 POP POP PUSH1 0x80 PUSH2 0x6F1 DUP9 DUP3 DUP10 ADD PUSH2 0x61A JUMP JUMPDEST SWAP2 POP POP SWAP3 SWAP6 POP SWAP3 SWAP6 SWAP1 SWAP4 POP JUMP JUMPDEST PUSH1 0x0 DUP1 PUSH1 0x40 DUP4 DUP6 SUB SLT ISZERO PUSH2 0x715 JUMPI PUSH2 0x714 PUSH2 0x4A9 JUMP JUMPDEST JUMPDEST PUSH1 0x0 DUP4 ADD CALLDATALOAD PUSH8 0xFFFFFFFFFFFFFFFF DUP2 GT ISZERO PUSH2 0x733 JUMPI PUSH2 0x732 PUSH2 0x4AE JUMP JUMPDEST JUMPDEST PUSH2 0x73F DUP6 DUP3 DUP7 ADD PUSH2 0x5CB JUMP JUMPDEST SWAP3 POP POP PUSH1 0x20 PUSH2 0x750 DUP6 DUP3 DUP7 ADD PUSH2 0x61A JUMP JUMPDEST SWAP2 POP POP SWAP3 POP SWAP3 SWAP1 POP JUMP JUMPDEST PUSH1 0x0 PUSH1 0x20 DUP3 DUP5 SUB SLT ISZERO PUSH2 0x770 JUMPI PUSH2 0x76F PUSH2 0x4A9 JUMP JUMPDEST JUMPDEST PUSH1 0x0 PUSH2 0x77E DUP5 DUP3 DUP6 ADD PUSH2 0x61A JUMP JUMPDEST SWAP2 POP POP SWAP3 SWAP2 POP POP JUMP JUMPDEST PUSH1 0x0 DUP2 MLOAD SWAP1 POP SWAP2 SWAP1 POP JUMP JUMPDEST PUSH1 0x0 DUP3 DUP3 MSTORE PUSH1 0x20 DUP3 ADD SWAP1 POP SWAP3 SWAP2 POP POP JUMP JUMPDEST PUSH1 0x0 JUMPDEST DUP4 DUP2 LT ISZERO PUSH2 0x7C1 JUMPI DUP1 DUP3 ADD MLOAD DUP2 DUP5 ADD MSTORE PUSH1 0x20 DUP2 ADD SWAP1 POP PUSH2 0x7A6 JUMP JUMPDEST PUSH1 0x0 DUP5 DUP5 ADD MSTORE POP POP POP POP JUMP JUMPDEST PUSH1 0x0 PUSH2 0x7D8 DUP3 PUSH2 0x787 JUMP JUMPDEST PUSH2 0x7E2 DUP2 DUP6 PUSH2 0x792 JUMP JUMPDEST SWAP4 POP PUSH2 0x7F2 DUP2 DUP6 PUSH1 0x20 DUP7 ADD PUSH2 0x7A3 JUMP JUMPDEST PUSH2 0x7FB DUP2 PUSH2 0x4BD JUMP JUMPDEST DUP5 ADD SWAP2 POP POP SWAP3 SWAP2 POP POP JUMP JUMPDEST PUSH2 0x80F DUP2 PUSH2 0x5F9 JUMP JUMPDEST DUP3 MSTORE POP POP JUMP JUMPDEST PUSH1 0x0 PUSH1 0x40 DUP3 ADD SWAP1 POP DUP2 DUP2 SUB PUSH1 0x0 DUP4 ADD MSTORE PUSH2 0x82F DUP2 DUP6 PUSH2 0x7CD JUMP JUMPDEST SWAP1 POP PUSH2 0x83E PUSH1 0x20 DUP4 ADD DUP5 PUSH2 0x806 JUMP JUMPDEST SWAP4 SWAP3 POP POP POP JUMP JUMPDEST PUSH1 0x0 PUSH1 0xA0 DUP3 ADD SWAP1 POP DUP2 DUP2 SUB PUSH1 0x0 DUP4 ADD MSTORE PUSH2 0x85F DUP2 DUP9 PUSH2 0x7CD JUMP JUMPDEST SWAP1 POP PUSH2 0x86E PUSH1 0x20 DUP4 ADD DUP8 PUSH2 0x806 JUMP JUMPDEST DUP2 DUP2 SUB PUSH1 0x40 DUP4 ADD MSTORE PUSH2 0x880 DUP2 DUP7 PUSH2 0x7CD JUMP JUMPDEST SWAP1 POP DUP2 DUP2 SUB PUSH1 0x60 DUP4 ADD MSTORE PUSH2 0x894 DUP2 DUP6 PUSH2 0x7CD JUMP JUMPDEST SWAP1 POP PUSH2 0x8A3 PUSH1 0x80 DUP4 ADD DUP5 PUSH2 0x806 JUMP JUMPDEST SWAP7 SWAP6 POP POP POP POP POP POP JUMP JUMPDEST PUSH32 0x4E487B7100000000000000000000000000000000000000000000000000000000 PUSH1 0x0 MSTORE PUSH1 0x22 PUSH1 0x4 MSTORE PUSH1 0x24 PUSH1 0x0 REVERT JUMPDEST PUSH1 0x0 PUSH1 0x2 DUP3 DIV SWAP1 POP PUSH1 0x1 DUP3 AND DUP1 PUSH2 0x8F4 JUMPI PUSH1 0x7F DUP3 AND SWAP2 POP JUMPDEST PUSH1 0x20 DUP3 LT DUP2 SUB PUSH2 0x907 JUMPI PUSH2 0x906 PUSH2 0x8AD JUMP JUMPDEST JUMPDEST POP SWAP2 SWAP1 POP JUMP JUMPDEST PUSH1 0x0 DUP2 SWAP1 POP DUP2 PUSH1 0x0 MSTORE PUSH1 0x20 PUSH1 0x0 KECCAK256 SWAP1 POP SWAP2 SWAP1 POP JUMP JUMPDEST PUSH1 0x0 PUSH1 0x20 PUSH1 0x1F DUP4 ADD DIV SWAP1 POP SWAP2 SWAP1 POP JUMP JUMPDEST PUSH1 0x0 DUP3 DUP3 SHL SWAP1 POP SWAP3 SWAP2 POP POP JUMP JUMPDEST PUSH1 0x0 PUSH1 0x8 DUP4 MUL PUSH2 0x96F PUSH32 0xFFFFFFFFFFFFFFFFFFFFFFFFFFFFFFFFFFFFFFFFFFFFFFFFFFFFFFFFFFFFFFFF DUP3 PUSH2 0x932 JUMP JUMPDEST PUSH2 0x979 DUP7 DUP4 PUSH2 0x932 JUMP JUMPDEST SWAP6 POP DUP1 NOT DUP5 AND SWAP4 POP DUP1 DUP7 AND DUP5 OR SWAP3 POP POP POP SWAP4 SWAP3 POP POP POP JUMP JUMPDEST PUSH1 0x0 DUP2 SWAP1 POP SWAP2 SWAP1 POP JUMP JUMPDEST PUSH1 0x0 PUSH2 0x9B6 PUSH2 0x9B1 PUSH2 0x9AC DUP5 PUSH2 0x5F9 JUMP JUMPDEST PUSH2 0x991 JUMP JUMPDEST PUSH2 0x5F9 JUMP JUMPDEST SWAP1 POP SWAP2 SWAP1 POP JUMP JUMPDEST PUSH1 0x0 DUP2 SWAP1 POP SWAP2 SWAP1 POP JUMP JUMPDEST PUSH2 0x9D0 DUP4 PUSH2 0x99B JUMP JUMPDEST PUSH2 0x9E4 PUSH2 0x9DC DUP3 PUSH2 0x9BD JUMP JUMPDEST DUP5 DUP5 SLOAD PUSH2 0x93F JUMP JUMPDEST DUP3 SSTORE POP POP POP POP JUMP JUMPDEST PUSH1 0x0 SWAP1 JUMP JUMPDEST PUSH2 0x9F9 PUSH2 0x9EC JUMP JUMPDEST PUSH2 0xA04 DUP2 DUP5 DUP5 PUSH2 0x9C7 JUMP JUMPDEST POP POP POP JUMP JUMPDEST JUMPDEST DUP2 DUP2 LT ISZERO PUSH2 0xA28 JUMPI PUSH2 0xA1D PUSH1 0x0 DUP3 PUSH2 0x9F1 JUMP JUMPDEST PUSH1 0x1 DUP2 ADD SWAP1 POP PUSH2 0xA0A JUMP JUMPDEST POP POP JUMP JUMPDEST PUSH1 0x1F DUP3 GT ISZERO PUSH2 0xA6D JUMPI PUSH2 0xA3E DUP2 PUSH2 0x90D JUMP JUMPDEST PUSH2 0xA47 DUP5 PUSH2 0x922 JUMP JUMPDEST DUP2 ADD PUSH1 0x20 DUP6 LT ISZERO PUSH2 0xA56 JUMPI DUP2 SWAP1 POP JUMPDEST PUSH2 0xA6A PUSH2 0xA62 DUP6 PUSH2 0x922 JUMP JUMPDEST DUP4 ADD DUP3 PUSH2 0xA09 JUMP JUMPDEST POP POP JUMPDEST POP POP POP JUMP JUMPDEST PUSH1 0x0 DUP3 DUP3 SHR SWAP1 POP SWAP3 SWAP2 POP POP JUMP JUMPDEST PUSH1 0x0 PUSH2 0xA90 PUSH1 0x0 NOT DUP5 PUSH1 0x8 MUL PUSH2 0xA72 JUMP JUMPDEST NOT DUP1 DUP4 AND SWAP2 POP POP SWAP3 SWAP2 POP POP JUMP JUMPDEST PUSH1 0x0 PUSH2 0xAA9 DUP4 DUP4 PUSH2 0xA7F JUMP JUMPDEST SWAP2 POP DUP3 PUSH1 0x2 MUL DUP3 OR SWAP1 POP SWAP3 SWAP2 POP POP JUMP JUMPDEST PUSH2 0xAC2 DUP3 PUSH2 0x787 JUMP JUMPDEST PUSH8 0xFFFFFFFFFFFFFFFF DUP2 GT ISZERO PUSH2 0xADB JUMPI PUSH2 0xADA PUSH2 0x4CE JUMP JUMPDEST JUMPDEST PUSH2 0xAE5 DUP3 SLOAD PUSH2 0x8DC JUMP JUMPDEST PUSH2 0xAF0 DUP3 DUP3 DUP6 PUSH2 0xA2C JUMP JUMPDEST PUSH1 0x0 PUSH1 0x20 SWAP1 POP PUSH1 0x1F DUP4 GT PUSH1 0x1 DUP2 EQ PUSH2 0xB23 JUMPI PUSH1 0x0 DUP5 ISZERO PUSH2 0xB11 JUMPI DUP3 DUP8 ADD MLOAD SWAP1 POP JUMPDEST PUSH2 0xB1B DUP6 DUP3 PUSH2 0xA9D JUMP JUMPDEST DUP7 SSTORE POP PUSH2 0xB83 JUMP JUMPDEST PUSH1 0x1F NOT DUP5 AND PUSH2 0xB31 DUP7 PUSH2 0x90D JUMP JUMPDEST PUSH1 0x0 JUMPDEST DUP3 DUP2 LT ISZERO PUSH2 0xB59 JUMPI DUP5 DUP10 ADD MLOAD DUP3 SSTORE PUSH1 0x1 DUP3 ADD SWAP2 POP PUSH1 0x20 DUP6 ADD SWAP5 POP PUSH1 0x20 DUP2 ADD SWAP1 POP PUSH2 0xB34 JUMP JUMPDEST DUP7 DUP4 LT ISZERO PUSH2 0xB76 JUMPI DUP5 DUP10 ADD MLOAD PUSH2 0xB72 PUSH1 0x1F DUP10 AND DUP3 PUSH2 0xA7F JUMP JUMPDEST DUP4 SSTORE POP JUMPDEST PUSH1 0x1 PUSH1 0x2 DUP9 MUL ADD DUP9 SSTORE POP POP POP JUMPDEST POP POP POP POP POP POP JUMP INVALID LOG2 PUSH5 0x6970667358 0x22 SLT KECCAK256 LOG4 PUSH21 0xF5167D20701F5D6704E84D265A21892381A7B51974 SGT 0x4E SUB PUSH22 0xCA68BA8F4F64736F6C63430008120033000000000000 "
		},
		"gasEstimates": {
			"creation": {
				"codeDepositCost": "601800",
				"executionCost": "638",
				"totalCost": "602438"
			},
			"external": {
				"AddPeople(string,uint256,string,string,uint256)": "infinite",
				"AddShifts(string,uint256)": "infinite",
				"people(uint256)": "infinite",
				"shift(uint256)": "infinite"
			}
		},
		"methodIdentifiers": {
			"AddPeople(string,uint256,string,string,uint256)": "246628fa",
			"AddShifts(string,uint256)": "60288ea3",
			"people(uint256)": "9e7a13ad",
			"shift(uint256)": "8c1ae5d1"
		}
	},
	"abi": [
		{
			"inputs": [
				{
					"internalType": "string",
					"name": "_name",
					"type": "string"
				},
				{
					"internalType": "uint256",
					"name": "_age",
					"type": "uint256"
				},
				{
					"internalType": "string",
					"name": "_dob",
					"type": "string"
				},
				{
					"internalType": "string",
					"name": "_location",
					"type": "string"
				},
				{
					"internalType": "uint256",
					"name": "_phone",
					"type": "uint256"
				}
			],
			"name": "AddPeople",
			"outputs": [],
			"stateMutability": "nonpayable",
			"type": "function"
		},
		{
			"inputs": [
				{
					"internalType": "string",
					"name": "_name",
					"type": "string"
				},
				{
					"internalType": "uint256",
					"name": "_favNumber",
					"type": "uint256"
				}
			],
			"name": "AddShifts",
			"outputs": [],
			"stateMutability": "nonpayable",
			"type": "function"
		},
		{
			"inputs": [
				{
					"internalType": "uint256",
					"name": "",
					"type": "uint256"
				}
			],
			"name": "people",
			"outputs": [
				{
					"internalType": "string",
					"name": "name",
					"type": "string"
				},
				{
					"internalType": "uint256",
					"name": "age",
					"type": "uint256"
				},
				{
					"internalType": "string",
					"name": "dob",
					"type": "string"
				},
				{
					"internalType": "string",
					"name": "location",
					"type": "string"
				},
				{
					"internalType": "uint256",
					"name": "phone",
					"type": "uint256"
				}
			],
			"stateMutability": "view",
			"type": "function"
		},
		{
			"inputs": [
				{
					"internalType": "uint256",
					"name": "",
					"type": "uint256"
				}
			],
			"name": "shift",
			"outputs": [
				{
					"internalType": "string",
					"name": "name",
					"type": "string"
				},
				{
					"internalType": "uint256",
					"name": "time",
					"type": "uint256"
				}
			],
			"stateMutability": "view",
			"type": "function"
		}
	]
}